:100000000C94BC1F0C94ED1F0C94ED1F0C94ED1F71
:100010000C94ED1F0C94ED1F0C94ED1F0C94ED1F30
:100020000C94ED1F0C94ED1F0C94ED1F0C94ED1F20
:100030000C94ED1F0C9459560C94ED1F0C94ED1F6D
:100040000C94ED1F0C94275C0C94ED1F0C94ED1F89
:100050000C94ED1F0C94ED1F0C9489E40C94549EA9
:100060000C94ED1F0C94DE4B0C94ED1F0C94ED1FC3
:100070000C94ED1F0C94ED1F0C94ED1F0C94ED1FD0
:100080000C94ED1F0C94ED1F0C94ED1F0C94ED1FC0
:100090000C94ED1F0C94ED1F0C94ED1F0C94ED1FB0
:1000A0000C94ED1F0C94ED1F0C94ED1F0C94ED1FA0
:1000B0000C94ED1F0C94ED1F0C94ED1F0C94ED1F90
:1000C0000C94ED1F0C94ED1F0C94ED1F0C94ED1F80
:1000D0000C94ED1F0C94ED1F0C94ED1F0C94ED1F70
:1000E0000C94ED1FED55F055DF55E355E9552756B6
:1000F000F455F855FE55025606560C561056145631
:1001000027561A561E562256B284BB84C284C8840F
:10011000CE84D484DE84E484709D759D7A9D849D14
:100120008E9D079E989DA09DA89DB29DBC9DC69D3D
:10013000D59DDF9D079EE99DF39DFD9DDEE4EEE4E8
:100140000DE51DE538E53DE540E545E548E54DE5CE
:1001500050E555E55FE5084AD73B3BCE016E84BCD0
:10016000BFFDC12F3D6C74319ABD56833DDA3D0011
:10017000C77F11BED9E4BB4C3E916BAAAABE00005A
:1001800000803F05A84CCDB2D44EB93836A9020C38
:1001900050B9918688083CA6AAAA2ABE0000008011
:1001A0003F0047322F4733206261642070617261E3
:1001B0006D65746572730A00536C6565702E2E2E22
:1001C0000059206F7574206F662072616E6765201C
:1001D00028312D33292E0A0058206F7574206F6640
:1001E0002072616E67652028312D33292E0A004761
:1001F0003238004D6573682070726F62696E6720D7
:10020000646F6E652E0A005374617274206D65739D
:10021000682070726F62696E672077697468202247
:10022000473239205331222066697273742E0A00D6
:100230004732380A473239205332002020000A4D15
:100240006561737572656420706F696E74733A0AC4
:10025000005A206F66667365743A20005A207365F1
:1002600061726368206865696768743A20340A00BF
:100270000A4E756D20582C593A20332C330A0053FE
:10028000746174653A20004D65736820626564206E
:100290006C6576656C696E67206E6F74206163743F
:1002A0006976652E0A0053206F7574206F66207280
:1002B000616E67652028302D35292E0A0046696C4D
:1002C000652064656C657465643A0044656C6574AA
:1002D000696F6E206661696C65642C2046696C6587
:1002E0003A20006F70656E206661696C65642C2031
:1002F00046696C653A200048656174696E672E2E08
:100300002E004475706C696361746F7220362072C0
:10031000656164792E004B494C4C45442E200048C1
:10032000656174696E6720646F6E652E003F0A0018
:1003300020573A0048656174696E672E2E2E00447E
:1003400075706C696361746F7220362072656164C8
:10035000792E0042656420646F6E652E003F0A00AE
:1003600020573A004265642048656174696E672EC3
:10037000004D31343520533C696E6465783E206F02
:100380007574206F662072616E67652028302D318C
:10039000290A0020643A0020693A0020703A0020BF
:1003A000643A0020693A0020703A0043290A00614B
:1003B000626C656420286D696E2074656D70200024
:1003C000436F6C6420657874727564657320617224
:1003D0006520004B64200023646566696E652020FB
:1003E00044454641554C545F004B692000236465E9
:1003F00066696E65202044454641554C545F004B6C
:1004000070200023646566696E652020444546417E
:10041000554C545F00504944204175746F74756E9B
:10042000652066696E697368656421205075742063
:10043000746865206C617374204B702C204B6920AC
:10044000616E64204B6420636F6E7374616E7473AD
:100450002066726F6D2062656C6F7720696E746FB5
:1004600020436F6E66696775726174696F6E2E687E
:100470000A00504944204175746F74756E6520669A
:1004800061696C6564212074696D656F75740A001B
:10049000504944204175746F74756E6520666169BA
:1004A0006C6564212054656D706572617475726548
:1004B00020746F6F20686967680A00204B643A20D7
:1004C00000204B693A2000204B703A20000A20435C
:1004D0006C617373696320504944200A002054758D
:1004E0003A2000204B753A2000206D61783A2000B8
:1004F000206D696E3A200020643A20002062696114
:10050000733A20004D34323120726571756972651D
:10051000732058595A206F7220494A5A20706172CC
:10052000616D65746572730A004D65736820585972
:10053000206F7220494A2063616E6E6F742062657D
:10054000207265736F6C7665640A004D6573682070
:100550005859206F7220494A2063616E6E6F742073
:100560006265207265736F6C7665640A004F66661B
:1005700073657473206170706C6965640045727294
:100580003A20546F6F206661722100546F6F2066AD
:1005900061722066726F6D207265666572656E634A
:1005A0006520706F696E740A004D36303020486FD8
:1005B00074656E6420746F6F20636F6C6420746F59
:1005C000206368616E67652066696C616D656E7435
:1005D0000A006F6E0A006F66660A00436173652049
:1005E0006C6967687473200041637469766520459F
:1005F000787472756465723A2000556E6B6E6F7711
:100600006E20636F6D6D616E643A20220025697300
:100610000025696D20256973002569682025696DAD
:100620002025697300256964202569682025696D86
:10063000202569730025697920256964202569686A
:100640002025696D20256973004E6F204C696E6509
:10065000204E756D626572207769746820636865E5
:10066000636B73756D2C204C617374204C696E65DF
:100670003A20004B494C4C45442E200053544F50D7
:100680005045442E20005072696E74657220737458
:100690006F707065642064756520746F2065727278
:1006A0006F72732E204669782074686520657272B7
:1006B0006F7220616E6420757365204D3939392061
:1006C000746F20726573746172742E202854656D86
:1006D00070657261747572652069732072657365E7
:1006E000742E2053657420697420616674657220CD
:1006F00072657374617274696E67290A004E6F20A7
:10070000436865636B73756D2077697468206C69E5
:100710006E65206E756D6265722C204C617374205D
:100720004C696E653A2000636865636B73756D2074
:100730006D69736D617463682C204C617374204C17
:10074000696E653A20004C696E65204E756D626574
:1007500072206973206E6F74204C617374204C6931
:100760006E65204E756D6265722B312C204C617365
:1007700074204C696E653A20004D313130004D33A4
:1007800031004D383420582059205A204500534418
:100790002072656164206572726F720A00446F6E28
:1007A00065207072696E74696E672066696C650A8F
:1007B0000020496E76616C69642065787472756496
:1007C00065722000000048430000484300002A43AF
:1007D000000000000000000000000000436172649F
:1007E0002072656D6F766564004361726420696E86
:1007F0007365727465640000060900FE06018902D3
:10080000FE20FFFE07FE06FE0000000600070106B0
:100810000606020080808080008003030306010337
:10082000A0A0A00507070600FF5050F850F8505050
:100830000509090600FE2070A8A07028A8702006EF
:1008400008080600FF40A84810204854080507077C
:100850000600FF6090906098906801030306020311
:100860008080800207070602FF40808080808040F1
:100870000207070602FF8040404040408005050512
:100880000600008850F85088050505060000202065
:10089000F820200204040602FEC040408005010149
:1008A000060002F8020202060200C0C004060606A4
:1008B00001001010204080800406060601006090B0
:1008C0009090906003060606010040C0404040E062
:1008D0000406060601006090102040F0040606069B
:1008E0000100F020601010E0050606060000103040
:1008F0005090F810040606060100F080E01010E0A9
:100900000406060601006080E0909060040606067A
:100910000100F0101020404004060606010060901F
:100920006090906004060606010060909070106070
:10093000020505060200C0C000C0C002070706028B
:10094000FEC0C000C04040800505050600001860DC
:10095000806018050303060001F800F80505050688
:100960000000C0300830C004070706010060901086
:10097000604000400506060600007090A8B0807038
:10098000050606060000205088F888880506060639
:100990000000F088F08888F00406060601006090E8
:1009A00080809060040606060100E090909090E040
:1009B000040606060100F080E08080F004060606CA
:1009C0000100F080E080808004060606010060904F
:1009D00080B090600406060601009090F090909020
:1009E000030606060100E040404040E0050606061A
:1009F000000038101010906004060606010090A058
:100A0000C0A090900406060601008080808080F0DF
:100A100005060606000088D8A8A8888804060606E9
:100A2000010090D0B09090900506060600007088F6
:100A300088888870040606060100E09090E08080B7
:100A40000407070601FF609090D0B060100406060E
:100A5000060100E09090E090900406060601006018
:100A60009040209060050606060000F82020202017
:100A700020040606060100909090909060040606FF
:100A8000060100909090F060600506060600008860
:100A900088A8A8D88805060606000088502020509F
:100AA00088050606060000888850202020040606D7
:100AB000060100F010204080F0030606060100E069
:100AC00080808080E00406060601008080402010BF
:100AD00010030606060100E020202020E0050303A5
:100AE0000600032050880501010600FEF8020202FC
:100AF0000602048040040404060100709090700413
:100B000006060601008080E09090E00404040601DF
:100B1000007080807004060606010010107090902E
:100B20007004040406010060B0C0700406060601EB
:100B300000205040E040400406060601FE60909010
:100B40007010600406060601008080E0909090031B
:100B500006060601004000C04040E0030808060108
:100B6000FE200060202020A0400406060601008030
:100B700080A0C0A090030606060100C0404040408F
:100B8000E0050404060000D0A8A8880404040601B7
:100B900000E09090900404040601006090906004CE
:100BA00006060601FEE09090E0808004060606013D
:100BB000FE709090701010040404060100A0D08014
:100BC0008004040406010070C030E004060606013B
:100BD000004040E040502004040406010090909042
:100BE000700404040601009090606005040406008F
:100BF0000088A8A8500404040601009060609004D6
:100C000006060601FE9090907090600404040601B0
:100C100000F02040F003070706010020404080401C
:100C200040200107070602FF8080808080808003CB
:100C30000707060100804040204040800402020671
:100C4000010350A0FFFFFFFFFFFFFFFFFFFFFFFFBC
:100C5000FFFFFFFFFFFFFFFFFFFFFFFFFFFFFFFFA4
:100C6000FFFFFFFFFF000000060007010606060267
:100C7000008000808080800406060601FF2070A0AE
:100C8000A070200507070600FF304840F04040F8FC
:100C9000050505060000A8508850A80506060600B0
:100CA000008850F820F8200107070602FF808080A6
:100CB000008080800407070601FF7080609060104C
:100CC000E0030101060105A006070706000078847D
:100CD00094A494847803050506010160A06000E0F7
:100CE0000505050600002850A0502804030306014E
:100CF00000F01010040101060102F00607070600CB
:100D0000007884B4A4A48478040101060105F004E9
:100D100003030601026090600507070600FF20201C
:100D2000F8202000F803050506010140A02040E05E
:100D3000030505060101C0204020C0020202060290
:100D40000440800405050601FF9090B0D0800506A0
:100D50000606000078E8E86828280101010602027A
:100D6000800202020602FE408003050506010140E2
:100D7000C04040E003050506010140A04000E00539
:100D80000505060000A0502850A00508080600FF31
:100D900040C04050703078100508080600FF40C081
:100DA0004050680810380508080600FFC020403091
:100DB000F0307810040707060100200020608090C2
:100DC000600507070600004020205070888805074E
:100DD00007060000102020507088880507070600CD
:100DE0000020502050708888050707060000285012
:100DF00020507088880507070600005000205070BA
:100E00008888050707060000205020507088880554
:100E1000060606000078A0F0A0A0B80408080601A5
:100E2000FE6090808090602040040707060100402B
:100E300020F080E080F00407070601002040F080E9
:100E4000E080F00407070601002050F080E080F009
:100E50000407070601005000F080E080F003070758
:100E60000601008040E0404040E003070706010023
:100E70002040E0404040E003070706010040A0E0BA
:100E8000404040E0030707060100A000E04040406A
:100E9000E00506060600007048E8484870040707A9
:100EA00006010050A090D0B0909004070706010002
:100EB0004020609090906004070706010020406089
:100EC0009090906004070706010020506090909079
:100ED0006004070706010050A0609090906004072E
:100EE000070601005000609090906005050506001F
:100EF0000088502050880408080601FF1070B0B028
:100F0000D0D0E08004070706010040209090909028
:100F1000600407070601002040909090906004074D
:100F2000070601002050909090906004070706018A
:100F30000050009090909060050707060000102078
:100F4000885020202004060606010080E09090E0F2
:100F5000800406060601006090A0A090A004070788
:100F60000601004020007090907004070706010001
:100F70002040007090907004070706010020500088
:100F80007090907004070706010050A000709090C8
:100F90007004060606010050007090907004070768
:100FA0000601002050207090907005040406000097
:100FB00070A8B0780406060601FE7080807020409C
:100FC00004070706010040200060B0C07004070756
:100FD00006010020400060B0C07004070706010051
:100FE00020500060B0C0700406060601005000608A
:100FF000B0C070030707060100804000C04040E019
:10100000030707060100204000C04040E003070737
:1010100006010040A000C04040E0030606060100B3
:10102000A000C04040E004070706010030601070D7
:1010300090906004070706010050A000E090909097
:101040000407070601004020006090906004070735
:101050000601002040006090906004070706010030
:101060002050006090906004070706010050A00027
:101070006090906004060606010050006090906049
:101080000505050600002000F80020040404060100
:101090000070B0D0E00407070601004020009090E7
:1010A00090700407070601002040009090907004A3
:1010B0000707060100205000909090700406060675
:1010C00001005000909090700409090601FE204034
:1010D000009090907090600408080601FE8080E007
:1010E0009090E080800408080601FE5000909090E7
:1010F00070906000002100240027002A002D00309D
:1011000000330001010000040107010A0100002270
:1011100000250028002B002E0031003400020100C1
:1011200000050108010B0100002000230026002912
:10113000002C002F0032000001000003010601090D
:101140000105050505070508080808020202020A4C
:101150000A0808040404040101010101010101035A
:1011600003030303030303040707070C0C0C0C0C15
:101170000C0C0C0202020206060606060606060B08
:101180000B0B0B0B0B0B0B0102102020080810207F
:101190004010204080020102010804020101020403
:1011A00008102040808040201008040201800402C2
:1011B0000180402010080402010804020101020419
:1011C0000810204080010204081020408000000A1E
:1011D0000B02090C0D0E08070304010000000000BB
:1011E00000000000000000000000000000000000FF
:1011F00000000000000000000012111000000000BC
:1012000000000000000000000000000000000000DE
:10121000000000024B494C4C45442E2000202D205C
:10122000496E76616C696420657874727564657264
:10123000206E756D62657220210A002020506C615D
:101240006E6E657242756666657242797465733A50
:1012500020002046726565204D656D6F72793A20D9
:1012600000436F6D70696C65643A204665622020AA
:101270003420323031370A00207C20417574686F89
:10128000723A2028646F745F626F622C2064656616
:1012900061756C7420636F6E666967290A0032306D
:1012A00031362D31322D30362031323A3030002077
:1012B0004C61737420557064617465643A20003128
:1012C0002E312E302D5243380A004D61726C696EFA
:1012D0000020536F66747761726520526573657480
:1012E0000A00205761746368646F672052657365F4
:1012F000740A002042726F776E206F7574205265F9
:101300007365740A002045787465726E616C2052B2
:10131000657365740A00506F77657255700A0073C3
:10132000746172740A006572726F722077726974E8
:10133000696E6720746F2066696C650A00456E648B
:1013400073746F7073202563202563202563202527
:101350006300205A3A0020593A0020583A00656E3E
:101360006473746F7073206869743A2000446F6E00
:101370006520736176696E672066696C652E0A0068
:101380004D32390024F4D43050C38E20C2A240170D
:10139000828B7011127A910D816CD90AA861E108D3
:1013A000C7586607615143061E4B5D05C145A7043A
:1013B0001A411104093D9803713931034036DB02AB
:1013C00065339102D4305402802E1D02632CEE014D
:1013D000752AC501B028A001102781018F2564015D
:1013E0002B244B01E0223401AC211F018D200D0183
:1013F000801FFC00841EED00971DDF00B81CD2008A
:10140000E61BC600201BBC00641AB200B219A8007B
:101410000A19A0006A189900D117910040178B0093
:10142000B516840031167E00B31579003A157300A5
:10143000C7146F0058146A00EE1366008813630027
:1014400025135E00C7125B006C1257001512540082
:10145000C111510070114F0021114B00D6104900ED
:101460008D1047004610440002104200C00F40009B
:10147000800F3E00420F3C00060F3B00CB0E3800B1
:10148000930E37005C0E3500270E3400F30D32004A
:10149000C10D3100900D3000600D2E00320D2D0079
:1014A000050D2C00D90C2B00AE0C2900850C290051
:1014B0005C0C2700350C27000E0C2600E80B2400DE
:1014C000C40B2400A00B23007D0B23005A0B21002A
:1014D000390B2100180B2000F80A1F00D90A1E0042
:1014E000BB0A1E009D0A1D00800A1D00630A1C0025
:1014F000470A1B002C0A1B00110A1A00F7091A00E0
:10150000DD091900C4091900AB0919009209170077
:101510007B091800630917004C09160036091600EC
:10152000200916000A091500F5081500E008140046
:10153000CC081400B8081400A40814009008130084
:101540007D0812006B0813005808120046081200AC
:1015500034081100230811001208110001081100BD
:10156000F0071000E0071000D0071000C0071000BF
:10157000B0070F00A107100091070E0083070F00AE
:1015800074070F0065070E0057070E0049070E008D
:101590003B070D002E070E0020070D0013070D005E
:1015A00006070D00F9060C00ED060D00E0060C0024
:1015B000D4060C00C8060C00BC060C00B0060C00DB
:1015C000A4060B0099060C008D060B0082060B008A
:1015D00077060B006C060B0061060A0057060B002D
:1015E0004C060A0042060A0038060A002E060A00C7
:1015F00024060A001A060A001006090007060A0057
:10160000FD050900F4050900EB050900E2050900E4
:10161000D9050900D0050900C7050900BE05090064
:10162000B5050800AD050800A50509009C050800E2
:10163000940508008C050800840508007C05080056
:10164000740508006C050700650508005D050700C6
:10165000560508004E05070047050700400508002D
:1016600038050700310507002A0507002305070094
:101670001C050600160507000F05070008050600F3
:1016800002050700FB040600F5040700EE0406004F
:10169000E8040600E2040700DB040600D5040600A7
:1016A000CF040600C9040600C3040600BD040600FA
:1016B000B7040600B1040500AC040600A604060049
:1016C000A00405009B040600950405009004060094
:1016D0008A04050085040500800406007A040500DC
:1016E00075040500700405006B0405006604050020
:1016F000610405005C040500570405005204050060
:101700004D04050048040500430405003E040400A0
:101710003A04050035040500300404002C040500DB
:1017200027040400230405001E0404001A04040016
:1017300016040500110404000D040400090405004A
:101740000404040000040400FC030400F803040083
:10175000F4030400F0030400EC030400E8030400B5
:10176000E4030400E0030400DC030400D8030400E5
:10177000D4030400D0030400CC030400C803030016
:10178000C503030024F404D9201BC40C5C0E980488
:10179000C4095F0265077101F405F900FB04B30099
:1017A00048048700C103690058035500030345003E
:1017B000BE023A008402310053022A0029022500A9
:1017C00004022000E4011C00C8011900AF01170049
:1017D00098011400840113007101100061011000D0
:1017E00051010E0043010D0036010B002B010B00CF
:1017F00020010B00150109000C010900030108007C
:10180000FB000800F3000800EB000700E4000600FE
:10181000DE000600D8000600D2000600CC0005005D
:10182000C7000500C2000500BD000400B9000400A7
:10183000B5000400B1000400AD000400A9000400DC
:10184000A5000300A20003009F0004009B0003000A
:10185000980003009500020093000300900003002D
:101860008D0002008B000300880002008600020049
:1018700084000300810002007F0002007D0002005E
:101880007B00020079000200770001007600020070
:101890007400020072000100710002006F0002007B
:1018A0006D0001006C0002006A0001006900020086
:1018B000670001006600010065000100640002008D
:1018C0006200010061000100600001005F00020091
:1018D0005D0001005C0001005B0001005A00010096
:1018E0005900010058000100570001005600010096
:1018F0005500010054000100530000005300010096
:101900005200010051000100500001004F00010091
:101910004E0000004E0001004D0001004C0001008F
:101920004B0000004B0001004A000100490001008B
:101930004800000048000100470001004600000088
:101940004600010045000000450001004400010080
:10195000430000004300010042000000420001007B
:101960004100000041000100400001003F00000074
:101970003F0001003E0000003E0001003D0000006D
:101980003D0001003C0000003C0000003C00010064
:101990003B0000003B0001003A0000003A0001005B
:1019A0003900000039000100380000003800000054
:1019B0003800010037000000370001003600000049
:1019C0003600000036000100350000003500000040
:1019D0003500010034000000340000003400010034
:1019E000330000003300000033000100320000002B
:1019F0003200000032000100310000003100000020
:101A00003100010030000000300000003000010013
:101A10002F0000002F0000002F0000002F00010009
:101A20002E0000002E0000002E0001002D000000FE
:101A30002D0000002D0000002D0001002C000000F2
:101A40002C0000002C0000002C0001002B000000E6
:101A50002B0000002B0000002B0001002A000000DA
:101A60002A0000002A0000002A00010029000000CE
:101A700029000000290000002900000029000100C1
:101A800028000000280000002800000028000000B6
:101A900028000100270000002700000027000000A8
:101AA000270000002700010026000000260000009B
:101AB000260000002600000026000100250000008E
:101AC0002500000025000000250000002500000082
:101AD0002500010024000000240000002400000074
:101AE0002400000024000100230000002300000067
:101AF000230000002300000023000000230000005A
:101B0000230001002200000022000000220000004B
:101B1000220000002200000022000100210000003D
:101B20002100000021000000210000002100000031
:101B30002100000021000100200000002000000022
:101B40002000000020000000200000002000000015
:101B500020000000200001001F0000001F00000006
:101B60001F0000001F0000001F0000001F000000F9
:101B70001F0001001E0000001E0000001E000000EB
:101B80001E0000004D383420582059205A204500AE
:101B90006265640A002C2073797374656D20737418
:101BA0006F7070656421204865617465725F494497
:101BB0003A200048656174696E67206661696C65EA
:101BC000640048656174696E67206661696C65646C
:101BD0000048656174696E67206661696C656400C0
:101BE00048656174696E67206661696C6564007C34
:101BF0003C3E5E2B3D3F2F5B5D3B2C2A225C00254B
:101C0000753A2530327500253032753A25303275F7
:101C10000025756420253032753A25303275005A1A
:101C200000590058000920000000000000000000DA
:101C3000000000007FFFE000000000000000000046
:101C40000000007000E00000000000000000000044
:101C5000000061F8600000000000000000000000CB
:101C60000041F8200000000000000000000000001B
:101C700040F02000000000000000000000000040D4
:101C8000602000000000000000000000000058017B
:101C9000A07F80000000000000004104005C63A001
:101CA000FFC0000000000000002082005EF7A0FFDF
:101CB000C0000000000000002082005EF7A0FFC00E
:101CC000000000000000004104005C63A07F800071
:101CD0000000000000008208005801A07F80000082
:101CE0000000000001041000406020FFC000000060
:101CF0000000000104100040F020FFC000000000C0
:101D000000000082080041F820FFC0000000000031
:101D1000000041040061F8603F0000000000000086
:101D2000000000007000E01E000000000000000144
:101D3000FFFF807FFFE00C0000000000000001FFBB
:101D4000FF80000000000000000000000000000014
:101D5000007FFFE000000000000000000000000025
:101D60007000E000000000000000000000000063C0
:101D70000C60000000000000000000000000470EA2
:101D8000200000000000000000000000004F0F20B5
:101D90000000000000000000000000005F0FA00035
:101DA00000000000000000000000005E07A07F802F
:101DB00000000000000000410400406020FFC0005F
:101DC00000000000000020820040F020FFC0000062
:101DD000000000000020820040F020FFC000000052
:101DE000000000004104004060207F8000000000EF
:101DF0000000008208005E07A07F80000000000055
:101E000000010410005F0FA0FFC0000000000000F0
:101E1000010410004F0F20FFC00000000000000070
:101E2000820800470E20FFC00000000000000041B3
:101E30000400630C603F0000000000000000000090
:101E4000007000E01E0000000000000001FFFF80A5
:101E50007FFFE00C0000000000000001FFFF800099
:101E6000000000060900FE00000000000109000853
:101E7000FE000005080806000040F0C88888987831
:101E800010050808060000C0F88888888888F805CA
:101E900005050600012030F830200508080600007E
:101EA0002070F820202020E00509090600FF20709E
:101EB000A8A8B8888870200509090600FFE080C03E
:101EC000B0A8283028280509090600FFF8A8888846
:101ED000888888A8F8050A0A0600FE20505050504D
:101EE00088A8A8887003030306000340A0400006EA
:101EF0000900FE070192032120FFFF08FF07FF00F2
:101F00000000060000010707060200808080808034
:101F10000080030202060105A0A0050707060000D5
:101F20005050F850F850500507070600002078A0E0
:101F30007028F020050707060000C0C81020409850
:101F4000180507070600006090A040A890680203EB
:101F500003060104C04080030707060100204080FB
:101F60008080402003070706010080402020204099
:101F70008005050506000120A870A82005050506B6
:101F800000012020F820200203030602FFC0408049
:101F9000050101060003F8020202060200C0C005A6
:101FA000050506000108102040800507070600000F
:101FB0007088888888887003070706010040C04041
:101FC000404040E0050707060000708808708080E8
:101FD000F8050707060000F81020100808F00507AC
:101FE0000706000010305090F81010050707060093
:101FF00000F880F008088870050707060000708068
:1020000080F0888870050707060000F80810202077
:1020100020200507070600007088887088887005F2
:102020000707060000708888780808700205050612
:102030000200C0C000C0C00206060602FFC0C00009
:10204000C040800407070600001020408040201098
:10205000050303060002F800F804070706010080E4
:1020600040201020408005070706000070880810F7
:1020700020002005070706000070880868A8A870DF
:10208000050707060000708888F888888805070714
:10209000060000F08888F08888F005070706000031
:1020A00070888080808870050707060000F08888A7
:1020B000888888F0050707060000F88080F0808097
:1020C000F8050707060000F88080F080808005078B
:1020D00007060000708880B888887005070706002A
:1020E00000888888F88888880107070602008080B1
:1020F00080808080800507070600003810101010CF
:1021000090600507070600008890A0C0A090880591
:102110000707060000808080808080F8050707069A
:10212000000088D8A88888888805070706000088E6
:1021300088C8A898888805070706000070888888DE
:10214000888870050707060000F08888F080808086
:1021500005070706000070888888A89068050707AB
:10216000060000F08888F0A09088050707060000A8
:10217000788080700808F0050707060000F8202026
:102180002020202005070706000088888888888886
:102190007005070706000088888888885020050792
:1021A000070600008888888888A850050707060069
:1021B0000088885020508888050707060000888816
:1021C0008850202020050707060000F8081020404E
:1021D00080F8030707060100E08080808080E0052A
:1021E00005050600018040201008030707060100CE
:1021F000E02020202020E005030306000420508872
:10220000050101060000F8020202060205804005F1
:1022100005050600007008788878050707060000A5
:102220008080B0C88888F0050505060000708080B1
:1022300088700507070600000808689888887805F0
:1022400005050600007088F8807005070706000085
:102250003048E0404040400506060600FF70888890
:102260007808700507070600008080B0C888888855
:102270000107070602008000808080808003080834
:102280000601FF200020202020A0400407070600B0
:1022900000808090A0C0A090030707060100C04006
:1022A00040404040E0050505060000D0A8A8A8A8C9
:1022B000050505060000B0C88888880505050600E4
:1022C0000070888888700506060600FFF08888F090
:1022D00080800506060600FF7888887808080505CE
:1022E00005060000B0C88080800505050600007066
:1022F000807008F00407070600004040E0404040BE
:1023000030050505060000888888986805050506DB
:10231000000088888850200505050600008888A8E8
:10232000A8500505050600008850205088050606BF
:102330000600FF888888780870050505060000F803
:10234000102040F80307070601002040408040406D
:1023500020010707060200808080808080800307BC
:102360000706010080404020404080050202060030
:102370000268900000000600000000000600000057
:10238000000006000000000006000000000006003B
:102390000000000006000000000006000000000031
:1023A000060000000000060000000000060000001B
:1023B000000006000000000006000000000006000B
:1023C0000000000006000000000006000000000001
:1023D00006000000000006000000000006000000EB
:1023E00000000600000000000600000000000600DB
:1023F00000000000060000000000060000000000D1
:1024000006000000000006000000000006000000BA
:1024100000000600000000000600000000000600AA
:1024200000000000060000000000060000000000A0
:102430000600000000000600000000000600000189
:10244000070706020080008080808080050707065D
:1024500000002070A8A0A870200507070600003023
:102460004040E04050A80505050600008870507007
:1024700088050707060000885020F820F82001078B
:102480000706020080808000808080050808060022
:10249000003048205050209060030101060107A041
:1024A000050707060000F888B8B8B888F8050707D8
:1024B000060001700878887800F805050506000117
:1024C0002850A05028050303060001F8080802025E
:1024D000020602064080050707060000F888A88863
:1024E00098A8F8050101060006F804040406000394
:1024F000609090600507070600002020F82020006B
:10250000F804050506000360902040F00305050669
:102510000003E020E020E0020202060206408005FF
:1025200008080600FF8888888898E88080050707E3
:10253000060000789898781818180202020602021D
:10254000C0C00202020602FF408003050506000328
:1025500040C04040E0050707060001708888887089
:1025600000F8050505060001A0502850A005070742
:102570000600008890A858B808080507070600005C
:102580008890B848982038050808060000C040C068
:1025900048D83808080507070600002000204080BA
:1025A00088700508080600004020007088F88888B8
:1025B0000508080600001020007088F888880508C3
:1025C000080600002050007088F888880508080672
:1025D00000006890007088F88888050808060000E8
:1025E0005000708888F88888050808060000205088
:1025F000207088F888880507070600003860A0B8B2
:10260000E0A0B80508080600FF7088808088702068
:1026100060050808060000402000F880F080F805FA
:102620000808060000081000F880F080F805080887
:10263000060000205000F880F080F805070706002B
:10264000005000F880F080F8030808060100804080
:1026500000E0404040E0030808060100204000E0A0
:10266000404040E003080806010040A000E0404070
:1026700040E0030707060100A000E0404040E005FD
:102680000707060000704848E84848700508080633
:10269000000068900088C8A898880508080600000F
:1026A000402070888888887005080806000010207F
:1026B000708888888870050808060000205000701F
:1026C000888888700508080600006890007088886F
:1026D0008870050808060000500070888888887097
:1026E00005050506000188502050880508080600E9
:1026F000FF1070A8A8A8A8704005080806000040B0
:1027000020888888888870050808060000102088BE
:10271000888888887005080806000020500088888E
:102720008888700508080600005000888888888816
:102730007005080806000010208850202020200581
:1027400009090600FFC040704848704040E0040896
:10275000080601FF609090A09090E08005080806B0
:1027600000004020007008788878050808060000FE
:1027700010200070087888780508080600002050AE
:1027800000700878887805080806000068900070D6
:1027900008788878050707060000500070087888D8
:1027A0007805080806000020502070087888780511
:1027B0000606060000D02878A0A8500506060600E8
:1027C000FF70808870206005080806000040200027
:1027D0007088F880700508080600001020007088D6
:1027E000F880700508080600002050007088F88006
:1027F0007005070706000050007088F88070030815
:102800000806010080400040C04040E00308080680
:10281000010020400040C04040E0030808060100DD
:1028200040A00040C04040E0030707060100A000B0
:1028300040C04040E0050707060000A040A0107817
:102840008870050808060000689000B0C88888886D
:102850000508080600004020007088888870050878
:102860000806000010200070888888700508080697
:102870000000205000708888887005080806000055
:10288000689000708888887005070706000050006F
:1028900070888888700505050600012000F8002072
:1028A0000507070600FF1070A8A8A87040050808D3
:1028B00006000040200088888898680508080600FF
:1028C0000010200088888898680508080600002005
:1028D000500088888898680507070600005000881F
:1028E000888898680509090600FF102000888888F4
:1028F000F808700407070601FFC04060506040E020
:102900000508080600FF500088888878087053443E
:102910002063617264206F6B0A006F70656E526F86
:102920006F74206661696C65640A00766F6C756D02
:10293000652E696E6974206661696C65640A00536E
:102940004420696E6974206661696C0A006175745F
:102950006F25692E67004D3234004D3233202573C8
:102960000057726974696E6720746F2066696C65C0
:102970003A20006F70656E206661696C65642C207A
:1029800046696C653A20006F70656E206661696CFF
:1029900065642C2046696C653A200046696C6520A8
:1029A00073656C65637465640A002053697A653ADF
:1029B000200046696C65206F70656E65643A200082
:1029C0006F70656E206661696C65642C2046696C69
:1029D000653A20002066696C653A20004E6F7720CA
:1029E000002220706F73002220706172656E743A4D
:1029F0002200535542524F5554494E452043414CB5
:102A00004C207461726765743A22004B494C4C4506
:102A1000442E2000747279696E6720746F206361A0
:102A20006C6C207375622D67636F64652066696CDA
:102A30006573207769746820746F6F206D616E799B
:102A4000206C6576656C732E204D4158206C657640
:102A5000656C2069733A004572726F723A00436187
:102A60006E6E6F74206F70656E207375626469722C
:102A70002000656E7175657565696E672022006559
:102A800063686F3A004578747275646572733A20B2
:102A90003100687474703A2F2F6D61726C696E66C4
:102AA000772E6F7267004475706C696361746F7222
:102AB000203600323031362D31322D303620313251
:102AC0003A303000312E312E302D524338004D61D6
:102AD000726C696E005072696E7465722053746115
:102AE000747300546865726D6973746F7273004219
:102AF0006F61726420496E666F005072696E746512
:102B00007220496E666F004D61696E00457874727F
:102B1000756465206D6F726500526573756D650033
:102B20004348414E4745204F5054494F4E533A0079
:102B30006368616E6765006F66207468652066690A
:102B40006C616D656E74005761697420666F7220E8
:102B50007374617274004348414E47452046494CA6
:102B6000414D454E540066696C616D656E7420750B
:102B70006E6C6F6164005761697420666F72004308
:102B800048414E47452046494C414D454E540074FE
:102B90006F20636F6E74696E75652E2E2E00616EE8
:102BA0006420707265737320627574746F6E00496F
:102BB0006E736572742066696C616D656E74004336
:102BC00048414E47452046494C414D454E540066CC
:102BD000696C616D656E74206C6F6164005761692A
:102BE0007420666F72004348414E47452046494C69
:102BF000414D454E540066696C616D656E7420658B
:102C0000787472756465005761697420666F72002C
:102C10004348414E47452046494C414D454E54009E
:102C2000746F20726573756D6500576169742066F5
:102C30006F72207072696E74004348414E474520A0
:102C400046494C414D454E540020746F6F206C6FC7
:102C50006E6720657874727573696F6E2070726527
:102C600076656E7465640A0020636F6C6420657815
:102C700074727573696F6E2070726576656E7465B7
:102C8000640A00206E6F7420656E74657265642E30
:102C90000A004475706C696361746F72203620722B
:102CA000656164792E00526573756D696E67207079
:102CB00072696E74005761697420666F7220757353
:102CC00065722E2E2E004E6F206D6F76652E00459C
:102CD0006E642066696C65206C6973740A004265D5
:102CE00067696E2066696C65206C6973740A0053AD
:102CF00044207072696E74696E6720627974652011
:102D0000004E6F74205344207072696E74696E6750
:102D10000A005072696E742074696D653A20005023
:102D2000726F7465637465642050696E0A006D008B
:102D300046696C616D656E7420757365643A200038
:102D400053746174733A20002C204C6F6E67657366
:102D500074206A6F623A2000546F74616C20746949
:102D60006D653A200053746174733A20002C20463C
:102D700061696C65643A20002C2046696E6973684D
:102D800065643A20005072696E74733A200053747F
:102D90006174733A20002042403A0020403A0020FB
:102DA0002F0020423A00202F0020543A006F6B0081
:102DB0005072656865617420504C41204265640022
:102DC0005072656865617420504C410050726570A6
:102DD00061726500507265686561742041425320DC
:102DE0004265640050726568656174204142530019
:102DF00050726570617265004C6576656C696E67CE
:102E000020446F6E6521004D6F7665205A00473271
:102E100038004E65787420506F696E740025692003
:102E20002F20257500436C69636B20746F20426509
:102E300067696E00486F6D696E672058595A004780
:102E40003238004C6576656C206265640043616EC3
:102E500063656C004D34323800436F6F6C646F777C
:102E60006E004368616E67652066696C616D656EB2
:102E7000740050726568656174204142530050725D
:102E8000656865617420504C41004D3834004469D8
:102E90007361626C65207374657070657273004C49
:102EA0006576656C206265640053657420686F6D9B
:102EB00065206F66667365747300473238205A0068
:102EC000486F6D65205A00473238205900486F6DB1
:102ED00065205900473238205800486F6D652058EA
:102EE00000473238004175746F20686F6D65004D82
:102EF0006F76652061786973004731205A31373029
:102F0000004C6F776572204275696C6420506C616B
:102F10007465004D61696E00457874727564657200
:102F2000004D6F7665205A004D6F76652059004D33
:102F30006F76652058005072657061726500526549
:102F400073746F7265206661696C73616665004CAD
:102F50006F6164206D656D6F72790053746F726577
:102F6000206D656D6F7279004361736520627269CF
:102F70006768746E6573730046696C616D656E7425
:102F8000004D6F74696F6E0054656D706572617489
:102F9000757265004D61696E004D333033205531D7
:102FA0002045256920532569005072656865617464
:102FB0002041425320636F6E660050726568656100
:102FC0007420504C4120636F6E660050494420418C
:102FD00075746F74756E6500504944204175746F47
:102FE00074756E65005049442D44005049442D4489
:102FF000005049442D49005049442D49005049444E
:103000002D50005049442D50002008204661637423
:103010000020082046616374002008204D6178007C
:103020002008204D6178002008204D696E0020089E
:10303000204D696E004F6666004F6E20004175742A
:103040006F74656D700046616E2073706565640015
:1030500046616E2073706565640042656400426578
:1030600064004E6F7A7A6C65004E6F7A7A6C6500F8
:10307000436F6E74726F6C0053746F7265206D6570
:103080006D6F72790042656400426564004E6F7A2C
:103090007A6C65004E6F7A7A6C650046616E2073BB
:1030A000706565640046616E2073706565640054E8
:1030B000656D706572617475726500FFE0FFD1AF78
:1030C000FF32FFD0FFFEFFE0FFD1AEFFD0FFFEFFDB
:1030D000E0FFD11000FFFEFFD0FFE0FFC1FFD1AE47
:1030E000D580A83FD300408D142002A1C8DA1281F8
:1030F000CFD9F1DB402EA4A6AFFFD0FFFE20746F26
:103100006F206C6F6E6720657874727573696F6E6F
:103110002070726576656E7465640A0020636F6C5A
:103120006420657874727573696F6E20707265764D
:10313000656E7465640A0048617264636F646564F7
:103140002044656661756C742053657474696E679C
:1031500073204C6F616465640A0020500020204D8C
:1031600033353520530043617365204C69676874BB
:103170003A0A00204500205A0020204D39303720DF
:10318000580053746570706572206D6F746F722093
:1031900063757272656E74733A0A0020204D323086
:1031A000302044300A0020204D32303020440020AE
:1031B00044697361626C65640A0046696C616D659F
:1031C0006E742073657474696E67733A00204400EE
:1031D00020490020204D333034205000204400206E
:1031E000490020204D333031205000504944207395
:1031F000657474696E67733A0A00204600204200C5
:1032000020480020204D3134352053004D61746535
:103210007269616C2068656174757020706172619B
:103220006D65746572733A0A00205A0020590020B7
:1032300020473239205333205800205900205800AD
:1032400020204D3432302053004D65736820626574
:1032500064206C6576656C696E673A0A00205A00D6
:1032600020590020204D323036205800486F6D65BF
:10327000206F666673657420286D6D290A002045ED
:1032800000205A00205900205800204200205400FD
:1032900020204D323035205300416476616E6365E5
:1032A00064207661726961626C65733A20533D4DAA
:1032B000696E20666565647261746520286D6D2F86
:1032C00073292C20543D4D696E2074726176656CB3
:1032D00020666565647261746520286D6D2F7329A1
:1032E0002C20423D6D696E696D756D207365676D4B
:1032F000656E742074696D6520286D73292C2058C3
:103300003D6D6178696D756D205859206A65726BE5
:1033100020286D6D2F73292C20205A3D6D6178690E
:103320006D756D205A206A65726B20286D6D2F7344
:10333000292C2020453D6D6178696D756D204520F3
:103340006A65726B20286D6D2F73290A0020540066
:1033500020520020204D32303420500041636365FC
:103360006C65726174696F6E733A20503D7072695A
:103370006E74696E672C20523D726574726163745D
:1033800020616E6420543D74726176656C0A002081
:103390004500205A0020590020204D32303120585D
:1033A000004D6178696D756D20416363656C657270
:1033B0006174696F6E20286D6D2F7332293A0A008F
:1033C000204500205A0020590020204D3230332063
:1033D00058004D6178696D756D2066656564726130
:1033E00074657320286D6D2F73293A0A00204500FB
:1033F000205A0020590020204D39322058005374A3
:103400006570732070657220756E69743A0A007A6F
:103410005F6D696E3A2000795F6D696E3A200078C1
:103420005F6D696E3A20005265706F7274696E67E5
:1034300020656E6473746F70207374617475730AA1
:10344000005374657020447269766520450053749A
:10345000657020447269766520450053746570205C
:103460004472697665205A0053746570204472690D
:103470007665205A00537465702044726976652021
:103480005859005374657020447269766520585904
:10349000004573746570732F6D6D004573746570AE
:1034A000732F6D6D005A73746570732F6D6D005AB4
:1034B00073746570732F6D6D005973746570732F1D
:1034C0006D6D005973746570732F6D6D0058737452
:1034D0006570732F6D6D005873746570732F6D6D0B
:1034E00000412D74726176656C00412D74726176B5
:1034F000656C00412D7265747261637400412D72B8
:1035000065747261637400416D6178204500416D9E
:103510006178204500416D6178205A00416D6178E5
:10352000205A00416D6178205900416D6178205921
:1035300000416D6178205800416D61782058005637
:1035400054726176206D696E005654726176206DFA
:10355000696E00566D696E00566D696E00566D613C
:1035600078204500566D6178204500566D617820C1
:103570005A00566D6178205A00566D6178205900C6
:10358000566D6178205900566D6178205800566D4F
:10359000617820580056652D6A65726B0056652D5E
:1035A0006A65726B00567A2D6A65726B00567A2DC9
:1035B0006A65726B0056792D6A65726B0056792DBB
:1035C0006A65726B0056782D6A65726B0056782DAD
:1035D0006A65726B00416363656C00416363656C8F
:1035E00000426564205A00426564205A00436F6EB1
:1035F00074726F6C0053746F70207072696E740017
:1036000043616E63656C0041626F7574205072692E
:103610006E746572004E6F205344206361726400C3
:103620005072696E742066726F6D2053440053743B
:103630006F70207072696E7400526573756D6520CD
:103640007072696E74005061757365207072696E76
:103650007400436F6E74726F6C0043617365206C0D
:1036600069676874206F6E0043617365206C6967D9
:103670006874206F666600507265706172650051F3
:103680007569636B204D656E750054756E650042FB
:1036900061627973746570205A00496E666F207399
:1036A000637265656E0042616279737465707069FA
:1036B0006E67205A004D363030004368616E676592
:1036C0002066696C616D656E740042616279737425
:1036D0006570205A00466C6F7700466C6F77004625
:1036E000616E2073706565640046616E207370655D
:1036F00065640042656400426564004E6F7A7A6CCE
:1037000065004E6F7A7A6C6500426564205A00420B
:103710006564205A00537065656400537065656484
:10372000004D61696E0046696C2E204469612E006F
:1037300046696C2E204469612E004F6666004F6E0C
:1037400020004520696E206D6D3300436F6E7472EA
:103750006F6C0043617365206272696768746E659F
:1037600073730043616E6E6F7420656E74657220B2
:103770007375626469723A2000022E2E004D6169F1
:103780006E0000457874727564656420746F7461AE
:103790006C3A2000256C642E25696D00004C6F6E1C
:1037A00067657374206A6F622074696D653A2000E2
:1037B00000546F74616C207072696E742074696D4E
:1037C000653A2000436F6D706C657465643A200043
:1037D0005072696E7420436F756E743A20004D61AB
:1037E000782054656D703A20313230004D696E207A
:1037F00054656D703A203500544265643A45504333
:103800004F53203130304B004D61782054656D703E
:103810003A20323630004D696E2054656D703A2082
:10382000350054303A20505431303020556C746992
:103830004D420050726F746F636F6C3A20312E30BE
:1038400000426175643A2032353030303000556CBA
:1038500074696D616B657220322E780062757379C0
:103860003A2070617573656420666F7220696E70AE
:1038700075740A00627573793A20706175736564B6
:1038800020666F7220757365720A00627573793AEB
:103890002070726F63657373696E670A004B494CE1
:1038A0004C45442E2000506C656173652072657331
:1038B0006574005052494E5445522048414C54457D
:1038C00044005072696E7465722068616C7465643E
:1038D0002E206B696C6C28292063616C6C656421F7
:1038E0000A00000000000000000000000000576116
:1038F000726E696E673A20486F6D696E6720427517
:103900006D702044697669736F72203C20310A0023
:103910000000A0400000A04000000040000048431C
:103920000000484300002A43FFFFFF434F4D4D5521
:103930004E49434154494F4E0044525952554E004E
:103940004552524F525300494E464F004543484F4F
:10395000004C394739403939392B396F6666004494
:10396000454255473A004D3131332053004475707C
:103970006C696361746F722036204F66662E00207A
:103980005A3A0020593A0020436F756E7420583A15
:10399000200020453A00205A3A0020593A00583A6F
:1039A000004649524D574152455F4E414D453A4DB3
:1039B00061726C696E20312E312E302D52433820C9
:1039C000284769746875622920534F555243455FF3
:1039D000434F44455F55524C3A68747470733A2FA4
:1039E0002F6769746875622E636F6D2F556C7469EB
:1039F0006D616B65722F4D61726C696E2050524F14
:103A0000544F434F4C5F56455253494F4E3A312E17
:103A100030204D414348494E455F545950453A4442
:103A200075706C696361746F72203620455854520A
:103A3000554445525F434F554E543A3120555549F0
:103A4000443A63656465326132662D343161322DEA
:103A5000343734382D396231322D6335356336329F
:103A60006633363766660A0053657474696E67207C
:103A700054726176656C20416363656C6572617434
:103A8000696F6E3A200053657474696E67205265E1
:103A9000747261637420416363656C6572617469FB
:103AA0006F6E3A200053657474696E6720507269B6
:103AB0006E7420416363656C65726174696F6E3A00
:103AC000200053657474696E67205072696E7420AB
:103AD000616E642054726176656C20416363656C2D
:103AE00065726174696F6E3A2000205A0020590097
:103AF000580020204D61783A2000205A00205900BB
:103B0000580020204D696E3A20004F6E20004F660D
:103B10006600536F667420656E6473746F70733AD9
:103B200020004572726F722077726974696E672027
:103B3000746F20454550524F4D210A002062797420
:103B40006573290A0053657474696E677320537432
:103B50006F726564202800454550524F4D206368C0
:103B600065636B73756D206D69736D617463680A4D
:103B700000206279746573290A002073746F72657E
:103B8000642073657474696E6773207265747269FA
:103B90006576656420280000000000300E0100C03A
:103BA0000E0A00500F1400D00F1E0060102800E015
:103BB00010320070113C00F01146007012500000ED
:103BC000135A008013640000146E009014780010E3
:103BD00015820090158C00101696009016A000100B
:103BE00017AA009017B4001018BE009018C8001053
:103BF00019D2009019DC00101AE600801AF00000BB
:103C00001BFA00801B0401F01B0E01701C1801F050
:103C10001C2201601D2C01E01D3601501E4001D008
:103C20001E4A01401F5401B01F5E0130206801A0F0
:103C300020720110217C01902186010022900160F8
:103C400026F401902A5802802EBC0250322003E054
:103C50003584035039E803803C4C0470012C0190FA
:103C6000012701B0012201C0011D01F0011801105E
:103C700002130130020E016002090190020401C02A
:103C800002FF000003FA004003F5008003F000D0BB
:103C900003EB002004E6007004E100E004DC0040D7
:103CA00005D700C005D2004006CD00D006C8008070
:103CB00007C3003008BE00F008B900C009B400B066
:103CC0000AAF00B00BAA00D00CA500000EA0005057
:103CD0000F9B00C01096005012910000148C00C081
:103CE000158700B0178200B0197D00D01B78000046
:103CF0001E730040206E0090226900F02464004092
:103D0000275F0090295A00E02B5500102E5000200C
:103D1000304B0010324600E033410090353C00103B
:103D200037370070383200A0392D00B03A2800A093
:103D30003B2300603C1E00103D1900903D14001014
:103D40003E0F00703E0A00C03E0500003F000054D8
:103D50004845524D414C2052554E4157415900540F
:103D60006865726D616C2052756E6177617900458E
:103D700072723A204D415854454D502042454400FE
:103D80004572723A204D415854454D50004D4158AE
:103D900054454D50207472696767657265640045CB
:103DA00072723A204D494E54454D502042454400D0
:103DB0004572723A204D494E54454D50004D494E82
:103DC00054454D5020747269676765726564001FC1
:103DD000FFFFFFFFFFFF600000000001FF40000049
:103DE000000000FF8000000000007F83CF00000C77
:103DF000303F87FF80000C301F867980000C000F59
:103E00008C30C7838C30E78C30CFC7CC31F38C300B
:103E1000DCECEC33B98C30D86C6C33198C30D06C52
:103E20000C33198C30D86C0C33198C30DC6C0E3B95
:103E3000198C30CF7C079F198C30C77C038F1940B9
:103E4000000000000002600000000000061FFFFFED
:103E5000FFFFFFF8436F6F6C646F776E004368611C
:103E60006E67652066696C616D656E740050726581
:103E700068656174204142530050726568656174E1
:103E800020504C41004739310A4731205A32350A17
:103E9000473930004C6F776572204275696C642039
:103EA000506C6174652032356D6D004C6576656CC3
:103EB0002062656400473238004175746F20686F76
:103EC0006D65004D61696E004D6F76652058004D3F
:103ED0006F76652059004D6F7665205A00457874DD
:103EE0007275646572004D6F766520302E316D6D90
:103EF000004D6F766520316D6D004D6F7665203118
:103F0000306D6D004D6F766520617869730045787E
:103F1000747275646572004D6F7665205A004D6F3E
:103F200076652059004D6F7665205800526573659F
:103F30006E643A20006F6B004E414E494E49545911
:103F4000494E46CDCCCC3D0AD7233C17B7D1387764
:103F5000CC2B329595E6241FB14F0A00002041007A
:103F600000C84200401C4620BCBE4CCA1B0E5AAEC4
:103F7000C59D740095FA74FA11241FBECFEFD1E2EB
:103F8000DEBFCDBF00E00CBF14E0A0E0B2E0EEE980
:103F9000F2E102E00BBF02C007900D92A838B10712
:103FA000D9F725E1A8E8B4E001C01D92A735B20712
:103FB000E1F71FE1CBEBDFE100E006C0219701094B
:103FC000802FFE010E9434FDCA3BD10780E0080724
:103FD000A9F70E941DF30D943D090C9400002F9247
:103FE0003F924F925F926F927F928F929F92AF9289
:103FF000BF92CF92DF92EF92FF920F931F93CF93D6
:10400000DF93CDB7DEB7CD58D1090FB6F894DEBF38
:104010000FBECDBF00910C0720E6029F8001112446
:1040200004571A4F10939704009396048091FF0E43
:1040300080FF18C0EFE7FAE284917F013FEFE31AB7
:10404000F30A882321F00E943B47F701F5CFD801FE
:104050008D918D01882319F00E943B47F8CF8AE0AB
:104060000E943B472091960430919704F90180818A
:104070002F5F3F4F8032D1F3F0939704E093960483
:104080008E3469F010919604009197046AE270E012
:10409000812F902F0F9484000097D1F420C081814C
:1040A00090ED980F9A3010F08D3261F73296DF0163
:1040B00031962C9120532A30D0F3CD01FC0101968A
:1040C00020812032D9F3F0939704E0939604DACF5D
:1040D000FC0131968291803231F08A3221F0A12F99
:1040E000B02F4D9102C01082F5CFFD018081119655
:1040F0008032D9F380538A3020F0EFE7FAE20C9453
:10410000C93D20E030E05AE0529FC001539F900D1E
:1041100011249C01205331098191280F311D87FD05
:104120003A95808180538A3078F3CF013196DC0153
:104130005C915032D1F390938F0480938E0461E0B0
:1041400070E07093750F6093740F4D3411F40C94FC
:10415000AA2B443511F40C94963D473411F00C947D
:10416000AF3D2430310509F4E3C538F42230310580
:1041700008F50E94498B0C94C03D2A35310511F495
:104180000C941E2B58F42C31310509F410C62D3136
:10419000310511F40C9407290C94C03D2B353105E1
:1041A00011F40C94222B2C35310511F40C94272B8F
:1041B0000C94C03D80912202882311F40C94C03DE0
:1041C00011E02230310509F010E00E94FD8982E5FE
:1041D0000E945844882309F45CC10E94F5446B0195
:1041E0007C014090AF145090B0146090B114709066
:1041F000B2142091B3143091B4144091B51450917D
:10420000B61421962CAF3DAF4EAF5FAF2197809192
:104210007E0F90917F0FA091800FB091810F259616
:104220008CAF9DAFAEAFBFAF25972091820F30917D
:10423000830F4091840F5091850F2D962CAF3DAF89
:104240004EAF5FAF2D9720E030E0A901C701B60166
:104250000F94F604882309F451C5A3019201259611
:104260006CAD7DAD8EAD9FAD25970F94F604811199
:1042700011C021962CAD3DAD4EAD5FAD21972D9671
:104280006CAD7DAD8EAD9FAD2D970F94F604882358
:1042900009F434C520E030E0A901C701B6010F944C
:1042A000F604881F8827881F18130BC080E090E051
:1042B000A0E8BFE369968CAF9DAFAEAFBFAF699783
:1042C0000AC020E030E040E85FEB69962CAF3DAFDC
:1042D0004EAF5FAF6997A301920125966CAD7DAD9E
:1042E0008EAD9FAD25970E9457FD61966CAF7DAF57
:1042F0008EAF9FAF619721962CAD3DAD4EAD5FADBA
:1043000021972D966CAD7DAD8EAD9FAD2D970E9402
:1043100057FD65966CAF7DAF8EAF9FAF6597619689
:104320002CAD3DAD4EAD5FAD6197CA01B9010F94A3
:104330005B054B015C0165962CAD3DAD4EAD5FADAF
:104340006597CA01B9010F945B059B01AC01C501DA
:10435000B4010E9458FD0E94E9FF29966CAF7DAF21
:104360008EAF9FAF299720E030E040E05FE30F94ED
:104370005B054B015C01A7019601C701B6010F94D3
:104380005B056B017C01A5019401C501B4010F948B
:104390005B059B01AC01C701B6010E9457FD0E945D
:1043A000E9FF9B01AC0169966CAD7DAD8EAD9FAD13
:1043B00069970F945B054B015C0125962CAD3DADD3
:1043C0004EAD5FAD2597C301B2010E9458FD20E0BC
:1043D00030E040E05FE30F945B056B017C01659684
:1043E0006CAD7DAD8EAD9FAD6597905829962CAD87
:1043F0003DAD4EAD5FAD29970E9444FE9B01AC01DF
:10440000C501B4010F945B059B01AC01C701B60166
:104410000E9458FDA30192010E9457FD6B017C018F
:104420002D962CAD3DAD4EAD5FAD2D9721966CAD6B
:104430007DAD8EAD9FAD21970E9458FD20E030E00C
:1044400040E05FE30F945B052B013C0129962CAD06
:104450003DAD4EAD5FAD299761966CAD7DAD8EAD36
:104460009FAD61970E9444FE9B01AC01C501B40160
:104470000F945B059B01AC01C301B2010E9458FD82
:1044800021962CAD3DAD4EAD5FAD21970E9457FDFD
:1044900014C089E40E945844882329F00E94F544FE
:1044A0006B017C0103C0C12CD12C76018AE40E94EF
:1044B00058448823F9F00E94F54421966CAF7DAFF3
:1044C0008EAF9FAF219720E030E0A901C701B60170
:1044D0000F94F60481111EC020E030E0A90121965E
:1044E0006CAD7DAD8EAD9FAD21970F94F60481111B
:1044F00011C004C420E030E0A901C701B6010F9447
:10450000F604882309F4FAC321961CAE1DAE1EAE34
:104510001FAE2197A7019601C701B6010F945B0555
:104520004B015C0121962CAD3DAD4EAD5FAD2197A9
:10453000CA01B9010F945B059B01AC01C501B4012F
:104540000E9458FD0E94E9FFE1966CAF7DAF8EAFEF
:104550009FAFE1978091AF149091B014A091B114E6
:10456000B091B21429968CAF9DAFAEAFBFAF299773
:10457000A7019601BC01CD010E9458FD69966CAF60
:104580007DAF8EAF9FAF69972091B3143091B41473
:104590004091B5145091B61461962CAF3DAF4EAF1B
:1045A0005FAF619721962CAD3DAD4EAD5FAD2197CC
:1045B00061966CAD7DAD8EAD9FAD61970E9458FD4B
:1045C0006D966CAF7DAF8EAF9FAF6D978091B71436
:1045D0009091B814A091B914B091BA14A1968CAF6F
:1045E0009DAFAEAFBFAFA1979C01AD016091860FAB
:1045F0007091870F8091880F9091890F0E9457FDCD
:1046000065966CAF7DAF8EAF9FAF659720918A0F97
:1046100030918B0F40918C0F50918D0FE5962CAF00
:104620003DAF4EAF5FAFE5978091BB149091BC1446
:10463000A091BD14B091BE14A5968CAF9DAFAEAF46
:10464000BFAFA597A7019601505825962CAF3DAF57
:104650004EAF5FAF259721968CAD9DADAEADBFAD92
:104660002197B0582D968CAF9DAFAEAFBFAF2D97B1
:1046700020917E0F30917F0F4091800F5091810FDC
:10468000A9962CAF3DAF4EAF5FAFA99769962CAD01
:104690003DAD4EAD5FAD6997A9966CAD7DAD8EAD6C
:1046A0009FADA9970E9457FD6B017C018091820FFD
:1046B0009091830FA091840FB091850FAD968CAF30
:1046C0009DAFAEAFBFAFAD976D962CAD3DAD4EADCE
:1046D0005FAD6D97BC01CD010E9457FD4B015C01A0
:1046E000A701960125966CAD7DAD8EAD9FAD25974A
:1046F0000F945B052B013C01A50194012D966CAD37
:104700007DAD8EAD9FAD2D970F945B059B01AC01E8
:10471000C301B2010E9458FD2B013C01A501940187
:1047200025966CAD7DAD8EAD9FAD25970F945B0545
:104730004B015C01A70196012D966CAD7DAD8EAD50
:104740009FAD2D970F945B059B01AC01C501B40192
:104750000E9457FDA30192010E94D6FD6B017C01CE
:1047600020E030E0A9010F94F60487FF0AC02BED8A
:104770003FE049EC50E4C701B6010E9458FD6B01CF
:104780007C01112351F02BED3FE049EC50E4C701CF
:10479000B6010E9457FD6B017C0120E030E0A901C9
:1047A000C701B6010F94F60481112AC0A9962CAD59
:1047B0003DAD4EAD5FADA99729966CAD7DAD8EAD8B
:1047C0009FAD29970F94F60481111AC0AD962CADB8
:1047D0003DAD4EAD5FADAD9761966CAD7DAD8EAD2F
:1047E0009FAD61970F94F60481110AC02BED3FE055
:1047F00049EC50E4C701B6010E9458FD6B017C01F1
:10480000E1962CAD3DAD4EAD5FADE197C701B60170
:104810000F945B059B01AC010F945B054B015C01A0
:1048200065962CAD3DAD4EAD5FAD6597CA01B90142
:104830000F945B059B01AC01C501B4010E9458FDBA
:104840000E94E9FF4B015C012FE632E143E85AE3A5
:104850000F94F60487FD4EC2C501B4010E94EAFE22
:104860000E94BBFE2F967FAF6EAF2F97DB01AB2B65
:1048700031F4E1E0F0E02F96FFAFEEAF2F972F96E7
:104880002EAD3FAD2F97B90180E090E00F94FA0470
:104890004B015C019B01AC01C701B6010E9444FEC3
:1048A00029966CAF7DAF8EAF9FAF2997A50194017C
:1048B00065966CAD7DAD8EAD9FAD65970E9444FE53
:1048C000A9966CAF7DAF8EAF9FAFA997A5962CAD83
:1048D0003DAD4EAD5FADA597E5966CAD7DAD8EADB2
:1048E0009FADE5970E9457FDA50194010E9444FEEB
:1048F000AD966CAF7DAF8EAF9FAFAD9729962CADC7
:104900003DAD4EAD5FAD2997CA01B9010F945B056E
:1049100020E030E040E05FE30F945B059B01AC01D9
:1049200060E070E080E89FE30E9457FD65966CAF01
:104930007DAF8EAF9FAF6597A1968CAD9DADAEADAF
:10494000BFADA19789879A87AB87BC87A5962CAD09
:104950003DAD4EAD5FADA5972D873E874F87588BF8
:104960006091A0027091A102072E000C880B990B98
:104970000F94FC0420910002309101024091020248
:10498000509103020F945B052AE037ED43E25CE3AC
:104990000F945B05A1966CAF7DAF8EAF9FAFA197D3
:1049A0000E94489E9B01AC0128533F4F4F4F5F4FE1
:1049B000A5962CAF3DAF4EAF5FAFA59722964FACFB
:1049C000229723965FAC239724966FAC2497259665
:1049D0007FAC259722242394312CD12C2F968EAD99
:1049E0009FAD2F972816390609F446C10E94C45777
:1049F0000E94489EDC01CB01A5962CAD3DAD4EAD8D
:104A00005FADA597821B930BA40BB50BB7FD11C02F
:104A10000E94489E9B01AC0128533F4F4F4F5F4F70
:104A2000A5962CAF3DAF4EAF5FAFA59780E00E943B
:104A300064CFD39438E13D150CF44BC065962CAD92
:104A40003DAD4EAD5FAD65972D966CAD7DAD8EAD38
:104A50009FAD2D970F945B054B015C0129962CAD02
:104A60003DAD4EAD5FAD2997B201C3010F945B051B
:104A7000A50194010E9458FD7B018C0165962CAD27
:104A80003DAD4EAD5FAD6597B201C3010F945B05BF
:104A90004B015C0129962CAD3DAD4EAD5FAD299724
:104AA0002D966CAD7DAD8EAD9FAD2D970F945B05B2
:104AB0009B01AC01C501B4010E9457FD2B013C01D3
:104AC000C701D8012D968CAF9DAFAEAFBFAF2D976C
:104AD0005AC0B10180E090E00F94FA0429962CAD01
:104AE0003DAD4EAD5FAD29970F945B054B015C0169
:104AF0000E9441FE6B017C01C501B4010E94DEFFF2
:104B00004B015C01A701960125966CAD7DAD8EAD84
:104B10009FAD25970F945B052B013C01A5019401E6
:104B200021966CAD7DAD8EAD9FAD21970F945B0549
:104B30009B01AC01C301B2010E9458FD2B013C0155
:104B4000A501940125966CAD7DAD8EAD9FAD2597E9
:104B50000F945B054B015C01A701960121966CAD9A
:104B60007DAD8EAD9FAD21970F945B059B01AC0190
:104B7000C501B4010E9457FD2D966CAF7DAF8EAF7D
:104B80009FAF2D97D12C9201A30169966CAD7DAD9D
:104B90008EAD9FAD69970E9458FD69837A838B83A0
:104BA0009C832D962CAD3DAD4EAD5FAD2D976D9692
:104BB0006CAD7DAD8EAD9FAD6D970E9458FD6D8340
:104BC0007E838F839887A9962CAD3DAD4EAD5FADAA
:104BD000A99769857A858B859C850E9458FD698790
:104BE0007A878B879C87AD962CAD3DAD4EAD5FAD82
:104BF000AD976D857E858F8598890E9458FD6D875C
:104C00007E878F87988BCE0101960E94CAF0C09054
:104C10008C1489819A81AB81BC8188A399A3AAA3B2
:104C2000BBA38D819E81AF81B8858CA39DA3AEA3CC
:104C3000BFA389859A85AB85BC8588A799A7AAA7B4
:104C4000BBA7CE0180960E942847A196ECACFDAC94
:104C50000EAD1FADA1979E01235F3F4FAE01485D92
:104C60005F4FBE016C5D7F4FCE0180960E9457A3BF
:104C70004FEF241A340AB2CEC0908C1480917E0F6C
:104C800090917F0FA091800FB091810F88A399A37D
:104C9000AAA3BBA38091820F9091830FA091840F50
:104CA000B091850F8CA39DA3AEA3BFA38091860F67
:104CB0009091870FA091880FB091890F88A799A72D
:104CC000AAA7BBA7CE0180960E942847A196ECAC6C
:104CD000FDAC0EAD1FADA1972AE83FE0AE01485DE7
:104CE0005F4FBE016C5D7F4FCE0180960E9457A33F
:104CF0000E943F8B0E9430470C94C03DE7E5FAE2EA
:104D000084918F010F5F1F4F882321F00E943B4742
:104D1000F801F6CFE2EAF1E084918F010F5F1F4FB7
:104D2000882311F40C94C03D0E943B47F801F4CF56
:104D300080E50E945844882329F00E94EA446B01D0
:104D40007C0103C0C12CD12C760183E50E9458441C
:104D5000882321F00E941E456B017C010E94D95BD3
:104D60000E9430478091760F9091770FA091780F35
:104D7000B091790FC80ED91EEA1EFB1E80912F023A
:104D8000811105C060E088EB91E00E94E5520E942D
:104D9000489EDC01CB018C199D09AE09BF09B7FD06
:104DA00002C00C94C03D80E00E9464CFF0CF0E940E
:104DB000D95B80913C1081FF2AC09091B80E992355
:104DC000A1F09091B90E992381F09091BA0E992398
:104DD00061F080E00E941DFA8090B7149090B814A2
:104DE000A090B914B090BA1418C08D7F80933C1075
:104DF00080E090E0A0E8B0E48093B7149093B814FA
:104E0000A093B914B093BA144C015D0106C0812C73
:104E1000912C80E8A82E80E4B82E80910002909119
:104E20000102A0910202B091030280939204909338
:104E30009304A0939404B09395048091A002909160
:104E4000A102909391048093900484E690E0909363
:104E5000A1028093A0020E943047FF24F394F092B5
:104E60001C0288E50E945844082F89E50E94584496
:104E7000182F8AE50E945844382E011104C01111E0
:104E800004C0F82605C0111102C0F12C01C0F82E93
:104E9000F092040280E1EFEAF4E1AEE7BFE00190B6
:104EA0000D928A95E1F7F11005C0011103C011239D
:104EB00009F431C120E030E0A901609167057091EB
:104EC00068058091690590916A050E9458FD2091BE
:104ED000F30E3091F40E4091F50E5091F60E0E94B3
:104EE00058FD6093860F7093870F8093880F90937F
:104EF000890FF11006C0002309F40DC1112309F434
:104F00000AC11092B3141092B4141092B5141092F6
:104F1000B6141092AF141092B0141092B1141092F3
:104F2000B2140E949E45E8E2F9E394912E969FAF59
:104F30002E978CE199E30E94E5452B013C0180E22C
:104F400099E30E94E5456B017C019B01AC01C30123
:104F5000B2010E94A0FF18162CF4A3019201C70110
:104F6000B60104C0A7019601C301B2010E9444FE2C
:104F70009B01AC010F945B0520E030E040E85FE36B
:104F80000E9458FD0E94E9FF20E030E048E452E42E
:104F90000F945B056DAF22967FAF22972A968FAF55
:104FA0002A97292EE9E2F9E3A4912696AFAF269736
:104FB00020E030E040EC5FE3C701B6010F945B05F1
:104FC00065966CAF7DAF8EAF9FAF65972696BFADF0
:104FD00026976B2FBB0F770B880B990B0F94FC0454
:104FE0009B01AC0165966CAD7DAD8EAD9FAD6597B7
:104FF0000F945B0529966CAF7DAF8EAF9FAF29975D
:1050000020E030E040EC5FE3C301B2010F945B05A8
:105010002B013C012E96EFAD2E976E2FEE0F770BE6
:10502000880B990B0F94FC049B01AC01C301B201E6
:105030000F945B052B013C0120910002309101028D
:10504000409102025091030261962CAF3DAF4EAFEA
:105050005FAF619720E030E0A9016DAD22967FAD92
:1050600022972A968FAD2A97922D0F94F6048823C3
:1050700049F0EDAC2296FFAC22972A963FAD2A97D5
:10508000222D04C0E12CF12C36E123E4C701A32F2B
:10509000B22F8093000290930102A0930202B0937A
:1050A00003024092AF145092B0146092B114709207
:1050B000B21429968CAD9DADAEADBFAD299780934E
:1050C000B3149093B414A093B514B093B6140E9483
:1050D00001440E94D95B61962CAD3DAD4EAD5FADF4
:1050E0006197209300023093010240930202509393
:1050F000030210928B051092B3141092B414109204
:10510000B5141092B6141092AF141092B0141092FD
:10511000B1141092B21480910402811102C00023D4
:1051200021F080E090E00E94DFCD809104028111A7
:1051300002C0112321F081E090E00E94DFCD809138
:105140000402811102C0332021F082E090E00E942D
:10515000DFCD0E949E458091190F80931C028091A3
:105160003C1080FF36C08091040281110AC08091FA
:10517000B80E882371F18091B90E882351F1332044
:1051800069F080E090E0A0E8B0E48093B7149093D9
:10519000B814A093B914B093BA1410C08091BA0E89
:1051A0008823B9F0011102C0112399F08092B7143D
:1051B0009092B814A092B914B092BA140E949E456D
:1051C00080913C10826080933C108FEA94E10E94B1
:1051D000F6AF8091920490919304A0919404B091C1
:1051E00095048093000290930102A0930202B09371
:1051F000030280919004909191049093A102809376
:10520000A0020E9430470E9467D70C94C03D83E5FE
:105210000E9458448823A1F00E946B4490E086309D
:10522000910580F0E6EAF2E084918F010F5F1F4F55
:10523000882311F40C94C03D0E943B47F801F4CF41
:1052400080E090E08330910509F456C144F4813048
:10525000910509F492C0029709F498C007C0843000
:10526000910509F4AEC1059709F4BBC180913C10CA
:1052700080FF76C081FD03C06DEA73E002C069EA79
:1052800073E08FE792E00E944247E0E7F2E084910A
:105290008F010F5F1F4F882321F00E943B47F801C9
:1052A000F6CFECE5F2E084918F010F5F1F4F88236A
:1052B00021F00E943B47F801F6CFE1E5F2E084914E
:1052C0008F010F5F1F4F882321F00E943B47F80199
:1052D000F6CF60913D1070913E1080913F109091FB
:1052E000401045E00E94374BEEE3F2E084918F01DD
:1052F0000F5F1F4F811107C01CE3A12E10E1B12EDB
:1053000003E0F02E1FC00E943B47F801EFCFF501EC
:10531000EC0DFD1D658176818781908545E00E94B9
:10532000374B34E0C30ED11C4CE0C416D10461F4F9
:105330008AE00E943B47FA945CE0A50EB11CFF2076
:1053400009F478C1C12CD12CEBE3F2E084918F01F8
:105350000F5F1F4F8823D9F20E943B47F801F6CF19
:10536000E7E8F2E084918F010F5F1F4F882309F473
:1053700061C10E943B47F801F5CF0E944DEF1092AA
:1053800006021092050280E392E0AFC08091050210
:105390009091060297FF0EC0E7E0F2E084918F0142
:1053A0000F5F1F4F882311F40C94C03D0E943B47B0
:1053B000F801F4CF009779F480E090E0A0E8B0E441
:1053C0008093B7149093B814A093B914B093BA14FF
:1053D0000E949E4503C081500E94F6FB8091050209
:1053E00090910602893091050CF056C063E00E944E
:1053F000E3FC192F80FF03C092E0911B192F9AE55F
:105400008902B0011124665F7F4F072E000C880BC4
:10541000990B0F94FC049B01AC01AAE51A02C00190
:1054200011240A96BC01990F880B990BC657DF4FC0
:105430002883CA58D040C557DF4F3883CB58D04057
:10544000C457DF4F4883CC58D040C357DF4F5883F1
:10545000CD58D0400F94FC04C657DF4F2881CA585E
:10546000D040C557DF4F3881CB58D040C457DF4FAD
:105470004881CC58D040C357DF4F5881CD58D040D9
:105480000E943789809105029091060201969093BF
:10549000060280930502CEC080E090E0A0E1B1E476
:1054A0008093B7149093B814A093B914B093BA141E
:1054B0000E9401440E94D95BE3EFF1E084918F01E7
:1054C0000F5F1F4F882321F00E943B47F801F6CF62
:1054D0008FEF9FEF909306028093050280913C101E
:1054E000816080933C108FEE91E09093A80E8093A2
:1054F000A70E0E9443459EC088E50E945844882319
:10550000A1F00E94D2440FEF080F0330A8F0E8ED9D
:10551000F1E084918F010F5F1F4F882311F40C94E9
:10552000C03D0E943B47F801F4CF88E50E943B470D
:105530000E940DFA0C94C03D89E50E9458448823CE
:10554000A1F00E94D2441FEF180F1330A8F0E1EC35
:10555000F1E084918F010F5F1F4F882311F40C94A9
:10556000C03D0E943B47F801F4CF89E50E943B47CC
:105570000E940DFA0C94C03D8AE50E94584488238D
:10558000C9F00E94F544212F110F330BF901EE0FE2
:10559000FF1FE20FF31FE00FF11D07FDFA95EE0F5D
:1055A000FF1FEE0FFF1FE45CFF4E6583768387834A
:1055B000908740C08AE50E943B470E940DFA0C94F8
:1055C000C03D8AE50E9458448823A1F30E94F54417
:1055D00060933D1070933E1080933F109093401065
:1055E00029C080913C1081FF23C020E030E040E8DA
:1055F00050E46091B7147091B8148091B9149091EF
:10560000BA140E9457FD6093B7147093B814809336
:10561000B9149093BA1447EB54E163EB74E18FEA49
:1056200094E10E94DEB00E944DEF0E949E4502C0B0
:105630000E944DEF0E9467D70C94C03D10928D04DC
:105640000C94C03D81E080938D040C94C13D85E4B1
:105650000E945844982E811102C00E94D95B75EDBA
:10566000A72E72E0B72EEFEACE2EE4E1DE2EFBEE9F
:10567000EF2EFEE0FF2E00E010E0812CF50181917D
:105680005F010E945844882309F44CC0D6012D9133
:105690003D914D915C91C657DF4F2883CA58D04049
:1056A000C557DF4F3883CB58D040C457DF4F4883AE
:1056B000CC58D040C357DF4F5883CD58D0400E94BC
:1056C000F544F6016083718382839383C657DF4F6D
:1056D0002881CA58D040C557DF4F3881CB58D040B9
:1056E000C457DF4F4881CC58D040C357DF4F588153
:1056F000CD58D04003301105A9F00E9457FD9B0101
:10570000AC01D7016D917D918D919C910E9458FDC6
:10571000F7016083718382839383C8010E94EB4504
:10572000882483940F5F1F4FF4E0CF0ED11C24E038
:10573000E20EF11C0430110509F0A0CF882019F009
:105740000E949E4503C091100E940FEF0E9467D7F0
:105750000C94C03D2237310509F4A3C608F0BEC041
:105760002C34310509F4F9C208F061C02831310543
:1057700009F4B4C178F52231310509F48AC668F418
:105780002230310508F49CC12131310511F00C940F
:10579000C03D0E949B880C94C03D2531310509F421
:1057A00093C148F42431310511F00C94C03D0E949E
:1057B00041880C94C03D2631310509F489C1273157
:1057C000310511F00C94C03D40E061E00E94ED769F
:1057D0000C94C03D2E31310509F4A1C1A8F42A3141
:1057E000310509F48AC108F484C12B31310509F46B
:1057F00092C12C31310511F00C94C03D40E060E0C5
:105800000E94ED760C94C03D2032310509F495C21A
:1058100008F49BC22A32310509F49BC22B343105AE
:1058200011F00C94C03D0E945CEF0C94C03D2836F2
:10583000310509F49EC238F52235310509F420C638
:1058400078F42E34310509F490C208F48AC2213567
:10585000310511F00C94C03D0E9476D90C94C03DE6
:105860002435310509F415C608F40EC62535310571
:1058700009F413C62C35310511F00C94C03D0E947B
:105880007ED80C94C03D2D36310509F4D2C298F46F
:105890002A36310509F4ECC508F4C3C22B363105AC
:1058A00009F4EAC52C36310511F00C94C03D109274
:1058B00098020C94C03D2F36310509F4A2C208F4B9
:1058C0009CC22037310509F4A0C22137310511F0FF
:1058D0000C94C03D0E94A1D90C94C03D2C3241E0F3
:1058E000340709F4C8C608F06DC0283C310509F436
:1058F00062C680F52837310509F4E0C588F42537FC
:10590000310509F4D2C52737310509F4D3C523374A
:10591000310511F00C94C03D0E9457D70C94C03D46
:105920002C38310509F479C258F42937310511F0C2
:105930000C94C03D10921C021092190F0C94C03DA3
:105940002139310509F4C1C52E3B310509F41AC4CA
:105950000C94C03D2E3C310509F439C6D8F42B3CDB
:10596000310509F42CC648F4293C310511F00C949A
:10597000C03D0E94E5D60C94C03D2C3C310509F495
:1059800022C62D3C310511F00C94C03D0E94F0D58B
:105990000C94C03D2C3D310509F41DC648F4233D4F
:1059A000310511F00C94C03D0E945AD50C94C03DB5
:1059B0002D3D310509F413C6223E310509F42BC6ED
:1059C0000C94C03D253A61E0360711F40C94AD38D3
:1059D00048F5203391E0390709F418C748F42E320E
:1059E000B1E03B0709F490C708F46CC60C94F83496
:1059F0002039F1E03F0711F40C944E3838F4233687
:105A0000314011F40C943F3D0C94C03D2A3961E0C3
:105A1000360709F4FEC1243A314011F40C94513890
:105A20000C94C03D273F91E0390711F40C94A73A3C
:105A300068F5243FB1E03B0711F40C94A13AB8F4A7
:105A40002C3A314011F00C94C03D3FEA232E34E152
:105A5000332E2FE535E03EAF2DAF48EB5EE02396C9
:105A60005FAF4EAF239700E010E00C94A639253FBE
:105A700041E0340711F40C94A43A263F314011F070
:105A80000C94C03D0E94B5B80C94C03D2B3863E027
:105A9000360711F40C94E73C38F42835324011F401
:105AA0000C94B33A0C94C03D203AA3E03A0709F4B1
:105AB00048C1273E334011F40C94883D0C94C03DFE
:105AC0000E94A5880C94C03D0E941B7A0C94C03D96
:105AD0001092AE101092AF100C94C03D8091AF1098
