:100000000C94C11F0C94F21F0C94F21F0C94F21F5D
:100010000C94F21F0C94F21F0C94F21F0C94F21F1C
:100020000C94F21F0C94F21F0C94F21F0C94F21F0C
:100030000C94F21F0C94564F0C94F21F0C94F21F68
:100040000C94F21F0C9420660C94F21F0C94F21F77
:100050000C94F21F0C94F21F0C941BE60C94E1829A
:100060000C94F21F0C94764E0C94F21F0C94F21F19
:100070000C94F21F0C94F21F0C94F21F0C94F21FBC
:100080000C94F21F0C94F21F0C94F21F0C94F21FAC
:100090000C94F21F0C94F21F0C94F21F0C94F21F9C
:1000A0000C94F21F0C94F21F0C94F21F0C94F21F8C
:1000B0000C94F21F0C94F21F0C94F21F0C94F21F7C
:1000C0000C94F21F0C94F21F0C94F21F0C94F21F6C
:1000D0000C94F21F0C94F21F0C94F21F0C94F21F5C
:1000E0000C94F21FEA4EED4EDC4EE04EE64E244FED
:1000F000F14EF54EFB4EFF4E034F094F0D4F114F82
:10010000244F174F1B4F1F4FFE59075A0D5A135AB2
:10011000195A1F5A295A2F5AFD81028207821182C9
:100120001B82948225822D8235823F8249825382AE
:1001300062826C829482768280828A8270E680E615
:100140009FE6AFE6CAE6CFE6D2E6D7E6DAE6DFE636
:10015000E2E6E7E6F1E6084AD73B3BCE016E84BC17
:10016000BFFDC12F3D6C74319ABD56833DDA3D0011
:10017000C77F11BED9E4BB4C3E916BAAAABE00005A
:1001800000803F05A84CCDB2D44EB93836A9020C38
:1001900050B9918688083CA6AAAA2ABE0000008011
:1001A0003F0047322F4733206261642070617261E3
:1001B0006D65746572730A00536C6565702E2E2E22
:1001C0000059206F7574206F662072616E6765201C
:1001D00028312D33292E0A0058206F7574206F6640
:1001E0002072616E67652028312D33292E0A004761
:1001F0003238004D6573682070726F62696E6720D7
:10020000646F6E652E0A005374617274206D65739D
:10021000682070726F62696E672077697468202247
:10022000473239205331222066697273742E0A00D6
:100230004732380A473239205332002020000A4D15
:100240006561737572656420706F696E74733A0AC4
:10025000005A206F66667365743A20005A207365F1
:1002600061726368206865696768743A20340A00BF
:100270000A4E756D20582C593A20332C330A0053FE
:10028000746174653A20004D65736820626564206E
:100290006C6576656C696E67206E6F74206163743F
:1002A0006976652E0A0053206F7574206F66207280
:1002B000616E67652028302D35292E0A004475703F
:1002C0006C696361746F7220362072656164792E87
:1002D00000526573756D696E67207072696E740087
:1002E0005761697420666F7220757365722E2E2EA9
:1002F00000456E642066696C65206C6973740A0041
:10030000426567696E2066696C65206C6973740A62
:10031000005344207072696E74696E67206279744C
:100320006520004E6F74205344207072696E7469AA
:100330006E670A0046696C652064656C6574656467
:100340003A0044656C6574696F6E206661696C651E
:10035000642C2046696C653A20006F70656E2066DB
:1003600061696C65642C2046696C653A20004865BB
:100370006174696E672E2E2E004475706C6963611E
:10038000746F7220362072656164792E004B494C7F
:100390004C45442E20004D313133205300426564DA
:1003A00020646F6E652E003F0A0020573A004265B8
:1003B000642048656174696E672E0020643A0020ED
:1003C000693A0020703A0020643A0020693A00201F
:1003D000703A0043290A0061626C656420286D69E7
:1003E0006E2074656D702000436F6C6420657874B6
:1003F00072756465732061726520004B6420002370
:10040000646566696E65202044454641554C545FDD
:10041000004B69200023646566696E6520204445B1
:100420004641554C545F004B70200023646566695B
:100430006E65202044454641554C545F0050494468
:10044000204175746F74756E652066696E69736896
:100450006564212050757420746865206C61737424
:10046000204B702C204B6920616E64204B6420630C
:100470006F6E7374616E74732066726F6D20626547
:100480006C6F7720696E746F20436F6E6669677555
:10049000726174696F6E2E680A005049442041757C
:1004A000746F74756E65206661696C656421207473
:1004B000696D656F75740A00504944204175746F09
:1004C00074756E65206661696C6564212054656D84
:1004D000706572617475726520746F6F20686967EA
:1004E000680A00204B643A2000204B693A20002023
:1004F0004B703A20000A20436C617373696320508B
:100500004944200A002054753A2000204B753A20B7
:1005100000206D61783A2000206D696E3A2000203D
:10052000643A200020626961733A20004D34323110
:100530002072657175697265732058595A206F72FF
:1005400020494A5A20706172616D65746572730A40
:10055000004D657368205859206F7220494A206306
:10056000616E6E6F74206265207265736F6C766564
:10057000640A004D657368205859206F7220494AFB
:100580002063616E6E6F74206265207265736F6C9C
:100590007665640A004F66667365747320617070D7
:1005A0006C696564004572723A20546F6F20666111
:1005B000722100546F6F206661722066726F6D2029
:1005C0007265666572656E636520706F696E740A28
:1005D000004D36303020486F74656E6420746F6F44
:1005E00020636F6C6420746F206368616E676520A0
:1005F00066696C616D656E740A006F6E0A006F66E5
:10060000660A0043617365206C6967687473200033
:100610004163746976652045787472756465723AD1
:100620002000556E6B6E6F776E20636F6D6D616E1F
:10063000643A2022002569730025696D20256973BD
:10064000002569682025696D202569730025696486
:10065000202569682025696D202569730025697941
:1006600020256964202569682025696D2025697326
:10067000004E6F204C696E65204E756D626572206C
:100680007769746820636865636B73756D2C204CA3
:10069000617374204C696E653A20004B494C4C459F
:1006A000442E200053544F505045442E2000507289
:1006B000696E7465722073746F7070656420647500
:1006C0006520746F206572726F72732E2046697890
:1006D00020746865206572726F7220616E64207587
:1006E0007365204D39393920746F207265737461D8
:1006F00072742E202854656D706572617475726510
:100700002069732072657365742E205365742069A7
:1007100074206166746572207265737461727469A5
:100720006E67290A004E6F20436865636B73756DB1
:100730002077697468206C696E65206E756D6265DE
:10074000722C204C617374204C696E653A200063F2
:100750006865636B73756D206D69736D6174636833
:100760002C204C617374204C696E653A20004C69F2
:100770006E65204E756D626572206973206E6F74B0
:10078000204C617374204C696E65204E756D6265F6
:10079000722B312C204C617374204C696E653A20A9
:1007A000004D313130004D3331004D383420582068
:1007B00059205A20450053442072656164206572B7
:1007C000726F720A00446F6E65207072696E746990
:1007D0006E672066696C650A0020496E76616C69F7
:1007E0006420657874727564657220000000484367
:1007F0000000484300002A43000000000000000001
:100800000000000020746F6F206C6F6E67206578A9
:1008100074727573696F6E2070726576656E74653B
:10082000640A0020636F6C64206578747275736964
:100830006F6E2070726576656E7465640A00206E56
:100840006F7420656E74657265642E0A0000002165
:1008500000240027002A002D003000330001010091
:1008600000040107010A0100002200250028002BD6
:10087000002E003100340002010000050108010BC8
:1008800001000020002300260029002C002F003248
:100890000000010000030106010901050505050727
:1008A0000508080808020202020A0A0808040404EB
:1008B0000401010101010101010303030303030317
:1008C00003040707070C0C0C0C0C0C0C0C020202A6
:1008D0000206060606060606060B0B0B0B0B0B0B99
:1008E0000B01021020200808102040102040800238
:1008F0000102010804020101020408102040808066
:1009000040201008040201800402018040201008E9
:1009100004020108040201010204081020408001C1
:100920000204081020408000000A0B02090C0D0E82
:1009300008070304010000000000000000000000A0
:1009400000000000000000000000000000000000A7
:100950000000001211100000000000000000000064
:1009600000000000000000000000000000024B49F1
:100970004C4C45442E2000202D20496E76616C6938
:1009800064206578747275646572206E756D626539
:100990007220210A002020506C616E6E65724275D3
:1009A0006666657242797465733A20002046726506
:1009B00065204D656D6F72793A2000436F6D7069E7
:1009C0006C65643A2046656220203220323031372F
:1009D0000A00207C20417574686F723A2028646F89
:1009E000745F626F622C2064656661756C7420634D
:1009F0006F6E666967290A00323031362D31322D2B
:100A000030362031323A303000204C61737420553A
:100A10007064617465643A2000312E312E302D529D
:100A200043380A004D61726C696E0020536F667422
:100A3000776172652052657365740A00205761748E
:100A40006368646F672052657365740A00204272A0
:100A50006F776E206F75742052657365740A00207D
:100A600045787465726E616C2052657365740A0016
:100A7000506F77657255700A0073746172740A0062
:100A80006572726F722077726974696E6720746F15
:100A90002066696C650A00456E6473746F7073201C
:100AA000256320256320256320256300205A3A0012
:100AB00020593A0020583A00656E6473746F707361
:100AC000206869743A2000446F6E6520736176690E
:100AD0006E672066696C652E0A004D3239005072CF
:100AE0006F746F636F6C3A20312E30004261756411
:100AF0003A2032353030303000556C74696D616B9E
:100B0000657220322E780045787472756465727350
:100B10003A203100687474703A2F2F6D61726C69DD
:100B20006E66772E6F7267004475706C69636174CE
:100B30006F72203600323031362D31322D30362072
:100B400031323A303000312E312E302D52433800C0
:100B50004D61726C696E005072696E7465722053DB
:100B60007461747300546865726D6973746F727325
:100B700000426F61726420496E666F005072696E48
:100B800074657220496E666F004D61696E0045782C
:100B90007472756465206D6F726500526573756D52
:100BA00065004348414E4745204F5054494F4E53EE
:100BB0003A006368616E6765006F6620746865203F
:100BC00066696C616D656E74005761697420666F4B
:100BD00072207374617274004348414E4745204649
:100BE000494C414D454E540066696C616D656E74AB
:100BF00020756E6C6F6164005761697420666F7256
:100C0000004348414E47452046494C414D454E54CE
:100C100000746F20636F6E74696E75652E2E2E00E2
:100C2000616E6420707265737320627574746F6E88
:100C300000496E736572742066696C616D656E74CF
:100C4000004348414E47452046494C414D454E548E
:100C50000066696C616D656E74206C6F616400572D
:100C600061697420666F72004348414E47452046D3
:100C7000494C414D454E540066696C616D656E741A
:100C80002065787472756465005761697420666FB9
:100C900072004348414E47452046494C414D454E20
:100CA0005400746F20726573756D650057616974C7
:100CB00020666F72207072696E74004348414E471F
:100CC000452046494C414D454E54004D6F76696E66
:100CD000672E2E2E0025753A2530327500253032CC
:100CE000753A253032750025756420253032753A05
:100CF00025303275005A00590058000920000000C4
:100D0000000000000000000000007FFFE000000085
:100D10000000000000000000007000E00000000083
:100D2000000000000000000061F86000000000000A
:100D30000000000000000041F8200000000000005A
:100D400000000000000040F0200000000000000053
:100D500000000000004060200000000000000000D3
:100D6000000000005801A07F80000000000000008B
:100D70004104005C63A0FFC00000000000000020F0
:100D800082005EF7A0FFC00000000000000020828B
:100D9000005EF7A0FFC0000000000000004104005A
:100DA0005C63A07F80000000000000008208005803
:100DB00001A07F80000000000000010410004060DE
:100DC00020FFC00000000000000104100040F020DF
:100DD000FFC00000000000000082080041F820FF72
:100DE000C00000000000000041040061F8603F0006
:100DF000000000000000000000007000E01E000085
:100E0000000000000001FFFF807FFFE00C000000F9
:100E10000000000001FFFF80000000000000000053
:100E2000000000000000007FFFE000000000000064
:100E30000000000000007000E00000000000000062
:100E40000000000000630C600000000000000000D3
:100E500000000000470E200000000000000000001D
:100E60000000004F0F200000000000000000000004
:100E700000005F0FA0000000000000000000000064
:100E8000005E07A07F800000000000000041040019
:100E9000406020FFC00000000000000020820040F1
:100EA000F020FFC00000000000000020820040F0A1
:100EB00020FFC0000000000000004104004060204E
:100EC0007F80000000000000008208005E07A07F15
:100ED00080000000000000010410005F0FA0FFC0B0
:100EE000000000000000010410004F0F20FFC000B0
:100EF000000000000000820800470E20FFC0000034
:100F00000000000000410400630C603F000000008E
:100F1000000000000000007000E01E000000000063
:100F2000000001FFFF807FFFE00C000000000000D8
:100F30000001FFFF8000000000060900FE00000025
:100F4000000001090008FE00000508080600004036
:100F5000F0C88888987810050808060000C0F8884E
:100F600088888888F80505050600012030F83020BB
:100F70000508080600002070F820202020E0050960
:100F8000090600FF2070A8A8B88888702005090904
:100F90000600FFE080C0B0A828302828050909060F
:100FA00000FFF8A88888888888A8F8050A0A06003B
:100FB000FE205050505088A8A888700303030600F4
:100FC0000340A04000060900FE070192032120FF14
:100FD000FF08FF07FF0000000600000107070602E8
:100FE0000080808080800080030202060105A0A0AE
:100FF0000507070600005050F850F8505005070745
:101000000600002078A07028F020050707060000E1
:10101000C0C810204098180507070600006090A07F
:1010200040A89068020303060104C040800307073C
:101030000601002040808080402003070706010051
:101040008040202020408005050506000120A87072
:10105000A8200505050600012020F8202002030332
:101060000602FFC04080050101060003F8020202EB
:10107000060200C0C00505050600010810204080DA
:1010800005070706000070888888888870030707AE
:1010900006010040C040404040E005070706000050
:1010A000708808708080F8050707060000F8102097
:1010B000100808F005070706000010305090F810DF
:1010C00010050707060000F880F00808887005077B
:1010D00007060000708080F088887005070706000A
:1010E00000F808102020202005070706000070885F
:1010F000887088887005070706000070888878085F
:101100000870020505060200C0C000C0C002060645
:101110000602FFC0C000C0408004070706000010A0
:10112000204080402010050303060002F800F80468
:1011300007070601008040201020408005070706B1
:1011400000007088081020002005070706000070C6
:10115000880868A8A870050707060000708888F846
:10116000888888050707060000F08888F08888F0DE
:1011700005070706000070888080808870050707D3
:10118000060000F08888888888F0050707060000B8
:10119000F88080F08080F8050707060000F880805E
:1011A000F0808080050707060000708880B8888876
:1011B00070050707060000888888F8888888010776
:1011C0000706020080808080808080050707060077
:1011D0000038101010109060050707060000889076
:1011E000A0C0A0908805070706000080808080804E
:1011F00080F805070706000088D8A8888888880531
:1012000007070600008888C8A89888880507070689
:10121000000070888888888870050707060000F03D
:101220008888F0808080050707060000708888881D
:10123000A89068050707060000F08888F0A090884D
:10124000050707060000788080700808F00507078A
:10125000060000F8202020202020050707060000B7
:10126000888888888888700507070600008888882D
:10127000888850200507070600008888888888A885
:101280005005070706000088885020508888050709
:1012900007060000888888502020200507070600E0
:1012A00000F80810204080F8030707060100E080DE
:1012B00080808080E0050505060001804020100840
:1012C000030707060100E02020202020E00503039B
:1012D000060004205088050101060000F802020201
:1012E000060205804005050506000070087888782C
:1012F0000507070600008080B0C88888F00505054E
:101300000600007080808870050707060000080846
:1013100068988888780505050600007088F8807050
:101320000507070600003048E0404040400506063B
:101330000600FF708888780870050707060000809F
:1013400080B0C88888880107070602008000808076
:101350008080800308080601FF200020202020A0B4
:1013600040040707060000808090A0C0A0900307FB
:1013700007060100C04040404040E005050506006A
:1013800000D0A8A8A8A8050505060000B0C8888850
:101390008805050506000070888888700506060621
:1013A00000FFF08888F080800506060600FF788838
:1013B00088780808050505060000B0C8808080050B
:1013C000050506000070807008F00407070600009D
:1013D0004040E04040403005050506000088888810
:1013E00098680505050600008888885020050505D1
:1013F0000600008888A8A85005050506000088504A
:101400002050880506060600FF8888887808700541
:101410000505060000F8102040F803070706010044
:101420002040408040402001070706020080808065
:1014300080808080030707060100804040204040F4
:10144000800502020600026890000000060000000D
:10145000000006000000000006000000000006007A
:101460000000000006000000000006000000000070
:10147000060000000000060000000000060000005A
:10148000000006000000000006000000000006004A
:101490000000000006000000000006000000000040
:1014A000060000000000060000000000060000002A
:1014B000000006000000000006000000000006001A
:1014C0000000000006000000000006000000000010
:1014D00006000000000006000000000006000000FA
:1014E00000000600000000000600000000000600EA
:1014F00000000000060000000000060000000000E0
:1015000006000000000006000000000006000000C9
:1015100000000600000107070602008000808080AE
:1015200080800507070600002070A8A0A87020058D
:101530000707060000304040E04050A805050506BA
:10154000000088705070880507070600008850204A
:10155000F820F820010707060200808080008080C4
:101560008005080806000030482050502090600395
:101570000101060107A0050707060000F888B8B8B2
:10158000B888F8050707060001700878887800F821
:101590000505050600012850A05028050303060094
:1015A00001F8080802020206020640800507070645
:1015B0000000F888A88898A8F8050101060006F838
:1015C000040404060003609090600507070600000D
:1015D0002020F8202000F804050506000360902074
:1015E00040F0030505060003E020E020E0020202CF
:1015F00006020640800508080600FF88888888984B
:10160000E880800507070600007898987818181871
:10161000020202060202C0C00202020602FF40806D
:1016200003050506000340C04040E005070706002B
:1016300001708888887000F8050505060001A05033
:101640002850A00507070600008890A858B8080889
:101650000507070600008890B84898203805080854
:10166000060000C040C048D8380808050707060033
:1016700000200020408088700508080600004020F7
:10168000007088F88888050808060000102000709F
:1016900088F888880508080600002050007088F83F
:1016A00088880508080600006890007088F8888817
:1016B0000508080600005000708888F8888805082A
:1016C000080600002050207088F888880507070663
:1016D00000003860A0B8E0A0B80508080600FF7058
:1016E000888080887020600508080600004020007F
:1016F000F880F080F8050808060000081000F8805F
:10170000F080F8050808060000205000F880F080FE
:10171000F80507070600005000F880F080F803087D
:1017200008060100804000E0404040E00308080651
:101730000100204000E0404040E0030808060100AE
:1017400040A000E0404040E0030707060100A00081
:10175000E0404040E0050707060000704848E848C0
:10176000487005080806000068900088C8A8988896
:1017700005080806000040207088888888700508E1
:101780000806000010207088888888700508080600
:101790000000205000708888887005080806000046
:1017A000689000708888887005080806000050005E
:1017B00070888888887005050506000188502050CB
:1017C000880508080600FF1070A8A8A8A8704005A2
:1017D0000808060000402088888888887005080866
:1017E0000600001020888888888870050808060090
:1017F000002050008888888870050808060000507E
:1018000000888888888870050808060000102088ED
:1018100050202020200509090600FFC040704848DC
:10182000704040E00408080601FF609090A090908E
:10183000E0800508080600004020007008788878DD
:101840000508080600001020007008788878050850
:1018500008060000205000700878887805080806FF
:101860000000689000700878887805070706000077
:10187000500070087888780508080600002050207D
:101880007008788878050606060000D02878A0A899
:10189000500506060600FF70808870206005080865
:1018A0000600004020007088F880700508080600D7
:1018B000001020007088F8807005080806000020DD
:1018C00050007088F880700507070600005000700F
:1018D00088F8807003080806010080400040C0407E
:1018E00040E003080806010020400040C04040E0FE
:1018F00003080806010040A00040C04040E0030784
:1019000007060100A00040C04040E00507070600B0
:1019100000A040A0107888700508080600006890B4
:1019200000B0C888888805080806000040200070BC
:1019300088888870050808060000102000708888D4
:10194000887005080806000020500070888888709C
:1019500005080806000068900070888888700507F0
:10196000070600005000708888887005050506008D
:10197000012000F800200507070600FF1070A8A846
:10198000A870400508080600004020008888889854
:1019900068050808060000102000888888986805F7
:1019A0000808060000205000888888986805070706
:1019B000060000500088888898680509090600FF1D
:1019C000102000888888F808700407070601FFC007
:1019D0004060506040E00508080600FF500088881D
:1019E0008878087024F4D43050C38E20C2A24017E7
:1019F000828B7011127A910D816CD90AA861E1086D
:101A0000C7586607615143061E4B5D05C145A704D3
:101A10001A411104093D9803713931034036DB0244
:101A200065339102D4305402802E1D02632CEE01E6
:101A3000752AC501B028A001102781018F256401F6
:101A40002B244B01E0223401AC211F018D200D011C
:101A5000801FFC00841EED00971DDF00B81CD20023
:101A6000E61BC600201BBC00641AB200B219A80015
:101A70000A19A0006A189900D117910040178B002D
:101A8000B516840031167E00B31579003A1573003F
:101A9000C7146F0058146A00EE13660088136300C1
:101AA00025135E00C7125B006C125700151254001C
:101AB000C111510070114F0021114B00D610490087
:101AC0008D1047004610440002104200C00F400035
:101AD000800F3E00420F3C00060F3B00CB0E38004B
:101AE000930E37005C0E3500270E3400F30D3200E4
:101AF000C10D3100900D3000600D2E00320D2D0013
:101B0000050D2C00D90C2B00AE0C2900850C2900EA
:101B10005C0C2700350C27000E0C2600E80B240077
:101B2000C40B2400A00B23007D0B23005A0B2100C3
:101B3000390B2100180B2000F80A1F00D90A1E00DB
:101B4000BB0A1E009D0A1D00800A1D00630A1C00BE
:101B5000470A1B002C0A1B00110A1A00F7091A0079
:101B6000DD091900C4091900AB0919009209170011
:101B70007B091800630917004C0916003609160086
:101B8000200916000A091500F5081500E0081400E0
:101B9000CC081400B8081400A4081400900813001E
:101BA0007D0812006B081300580812004608120046
:101BB0003408110023081100120811000108110057
:101BC000F0071000E0071000D0071000C007100059
:101BD000B0070F00A107100091070E0083070F0048
:101BE00074070F0065070E0057070E0049070E0027
:101BF0003B070D002E070E0020070D0013070D00F8
:101C000006070D00F9060C00ED060D00E0060C00BD
:101C1000D4060C00C8060C00BC060C00B0060C0074
:101C2000A4060B0099060C008D060B0082060B0023
:101C300077060B006C060B0061060A0057060B00C6
:101C40004C060A0042060A0038060A002E060A0060
:101C500024060A001A060A001006090007060A00F0
:101C6000FD050900F4050900EB050900E20509007E
:101C7000D9050900D0050900C7050900BE050900FE
:101C8000B5050800AD050800A50509009C0508007C
:101C9000940508008C050800840508007C050800F0
:101CA000740508006C050700650508005D05070060
:101CB000560508004E0507004705070040050800C7
:101CC00038050700310507002A050700230507002E
:101CD0001C050600160507000F050700080506008D
:101CE00002050700FB040600F5040700EE040600E9
:101CF000E8040600E2040700DB040600D504060041
:101D0000CF040600C9040600C3040600BD04060093
:101D1000B7040600B1040500AC040600A6040600E2
:101D2000A00405009B04060095040500900406002D
:101D30008A04050085040500800406007A04050075
:101D400075040500700405006B04050066040500B9
:101D5000610405005C0405005704050052040500F9
:101D60004D04050048040500430405003E0404003A
:101D70003A04050035040500300404002C04050075
:101D800027040400230405001E0404001A040400B0
:101D900016040500110404000D04040009040500E4
:101DA0000404040000040400FC030400F80304001D
:101DB000F4030400F0030400EC030400E80304004F
:101DC000E4030400E0030400DC030400D80304007F
:101DD000D4030400D0030400CC030400C8030300B0
:101DE000C503030024F404D9201BC40C5C0E980422
:101DF000C4095F0265077101F405F900FB04B30033
:101E000048048700C10369005803550003034500D7
:101E1000BE023A008402310053022A002902250042
:101E200004022000E4011C00C8011900AF011700E2
:101E30009801140084011300710110006101100069
:101E400051010E0043010D0036010B002B010B0068
:101E500020010B00150109000C0109000301080015
:101E6000FB000800F3000800EB000700E400060098
:101E7000DE000600D8000600D2000600CC000500F7
:101E8000C7000500C2000500BD000400B900040041
:101E9000B5000400B1000400AD000400A900040076
:101EA000A5000300A20003009F0004009B000300A4
:101EB00098000300950002009300030090000300C7
:101EC0008D0002008B0003008800020086000200E3
:101ED00084000300810002007F0002007D000200F8
:101EE0007B0002007900020077000100760002000A
:101EF0007400020072000100710002006F00020015
:101F00006D0001006C0002006A000100690002001F
:101F10006700010066000100650001006400020026
:101F20006200010061000100600001005F0002002A
:101F30005D0001005C0001005B0001005A0001002F
:101F4000590001005800010057000100560001002F
:101F5000550001005400010053000000530001002F
:101F60005200010051000100500001004F0001002B
:101F70004E0000004E0001004D0001004C00010029
:101F80004B0000004B0001004A0001004900010025
:101F90004800000048000100470001004600000022
:101FA000460001004500000045000100440001001A
:101FB0004300000043000100420000004200010015
:101FC0004100000041000100400001003F0000000E
:101FD0003F0001003E0000003E0001003D00000007
:101FE0003D0001003C0000003C0000003C000100FE
:101FF0003B0000003B0001003A0000003A000100F5
:1020000039000000390001003800000038000000ED
:1020100038000100370000003700010036000000E2
:1020200036000000360001003500000035000000D9
:1020300035000100340000003400000034000100CD
:1020400033000000330000003300010032000000C4
:1020500032000000320001003100000031000000B9
:1020600031000100300000003000000030000100AD
:102070002F0000002F0000002F0000002F000100A3
:102080002E0000002E0000002E0001002D00000098
:102090002D0000002D0000002D0001002C0000008C
:1020A0002C0000002C0000002C0001002B00000080
:1020B0002B0000002B0000002B0001002A00000074
:1020C0002A0000002A0000002A0001002900000068
:1020D000290000002900000029000000290001005B
:1020E0002800000028000000280000002800000050
:1020F0002800010027000000270000002700000042
:102100002700000027000100260000002600000034
:102110002600000026000000260001002500000027
:10212000250000002500000025000000250000001B
:10213000250001002400000024000000240000000D
:102140002400000024000100230000002300000000
:1021500023000000230000002300000023000000F3
:1021600023000100220000002200000022000000E5
:1021700022000000220000002200010021000000D7
:1021800021000000210000002100000021000000CB
:1021900021000000210001002000000020000000BC
:1021A00020000000200000002000000020000000AF
:1021B00020000000200001001F0000001F000000A0
:1021C0001F0000001F0000001F0000001F00000093
:1021D0001F0001001E0000001E0000001E00000085
:1021E0001E0000004D383420582059205A20450048
:1021F0006265640A002C2073797374656D207374B2
:102200006F7070656421204865617465725F494430
:102210003A200048656174696E67206661696C6583
:10222000640048656174696E67206661696C656405
:102230000048656174696E67206661696C65640059
:1022400048656174696E67206661696C6564004504
:1022500072726F722077726974696E6720746F2072
:10226000454550524F4D210A00206279746573290B
:102270000A0053657474696E67732053746F7265D6
:1022800064202800454550524F4D20636865636BBC
:1022900073756D206D69736D617463680A002062E7
:1022A00079746573290A002073746F7265642073F2
:1022B000657474696E67732072657472696576659A
:1022C0006420280048617264636F6465642044651B
:1022D0006661756C742053657474696E6773204C05
:1022E0006F616465640A0053442063617264206F07
:1022F0006B0A006F70656E526F6F74206661696C57
:1023000065640A00766F6C756D652E696E69742060
:102310006661696C65640A00534420696E697420C3
:102320006661696C0A006175746F25692E67004DDE
:102330003234004D32332025730057726974696E50
:102340006720746F2066696C653A20006F70656E57
:10235000206661696C65642C2046696C653A2000D2
:102360006F70656E206661696C65642C2046696CCF
:10237000653A200046696C652073656C6563746519
:10238000640A002053697A653A200046696C65202A
:102390006F70656E65643A20006F70656E206661CF
:1023A000696C65642C2046696C653A20002066697A
:1023B0006C653A20004E6F7720002220706F73000A
:1023C0002220706172656E743A2200535542524F5A
:1023D0005554494E452043414C4C20746172676509
:1023E000743A22004B494C4C45442E2000747279BB
:1023F000696E6720746F2063616C6C207375622D49
:1024000067636F64652066696C65732077697468BB
:1024100020746F6F206D616E79206C6576656C73CA
:102420002E204D4158206C6576656C2069733A000A
:102430004572726F723A0043616E6E6F74206F70F6
:10244000656E207375626469722000656E717565D2
:102450007565696E672022006563686F3A00FFE06A
:10246000FFD1AFFF32FFD0FFFEFFE0FFD1AEFFD0C4
:10247000FFFEFFE0FFD11000FFFEFFD0FFE0FFC135
:10248000FFD1AED580A83FD300408D142002A1C853
:10249000DA1281CFD9F1DB402EA4A6AFFFD0FFFE28
:1024A000436172642072656D6F766564004361728A
:1024B0006420696E7365727465640000060900FE2D
:1024C00006018902FE20FFFE07FE06FE0000000650
:1024D000000701060606020080808080008003035A
:1024E00003060103A0A0A00507070600FF5050F84F
:1024F00050F850500509090600FE2070A8A0702869
:10250000A870200608080600FF40A848102048547C
:10251000080507070600FF60909060989068010327
:10252000030602038080800207070602FF408080C6
:10253000808080400207070602FF80404040404004
:10254000800505050600008850F850880505050639
:1025500000002020F820200204040602FEC04040B3
:1025600080050101060002F8020202060200C0C056
:1025700004060606010010102040808004060606AE
:10258000010060909090906003060606010040C034
:10259000404040E00406060601006090102040F034
:1025A000040606060100F020601010E0050606068D
:1025B000000010305090F810040606060100F0806C
:1025C000E01010E00406060601006080E0909060D4
:1025D000040606060100F01010204040040606061E
:1025E0000100609060909060040606060100609013
:1025F00090701060020505060200C0C000C0C00255
:1026000007070602FEC0C000C04040800505050661
:1026100000001860806018050303060001F800F848
:10262000050505060000C0300830C0040707060194
:1026300000609010604000400506060600007090A3
:10264000A8B08070050606060000205088F888882B
:10265000050606060000F088F08888F004060606E5
:102660000100609080809060040606060100E09002
:10267000909090E0040606060100F080E08080F073
:10268000040606060100F080E0808080040606064D
:102690000100609080B090600406060601009090F2
:1026A000F0909090030606060100E040404040E0B4
:1026B0000506060600003810101090600406060695
:1026C000010090A0C0A09090040606060100808042
:1026D000808080F005060606000088D8A8A88888B3
:1026E00004060606010090D0B090909005060606FC
:1026F0000000708888888870040606060100E09053
:1027000090E080800407070601FF609090D0B060E1
:1027100010040606060100E09090E0909004060682
:10272000060100609040209060050606060000F853
:102730002020202020040606060100909090909012
:1027400060040606060100909090F06060050606A1
:102750000600008888A8A8D8880506060600008814
:10276000502020508805060606000088885020204A
:1027700020040606060100F010204080F003060643
:10278000060100E080808080E004060606010080EB
:102790008040201010030606060100E020202020C3
:1027A000E00503030600032050880501010600FE32
:1027B000F8020202060204804004040406010070CC
:1027C0009090700406060601008080E09090E0047E
:1027D00004040601007080807004060606010010E3
:1027E000107090907004040406010060B0C0700482
:1027F0000606060100205040E0404004060606019F
:10280000FE6090907010600406060601008080E073
:102810009090900306060601004000C04040E0038F
:1028200008080601FE200060202020A040040606C3
:102830000601008080A0C0A090030606060100C02B
:1028400040404040E0050404060000D0A8A88804E9
:102850000404060100E09090900404040601006066
:102860009090600406060601FEE09090E0808004EF
:1028700006060601FE709090701010040404060114
:1028800000A0D0808004040406010070C030E00481
:1028900006060601004040E0405020040404060102
:1028A0000090909070040404060100909060600510
:1028B000040406000088A8A850040404060100903F
:1028C0006060900406060601FE909090709060048F
:1028D0000404060100F02040F00307070601002071
:1028E0004040804040200107070602FF8080808032
:1028F0008080800307070601008040402040408020
:1029000004020206010350A0FFFFFFFFFFFFFFFFCD
:10291000FFFFFFFFFFFFFFFFFFFFFFFFFFFFFFFFC7
:10292000FFFFFFFFFFFFFFFFFF00000006000701A2
:1029300006060602008000808080800406060601EC
:10294000FF2070A0A070200507070600FF30484058
:10295000F04040F8050505060000A8508850A8057D
:1029600006060600008850F820F820010707060236
:10297000FF808080008080800407070601FF708050
:1029800060906010E0030101060105A0060707063C
:102990000000788494A494847803050506010160FE
:1029A000A06000E00505050600002850A05028049E
:1029B0000303060100F01010040101060102F006F5
:1029C00007070600007884B4A4A4847804010106F3
:1029D0000105F00403030601026090600507070685
:1029E00000FF2020F8202000F80305050601014023
:1029F000A02040E0030505060101C0204020C002E0
:102A0000020206020440800405050601FF9090B012
:102A1000D08005060606000078E8E868282801014D
:102A200001060202800202020602FE408003050542
:102A300006010140C04040E003050506010140A039
:102A40004000E0050505060000A0502850A005083C
:102A5000080600FF40C04050703078100508080696
:102A600000FF40C04050680810380508080600FF05
:102A7000C0204030F0307810040707060100200025
:102A800020608090600507070600004020205070FD
:102A900088880507070600001020205070888805E8
:102AA0000707060000205020507088880507070699
:102AB0000000285020507088880507070600005045
:102AC000002050708888050707060000205020501D
:102AD00070888805060606000078A0F0A0A0B8045B
:102AE00008080601FE60908080906020400407077F
:102AF0000601004020F080E080F004070706010096
:102B00002040F080E080F00407070601002050F02C
:102B100080E080F00407070601005000F080E080AC
:102B2000F00307070601008040E0404040E0030753
:102B3000070601002040E0404040E003070706018F
:102B40000040A0E0404040E0030707060100A0006D
:102B5000E0404040E00506060600007048E84848AE
:102B60007004070706010050A090D0B090900407B1
:102B7000070601004020609090906004070706015E
:102B800000204060909090600407070601002050EC
:102B9000609090906004070706010050A06090903C
:102BA0009060040707060100500060909090600557
:102BB000050506000088502050880408080601FF1B
:102BC0001070B0B0D0D0E0800407070601004020AC
:102BD000909090906004070706010020409090902C
:102BE00090600407070601002050909090906004C8
:102BF00007070601005000909090906005070706B7
:102C000000001020885020202004060606010080C5
:102C1000E09090E0800406060601006090A0A0907D
:102C2000A004070706010040200070909070040780
:102C3000070601002040007090907004070706010D
:102C4000002050007090907004070706010050A00B
:102C5000007090907004060606010050007090907D
:102C60007004070706010020502070909070050442
:102C70000406000070A8B0780406060601FE708005
:102C80008070204004070706010040200060B0C0AB
:102C90007004070706010020400060B0C070040700
:102CA0000706010020500060B0C07004060606014F
:102CB00000500060B0C070030707060100804000AC
:102CC000C04040E0030707060100204000C040402C
:102CD000E003070706010040A000C04040E00306F3
:102CE00006060100A000C04040E0040707060100FE
:102CF0003060107090906004070706010050A0003B
:102D0000E09090900407070601004020006090903A
:102D100060040707060100204000609090600407EF
:102D2000070601002050006090906004070706012C
:102D30000050A0006090906004060606010050005C
:102D4000609090600505050600002000F800200452
:102D5000040406010070B0D0E0040707060100403B
:102D6000200090909070040707060100204000901A
:102D7000909070040707060100205000909090701A
:102D800004060606010050009090907004090906A0
:102D900001FE2040009090907090600408080601A9
:102DA000FE8080E09090E080800408080601FE50DC
:102DB00000909090709060507265686561742050CA
:102DC0004C41204265640050726568656174205012
:102DD0004C410050726570617265005072656865A3
:102DE00061742041425320426564005072656865F9
:102DF0006174204142530050726570617265004CED
:102E00006576656C696E6720446F6E6521004D6F55
:102E10007665205A00473238004E65787420506F2E
:102E2000696E74002569202F20257500436C696345
:102E30006B20746F20426567696E00486F6D696E24
:102E4000672058595A00473238004C6576656C2027
:102E50006265640043616E63656C004D3432380016
:102E6000436F6F6C646F776E004368616E676520B7
:102E700066696C616D656E74005072656865617439
:102E800020414253005072656865617420504C4186
:102E9000004D38340044697361626C652073746559
:102EA0007070657273004C6576656C2062656400B5
:102EB00053657420686F6D65206F66667365747303
:102EC00000473238205A00486F6D65205A0047325B
:102ED00038205900486F6D65205900473238205816
:102EE00000486F6D65205800473238004175746F97
:102EF00020686F6D65004D6F76652061786973009D
:102F00004731205A313730004C6F77657220427557
:102F1000696C6420506C617465004D61696E004598
:102F200078747275646572004D6F7665205A004D35
:102F30006F76652059004D6F766520580050726598
:102F40007061726500526573746F726520666169A5
:102F50006C73616665004C6F6164206D656D6F72A6
:102F6000790053746F7265206D656D6F72790043DF
:102F7000617365206272696768746E657373004679
:102F8000696C616D656E74004D6F74696F6E00548D
:102F9000656D7065726174757265004D61696E0072
:102FA0004D333033205531204525692053256900A4
:102FB000507265686561742041425320636F6E668C
:102FC000005072656865617420504C4120636F6EDB
:102FD0006600504944204175746F74756E650050E9
:102FE0004944204175746F74756E65005049442DD5
:102FF00044005049442D44005049442D4900504953
:10300000442D49005049442D50005049442D500052
:103010002008204661637400200820466163740024
:103020002008204D6178002008204D61780020089C
:10303000204D696E002008204D696E004F666600C5
:103040004F6E20004175746F74656D700046616E3F
:103050002073706565640046616E207370656564F9
:103060000042656400426564004E6F7A7A6C6500C8
:103070004E6F7A7A6C6500436F6E74726F6C00539A
:10308000746F7265206D656D6F72790042656400C2
:10309000426564004E6F7A7A6C65004E6F7A7A6C86
:1030A000650046616E2073706565640046616E2040
:1030B00073706565640054656D70657261747572D6
:1030C000650020746F6F206C6F6E67206578747276
:1030D0007573696F6E2070726576656E7465640ACB
:1030E0000020636F6C6420657874727573696F6E0D
:1030F0002070726576656E7465640A00537465703D
:1031000020447269766520450053746570204472CE
:103110006976652045005374657020447269766550
:10312000205A0053746570204472697665205A00F5
:103130005374657020447269766520585900537441
:10314000657020447269766520585900457374652E
:1031500070732F6D6D004573746570732F6D6D0006
:103160005A73746570732F6D6D005A737465707344
:103170002F6D6D005973746570732F6D6D005973E9
:10318000746570732F6D6D005873746570732F6D57
:103190006D005873746570732F6D6D00412D7472DE
:1031A0006176656C00412D74726176656C00412D0D
:1031B0007265747261637400412D7265747261632B
:1031C0007400416D6178204500416D6178204500B3
:1031D000416D6178205A00416D6178205A00416D3F
:1031E0006178205900416D6178205900416D617806
:1031F000205800416D617820580056547261762045
:103200006D696E005654726176206D696E00566D60
:10321000696E00566D696E00566D617820450056E6
:103220006D6178204500566D6178205A00566D61B9
:1032300078205A00566D6178205900566D617820CB
:103240005900566D6178205800566D6178205800FD
:1032500056652D6A65726B0056652D6A65726B0046
:10326000567A2D6A65726B00567A2D6A65726B000C
:1032700056792D6A65726B0056792D6A65726B00FE
:1032800056782D6A65726B0056782D6A65726B00F0
:10329000416363656C00416363656C004265642053
:1032A0005A00426564205A00436F6E74726F6C005E
:1032B0007C3C3E5E2B3D3F2F5B5D3B2C2A225C001D
:1032C00053746F70207072696E740043616E636531
:1032D0006C0041626F7574205072696E7465720083
:1032E0004E6F2053442063617264005072696E74A3
:1032F0002066726F6D2053440053746F702070729B
:10330000696E7400526573756D65207072696E74B4
:10331000005061757365207072696E7400436F6E42
:1033200074726F6C0043617365206C696768742008
:103330006F6E0043617365206C69676874206F6607
:1033400066005072657061726500517569636B202B
:103350004D656E750054756E6500426162797374D7
:103360006570205A00496E666F2073637265656EE2
:1033700000426162797374657070696E67205A00EB
:103380004D363030004368616E67652066696C6158
:103390006D656E74004261627973746570205A00C5
:1033A000466C6F7700466C6F770046616E207370D5
:1033B0006565640046616E207370656564004265F2
:1033C0006400426564004E6F7A7A6C65004E6F7AD5
:1033D0007A6C6500426564205A00426564205A0098
:1033E0005370656564005370656564004D61696E76
:1033F00000526573656E643A20006F6B00627573EE
:10340000793A2070617573656420666F7220696E09
:103410007075740A00627573793A2070617573650E
:103420006420666F7220757365720A006275737925
:103430003A2070726F63657373696E670A004B4957
:103440004C4C45442E2000506C65617365207265BC
:10345000736574005052494E5445522048414C54B3
:103460004544005072696E7465722068616C7465C1
:10347000642E206B696C6C28292063616C6C656418
:10348000210A0000000000000000000000000057BA
:1034900061726E696E673A20486F6D696E6720428F
:1034A000756D702044697669736F72203C20310A13
:1034B000000000A0400000A04000000040000048C4
:1034C000430000484300002A43FFFFFF434F4D4D98
:1034D000554E49434154494F4E0044525952554E5E
:1034E000004552524F525300494E464F0045434803
:1034F0004F004E6F206D6F76652E005072696E74AE
:103500002074696D653A200050726F74656374654C
:10351000642050696E0A006D0046696C616D656ECD
:103520007420757365643A200053746174733A2093
:10353000002C204C6F6E67657374206A6F623A20AE
:1035400000546F74616C2074696D653A2000537487
:103550006174733A20002C204661696C65643A20DE
:10356000002C2046696E69736865643A20005072C9
:10357000696E74733A200053746174733A200020AA
:1035800042403A0020403A00202F0020423A0020DA
:103590002F0020543A006F6B0048656174696E67B4
:1035A00020646F6E652E003F0A0020573A00486580
:1035B0006174696E672E2E2E004475706C696361AC
:1035C000746F7220362072656164792E00ED34E8E4
:1035D00034E134DA34CC346F6666004445425547F2
:1035E0003A004D31343520533C696E6465783E2095
:1035F0006F7574206F662072616E67652028302DAC
:1036000031290A0020500020204D33353520530049
:1036100043617365204C696768743A0A002045006D
:10362000205A0020204D39303720580053746570DF
:10363000706572206D6F746F722063757272656E43
:1036400074733A0A0020204D3230302044300A0092
:1036500020204D3230302044002044697361626C78
:1036600065640A0046696C616D656E7420736574EB
:1036700074696E67733A0020440020490020204D91
:1036800033303420500020440020490020204D33A6
:1036900030312050005049442073657474696E675E
:1036A000733A0A0020460020420020480020204DA6
:1036B0003134352053004D6174657269616C206846
:1036C000656174757020706172616D657465727387
:1036D0003A0A00205A00205900202047323920534E
:1036E0003320580020590020580020204D3432301B
:1036F0002053004D65736820626564206C657665B3
:103700006C696E673A0A00205A0020590020204D4B
:10371000323036205800486F6D65206F66667365DD
:103720007420286D6D290A00204500205A00205978
:103730000020580020420020540020204D32303517
:10374000205300416476616E63656420766172691E
:1037500061626C65733A20533D4D696E2066656504
:10376000647261746520286D6D2F73292C20543D7F
:103770004D696E2074726176656C20666565647251
:1037800061746520286D6D2F73292C20423D6D6971
:103790006E696D756D207365676D656E74207469F3
:1037A0006D6520286D73292C20583D6D6178696DF9
:1037B000756D205859206A65726B20286D6D2F73C6
:1037C000292C20205A3D6D6178696D756D205A2035
:1037D0006A65726B20286D6D2F73292C2020453D62
:1037E0006D6178696D756D2045206A65726B202862
:1037F0006D6D2F73290A0020540020520020204DA7
:10380000323034205000416363656C6572617469C5
:103810006F6E733A20503D7072696E74696E672CDA
:1038200020523D7265747261637420616E6420542D
:103830003D74726176656C0A00204500205A0020B4
:10384000590020204D3230312058004D6178696D8B
:10385000756D20416363656C65726174696F6E207C
:10386000286D6D2F7332293A0A00204500205A0036
:1038700020590020204D3230332058004D617869A6
:103880006D756D2066656564726174657320286D61
:103890006D2F73293A0A00204500205A0020590054
:1038A00020204D39322058005374657073207065A4
:1038B0007220756E69743A0A007A5F6D696E3A20FB
:1038C00000795F6D696E3A2000785F6D696E3A200D
:1038D000005265706F7274696E6720656E647374F0
:1038E0006F70207374617475730A0046696C2E20C2
:1038F0004469612E0046696C2E204469612E004F98
:103900006666004F6E20004520696E206D6D3300A5
:10391000436F6E74726F6C004361736520627269ED
:103920006768746E6573730043616E6E6F742065B3
:103930006E746572207375626469723A2000022E9B
:103940002E004D61696E000045787472756465647F
:1039500020746F74616C3A2000256C642E25696DAB
:1039600000004C6F6E67657374206A6F6220746923
:103970006D653A200000546F74616C207072696E3E
:10398000742074696D653A2000436F6D706C6574C6
:1039900065643A20005072696E7420436F756E74CE
:1039A0003A20004D61782054656D703A20313230F4
:1039B000004D696E2054656D703A203500544265A3
:1039C000643A4550434F53203130304B004D6178BD
:1039D0002054656D703A20323630004D696E2054A7
:1039E000656D703A20350054303A205054313030F3
:1039F00020556C74694D420000000000300E01003B
:103A0000C00E0A00500F1400D00F1E0060102800D6
:103A1000E010320070113C00F011460070125000AE
:103A200000135A008013640000146E009014780094
:103A30001015820090158C00101696009016A000AC
:103A40001017AA009017B4001018BE009018C800F4
:103A50001019D2009019DC00101AE600801AF0004C
:103A6000001BFA00801B0401F01B0E01701C1801E2
:103A7000F01C2201601D2C01E01D3601501E40018A
:103A8000D01E4A01401F5401B01F5E013020680162
:103A9000A020720110217C0190218601002290015A
:103AA0006026F401902A5802802EBC025032200376
:103AB000E03584035039E803803C4C044475706C55
:103AC000696361746F722036204F66662E00205A3B
:103AD0003A0020593A0020436F756E7420583A20FE
:103AE0000020453A00205A3A0020593A00583A003E
:103AF0004649524D574152455F4E414D453A4D6101
:103B0000726C696E20312E312E302D5243382028B0
:103B10004769746875622920534F555243455F4386
:103B20004F44455F55524C3A68747470733A2F2F66
:103B30006769746875622E636F6D2F556C74696D5B
:103B4000616B65722F4D61726C696E2050524F54DB
:103B50004F434F4C5F56455253494F4E3A312E30EA
:103B6000204D414348494E455F545950453A4475AC
:103B7000706C696361746F722036204558545255D9
:103B80004445525F434F554E543A312055554944B0
:103B90003A63656465326132662D343161322D34A9
:103BA0003734382D396231322D633535633632661C
:103BB00033363766660A0053657474696E6720543D
:103BC000726176656C20416363656C6572617469CE
:103BD0006F6E3A200053657474696E672052657485
:103BE0007261637420416363656C65726174696FAF
:103BF0006E3A200053657474696E67205072696E66
:103C00007420416363656C65726174696F6E3A20FC
:103C10000053657474696E67205072696E74206118
:103C20006E642054726176656C20416363656C65D7
:103C3000726174696F6E3A2000205A002059005852
:103C40000020204D61783A2000205A002059005869
:103C50000020204D696E3A20004F6E20004F6666AE
:103C600000536F667420656E6473746F70733A20CE
:103C70000070012C0190012701B0012201C0011D3B
:103C800001F00118011002130130020E0160020957
:103C90000190020401C002FF000003FA004003F596
:103CA000008003F000D003EB002004E6007004E184
:103CB00000E004DC004005D700C005D2004006CD7E
:103CC00000D006C8008007C3003008BE00F008B965
:103CD00000C009B400B00AAF00B00BAA00D00CA518
:103CE00000000EA000500F9B00C0109600501291D3
:103CF0000000148C00C0158700B0178200B0197D39
:103D000000D01B7800001E730040206E00902269D6
:103D100000F024640040275F0090295A00E02B55F2
:103D200000102E500020304B0010324600E033418E
:103D30000090353C001037370070383200A0392D24
:103D400000B03A2800A03B2300603C1E00103D1943
:103D500000903D1400103E0F00703E0A00C03E056A
:103D600000003F0000544845524D414C2052554EF2
:103D70004157415900546865726D616C2052756EEF
:103D800061776179004572723A204D415854454D32
:103D90005020424544004572723A204D41585445E6
:103DA0004D50004D415854454D502074726967671D
:103DB00065726564004572723A204D494E54454D16
:103DC0005020424544004572723A204D494E5445B8
:103DD0004D50004D494E54454D50207472696767EF
:103DE00065726564001FFFFFFFFFFFFF60000000BA
:103DF0000001FF400000000000FF80000000000004
:103E00007F83CF00000C303F87FF80000C301F867F
:103E10007980000C000F8C30C7838C30E78C30CF5A
:103E2000C7CC31F38C30DCECEC33B98C30D86C6C13
:103E300033198C30D06C0C33198C30D86C0C33198E
:103E40008C30DC6C0E3B198C30CF7C079F198C308A
:103E5000C77C038F194000000000000260000000D2
:103E60000000061FFFFFFFFFFFF8436F6F6C646FDA
:103E7000776E004368616E67652066696C616D6589
:103E80006E74005072656865617420414253005041
:103E900072656865617420504C41004739310A47AA
:103EA00031205A32350A473930004C6F776572201D
:103EB0004275696C6420506C6174652032356D6D9B
:103EC000004C6576656C20626564004732380041BD
:103ED00075746F20686F6D65004D61696E004D6F80
:103EE00076652058004D6F76652059004D6F7665D8
:103EF000205A004578747275646572004D6F76655E
:103F000020302E316D6D004D6F766520316D6D0066
:103F10004D6F76652031306D6D004D6F7665206197
:103F2000786973004578747275646572004D6F76B8
:103F300065205A004D6F76652059004D6F766520DB
:103F400058004E414E494E495459494E46CDCCCC6D
:103F50003D0AD7233C17B7D13877CC2B329595E65D
:103F6000241FB14F0A000020410000C84200401C3D
:103F70004620BCBE4CCA1B0E5AAEC59D740080FACA
:103F80005FFA11241FBECFEFD1E2DEBFCDBF00E04C
:103F90000CBF14E0A0E0B2E0E6E2F2E102E00BBF09
:103FA00002C007900D92AA38B107D9F725E1AAE817
:103FB000B4E001C01D92AA35B207E1F71FE1C0ECE1
:103FC000DFE100E006C021970109802FFE010E9479
:103FD000F8FCCF3BD10780E00807A9F70E949FF2C9
:103FE0000D9401090C9400002F923F924F925F9222
:103FF0006F927F928F929F92AF92BF92CF92DF92F9
:10400000EF92FF920F931F93CF93DF93CDB7DEB75D
:10401000CD58D1090FB6F894DEBF0FBECDBF0091C9
:10402000E30620E6029F800111240D591A4F1093D8
:104030009D0400939C048091080F80FF18C0E8E560
:10404000F4E284917F013FEFE31AF30A882321F021
:104050000E94B148F701F5CFD8018D918D018823D9
:1040600019F00E94B148F8CF8AE00E94B14820912F
:104070009C0430919D04F90180812F5F3F4F803275
:10408000D1F3F0939D04E0939C048E3469F0109179
:104090009C0400919D046AE270E0812F902F0F94A0
:1040A00048000097D1F420C0818190ED980F9A309C
:1040B00010F08D3261F73296DF0131962C9120534A
:1040C0002A30D0F3CD01FC01019620812032D9F3B2
:1040D000F0939D04E0939C04DACFFC013196829129
:1040E000803231F08A3221F0A12FB02F9D9102C091
:1040F0001082F5CFFD01808111968032D9F3805373
:104100008A3020F0E8E5F4E20C94513D20E030E004
:104110006AE0629FA001639F500D11249A01205311
:1041200031098191280F311D87FD3A958081805397
:104130008A3078F38F013196D8018C918032D1F397
:10414000109395040093940441E050E050930910BB
:10415000409308109D3411F40C94D42B943511F431
:104160000C941E3D973411F00C94373D24303105EA
:1041700009F4E3C538F42230310508F50E94B84847
:104180000C94483D2A35310511F40C94482B58F411
:104190002C31310509F410C62D31310511F40C9480
:1041A0000C290C94483D2B35310511F40C944C2B03
:1041B0002C35310511F40C94512B0C94483D809111
:1041C0002002882311F40C94483D11E0223031057F
:1041D00009F010E00E94584582E50E94924488232D
:1041E00009F45CC10E942F456B017C01409034159D
:1041F0005090351560903615709037152091381510
:104200003091391540913A1550913B1521962CAFBC
:104210003DAF4EAF5FAF2197809112109091131078
:10422000A0911410B091151025968CAF9DAFAEAF34
:10423000BFAF25972091161030911710409118109C
:10424000509119102D962CAF3DAF4EAF5FAF2D970B
:1042500020E030E0A901C701B6010F94BA04882319
:1042600009F451C5A301920125966CAD7DAD8EADCB
:104270009FAD25970F94BA04811111C021962CADE2
:104280003DAD4EAD5FAD21972D966CAD7DAD8EAD44
:104290009FAD2D970F94BA04882309F434C520E00C
:1042A00030E0A901C701B6010F94BA04881F88271E
:1042B000881F18130BC080E090E0A0E8BFE3699668
:1042C0008CAF9DAFAEAFBFAF69970AC020E030E0C2
:1042D00040E85FEB69962CAF3DAF4EAF5FAF69979B
:1042E000A301920125966CAD7DAD8EAD9FAD259756
:1042F0000E941BFD61966CAF7DAF8EAF9FAF619743
:1043000021962CAD3DAD4EAD5FAD21972D966CAD98
:104310007DAD8EAD9FAD2D970E941BFD65966CAF58
:104320007DAF8EAF9FAF659761962CAD3DAD4EAD25
:104330005FAD6197CA01B9010F941F054B015C0184
:1043400065962CAD3DAD4EAD5FAD6597CA01B90127
:104350000F941F059B01AC01C501B4010E941CFD17
:104360000E94ADFF29966CAF7DAF8EAF9FAF2997AE
:1043700020E030E040E05FE30F941F054B015C015B
:10438000A7019601C701B6010F941F056B017C01BF
:10439000A5019401C501B4010F941F059B01AC0157
:1043A000C701B6010E941BFD0E94ADFF9B01AC013D
:1043B00069966CAD7DAD8EAD9FAD69970F941F056D
:1043C0004B015C0125962CAD3DAD4EAD5FAD259703
:1043D000C301B2010E941CFD20E030E040E05FE339
:1043E0000F941F056B017C0165966CAD7DAD8EADA4
:1043F0009FAD6597905829962CAD3DAD4EAD5FAD04
:1044000029970E9408FE9B01AC01C501B4010F94DD
:104410001F059B01AC01C701B6010E941CFDA30151
:1044200092010E941BFD6B017C012D962CAD3DADD0
:104430004EAD5FAD2D9721966CAD7DAD8EAD9FAD30
:1044400021970E941CFD20E030E040E05FE30F94E4
:104450001F052B013C0129962CAD3DAD4EAD5FAD46
:10446000299761966CAD7DAD8EAD9FAD61970E9431
:1044700008FE9B01AC01C501B4010F941F059B010F
:10448000AC01C301B2010E941CFD21962CAD3DADD3
:104490004EAD5FAD21970E941BFD14C089E40E94C0
:1044A0009244882329F00E942F456B017C0103C0B0
:1044B000C12CD12C76018AE40E9492448823F9F021
:1044C0000E942F4521966CAF7DAF8EAF9FAF219795
:1044D00020E030E0A901C701B6010F94BA048111B0
:1044E0001EC020E030E0A90121966CAD7DAD8EADFF
:1044F0009FAD21970F94BA04811111C004C420E02C
:1045000030E0A901C701B6010F94BA04882309F469
:10451000FAC321961CAE1DAE1EAE1FAE2197A70199
:104520009601C701B6010F941F054B015C0121964E
:104530002CAD3DAD4EAD5FAD2197CA01B9010F94D1
:104540001F059B01AC01C501B4010E941CFD0E9426
:10455000ADFFE1966CAF7DAF8EAF9FAFE1978091DD
:10456000341590913515A0913615B09137152996CF
:104570008CAF9DAFAEAFBFAF2997A7019601BC012D
:10458000CD010E941CFD69966CAF7DAF8EAF9FAFD1
:104590006997209138153091391540913A1550910D
:1045A0003B1561962CAF3DAF4EAF5FAF6197219643
:1045B0002CAD3DAD4EAD5FAD219761966CAD7DAD3F
:1045C0008EAD9FAD61970E941CFD6D966CAF7DAF67
:1045D0008EAF9FAF6D9780913C1590913D15A09146
:1045E0003E15B0913F15A1968CAF9DAFAEAFBFAF5A
:1045F000A1979C01AD0160911A1070911B108091E0
:104600001C1090911D100E941BFD65966CAF7DAF34
:104610008EAF9FAF659720911E1030911F10409173
:10462000201050912110E5962CAF3DAF4EAF5FAFFB
:10463000E5978091401590914115A0914215B09158
:104640004315A5968CAF9DAFAEAFBFAFA597A701A1
:104650009601505825962CAF3DAF4EAF5FAF2597D2
:1046600021968CAD9DADAEADBFAD2197B0582D96C6
:104670008CAF9DAFAEAFBFAF2D9720911210309190
:1046800013104091141050911510A9962CAF3DAF06
:104690004EAF5FAFA99769962CAD3DAD4EAD5FAD06
:1046A0006997A9966CAD7DAD8EAD9FADA9970E941F
:1046B0001BFD6B017C018091161090911710A09149
:1046C0001810B0911910AD968CAF9DAFAEAFBFAFC3
:1046D000AD976D962CAD3DAD4EAD5FAD6D97BC0108
:1046E000CD010E941BFD4B015C01A701960125969F
:1046F0006CAD7DAD8EAD9FAD25970F941F052B0141
:104700003C01A50194012D966CAD7DAD8EAD9FADA4
:104710002D970F941F059B01AC01C301B2010E94AC
:104720001CFD2B013C01A501940125966CAD7DADCE
:104730008EAD9FAD25970F941F054B015C01A7011E
:1047400096012D966CAD7DAD8EAD9FAD2D970F94DE
:104750001F059B01AC01C501B4010E941BFDA30113
:1047600092010E949AFD6B017C0120E030E0A901DA
:104770000F94BA0487FF0AC02BED3FE049EC50E4E8
:10478000C701B6010E941CFD6B017C01112351F091
:104790002BED3FE049EC50E4C701B6010E941BFD40
:1047A0006B017C0120E030E0A901C701B6010F9444
:1047B000BA0481112AC0A9962CAD3DAD4EAD5FADB6
:1047C000A99729966CAD7DAD8EAD9FAD29970F94BD
:1047D000BA0481111AC0AD962CAD3DAD4EAD5FADA2
:1047E000AD9761966CAD7DAD8EAD9FAD61970F9429
:1047F000BA0481110AC02BED3FE049EC50E4C70137
:10480000B6010E941CFD6B017C01E1962CAD3DAD13
:104810004EAD5FADE197C701B6010F941F059B0137
:10482000AC010F941F054B015C0165962CAD3DADAD
:104830004EAD5FAD6597CA01B9010F941F059B018D
:10484000AC01C501B4010E941CFD0E94ADFF4B01EB
:104850005C012FE632E143E85AE30F94BA0487FD86
:104860004EC2C501B4010E94AEFE0E947FFE2F968B
:104870007FAF6EAF2F97DB01AB2B31F4E1E0F0E0BF
:104880002F96FFAFEEAF2F972F962EAD3FAD2F9700
:10489000B90180E090E00F94BE044B015C019B01E4
:1048A000AC01C701B6010E9408FE29966CAF7DAF2E
:1048B0008EAF9FAF2997A501940165966CAD7DAD34
:1048C0008EAD9FAD65970E9408FEA9966CAF7DAF37
:1048D0008EAF9FAFA997A5962CAD3DAD4EAD5FAD08
:1048E000A597E5966CAD7DAD8EAD9FADE5970E9429
:1048F0001BFDA50194010E9408FEAD966CAF7DAF33
:104900008EAF9FAFAD9729962CAD3DAD4EAD5FAD4F
:104910002997CA01B9010F941F0520E030E040E05B
:104920005FE30F941F059B01AC0160E070E080E83D
:104930009FE30E941BFD65966CAF7DAF8EAF9FAF6E
:104940006597A1968CAD9DADAEADBFADA1978987A2
:104950009A87AB87BC87A5962CAD3DAD4EAD5FADBC
:10496000A5972D873E874F87588B6091A002709145
:10497000A102072E000C880B990B0F94C004209104
:1049800000023091010240910202509103020F9403
:104990001F052AE037ED43E25CE30F941F05A19663
:1049A0006CAF7DAF8EAF9FAFA1970E94D5829B0168
:1049B000AC0128533F4F4F4F5F4FA5962CAF3DAFF3
:1049C0004EAF5FAFA59722964FAC229723965FAC70
:1049D000239724966FAC249725967FAC25972224A5
:1049E0002394312CD12C2F968EAD9FAD2F97281666
:1049F000390609F446C10E94BD610E94D582DC01DE
:104A0000CB01A5962CAD3DAD4EAD5FADA597821BFC
:104A1000930BA40BB50BB7FD11C00E94D5829B016F
:104A2000AC0128533F4F4F4F5F4FA5962CAF3DAF82
:104A30004EAF5FAFA59780E00E9406C5D39438E1E2
:104A40003D150CF44BC065962CAD3DAD4EAD5FAD44
:104A500065972D966CAD7DAD8EAD9FAD2D970F9466
:104A60001F054B015C0129962CAD3DAD4EAD5FADF0
:104A70002997B201C3010F941F05A50194010E945B
:104A80001CFD7B018C0165962CAD3DAD4EAD5FAD3F
:104A90006597B201C3010F941F054B015C01299674
:104AA0002CAD3DAD4EAD5FAD29972D966CAD7DAD76
:104AB0008EAD9FAD2D970F941F059B01AC01C501D5
:104AC000B4010E941BFD2B013C01C701D8012D96AA
:104AD0008CAF9DAFAEAFBFAF2D975AC0B10180E094
:104AE00090E00F94BE0429962CAD3DAD4EAD5FAD68
:104AF00029970F941F054B015C010E9405FE6B0175
:104B00007C01C501B4010E94A2FF4B015C01A70119
:104B1000960125966CAD7DAD8EAD9FAD25970F941A
:104B20001F052B013C01A501940121966CAD7DADC3
:104B30008EAD9FAD21970F941F059B01AC01C30162
:104B4000B2010E941CFD2B013C01A5019401259698
:104B50006CAD7DAD8EAD9FAD25970F941F054B01BC
:104B60005C01A701960121966CAD7DAD8EAD9FAD28
:104B700021970F941F059B01AC01C501B4010E9450
:104B80001BFD2D966CAF7DAF8EAF9FAF2D97D12CB7
:104B90009201A30169966CAD7DAD8EAD9FAD699715
:104BA0000E941CFD69837A838B839C832D962CAD98
:104BB0003DAD4EAD5FAD2D976D966CAD7DAD8EADBF
:104BC0009FAD6D970E941CFD6D837E838F839887B8
:104BD000A9962CAD3DAD4EAD5FADA99769857A859F
:104BE0008B859C850E941CFD69877A878B879C87B3
:104BF000AD962CAD3DAD4EAD5FADAD976D857E856F
:104C00008F8598890E941CFD6D877E878F87988B82
:104C1000CE0101960E94C6CAC090211589819A8151
:104C2000AB81BC8188A399A3AAA3BBA38D819E81DC
:104C3000AF81B8858CA39DA3AEA3BFA389859A85B8
:104C4000AB85BC8588A799A7AAA7BBA7CE018096EC
:104C50000E949E48A196ECACFDAC0EAD1FADA19795
:104C60009E01235F3F4FAE01485D5F4FBE016C5D0B
:104C70007F4FCE0180960E9499A04FEF241A340AEC
:104C8000B2CEC09021158091121090911310A09176
:104C90001410B091151088A399A3AAA3BBA3809167
:104CA000161090911710A0911810B09119108CA3A4
:104CB0009DA3AEA3BFA380911A1090911B10A09149
:104CC0001C10B0911D1088A799A7AAA7BBA7CE0159
:104CD00080960E949E48A196ECACFDAC0EAD1FAD37
:104CE000A1972EE130E1AE01485D5F4FBE016C5DE2
:104CF0007F4FCE0180960E9499A00E9413430E948C
:104D0000A6480C94483DE0E3F4E284918F010F5FE4
:104D10001F4F882321F00E94B148F801F6CFE2EA44
:104D2000F1E084918F010F5F1F4F882311F40C94E1
:104D3000483D0E94B148F801F4CF80E50E949244BA
:104D4000882329F00E9424456B017C0103C0C12CFB
:104D5000D12C760183E50E949244882321F00E94A1
:104D6000F7456B017C010E94D2650E94A6488091A4
:104D70000A1090910B10A0910C10B0910D10C80E5C
:104D8000D91EEA1EFB1E80912D02811105C060E034
:104D900088EB91E00E94908C0E94D582DC01CB01CF
:104DA0008C199D09AE09BF09B7FD02C00C94483D9E
:104DB00080E00E9406C5F0CF0E94D2658091D1109C
:104DC00081FF2AC09091CA0E9923A1F09091CB0E39
:104DD000992381F09091CC0E992361F080E00E949C
:104DE00041F280903C1590903D15A0903E15B090FA
:104DF0003F1518C08D7F8093D11080E090E0A0E82F
:104E0000B0E480933C1590933D15A0933E15B0936C
:104E10003F154C015D0106C0812C912CA0E8AA2E03
:104E2000A0E4BA2E8091000290910102A0910202AA
:104E3000B09103028093980490939904A0939A04EC
:104E4000B0939B048091A0029091A102909397044B
:104E50008093960484E690E09093A1028093A00250
:104E60000E94A648FF24F394F0921A0288E50E945B
:104E70009244082F89E50E949244182F8AE50E94E7
:104E80009244382E011104C0111104C0F82605C047
:104E9000111102C0F12C01C0F82EF092040280E141
:104EA000E4E3F5E1A2E1B0E101900D928A95E1F72A
:104EB000F11005C0011103C0112309F431C120E034
:104EC00030E0A90160913E0570913F058091400559
:104ED000909141050E941CFD2091FC0E3091FD0E29
:104EE0004091FE0E5091FF0E0E941CFD60931A101F
:104EF00070931B1080931C1090931D10F11006C02E
:104F0000002309F40DC1112309F40AC110923815C8
:104F10001092391510923A1510923B1510923415D3
:104F20001092351510923615109237150E9477465B
:104F3000E9ECF4E394912E969FAF2E978DEB94E3DA
:104F40000E945B472B013C0181EC94E30E945B478C
:104F50006B017C019B01AC01C301B2010E9464FFA3
:104F600018162CF4A3019201C701B60104C0A701D1
:104F70009601C301B2010E9408FE9B01AC010F948F
:104F80001F0520E030E040E85FE30E941CFD0E9426
:104F9000ADFF20E030E048E452E40F941F056DAF10
:104FA00022967FAF22972A968FAF2A97292EEAEC76
:104FB000F4E3A4912696AFAF269720E030E040ECD2
:104FC0005FE3C701B6010F941F0565966CAF7DAF17
:104FD0008EAF9FAF65972696BFAD26976B2FBB0F01
:104FE000770B880B990B0F94C0049B01AC0165965D
:104FF0006CAD7DAD8EAD9FAD65970F941F05299665
:105000006CAF7DAF8EAF9FAF299720E030E040ECD2
:105010005FE3C301B2010F941F052B013C012E96E3
:10502000EFAD2E976E2FEE0F770B880B990B0F9429
:10503000C0049B01AC01C301B2010F941F052B01F9
:105040003C012091000230910102409102025091F6
:10505000030261962CAF3DAF4EAF5FAF619720E08A
:1050600030E0A9016DAD22967FAD22972A968FADD3
:105070002A97922D0F94BA04882349F0EDAC22961A
:10508000FFAC22972A963FAD2A97222D04C0E12C2F
:10509000F12C36E123E4C701A32FB22F8093000245
:1050A00090930102A0930202B09303024092341540
:1050B00050923515609236157092371529968CAD41
:1050C0009DADAEADBFAD299780933815909339153E
:1050D000A0933A15B0933B150E9478430E94D26585
:1050E00061962CAD3DAD4EAD5FAD61972093000252
:1050F0003093010240930202509303021092620522
:10510000109238151092391510923A1510923B15DD
:1051100010923415109235151092361510923715DD
:1051200080910402811102C0002321F080E090E010
:105130000E9481C380910402811102C0112321F0D9
:1051400081E090E00E9481C380910402811102C03D
:10515000332021F082E090E00E9481C30E947746D4
:105160008091810C80931A028091D11080FF36C00B
:105170008091040281110AC08091CA0E882371F1C6
:105180008091CB0E882351F1332069F080E090E0CC
:10519000A0E8B0E480933C1590933D15A0933E1594
:1051A000B0933F1510C08091CC0E8823B9F0011147
:1051B00002C0112399F080923C1590923D15A09267
:1051C0003E15B0923F150E9477468091D1108260C3
:1051D0008093D11084E395E10E943BAD80919804C7
:1051E00090919904A0919A04B0919B04809300023D
:1051F00090930102A0930202B0930302809196045F
:10520000909197049093A1028093A0020E94A648D7
:105210000E9408E30C94483D83E50E949244882351
:10522000A1F00E94A54490E08630910580F0E6EA66
:10523000F2E084918F010F5F1F4F882311F40C94CB
:10524000483D0E94B148F801F4CF80E090E08330FF
:10525000910509F47BC144F48130910509F492C0B1
:10526000029709F498C007C08430910509F4D3C1AE
:10527000059709F4E0C18091D11080FF76C081FDCF
:1052800003C06FEA73E002C06BEA73E08FE792E05D
:105290000E94D649E0E7F2E084918F010F5F1F4F33
:1052A000882321F00E94B148F801F6CFECE5F2E046
:1052B00084918F010F5F1F4F882321F00E94B14816
:1052C000F801F6CFE1E5F2E084918F010F5F1F4F07
:1052D000882321F00E94B148F801F6CF6091D210E6
:1052E0007091D3108091D4109091D51045E00E9418
:1052F000CF4DEEE3F2E084918F010F5F1F4F8111DC
:1053000007C0E1EDAE2EE0E1BE2EF3E0FF2E1FC0A0
:105310000E94B148F801EFCFF501EC0DFD1D65814C
:1053200076818781908545E00E94CF4D34E0C30EA1
:10533000D11C4CE0C416D10461F48AE00E94B1484B
:10534000FA945CE0A50EB11CFF2009F49DC1C12CAC
:10535000D12CEBE3F2E084918F010F5F1F4F882384
:10536000D9F20E94B148F801F6CFE7E8F2E0849163
:105370008F010F5F1F4F882309F486C10E94B14837
:10538000F801F5CF0E94E3F0109206021092050298
:1053900080E392E0D4C0809105029091060297FFCD
:1053A0000EC0E7E0F2E084918F010F5F1F4F88236A
:1053B00011F40C94483D0E94B148F801F4CF0097D5
:1053C00079F480E090E0A0E8B0E480933C159093FD
:1053D0003D15A0933E15B0933F150E94774628C017
:1053E000815063E00E94A7FC292F80FF03C092E058
:1053F000921B292F082E000C990BFC01EE0FFF1FAA
:10540000E80FF91FE20FF11D27FDFA95EE0FFF1FC0
:10541000EE0FFF1FEF52FF4E80913C1590913D150E
:10542000A0913E15B0913F1585839683A783B087E1
:105430008091050290910602893091050CF056C0CA
:1054400063E00E94A7FC192F80FF03C092E0911B2C
:10545000192F9AE58902B0011124665F7F4F072E4C
:10546000000C880B990B0F94C0049B01AC01AAE5BA
:105470001A02C00111240A96BC01990F880B990BDE
:10548000C657DF4F2883CA58D040C557DF4F3883EF
:10549000CB58D040C457DF4F4883CC58D040C35777
:1054A000DF4F5883CD58D0400F94C004C657DF4F0C
:1054B0002881CA58D040C557DF4F3881CB58D040DB
:1054C000C457DF4F4881CC58D040C357DF4F588175
:1054D000CD58D0400E94CF438091050290910602A2
:1054E00001969093060280930502CEC080E090E082
:1054F000A0E1B1E480933C1590933D15A0933E1537
:10550000B0933F150E9478430E94D265E3EFF1E02B
:1055100084918F010F5F1F4F882321F00E94B148B3
:10552000F801F6CF8FEF9FEF90930602809305026C
:105530008091D11081608093D1108FEE91E0909393
:10554000900E80938F0E0E941C469EC088E50E949C
:1055500092448823A1F00E940C450FEF080F0330FE
:10556000A8F0E8EDF1E084918F010F5F1F4F8823D1
:1055700011F40C94483D0E94B148F801F4CF88E53D
:105580000E94B1480E9468F20C94483D89E50E944F
:1055900092448823A1F00E940C451FEF180F13308E
:1055A000A8F0E1ECF1E084918F010F5F1F4F882399
:1055B00011F40C94483D0E94B148F801F4CF89E5FC
:1055C0000E94B1480E9468F20C94483D8AE50E940E
:1055D00092448823C9F00E942F45212F110F330BCD
:1055E000F901EE0FFF1FE20FF31FE00FF11D07FDA2
:1055F000FA95EE0FFF1FEE0FFF1FEF52FF4E658370
:1056000076838783908740C08AE50E94B1480E94D4
:1056100068F20C94483D8AE50E9492448823A1F3E5
:105620000E942F456093D2107093D3108093D410B2
:105630009093D51029C08091D11081FF23C020E024
:1056400030E040E850E460913C1570913D15809148
:105650003E1590913F150E941BFD60933C15709381
:105660003D1580933E1590933F154CE355E168E35B
:1056700075E184E395E10E9423AE0E94E3F00E946D
:10568000774602C00E94E3F00E9408E30C94483D74
:10569000109293040C94483D81E0809393040C9401
:1056A000493D85E40E949244982E811102C00E94D7
:1056B000D26515EDA12E12E0B12E04E3C02E05E156
:1056C000D02E84EFE82E8EE0F82E00E010E0812C42
:1056D000F50181915F010E949244882309F44CC036
:1056E000D6012D913D914D915C91C657DF4F288396
:1056F000CA58D040C557DF4F3883CB58D040C45725
:10570000DF4F4883CC58D040C357DF4F5883CD5824
:10571000D0400E942F45F60160837183828393837A
:10572000C657DF4F2881CA58D040C557DF4F388150
:10573000CB58D040C457DF4F4881CC58D040C357D6
:10574000DF4F5881CD58D04003301105A9F00E9499
:105750001BFD9B01AC01D7016D917D918D919C91B9
:105760000E941CFDF7016083718382839383C801CB
:105770000E946147882483940F5F1F4FF4E0CF0E8F
:10578000D11C24E0E20EF11C0430110509F0A0CF79
:10579000882019F00E94774603C091100E94A5F05E
:1057A0000E9408E30C94483D2237310509F485C670
:1057B00008F0B9C02C34310509F4EBC308F05FC020
:1057C0002831310509F469C278F52231310509F42F
:1057D0005DC668F42230310508F496C121313105E7
:1057E00011F00C94483D0E942DD10C94483D253178
:1057F000310509F448C240F42431310511F00C940C
:10580000483DE0E0F3E0FCC12631310509F43FC238
:105810002731310511F00C94483D40E061E0C801AA
:105820000E94707B0C94483D2E31310509F48EC2E4
:1058300098F42A31310509F43FC208F439C22B31FA
:10584000310509F447C22C31310511F00C94483D63
:105850000E9425D10C94483D2032310509F483C3C0
:1058600008F48FC32A32310509F48FC32B34310574
:1058700011F00C94483D0E94F2F00C94483D2836FB
:10588000310509F492C338F52235310509F4F5C51F
:1058900078F42E34310509F484C308F47EC321352D
:1058A000310511F00C94483D0E9407E50C94483DE9
:1058B0002435310509F4EAC508F4E3C52535310579
:1058C00009F4E8C52C35310511F00C94483D0E94CF
:1058D0001FE40C94483D2D36310509F416C498F4A4
:1058E0002A36310509F49FC508F407C42B36310563
:1058F00009F4BFC52C36310511F00C94483D1092C7
:1059000098020C94483D2F36310509F4A5C308F4DC
:1059100090C32037310509F4A3C32137310509F4B9
:10592000A7C30C94483D2C3241E0340709F426C645
:1059300008F06DC0283C310509F4D8C580F528373A
:10594000310509F4C8C588F42537310509F4B9C50E
:105950002737310509F4BBC52337310511F00C9405
:10596000483D0E94F8E20C94483D2C38310509F47A
:10597000ABC358F42937310511F00C94483D10920F
:105980001A021092810C0C94483D2139310509F41A
:10599000A9C52E3B310509F4BCC30C94483D2E3CEF
:1059A000310509F4AFC5D8F42B3C310509F4A2C583
:1059B00048F4293C310511F00C94483D0E9486E2E0
:1059C0000C94483D2C3C310509F498C52D3C31051B
:1059D00011F00C94483D0E9491E10C94483D2C3DFF
:1059E000310509F493C548F4233D310511F00C94B9
:1059F000483D0E94FBE00C94483D2D3D310509F4E3
:105A000089C5223E310509F489C50C94483D253AE3
:105A100061E0360711F40C94303840F5203391E002
:105A2000390709F476C640F42E32B1E03B0709F499
:105A3000EEC608F4CAC55FC72039F1E03F0711F48C
:105A40000C94D13738F42336314011F40C94C73C10
:105A50000C94483D2A3961E0360709F405C3243A1D
:105A6000314011F40C94D4370C94483D273F91E019
:105A7000390711F40C942A3A68F5243FB1E03B074A
:105A800011F40C94243AB8F42C3A314011F00C94EF
:105A9000483D34E3232E35E1332E26E335E03EAF97
:105AA0002DAF4AEC5EE023965FAF4EAF239700E048
:105AB00010E00C942939253F41E0340711F40C948F
:105AC000273A263F314011F00C94483D0E94466D24
:105AD0000C94483D2B3863E0360711F40C946A3C73
