:100000000C94BE1F0C94EF1F0C94EF1F0C94EF1F69
:100010000C94EF1F0C94EF1F0C94EF1F0C94EF1F28
:100020000C94EF1F0C94EF1F0C94EF1F0C94EF1F18
:100030000C94EF1F0C94F0450C94EF1F0C94EF1FE1
:100040000C94EF1F0C94F7830C94EF1F0C94EF1F8C
:100050000C94EF1F0C94EF1F0C948CDE0C949C8D71
:100060000C94EF1F0C94E8440C94EF1F0C94EF1FBA
:100070000C94EF1F0C94EF1F0C94EF1F0C94EF1FC8
:100080000C94EF1F0C94EF1F0C94EF1F0C94EF1FB8
:100090000C94EF1F0C94EF1F0C94EF1F0C94EF1FA8
:1000A0000C94EF1F0C94EF1F0C94EF1F0C94EF1F98
:1000B0000C94EF1F0C94EF1F0C94EF1F0C94EF1F88
:1000C0000C94EF1F0C94EF1F0C94EF1F0C94EF1F78
:1000D0000C94EF1F0C94EF1F0C94EF1F0C94EF1F68
:1000E0000C94EF1F5C455F454E455245584596457B
:1000F000634567456D45714575457B457F4583453E
:10010000964589458D45914593509C50A350A950E3
:10011000AF50B550BF50C550B88CBD8CC28CCC8C84
:10012000D68C4F8DE08CE88CF08CFA8C048D0E8D83
:100130001D8D278D4F8D318D3B8D458DE1DEF1DE9F
:1001400010DF20DF3BDF40DF43DF48DF4BDF50DFE6
:1001500053DF58DF62DF084AD73B3BCE016E84BCD9
:10016000BFFDC12F3D6C74319ABD56833DDA3D0011
:10017000C77F11BED9E4BB4C3E916BAAAABE00005A
:1001800000803F05A84CCDB2D44EB93836A9020C38
:1001900050B9918688083CA6AAAA2ABE0000008011
:1001A0003F00434F4D4D554E49434154494F4E003A
:1001B00044525952554E004552524F525300494EE7
:1001C000464F004543484F0020746F6F206C6F6EA0
:1001D0006720657874727573696F6E2070726576CA
:1001E000656E7465640A0020636F6C6420657874C2
:1001F000727573696F6E2070726576656E74656472
:100200000A0047322F4733206261642070617261B7
:100210006D65746572730A00536C6565702E2E2EC1
:100220000059206F7574206F662072616E676520BB
:1002300028312D33292E0A0058206F7574206F66DF
:100240002072616E67652028312D33292E0A004700
:100250003238004D6573682070726F62696E672076
:10026000646F6E652E0A005374617274206D65733D
:10027000682070726F62696E6720776974682022E7
:10028000473239205331222066697273742E0A0076
:100290004732380A473239205332002020000A4DB5
:1002A0006561737572656420706F696E74733A0A64
:1002B000005A206F66667365743A20005A20736591
:1002C00061726368206865696768743A20340A005F
:1002D0000A4E756D20582C593A20332C330A00539E
:1002E000746174653A20004D65736820626564200E
:1002F0006C6576656C696E67206E6F7420616374DF
:100300006976652E0A0053206F7574206F6620721F
:10031000616E67652028302D35292E0A00447570DE
:100320006C696361746F7220362072656164792E26
:1003300000526573756D696E67207072696E740026
:100340005761697420666F7220757365722E2E2E48
:10035000004E6F206D6F76652E00456E64206669D5
:100360006C65206C6973740A00426567696E20666B
:10037000696C65206C6973740A005344207072695B
:100380006E74696E67206279746520004E6F742008
:100390005344207072696E74696E670A0050726906
:1003A0006E742074696D653A200050726F746563D5
:1003B0007465642050696E0A006D0046696C616D59
:1003C000656E7420757365643A20005374617473AC
:1003D0003A20002C204C6F6E67657374206A6F6240
:1003E0003A2000546F74616C2074696D653A200086
:1003F00053746174733A20002C204661696C656403
:100400003A20002C2046696E69736865643A2000C2
:100410005072696E74733A200053746174733A2099
:100420000048656174696E672E2E2E004475706CED
:10043000696361746F7220362072656164792E0081
:10044000C301BE01B701B001A2016F666600444559
:100450004255473A004B494C4C45442E20004D3103
:1004600031332053006F6B0048656174696E6720FB
:10047000646F6E652E003F0A0020573A00486561A0
:1004800074696E672E2E2E004475706C69636174FA
:100490006F7220362072656164792E004265642097
:1004A000646F6E652E003F0A0020573A0042656473
:1004B0002048656174696E672E004475706C6963CD
:1004C00061746F722036204F66662E004649524D89
:1004D000574152455F4E414D453A4D61726C696ED0
:1004E00020312E312E302D52433820284769746830
:1004F00075622920534F555243455F434F44455F32
:1005000055524C3A68747470733A2F2F6769746847
:1005100075622E636F6D2F556C74696D616B6572BA
:100520002F4D61726C696E2050524F544F434F4CA7
:100530005F56455253494F4E3A312E30204D41437C
:1005400048494E455F545950453A4475706C69634B
:1005500061746F7220362045585452554445525F9D
:10056000434F554E543A3120555549443A636564DA
:1005700065326132662D343161322D343734382D95
:10058000396231322D63353563363266333637663C
:10059000660A007A5F6D696E3A2000795F6D696E58
:1005A0003A2000785F6D696E3A20005265706F7274
:1005B00074696E6720656E6473746F702073746104
:1005C0007475730A004D31343520533C696E64658F
:1005D000783E206F7574206F662072616E676520AB
:1005E00028302D31290A0053657474696E672054D0
:1005F000726176656C20416363656C6572617469D4
:100600006F6E3A200053657474696E67205265748A
:100610007261637420416363656C65726174696FB4
:100620006E3A200053657474696E67205072696E6B
:100630007420416363656C65726174696F6E3A2002
:100640000053657474696E67205072696E7420611E
:100650006E642054726176656C20416363656C65DD
:10066000726174696F6E3A2000205A002059005858
:100670000020204D61783A2000205A00205900586F
:100680000020204D696E3A20004F6E20004F6666B4
:1006900000536F667420656E6473746F70733A20D4
:1006A000004D34323120726571756972657320585E
:1006B000595A206F7220494A5A20706172616D65E3
:1006C000746572730A004D657368205859206F7203
:1006D00020494A2063616E6E6F74206265207265E6
:1006E000736F6C7665640A004163746976652045B2
:1006F000787472756465723A2000556E6B6E6F7710
:100700006E20636F6D6D616E643A202200256973FF
:100710000025696D20256973002569682025696DAC
:100720002025697300256964202569682025696D85
:100730002025697300256979202569642025696869
:100740002025696D20256973004E6F204C696E6508
:10075000204E756D626572207769746820636865E4
:10076000636B73756D2C204C617374204C696E65DE
:100770003A20004B494C4C45442E200053544F50D6
:100780005045442E20005072696E74657220737457
:100790006F707065642064756520746F2065727277
:1007A0006F72732E204669782074686520657272B6
:1007B0006F7220616E6420757365204D3939392060
:1007C000746F20726573746172742E202854656D85
:1007D00070657261747572652069732072657365E6
:1007E000742E2053657420697420616674657220CC
:1007F00072657374617274696E67290A004E6F20A6
:10080000436865636B73756D2077697468206C69E4
:100810006E65206E756D6265722C204C617374205C
:100820004C696E653A2000636865636B73756D2073
:100830006D69736D617463682C204C617374204C16
:10084000696E653A20004C696E65204E756D626573
:1008500072206973206E6F74204C617374204C6930
:100860006E65204E756D6265722B312C204C617364
:1008700074204C696E653A20004D313130004D33A3
:1008800031004D383420582059205A204500534417
:100890002072656164206572726F720A00446F6E27
:1008A00065207072696E74696E672066696C650A8E
:1008B0000000002100240027002A002D0030003312
:1008C0000001010000040107010A010000220025C7
:1008D0000028002B002E003100340002010000052A
:1008E0000108010B01000020002300260029002C34
:1008F000002F00320000010000030106010901057C
:10090000050505070508080808020202020A0A0888
:1009100008040404040101010101010101030303AE
:100920000303030303040707070C0C0C0C0C0C0C4B
:100930000C0202020206060606060606060B0B0B52
:100940000B0B0B0B0B01021020200808102040108D
:100950002040800201020108040201010204081083
:1009600020408080402010080402018004020180A1
:1009700040201008040201080402010102040810CA
:10098000204080010204081020408000000A0B0271
:10099000090C0D0E08070304010000000000000010
:1009A0000000000000000000000000000000000047
:1009B0000000000000000012111000000000000004
:1009C0000000000000000000000000000000000027
:1009D00000024B494C4C45442E2000202D20496EEE
:1009E00076616C6964206578747275646572206ED6
:1009F000756D62657220210A002020506C616E6E58
:100A0000657242756666657242797465733A200054
:100A10002046726565204D656D6F72793A200043FE
:100A20006F6D70696C65643A2046656220313220D2
:100A3000323031370A00207C20417574686F723A79
:100A40002028646F745F626F622C20646566617534
:100A50006C7420636F6E666967290A003230313624
:100A60002D31322D30362031323A303000204C6179
:100A7000737420557064617465643A2000312E31BE
:100A80002E302D5243380A004D61726C696E002081
:100A9000536F6674776172652052657365740A00DE
:100AA000205761746368646F672052657365740AC8
:100AB000002042726F776E206F75742052657365E7
:100AC000740A002045787465726E616C20526573FB
:100AD00065740A00506F77657255700A007374610F
:100AE00072740A006572726F722077726974696E2F
:100AF0006720746F2066696C650A00456E647374C4
:100B00006F707320256320256320256320256300F3
:100B1000205A3A0020593A0020583A00656E647312
:100B2000746F7073206869743A2000446F6E65209A
:100B3000736176696E672066696C652E0A004D32B6
:100B400039004D61782054656D703A2031323000A3
:100B50004D696E2054656D703A20350054426564CD
:100B60003A4550434F53203130304B004D6178208F
:100B700054656D703A20323630004D696E205465F0
:100B80006D703A20350054303A20505431303020C6
:100B9000556C74694D420050726F746F636F6C3A9C
:100BA00020312E3000426175643A203235303030C9
:100BB0003000556C74696D616B657220322E78005F
:100BC0004578747275646572733A20310068747484
:100BD000703A2F2F6D61726C696E66772E6F726737
:100BE000004475706C696361746F72203600323036
:100BF00031362D31322D30362031323A303000311D
:100C00002E312E302D524338004D61726C696E00CA
:100C10005072696E74657220537461747300546805
:100C200065726D6973746F727300426F61726420D4
:100C3000496E666F005072696E74657220496E6607
:100C40006F004D61696E0045787472756465206D42
:100C50006F726500526573756D65004348414E477C
:100C600045204F5054494F4E533A006368616E67B8
:100C700065006F66207468652066696C616D656EDD
:100C800074005761697420666F72207374617274A6
:100C9000004348414E47452046494C414D454E543E
:100CA0000066696C616D656E7420756E6C6F616451
:100CB000005761697420666F72004348414E474592
:100CC0002046494C414D454E5400746F20636F6E71
:100CD00074696E75652E2E2E00616E6420707265CB
:100CE000737320627574746F6E00496E73657274ED
:100CF0002066696C616D656E74004348414E4745DE
:100D00002046494C414D454E540066696C616D6505
:100D10006E74206C6F6164005761697420666F7235
:100D2000004348414E47452046494C414D454E54AD
:100D30000066696C616D656E7420657874727564A7
:100D400065005761697420666F72004348414E47E1
:100D5000452046494C414D454E5400746F20726504
:100D600073756D65005761697420666F72207072CB
:100D7000696E74004348414E47452046494C414DF9
:100D8000454E5400454550524F4D20636865636B96
:100D900073756D206D69736D617463680A002062FC
:100DA00079746573290A002073746F726564207307
:100DB000657474696E6773207265747269657665AF
:100DC0006420280048617264636F64656420446530
:100DD0006661756C742053657474696E6773204C1A
:100DE0006F616465640A0020500020204D33353562
:100DF00020530043617365204C696768743A0A00A8
:100E0000204500205A0020204D393037205800530B
:100E1000746570706572206D6F746F722063757287
:100E200072656E74733A0A0020204D3230302044CF
:100E3000300A0020204D32303020440020446973B5
:100E400061626C65640A0046696C616D656E742050
:100E500073657474696E67733A002044002049001A
:100E600020204D3330342050002044002049002001
:100E7000204D333031205000504944207365747444
:100E8000696E67733A0A002046002042002048003D
:100E900020204D3134352053004D617465726961F5
:100EA0006C2068656174757020706172616D657425
:100EB0006572733A0A00205A0020590020204732F8
:100EC0003920533320580020590020580020204D4D
:100ED0003432302053004D65736820626564206CA5
:100EE0006576656C696E673A0A00205A00205900E1
:100EF00020204D323036205800486F6D65206F66D7
:100F00006673657420286D6D290A00204500205AFB
:100F10000020590020580020420020540020204D7D
:100F2000323035205300416476616E63656420760B
:100F300061726961626C65733A20533D4D696E2040
:100F4000666565647261746520286D6D2F73292C48
:100F500020543D4D696E2074726176656C20666523
:100F600065647261746520286D6D2F73292C204291
:100F70003D6D696E696D756D207365676D656E7425
:100F80002074696D6520286D73292C20583D6D6192
:100F900078696D756D205859206A65726B20286DCF
:100FA0006D2F73292C20205A3D6D6178696D756D08
:100FB000205A206A65726B20286D6D2F73292C20B2
:100FC00020453D6D6178696D756D2045206A6572BB
:100FD0006B20286D6D2F73290A00205400205200C9
:100FE00020204D323034205000416363656C6572BF
:100FF0006174696F6E733A20503D7072696E7469E6
:101000006E672C20523D7265747261637420616E4C
:101010006420543D74726176656C0A00204500209E
:101020005A0020590020204D3230312058004D61A7
:1010300078696D756D20416363656C657261746973
:101040006F6E20286D6D2F7332293A0A00204500FB
:10105000205A0020590020204D3230332058004DB6
:101060006178696D756D206665656472617465731C
:1010700020286D6D2F73293A0A00204500205A0060
:1010800020590020204D3932205800537465707368
:101090002070657220756E69743A0A00506C656143
:1010A0007365207265736574005052494E54455201
:1010B0002048414C544544005072696E746572205A
:1010C00068616C7465642E206B696C6C28292063E0
:1010D000616C6C6564210A000000000000000000E3
:1010E000000000005761726E696E673A20486F6DAC
:1010F000696E672042756D702044697669736F72FE
:10110000203C20310A000000A0400000A040000068
:101110000040000048430000484300002A43FFFF0E
:10112000FF4D657368205859206F7220494A20632B
:10113000616E6E6F74206265207265736F6C766588
:10114000640A007C3C3E5E2B3D3F2F5B5D3B2C2ABE
:10115000225C0053442063617264206F6B0A006F4D
:1011600070656E526F6F74206661696C65640A0009
:10117000766F6C756D652E696E6974206661696C39
:1011800065640A00534420696E6974206661696C65
:101190000A006175746F25692E67004D3234004D69
:1011A00032332025730057726974696E6720746F3B
:1011B0002066696C653A20006F70656E2066616913
:1011C0006C65642C2046696C653A20006F70656E12
:1011D000206661696C65642C2046696C653A200064
:1011E00046696C652073656C65637465640A0020EC
:1011F00053697A653A200046696C65206F70656EA8
:1012000065643A20006F70656E206661696C656484
:101210002C2046696C653A20002066696C653A208E
:10122000004E6F7720002220706F730022207061C3
:1012300072656E743A2200535542524F5554494ECE
:10124000452043414C4C207461726765743A22001A
:101250004B494C4C45442E2000747279696E6720CE
:10126000746F2063616C6C207375622D67636F64AB
:10127000652066696C6573207769746820746F6F88
:10128000206D616E79206C6576656C732E204D4102
:1012900058206C6576656C2069733A004572726FF0
:1012A000723A0043616E6E6F74206F70656E2073CA
:1012B00075626469722000656E7175657565696E29
:1012C000672022006563686F3A00544845524D41DB
:1012D0004C2052554E4157415900546865726D611A
:1012E0006C2052756E61776179004361726420727F
:1012F000656D6F766564004361726420696E736525
:10130000727465640000060900FE06018902FE2071
:10131000FFFE07FE06FE00000006000701060606A7
:101320000200808080800080030303060103A0A0E8
:10133000A00507070600FF5050F850F85050050967
:10134000090600FE2070A8A07028A87020060808D2
:101350000600FF40A848102048540805070706006B
:10136000FF609090609890680103030602038080FC
:10137000800207070602FF408080808080400207CD
:10138000070602FF804040404040800505050600FA
:10139000008850F850880505050600002020F82038
:1013A000200204040602FEC0404080050101060040
:1013B00002F8020202060200C0C00406060601008E
:1013C0001010204080800406060601006090909076
:1013D000906003060606010040C0404040E004065D
:1013E000060601006090102040F004060606010089
:1013F000F020601010E00506060600001030509046
:10140000F810040606060100F080E01010E0040663
:10141000060601006080E090906004060606010068
:10142000F010102040400406060601006090609015
:10143000906004060606010060909070106002053E
:1014400005060200C0C000C0C00207070602FEC0B9
:10145000C000C0404080050505060000186080609F
:1014600018050303060001F800F80505050600004D
:10147000C0300830C00407070601006090106040CB
:1014800000400506060600007090A8B080700506B2
:1014900006060000205088F8888805060606000029
:1014A000F088F08888F004060606010060908080CD
:1014B0009060040606060100E090909090E004061B
:1014C00006060100F080E08080F0040606060100B8
:1014D000F080E0808080040606060100609080B005
:1014E00090600406060601009090F090909003062C
:1014F00006060100E040404040E005060606000008
:1015000038101010906004060606010090A0C0A0DC
:1015100090900406060601008080808080F0050619
:101520000606000088D8A8A88888040606060100D8
:1015300090D0B090909005060606000070888888CC
:101540008870040606060100E09090E080800407A1
:10155000070601FF609090D0B060100406060601F7
:1015600000E09090E0909004060606010060904034
:10157000209060050606060000F8202020202004A8
:101580000606060100909090909060040606060101
:1015900000909090F060600506060600008888A81C
:1015A000A8D8880506060600008850202050880527
:1015B0000606060000888850202020040606060142
:1015C00000F010204080F0030606060100E0808055
:1015D0008080E00406060601008080402010100391
:1015E0000606060100E020202020E0050303060097
:1015F000032050880501010600FEF80202020602DF
:1016000004804004040406010070909070040606F3
:101610000601008080E09090E00404040601007060
:10162000808070040606060100101070909070040F
:10163000040406010060B0C0700406060601002024
:101640005040E040400406060601FE609090701095
:10165000600406060601008080E090909003060674
:101660000601004000C04040E00308080601FE20DB
:101670000060202020A0400406060601008080A013
:10168000C0A090030606060100C040404040E005AF
:101690000404060000D0A8A888040404060100E0A1
:1016A0009090900404040601006090906004060687
:1016B0000601FEE09090E080800406060601FE70C0
:1016C0009090701010040404060100A0D0808004E3
:1016D000040406010070C030E00406060601004064
:1016E00040E04050200404040601009090907004F3
:1016F0000404060100909060600504040600008860
:10170000A8A8500404040601009060609004060636
:101710000601FE909090709060040404060100F0B1
:101720002040F00307070601002040408040402091
:101730000107070602FF8080808080808003070702
:101740000601008040402040408004020206010360
:1017500050A0FFFFFFFFFFFFFFFFFFFFFFFFFFFFA7
:10176000FFFFFFFFFFFFFFFFFFFFFFFFFFFFFFFF89
:10177000FFFFFF00000006000701060606020080CA
:1017800000808080800406060601FF2070A0A07003
:10179000200507070600FF304840F04040F80505E7
:1017A00005060000A8508850A80506060600008817
:1017B00050F820F8200107070602FF808080008093
:1017C00080800407070601FF708060906010E003CE
:1017D0000101060105A0060707060000788494A40D
:1017E00094847803050506010160A06000E005050A
:1017F000050600002850A05028040303060100F04D
:101800001010040101060102F00607070600007827
:1018100084B4A4A48478040101060105F004030340
:101820000601026090600507070600FF2020F820EF
:101830002000F803050506010140A02040E0030553
:1018400005060101C0204020C00202020602044039
:10185000800405050601FF9090B0D08005060606BD
:10186000000078E8E86828280101010602028002E9
:1018700002020602FE408003050506010140C04049
:1018800040E003050506010140A04000E005050514
:10189000060000A0502850A00508080600FF40C020
:1018A0004050703078100508080600FF40C04050D6
:1018B000680810380508080600FFC0204030F030E6
:1018C0007810040707060100200020608090600562
:1018D000070706000040202050708888050707068B
:1018E000000010202050708888050707060000209F
:1018F00050205070888805070706000028502050A7
:1019000070888805070706000050002050708888FE
:10191000050707060000205020507088880506063D
:1019200006000078A0F0A0A0B80408080601FE6038
:10193000908080906020400407070601004020F05E
:1019400080E080F00407070601002040F080E0807E
:10195000F00407070601002050F080E080F0040743
:10196000070601005000F080E080F0030707060141
:10197000008040E0404040E00307070601002040AF
:10198000E0404040E003070706010040A0E040407F
:1019900040E0030707060100A000E0404040E005EA
:1019A00006060600007048E848487004070706016C
:1019B0000050A090D0B0909004070706010040208E
:1019C00060909090600407070601002040609090AE
:1019D000906004070706010020506090909060041A
:1019E000070706010050A06090909060040707066A
:1019F0000100500060909090600505050600008889
:101A0000502050880408080601FF1070B0B0D0D0F4
:101A1000E080040707060100402090909090600449
:101A20000707060100204090909090600407070689
:101A3000010020509090909060040707060100502C
:101A400000909090906005070706000010208850D5
:101A500020202004060606010080E09090E080042B
:101A600006060601006090A0A090A00407070601EA
:101A7000004020007090907004070706010020408D
:101A800000709090700407070601002050007090CD
:101A9000907004070706010050A000709090700439
:101AA00006060601005000709090700407070601BA
:101AB000002050207090907005040406000070A86B
:101AC000B0780406060601FE70808070204004078E
:101AD0000706010040200060B0C07004070706013F
:101AE0000020400060B0C0700407070601002050CD
:101AF0000060B0C070040606060100500060B0C06F
:101B000070030707060100804000C04040E0030763
:101B100007060100204000C04040E003070706011F
:101B20000040A000C04040E0030606060100A000FF
:101B3000C04040E00407070601003060107090903C
:101B40006004070706010050A000E0909090040791
:101B5000070601004020006090906004070706011E
:101B600000204000609090600407070601002050AC
:101B7000006090906004070706010050A00060908C
:101B80009060040606060100500060909060050514
:101B9000050600002000F80020040404060100707F
:101BA000B0D0E0040707060100402000909090703C
:101BB000040707060100204000909090700407077A
:101BC0000601002050009090907004060606010067
:101BD0005000909090700409090601FE204000908A
:101BE00090907090600408080601FE8080E090905C
:101BF000E080800408080601FE50009090907090EC
:101C00006025753A2530327500253032753A253019
:101C100032750025756420253032753A25303275CD
:101C2000005A005900580009200000000000000080
:101C30000000000000007FFFE00000000000000046
:101C400000000000007000E0000000000000000044
:101C50000000000061F860000000000000000000CB
:101C600000000041F820000000000000000000001B
:101C7000000040F020000000000000000000000014
:101C80000040602000000000000000000000000094
:101C90005801A07F80000000000000004104005CAB
:101CA00063A0FFC0000000000000002082005EF77B
:101CB000A0FFC0000000000000002082005EF7A02E
:101CC000FFC0000000000000004104005C63A07F32
:101CD00080000000000000008208005801A07F8002
:101CE00000000000000001041000406020FFC00060
:101CF00000000000000104100040F020FFC00000C0
:101D0000000000000082080041F820FFC000000031
:101D10000000000041040061F8603F000000000086
:101D20000000000000007000E01E00000000000045
:101D30000001FFFF807FFFE00C00000000000000BA
:101D400001FFFF8000000000000000000000000014
:101D50000000007FFFE00000000000000000000025
:101D600000007000E0000000000000000000000023
:101D700000630C6000000000000000000000000094
:101D8000470E200000000000000000000000004F8F
:101D90000F200000000000000000000000005F0FA6
:101DA000A00000000000000000000000005E07A08E
:101DB0007F8000000000000000410400406020FF20
:101DC000C00000000000000020820040F020FFC0A2
:101DD0000000000000000020820040F020FFC00052
:101DE0000000000000004104004060207F800000EF
:101DF00000000000008208005E07A07F8000000055
:101E0000000000010410005F0FA0FFC000000000F0
:101E10000000010410004F0F20FFC0000000000070
:101E20000000820800470E20FFC0000000000000F4
:101E300000410400630C603F00000000000000004F
:101E40000000007000E01E0000000000000001FF24
:101E5000FF807FFFE00C0000000000000001FFFF9A
:101E60008000000000060900FE00000000000109DB
:101E70000008FE000005080806000040F0C8888839
:101E8000987810050808060000C0F88888888888B7
:101E9000F80505050600012030F830200508080681
:101EA00000002070F820202020E00509090600FF2E
:101EB0002070A8A8B8888870200509090600FFE0EE
:101EC00080C0B0A8283028280509090600FFF8A816
:101ED0008888888888A8F8050A0A0600FE205050DD
:101EE000505088A8A8887003030306000340A04050
:101EF00000060900FE070192032120FFFF08FF07EB
:101F0000FF00000006000001070706020080808035
:101F100080800080030202060105A0A005070706D5
:101F200000005050F850F8505005070706000020F8
:101F300078A07028F020050707060000C0C8102010
:101F40004098180507070600006090A040A8906818
:101F5000020303060104C0408003070706010020B6
:101F60004080808040200307070601008040202039
:101F700020408005050506000120A870A820050561
:101F8000050600012020F820200203030602FFC0FE
:101F90004080050101060003F8020202060200C0AB
:101FA000C00505050600010810204080050707064A
:101FB0000000708888888888700307070601004041
:101FC000C040404040E005070706000070880870E8
:101FD0008080F8050707060000F81020100808F0B8
:101FE00005070706000010305090F810100507078D
:101FF000060000F880F00808887005070706000052
:10200000708080F0888870050707060000F80810C7
:102010002020202005070706000070888870888827
:1020200070050707060000708888780808700205A8
:1020300005060200C0C000C0C00206060602FFC0BE
:10204000C000C04080040707060000102040804008
:102050002010050303060002F800F8040707060134
:10206000008040201020408005070706000070888F
:10207000081020002005070706000070880868A8DF
:10208000A870050707060000708888F8888888050A
:102090000707060000F08888F08888F00507070623
:1020A000000070888080808870050707060000F0B7
:1020B0008888888888F0050707060000F88080F087
:1020C0008080F8050707060000F88080F080808097
:1020D000050707060000708880B888887005070724
:1020E000060000888888F8888888010707060200AB
:1020F00080808080808080050707060000381010EF
:10210000101090600507070600008890A0C0A090FE
:1021100088050707060000808080808080F805071A
:102120000706000088D8A888888888050707060061
:10213000008888C8A8988888050707060000708866
:102140008888888870050707060000F08888F08076
:10215000808005070706000070888888A8906805B9
:102160000707060000F08888F0A09088050707069A
:102170000000788080700808F0050707060000F866
:102180002020202020200507070600008888888856
:10219000888870050707060000888888888850208E
:1021A0000507070600008888888888A85005070763
:1021B0000600008888502050888805070706000020
:1021C00088888850202020050707060000F808109E
:1021D000204080F8030707060100E08080808080AF
:1021E000E0050505060001804020100803070706EA
:1021F0000100E02020202020E00503030600042049
:102200005088050101060000F8020202060205805E
:102210004005050506000070087888780507070660
:1022200000008080B0C88888F005050506000070B1
:10223000808088700507070600000808689888886D
:10224000780505050600007088F880700507070608
:1022500000003048E0404040400506060600FF70A0
:1022600088887808700507070600008080B0C88855
:102270008888010707060200800080808080800334
:1022800008080601FF200020202020A040040707A6
:10229000060000808090A0C0A09003070706010000
:1022A000C04040404040E0050505060000D0A8A819
:1022B000A8A8050505060000B0C88888880505059A
:1022C00006000070888888700506060600FFF08802
:1022D00088F080800506060600FF78888878080860
:1022E000050505060000B0C88080800505050600CC
:1022F0000070807008F00407070600004040E040CE
:102300004040300505050600008888889868050566
:10231000050600008888885020050505060000880D
:1023200088A8A8500505050600008850205088059B
:1023300006060600FF8888887808700505050600EF
:1023400000F8102040F803070706010020404080F5
:102350004040200107070602008080808080808046
:10236000030707060100804040204040800502022C
:102370000600026890000000060000000000060051
:102380000000000006000000000006000000000041
:10239000060000000000060000000000060000002B
:1023A000000006000000000006000000000006001B
:1023B0000000000006000000000006000000000011
:1023C00006000000000006000000000006000000FB
:1023D00000000600000000000600000000000600EB
:1023E00000000000060000000000060000000000E1
:1023F00006000000000006000000000006000000CB
:1024000000000600000000000600000000000600BA
:1024100000000000060000000000060000000000B0
:10242000060000000000060000000000060000009A
:10243000000006000000000006000000000006008A
:102440000001070706020080008080808080050769
:10245000070600002070A8A0A87020050707060046
:1024600000304040E04050A8050505060000887097
:10247000507088050707060000885020F820F820D3
:102480000107070602008080800080808005080820
:1024900006000030482050502090600301010601E2
:1024A00007A0050707060000F888B8B8B888F8053F
:1024B0000707060001700878887800F8050505060A
:1024C00000012850A05028050303060001F8080861
:1024D0000202020602064080050707060000F8888F
:1024E000A88898A8F8050101060006F80404040667
:1024F0000003609090600507070600002020F82088
:102500002000F804050506000360902040F0030554
:1025100005060003E020E020E00202020602064079
:10252000800508080600FF8888888898E88080056C
:102530000707060000789898781818180202020613
:102540000202C0C00202020602FF40800305050627
:10255000000340C04040E00507070600017088887E
:10256000887000F8050505060001A0502850A00558
:1025700007070600008890A858B80808050707064E
:1025800000008890B848982038050808060000C068
:1025900040C048D83808080507070600002000207A
:1025A000408088700508080600004020007088F808
:1025B00088880508080600001020007088F88888C0
:1025C0000508080600002050007088F88888050873
:1025D000080600006890007088F8888805080806DA
:1025E00000005000708888F88888050808060000F8
:1025F0002050207088F8888805070706000038609A
:10260000A0B8E0A0B80508080600FF7088808088A0
:10261000702060050808060000402000F880F08067
:10262000F8050808060000081000F880F080F8059A
:102630000808060000205000F880F080F805070721
:102640000600005000F880F080F80308080601003A
:10265000804000E0404040E00308080601002040C0
:1026600000E0404040E003080806010040A000E010
:10267000404040E0030707060100A000E040404062
:10268000E0050707060000704848E848487005085C
:102690000806000068900088C8A898880508080601
:1026A00000004020708888888870050808060000AF
:1026B000102070888888887005080806000020505F
:1026C000007088888870050808060000689000700F
:1026D000888888700508080600005000708888887F
:1026E00088700505050600018850205088050808F7
:1026F0000600FF1070A8A8A8A870400508080600EA
:102700000040208888888888700508080600001026
:1027100020888888888870050808060000205000F6
:102720008888888870050808060000500088888816
:102730008888700508080600001020885020202096
:10274000200509090600FFC040704848704040E07D
:102750000408080601FF609090A09090E0800508B2
:1027600008060000402000700878887805080806F0
:10277000000010200070087888780508080600001E
:1027800020500070087888780508080600006890D6
:102790000070087888780507070600005000700868
:1027A000788878050808060000205020700878888E
:1027B00078050606060000D02878A0A85005060671
:1027C0000600FF7080887020600508080600004041
:1027D00020007088F88070050808060000102000AE
:1027E0007088F88070050808060000205000708886
:1027F000F8807005070706000050007088F88070A8
:1028000003080806010080400040C04040E0030883
:102810000806010020400040C04040E003080806D0
:10282000010040A00040C04040E00307070601004F
:10283000A00040C04040E0050707060000A040A0FF
:1028400010788870050808060000689000B0C888F5
:102850008888050808060000402000708888887075
:102860000508080600001020007088888870050898
:102870000806000020500070888888700508080647
:1028800000006890007088888870050707060000BF
:10289000500070888888700505050600012000F842
:1028A00000200507070600FF1070A8A8A8704005C3
:1028B00008080600004020008888889868050808F5
:1028C000060000102000888888986805080806001F
:1028D0000020500088888898680507070600005087
:1028E0000088888898680509090600FF102000887C
:1028F0008888F808700407070601FFC04060506030
:1029000040E00508080600FF5000888888780870B5
:1029100024F4D43050C38E20C2A24017828B701191
:10292000127A910D816CD90AA861E108C75866072F
:10293000615143061E4B5D05C145A7041A411104B0
:10294000093D9803713931034036DB02653391024A
:10295000D4305402802E1D02632CEE01752AC5016D
:10296000B028A001102781018F2564012B244B0181
:10297000E0223401AC211F018D200D01801FFC00DD
:10298000841EED00971DDF00B81CD200E61BC600B8
:10299000201BBC00641AB200B219A8000A19A000DA
:1029A0006A189900D117910040178B00B516840062
:1029B00031167E00B31579003A157300C7146F0005
:1029C00058146A00EE1366008813630025135E0036
:1029D000C7125B006C12570015125400C111510050
:1029E00070114F0021114B00D61049008D10470087
:1029F0004610440002104200C00F4000800F3E000D
:102A0000420F3C00060F3B00CB0E3800930E370000
:102A10005C0E3500270E3400F30D3200C10D31007D
:102A2000900D3000600D2E00320D2D00050D2C0094
:102A3000D90C2B00AE0C2900850C29005C0C27005A
:102A4000350C27000E0C2600E80B2400C40B2400D4
:102A5000A00B23007D0B23005A0B2100390B210012
:102A6000180B2000F80A1F00D90A1E00BB0A1E001E
:102A70009D0A1D00800A1D00630A1C00470A1B00F6
:102A80002C0A1B00110A1A00F7091A00DD091900A7
:102A9000C4091900AB091900920917007B09180035
:102AA000630917004C0916003609160020091600A4
:102AB0000A091500F5081500E0081400CC081400F8
:102AC000B8081400A4081400900813007D08120030
:102AD0006B08130058081200460812003408110051
:102AE000230811001208110001081100F00710005E
:102AF000E0071000D0071000C0071000B0070F005B
:102B0000A107100091070E0083070F0074070F0044
:102B100065070E0057070E0049070E003B070D0022
:102B20002E070E0020070D0013070D0006070D00ED
:102B3000F9060C00ED060D00E0060C00D4060C00B2
:102B4000C8060C00BC060C00B0060C00A4060B0066
:102B500099060C008D060B0082060B0077060B0011
:102B60006C060B0061060A0057060B004C060A00B3
:102B700042060A0038060A002E060A0024060A0049
:102B80001A060A001006090007060A00FD050900DA
:102B9000F4050900EB050900E2050900D905090063
:102BA000D0050900C7050900BE050900B5050800E4
:102BB000AD050800A50509009C050800940508005E
:102BC0008C050800840508007C05080074050800D1
:102BD0006C050700650508005D050700560508003F
:102BE0004E050700470507004005080038050700A7
:102BF000310507002A050700230507001C0506000C
:102C0000160507000F050700080506000205070066
:102C1000FB040600F5040700EE040600E8040600C5
:102C2000E2040700DB040600D5040600CF0406001A
:102C3000C9040600C3040600BD040600B70406006C
:102C4000B1040500AC040600A6040600A0040500BB
:102C50009B04060095040500900406008A04050004
:102C600085040500800406007A040500750405004B
:102C7000700405006B04050066040500610405008E
:102C80005C04050057040500520405004D040500CE
:102C900048040500430405003E0404003A0405000E
:102CA00035040500300404002C040500270404004A
:102CB000230405001E0404001A0404001604050081
:102CC000110404000D0404000904050004040400B8
:102CD00000040400FC030400F8030400F4030400EF
:102CE000F0030400EC030400E8030400E403040020
:102CF000E0030400DC030400D8030400D403040050
:102D0000D0030400CC030400C8030300C503030080
:102D100024F404D9201BC40C5C0E9804C4095F027F
:102D200065077101F405F900FB04B300480487004E
:102D3000C10369005803550003034500BE023A0071
:102D40008402310053022A002902250004022000D7
:102D5000E4011C00C8011900AF011700980114001C
:102D600084011300710110006101100051010E0077
:102D700043010D0036010B002B010B0020010B005D
:102D8000150109000C01090003010800FB000800FF
:102D9000F3000800EB000700E4000600DE00060078
:102DA000D8000600D2000600CC000500C7000500D0
:102DB000C2000500BD000400B9000400B500040015
:102DC000B1000400AD000400A9000400A500030048
:102DD000A20003009F0004009B0003009800030072
:102DE0009500020093000300900003008D00020094
:102DF0008B000300880002008600020084000300AC
:102E0000810002007F0002007D0002007B000200C2
:102E100079000200770001007600020074000200D1
:102E200072000100710002006F0002006D000100DD
:102E30006C0002006A0001006900020067000100E6
:102E400066000100650001006400020062000100EC
:102E500061000100600001005F0002005D000100F0
:102E60005C0001005B0001005A00010059000100F4
:102E700058000100570001005600010055000100F4
:102E800054000100530000005300010052000100F3
:102E900051000100500001004F0001004E000000F1
:102EA0004E0001004D0001004C0001004B000000ED
:102EB0004B0001004A0001004900010048000000E9
:102EC00048000100470001004600000046000100E4
:102ED00045000000450001004400010043000000DF
:102EE00043000100420000004200010041000000D8
:102EF00041000100400001003F0000003F000100D0
:102F00003E0000003E0001003D0000003D000100C9
:102F10003C0000003C0000003C0001003B000000C1
:102F20003B0001003A0000003A00010039000000B7
:102F300039000100380000003800000038000100AE
:102F400037000000370001003600000036000000A6
:102F5000360001003500000035000000350001009A
:102F60003400000034000000340001003300000091
:102F70003300000033000100320000003200000086
:102F8000320001003100000031000000310001007A
:102F90003000000030000000300001002F00000071
:102FA0002F0000002F0000002F0001002E00000065
:102FB0002E0000002E0001002D0000002D0000005A
:102FC0002D0000002D0001002C0000002C0000004E
:102FD0002C0000002C0001002B0000002B00000042
:102FE0002B0000002B0001002A0000002A00000036
:102FF0002A0000002A00010029000000290000002A
:10300000290000002900000029000100280000001C
:10301000280000002800000028000000280001000F
:103020002700000027000000270000002700000004
:1030300027000100260000002600000026000000F6
:1030400026000000260001002500000025000000E9
:1030500025000000250000002500000025000100DB
:1030600024000000240000002400000024000000D0
:1030700024000100230000002300000023000000C2
:1030800023000000230000002300000023000100B3
:1030900022000000220000002200000022000000A8
:1030A0002200000022000100210000002100000099
:1030B000210000002100000021000000210000008C
:1030C000210001002000000020000000200000007E
:1030D0002000000020000000200000002000000070
:1030E000200001001F0000001F0000001F00000062
:1030F0001F0000001F0000001F0000001F00010053
:103100001E0000001E0000001E0000001E00000047
:103110004D383420582059205A2045006265640AF1
:10312000002C2073797374656D2073746F707065F3
:103130006421204865617465725F49443A20004803
:10314000656174696E67206661696C6564004865D5
:103150006174696E67206661696C656400486561C9
:1031600074696E67206661696C65640048656174A6
:10317000696E67206661696C656400FFE0FFD1AF2E
:10318000FF32FFD0FFFEFFE0FFD1AEFFD0FFFEFF1A
:10319000E0FFD11000FFFEFFD0FFE0FFC1FFD1AE86
:1031A000D580A83FD300408D142002A1C8DA128137
:1031B000CFD9F1DB402EA4A6AFFFD0FFFE50726541
:1031C0006865617420504C4120426564005072650E
:1031D0006865617420504C41005072657061726581
:1031E00000507265686561742041425320426564F5
:1031F00000507265686561742041425300507265E9
:1032000070617265004C6576656C696E6720446F0D
:103210006E6521004D6F7665205A00473238004EAA
:1032200065787420506F696E74002569202F202501
:103230007500436C69636B20746F20426567696E2B
:1032400000486F6D696E672058595A004732380040
:103250004C6576656C206265640043616E63656CE5
:10326000004D34323800436F6F6C646F776E0043EB
:1032700068616E67652066696C616D656E7400508B
:1032800072656865617420414253005072656865DB
:10329000617420504C41004D3834004469736162C0
:1032A0006C65207374657070657273004C6576652B
:1032B0006C206265640053657420686F6D65206FD3
:1032C00066667365747300473238205A00486F6D24
:1032D00065205A00473238205900486F6D652059E3
:1032E00000473238205800486F6D6520580047323B
:1032F00038004175746F20686F6D65004D6F76659D
:103300002061786973004731205A313730004C6FA3
:10331000776572204275696C6420506C6174650039
:103320004D61696E004578747275646572004D6F09
:103330007665205A004D6F76652059004D6F766591
:103340002058005072657061726500526573746F29
:103350007265206661696C73616665004C6F6164BB
:10336000206D656D6F72790053746F7265206D65A5
:103370006D6F72790043617365206272696768746A
:103380006E6573730046696C616D656E74004D6F98
:1033900074696F6E0054656D7065726174757265E5
:1033A000004D61696E004D33303320553120452585
:1033B0006920532569005072656865617420414237
:1033C0005320636F6E6600507265686561742050AB
:1033D0004C4120636F6E6600504944204175746F04
:1033E00074756E6500504944204175746F74756E34
:1033F00065005049442D44005049442D4400504933
:10340000442D49005049442D49005049442D500055
:103410005049442D50002008204661637400200864
:103420002046616374002008204D61780020082048
:103430004D6178002008204D696E002008204D69FC
:103440006E004F6666004F6E20004175746F7465A4
:103450006D700046616E2073706565640046616E34
:103460002073706565640042656400426564004EC7
:103470006F7A7A6C65004E6F7A7A6C6500436F6E76
:1034800074726F6C0053746F7265206D656D6F722E
:10349000790042656400426564004E6F7A7A6C651B
:1034A000004E6F7A7A6C650046616E2073706565B8
:1034B000640046616E2073706565640054656D70CC
:1034C0006572617475726500537465702044726929
:1034D00076652045005374657020447269766520D6
:1034E000450053746570204472697665205A005314
:1034F000746570204472697665205A005374657053
:1035000020447269766520585900537465702044D0
:1035100072697665205859004573746570732F6D14
:103520006D004573746570732F6D6D005A7374650B
:1035300070732F6D6D005A73746570732F6D6D000D
:103540005973746570732F6D6D0059737465707362
:103550002F6D6D005873746570732F6D6D00587307
:10356000746570732F6D6D00412D74726176656C9A
:1035700000412D74726176656C00412D7265747224
:1035800061637400412D7265747261637400416DF2
:103590006178204500416D6178204500416D61787A
:1035A000205A00416D6178205A00416D61782059A0
:1035B00000416D6178205900416D617820580041CB
:1035C0006D61782058005654726176206D696E00E6
:1035D0005654726176206D696E00566D696E0056A4
:1035E0006D696E00566D6178204500566D617820DA
:1035F0004500566D6178205A00566D6178205A005A
:10360000566D6178205900566D6178205900566DCD
:103610006178205800566D617820580056652D6AF3
:1036200065726B0056652D6A65726B00567A2D6A5D
:1036300065726B00567A2D6A65726B0056792D6A39
:1036400065726B0056792D6A65726B0056782D6A2B
:1036500065726B0056782D6A65726B004163636515
:103660006C00416363656C00426564205A004265EA
:1036700064205A00436F6E74726F6C0053746F70E5
:10368000207072696E740043616E63656C00416204
:103690006F7574205072696E746572004E6F20539E
:1036A000442063617264005072696E742066726FA8
:1036B0006D2053440053746F70207072696E7400F3
:1036C000526573756D65207072696E740050617516
:1036D0007365207072696E7400436F6E74726F6CE4
:1036E0000043617365206C69676874206F6E0043E6
:1036F000617365206C69676874206F66660050723C
:10370000657061726500517569636B204D656E75FA
:103710000054756E65004261627973746570205A59
:1037200000496E666F2073637265656E0042616268
:10373000797374657070696E67205A004D36303049
:10374000004368616E67652066696C616D656E74C3
:10375000004261627973746570205A00466C6F771D
:1037600000466C6F770046616E207370656564007B
:1037700046616E2073706565640042656400426551
:1037800064004E6F7A7A6C65004E6F7A7A6C6500D1
:10379000426564205A00426564205A005370656592
:1037A00064005370656564004D61696E0020496E68
:1037B00076616C6964206578747275646572200046
:1037C000000048430000484300002A430000000076
:1037D0000000000000000000206E6F7420656E7411
:1037E000657265642E0A0046696C652064656C65C7
:1037F0007465643A0044656C6574696F6E20666137
:10380000696C65642C2046696C653A20006F7065B0
:103810006E206661696C65642C2046696C653A208F
:10382000002042403A0020403A00202F0020423A37
:1038300000202F0020543A0020746F6F206C6F6EB0
:103840006720657874727573696F6E207072657623
:10385000656E7465640A0020636F6C64206578741B
:10386000727573696F6E2070726576656E746564CB
:103870000A00205A3A0020593A0020436F756E74AE
:1038800020583A200020453A00205A3A0020593A60
:1038900000583A0020643A0020693A0020703A004B
:1038A00020643A0020693A0020703A0043290A0057
:1038B00061626C656420286D696E2074656D70208E
:1038C00000436F6C64206578747275646573206161
:1038D000726520004B64200023646566696E652074
:1038E0002044454641554C545F004B6920002364F9
:1038F0006566696E65202044454641554C545F001D
:103900004B70200023646566696E6520204445463F
:1039100041554C545F00504944204175746F747593
:103920006E652066696E69736865642120507574E0
:1039300020746865206C617374204B702C204B6977
:1039400020616E64204B6420636F6E7374616E74CB
:10395000732066726F6D2062656C6F7720696E747C
:103960006F20436F6E66696775726174696F6E2E42
:10397000680A00504944204175746F74756E652063
:103980006661696C6564212074696D656F75740A80
:1039900000504944204175746F74756E65206661EE
:1039A000696C6564212054656D706572617475720F
:1039B0006520746F6F20686967680A00204B643A5D
:1039C0002000204B693A2000204B703A20000A204A
:1039D000436C617373696320504944200A0020548A
:1039E000753A2000204B753A2000206D61783A200E
:1039F00000206D696E3A200020643A200020626940
:103A000061733A20004572726F722077726974692F
:103A10006E6720746F20454550524F4D210A00209B
:103A20006279746573290A0053657474696E6773EB
:103A30002053746F72656420280000000000300E6F
:103A40000100C00E0A00500F1400D00F1E006010BD
:103A50002800E010320070113C00F0114600701296
:103A6000500000135A008013640000146E0090147C
:103A700078001015820090158C0010169600901694
:103A8000A0001017AA009017B4001018BE009018DC
:103A9000C8001019D2009019DC00101AE600801A34
:103AA000F000001BFA00801B0401F01B0E01701CCB
:103AB0001801F01C2201601D2C01E01D3601501E72
:103AC0004001D01E4A01401F5401B01F5E0130204A
:103AD0006801A020720110217C0190218601002242
:103AE00090016026F401902A5802802EBC025032C8
:103AF0002003E03584035039E803803C4C044669D8
:103B00006C2E204469612E0046696C2E2044696148
:103B10002E004F6666004F6E20004520696E206DB6
:103B20006D3300436F6E74726F6C00436173652078
:103B30006272696768746E6573730043616E6E6F5D
:103B40007420656E746572207375626469723A20C0
:103B500000022E2E004D61696E000045787472756A
:103B600064656420746F74616C3A2000256C642E67
:103B700025696D00004C6F6E67657374206A6F6213
:103B80002074696D653A200000546F74616C207078
:103B900072696E742074696D653A2000436F6D70B0
:103BA0006C657465643A20005072696E7420436FCE
:103BB000756E743A2000526573656E643A20006F2A
:103BC0006B00627573793A20706175736564206665
:103BD0006F7220696E7075740A00627573793A208D
:103BE00070617573656420666F7220757365720A03
:103BF00000627573793A2070726F63657373696ED2
:103C0000670A004D363030004B494C4C45442E205D
:103C10000070012C0190012701B0012201C0011D9B
:103C200001F00118011002130130020E01600209B7
:103C30000190020401C002FF000003FA004003F5F6
:103C4000008003F000D003EB002004E6007004E1E4
:103C500000E004DC004005D700C005D2004006CDDE
:103C600000D006C8008007C3003008BE00F008B9C5
:103C700000C009B400B00AAF00B00BAA00D00CA578
:103C800000000EA000500F9B00C010960050129133
:103C90000000148C00C0158700B0178200B0197D99
:103CA00000D01B7800001E730040206E0090226937
:103CB00000F024640040275F0090295A00E02B5553
:103CC00000102E500020304B0010324600E03341EF
:103CD0000090353C001037370070383200A0392D85
:103CE00000B03A2800A03B2300603C1E00103D19A4
:103CF00000903D1400103E0F00703E0A00C03E05CB
:103D000000003F00004572723A204D415854454D25
:103D10005020424544004572723A204D4158544566
:103D20004D50004D415854454D502074726967679D
:103D300065726564004572723A204D494E54454D96
:103D40005020424544004572723A204D494E544538
:103D50004D50004D494E54454D502074726967676F
:103D600065726564001FFFFFFFFFFFFF600000003A
:103D70000001FF400000000000FF80000000000084
:103D80007F83CF00000C303F87FF80000C301F8600
:103D90007980000C000F8C30C7838C30E78C30CFDB
:103DA000C7CC31F38C30DCECEC33B98C30D86C6C94
:103DB00033198C30D06C0C33198C30D86C0C33190F
:103DC0008C30DC6C0E3B198C30CF7C079F198C300B
:103DD000C77C038F19400000000000026000000053
:103DE0000000061FFFFFFFFFFFF8436F6F6C646F5B
:103DF000776E004368616E67652066696C616D650A
:103E00006E740050726568656174204142530050C1
:103E100072656865617420504C41004739310A472A
:103E200031205A32350A473930004C6F776572209D
:103E30004275696C6420506C6174652032356D6D1B
:103E4000004C6576656C206265640047323800413D
:103E500075746F20686F6D65004D61696E004D6F00
:103E600076652058004D6F76652059004D6F766558
:103E7000205A004578747275646572004D6F7665DE
:103E800020302E316D6D004D6F766520316D6D00E7
:103E90004D6F76652031306D6D004D6F7665206118
:103EA000786973004578747275646572004D6F7639
:103EB00065205A004D6F76652059004D6F7665205C
:103EC00058004F666673657473206170706C696525
:103ED00064004572723A20546F6F2066617221004F
:103EE000546F6F206661722066726F6D2072656616
:103EF0006572656E636520706F696E740A004D3679
:103F0000303020486F74656E6420746F6F20636F6B
:103F10006C6420746F206368616E67652066696CED
:103F2000616D656E740A006F6E0A006F66660A0046
:103F300043617365206C696768747320004E414E5D
:103F4000494E495459494E46CDCCCC3D0AD7233C25
:103F500017B7D13877CC2B329595E6241FB14F0A8D
:103F6000000020410000C84200401C4620BCBE4C5E
:103F7000CA1B0E5AAEC59D749CF81EF611241FBEB6
:103F8000CFEFD1E2DEBFCDBF00E00CBF14E0A0E078
:103F9000B2E0EEEBFEE002E00BBF02C007900D9234
:103FA000A838B107D9F725E1A8E8B4E001C01D920F
:103FB000A835B207E1F71FE1CDEBDFE100E006C075
:103FC00021970109802FFE010E9444FBCC3BD107C1
:103FD00080E00807A9F70E9419F00D944D070C9492
:103FE00000002F923F924F925F926F927F928F923A
:103FF0009F92AF92BF92CF92DF92EF92FF920F9378
:104000001F93CF93DF93CDB7DEB7C756D1090FB655
:10401000F894DEBF0FBECDBF0091E10620E6029FFF
:10402000800111240F591A4F10939B0400939A0496
:104030008091740F80FF18C0E4ECF2E184917F015D
:104040003FEFE31AF30A882321F00E947D40F70135
:10405000F5CFD8018D918D01882319F00E947D4004
:10406000F8CF8AE00E947D4020919A0430919B0411
:10407000F90180812F5F3F4F8032D1F3F0939B0491
:10408000E0939A048E3469F010919A0400919B0495
:104090006AE270E0812F902F0E9494FE0097D1F485
:1040A00020C0818190ED980F9A3010F08D3261F729
:1040B0003296DF0131962C9120532A30D0F3CD0176
:1040C000FC01019620812032D9F3F0939B04E09308
:1040D0009A04DACFFC0131968291803231F08A3233
:1040E00021F0A12FB02F9D9102C01082F5CFFD01CC
:1040F000808111968032D9F380538A3020F0E4EC2D
:10410000F2E10C943F3920E030E06AE0629FA001C8
:10411000639F500D11249A01205331098191280F7A
:10412000311D87FD3A95808180538A3078F38F0165
:104130003196D8018C918032D1F31093930400937F
:10414000920441E050E05093801440937F149D34DA
:1041500011F40C94352C943511F40C940A399734DD
:1041600011F00C9421392430310509F484C638F457
:10417000809165022230310508F032C11DC02A3518
:10418000310511F40C94BA2B58F42C31310509F493
:10419000B1C62D31310511F40C948E290C943639A9
:1041A0002B35310511F40C94BE2B2C35310511F44F
:1041B0000C94C32B0C943639882311F40C943639A3
:1041C0000E943BB185EF96E00E94ABDC0E947240FA
:1041D0008091740F83FD93C0C0900107D0900207B7
:1041E000E0900307F090040720912A1530912B15D9
:1041F00040912C1550912D15C701B6010F9406035F
:10420000882309F47CC08091520F811134C0209121
:104210008E0230918F0240919002509191026091F4
:10422000820F7091830F8091840F9091850F0F946E
:10423000060387FF20C0C0922A15D0922B15E0926A
:104240002C15F0922D15E4ECF2E184918F010F5FB3
:104250001F4F882321F00E947D40F801F6CFE7EE42
:10426000F1E084918F010F5F1F4F882321F00E949E
:104270007D40F801F6CFC0900107D0900207E09092
:104280000307F090040720912A1530912B154091D7
:104290002C1550912D15C701B6010E9467FB0E9495
:1042A000C5FC97FF07C090958095709561957F4FED
:1042B0008F4F9F4F6D3271408105910504F1C0927F
:1042C0002A15D0922B15E0922C15F0922D15E4ECC6
:1042D000F2E184918F010F5F1F4F882321F00E942C
:1042E0007D40F801F6CFE8ECF1E084918F010F5F9B
:1042F0001F4F882321F00E947D40F801F6CF2091C6
:10430000F5063091F6064091F7065091F806609157
:104310001E1570911F1580912015909121150F94F5
:10432000060381111DC02091F9063091FA064091D3
:10433000FB065091FC066091221570912315809127
:104340002415909125150F940603811109C06091E1
:1043500000027091010280910202909103023AC022
:104360008091EC0F609194027091950281FF1CC0C6
:10437000072E000C880B990B0F940C032091000260
:104380003091010240910202509103020F946B039D
:104390002AE037ED43E25CE30F946B032FEF4FEF1E
:1043A0000E94ECD90C943639072E000C880B990B1F
:1043B0000F940C03209100023091010240910202FF
:1043C000509103020F946B032AE037ED43E25CE364
:1043D0000F946B030E9472AE0E9468AE0C94363943
:1043E000882311F40C94363911E02230310509F09C
:1043F00010E00E943BB182E50E9432B0882309F4AC
:104400003CC10E948B3E6B017C0120911E153091B6
:104410001F1540912015509121152CA73DA74EA79F
:104420005FA78091221590912315A0912415B0913A
:10443000251588AB99ABAAABBBAB2091F5063091A3
:10444000F6064091F7065091F8062CAF3DAF4EAFFF
:104450005FAF8091F9069091FA06A091FB06B091AA
:10446000FC068CAB9DABAEABBFAB20E030E0A9014E
:10447000C701B6010F940603882309F4E2C42CA5F2
:104480003DA54EA55FA56CAD7DAD8EAD9FAD0F94E6
:10449000060381110DC028A939A94AA95BA96CA9F5
:1044A0007DA98EA99FA90F940603882309F4C9C486
:1044B00020E030E0A901C701B6010F940603881F70
:1044C0008827881F181307C0412C512C40E8642E00
:1044D0004FE3742E06C0412C512C30E8632E3FEB85
:1044E000732E2CA53DA54EA55FA56CAD7DAD8EAD03
:1044F0009FAD0E9467FB24966CAF7DAF8EAF9FAFE0
:10450000249728A939A94AA95BA96CA97DA98EA9D4
:104510009FA90E9467FB28966CAF7DAF8EAF9FAFBF
:10452000289724962CAD3DAD4EAD5FAD2497CA01C2
:10453000B9010F946B034B015C0128962CAD3DAD86
:104540004EAD5FAD2897CA01B9010F946B039B0173
:10455000AC01C501B4010E9468FB0E94F9FD68AF7F
:1045600079AF8AAF9BAF20E030E040E05FE30F948B
:104570006B034B015C01A7019601C701B6010F94C3
:104580006B036B017C01A5019401C501B4010F947B
:104590006B039B01AC01C701B6010E9467FB0E943F
:1045A000F9FD9B01AC01C301B2010F946B032B0118
:1045B0003C012CAD3DAD4EAD5FAD6CA57DA58EA58E
:1045C0009FA50E9468FB20E030E040E05FE30F948D
:1045D0006B036B017C0128966CAD7DAD8EAD9FADFC
:1045E0002897905828AD39AD4AAD5BAD0E9454FC78
:1045F0009B01AC01C301B2010F946B039B01AC01A1
:10460000C701B6010E9468FB2CA53DA54EA55FA57C
:104610000E9467FB6B017C012CA93DA94EA95FA9F3
:1046200068A979A98AA99BA90E9468FB20E030E0CB
:1046300040E05FE30F946B034B015C0128AD39ADA3
:104640004AAD5BAD24966CAD7DAD8EAD9FAD24972C
:104650000E9454FC9B01AC01C301B2010F946B0397
:104660009B01AC01C501B4010E9468FB28A939A9CE
:104670004AA95BA90E9467FB14C089E40E9432B07A
:10468000882329F00E948B3E6B017C0103C0C12C62
:10469000D12C76018AE40E9432B08823D9F00E949E
:1046A0008B3E6CA77DA78EA79FA720E030E0A901D5
:1046B000C701B6010F94060381111AC020E030E053
:1046C000A9016CA57DA58EA59FA50F940603811158
:1046D0000FC0B7C320E030E0A901C701B6010F94B5
:1046E0000603882309F4ADC31CA61DA61EA61FA69B
:1046F000A7019601C701B6010F946B034B015C0142
:104700002CA53DA54EA55FA5CA01B9010F946B0369
:104710009B01AC01C501B4010E9468FB0E94F9FD38
:10472000A0966CAF7DAF8EAF9FAFA09720911E1566
:1047300030911F1540912015509121152CAB3DABA8
:104740004EAB5FABA70196016CA97DA98EA99FA96D
:104750000E9468FB28966CAF7DAF8EAF9FAF289705
:104760008091221590912315A0912415B0912515C3
:1047700088AF99AFAAAFBBAF2CA53DA54EA55FA54D
:10478000BC01CD010E9468FB2C966CAF7DAF8EAF53
:104790009FAF2C9720912615309127154091281511
:1047A0005091291560962CAF3DAF4EAF5FAF60972B
:1047B0006091FD067091FE068091FF0690910007C2
:1047C0000E9467FB24966CAF7DAF8EAF9FAF24979E
:1047D0008091010790910207A0910307B09104070F
:1047E000A4968CAF9DAFAEAFBFAFA49720912A1512
:1047F00030912B1540912C1550912D1564962CAFAE
:104800003DAF4EAF5FAF6497D701C601B05888ABDC
:1048100099ABAAABBBAB2CA53DA54EA55FA5505847
:104820002CAF3DAF4EAF5FAF8091F5069091F6068D
:10483000A091F706B091F80668968CAF9DAFAEAF29
:10484000BFAF689728962CAD3DAD4EAD5FAD2897B4
:10485000BC01CD010E9467FB6B017C012091F90630
:104860003091FA064091FB065091FC066C962CAFF5
:104870003DAF4EAF5FAF6C972C962CAD3DAD4EADBE
:104880005FAD2C976C966CAD7DAD8EAD9FAD6C978A
:104890000E9467FB4B015C01A701960168A979A9F9
:1048A0008AA99BA90F946B032B013C01A5019401DC
:1048B0006CAD7DAD8EAD9FAD0F946B039B01AC01D4
:1048C000C301B2010E9468FB2B013C01A5019401C8
:1048D00068A979A98AA99BA90F946B034B015C0174
:1048E000A70196016CAD7DAD8EAD9FAD0F946B03AE
:1048F0009B01AC01C501B4010E9467FBA3019201B9
:104900000E94E6FB6B017C0120E030E0A9010F94DE
:10491000060387FF0AC02BED3FE049EC50E4C701D6
:10492000B6010E9468FB6B017C01112351F02BED55
:104930003FE049EC50E4C701B6010E9467FB6B0100
:104940007C0120E030E0A901C701B6010F94060305
:10495000811126C068962CAD3DAD4EAD5FAD689718
:104960006CA97DA98EA99FA90F940603811118C077
:104970006C962CAD3DAD4EAD5FAD6C9768AD79AD2D
:104980008AAD9BAD0F94060381110AC02BED3FE069
:1049900049EC50E4C701B6010E9468FB6B017C0141
:1049A000A0962CAD3DAD4EAD5FADA097C701B60151
:1049B0000F946B039B01AC010F946B034B015C01E3
:1049C00024962CAD3DAD4EAD5FAD2497CA01B90123
:1049D0000F946B039B01AC01C501B4010E9468FBFD
:1049E0000E94F9FD4B015C012FE632E143E85AE3F6
:1049F0000F94060387FD21C2C501B4010E94FAFC91
:104A00000E94CBFC79AF68AF672B21F481E090E086
:104A100099AF88AFA8ADB9ADBD0180E090E00F942B
:104A20000A034B015C019B01AC01C701B6010E9466
:104A300054FC6CAB7DAB8EAB9FABA501940124966F
:104A40006CAD7DAD8EAD9FAD24970E9454FC6896F1
:104A50006CAF7DAF8EAF9FAF689764962CAD3DADC8
:104A60004EAD5FAD6497A4966CAD7DAD8EAD9FAD40
:104A7000A4970E9467FBA50194010E9454FC6C96C8
:104A80006CAF7DAF8EAF9FAF6C972CA93DA94EA99F
:104A90005FA9CA01B9010F946B0320E030E040E048
:104AA0005FE30F946B039B01AC0160E070E080E872
:104AB0009FE30E9467FB24966CAF7DAF8EAF9FAFE4
:104AC000249760962CAD3DAD4EAD5FAD60972987C4
:104AD0003A874B875C8764968CAD9DADAEADBFAD1C
:104AE00064978D879E87AF87B88B60919402709191
:104AF0009502072E000C880B990B0F940C03209144
:104B000000023091010240910202509103020F9481
:104B10006B032AE037ED43E25CE30F946B0360968E
:104B20006CAF7DAF8EAF9FAF60970E94908D9B0161
:104B3000AC0128533F4F4F4F5F4F64962CAF3DAFB2
:104B40004EAF5FAF649748A859A86AA87BA82224F3
:104B50002394312CD12C88AD99AD2816390609F44F
:104B60002EC10E94A57F0E94908DDC01CB0164962E
:104B70002CAD3DAD4EAD5FAD6497821B930BA40B86
:104B8000B50BB7FD11C00E94908D9B01AC0128535D
:104B90003F4F4F4F5F4F64962CAF3DAF4EAF5FAF6F
:104BA000649780E00E94C5D6D39438E13D150CF49B
:104BB00041C024962CAD3DAD4EAD5FAD24976CAD9C
:104BC0007DAD8EAD9FAD0F946B034B015C012CA9A5
:104BD0003DA94EA95FA9B201C3010F946B03A501C2
:104BE00094010E9468FB7B018C0124962CAD3DADA5
:104BF0004EAD5FAD2497B201C3010F946B034B011F
:104C00005C012CA93DA94EA95FA96CAD7DAD8EAD0F
:104C10009FAD0F946B039B01AC01C501B4010E94D1
:104C200067FB2B013C01C701D8018CAF9DAFAEAF34
:104C3000BFAF4EC0B10180E090E00F940A032CA9F1
:104C40003DA94EA95FA90F946B034B015C010E9423
:104C500051FC6B017C01C501B4010E94EEFD4B01CA
:104C60005C01A701960168A979A98AA99BA90F945B
:104C70006B032B013C01A50194016CA57DA58EA5BC
:104C80009FA50F946B039B01AC01C301B2010E946D
:104C900068FB2B013C01A501940168A979A98AA9A7
:104CA0009BA90F946B034B015C01A70196016CA5B6
:104CB0007DA58EA59FA50F946B039B01AC01C5013B
:104CC000B4010E9467FB6CAF7DAF8EAF9FAFD12C5C
:104CD0009201A30128966CAD7DAD8EAD9FAD289756
:104CE0000E9468FB69837A838B839C832CAD3DADE6
:104CF0004EAD5FAD2C966CAD7DAD8EAD9FAD2C975E
:104D00000E9468FB6D837E838F83988768962CADA5
:104D10003DAD4EAD5FAD689769857A858B859C8585
:104D20000E9468FB69877A878B879C876C962CAD7D
:104D30003DAD4EAD5FAD6C976D857E858F85988955
:104D40000E9468FB6D877E878F87988BCE010196C6
:104D50000E94ABDCC0900B1589819A81AB81BC812C
:104D600088A399A3AAA3BBA38D819E81AF81B88597
:104D70008CA39DA3AEA3BFA389859A85AB85BC8573
:104D800088A799A7AAA7BBA7CE0180960E946A40D0
:104D90006096ECACFDAC0EAD1FAD60979E01235F3D
:104DA0003F4FAE01485D5F4FBE016C5D7F4FCE014E
:104DB00080960E9498B24FEF241A340ACCCEC0904D
:104DC0000B158091F5069091F606A091F706B0912B
:104DD000F80688A399A3AAA3BBA38091F906909192
:104DE000FA06A091FB06B091FC068CA39DA3AEA38E
:104DF000BFA38091FD069091FE06A091FF06B091A1
:104E0000000788A799A7AAA7BBA7CE0180960E94F2
:104E10006A406096ECACFDAC0EAD1FAD609721E032
:104E200037E0AE01485D5F4FBE016C5D7F4FCE0144
:104E300080960E9498B20E9468AE0E9472400C94C4
:104E40003639ECE9F2E184918F010F5F1F4F88231F
:104E500021F00E947D40F801F6CFE2E0F2E084917B
:104E60008F010F5F1F4F882311F40C9436390E9475
:104E70007D40F801F4CF80E50E9432B0882329F00C
:104E80000E94803E6B017C0103C0C12CD12C7601B5
:104E900083E50E9432B0882321F00E94DDB16B01CE
:104EA0007C010E94B4830E94724080918214909190
:104EB0008314A0918414B0918514C80ED91EEA1EE3
:104EC000FB1E80911B02811105C060E088E192E029
:104ED0000E9404760E94908DDC01CB018C199D0903
:104EE000AE09BF09B7FD02C00C94363980E00E94BC
:104EF000C5D6F0CF0E94B4838091EC0F81FF2AC009
:104F00009091E00E9923A1F09091E10E992381F008
:104F10009091E20E992361F080E00E9475F88090F4
:104F2000261590902715A0902815B090291518C027
:104F30008D7F8093EC0F80E090E0A0E8B0E4809358
:104F4000261590932715A0932815B09329154C0189
:104F50005D0106C0812C912C90E8A92E90E4B92E19
:104F60008091000290910102A0910202B09103028F
:104F70008093960490939704A0939804B093990417
:104F8000809194029091950290939504809394045B
:104F900084E690E090939502809394020E94724080
:104FA000FF24F394F0921A0288E50E9432B0082F91
:104FB00089E50E9432B0182F8AE50E9432B0382E5F
:104FC000011104C0111104C0F82605C0111102C05E
:104FD000F12C01C0F82EF092040280E1EEE1F5E13F
:104FE000A5EFB6E001900D928A95E1F7F11005C0AA
:104FF000011103C0112309F415C120E030E0A9011B
:1050000060913C0570913D0580913E0590913F0572
:105010000E9468FB2091680F3091690F40916A0FE0
:1050200050916B0F0E9468FB6093FD067093FE0623
:105030008093FF0690930007F11006C0002309F447
:10504000F1C0112309F4EEC010922215109223151D
:10505000109224151092251510921E1510921F15EE
:1050600010922015109221150E942B3FEEE1F1E1E4
:10507000949198AF82E191E10E94723F2B013C0133
:1050800086E191E10E94723F6B017C019B01AC01C2
:10509000C301B2010E94B0FD18162CF4A3019201C5
:1050A000C701B60104C0A7019601C301B2010E9465
:1050B00054FC9B01AC010F946B0320E030E040E80E
:1050C0005FE30E9468FB0E94F9FD20E030E048E4C5
:1050D00052E40F946B036CA778AB8CAF292EEFE1F1
:1050E000F1E1A491ACAB20E030E040EC5FE3C7011C
:1050F000B6010F946B0324966CAF7DAF8EAF9FAF5C
:105100002497BCA96B2FBB0F770B880B990B0F94BF
:105110000C039B01AC0124966CAD7DAD8EAD9FADB3
:1051200024970F946B036CAB7DAB8EAB9FAB20E0F1
:1051300030E040EC5FE3C301B2010F946B032B013D
:105140003C01E8AD6E2FEE0F770B880B990B0F9497
:105150000C039B01AC01C301B2010F946B032B0143
:105160003C012091000230910102409102025091D5
:10517000030228AF39AF4AAF5BAF20E030E0A901AE
:105180006CA578A98CAD922D0F940603882329F085
:10519000ECA4F8A83CAD222D04C0E12CF12C36E1A2
:1051A00023E4C701A32FB22F809300029093010242
:1051B000A0930202B093030240921E1550921F1555
:1051C00060922015709221158CA99DA9AEA9BFA946
:1051D0008093221590932315A0932415B093251541
:1051E0000E94CCAE0E94B48328AD39AD4AAD5BAD10
:1051F0002093000230930102409302025093030275
:105200001092600510922215109223151092241509
:105210001092251510921E1510921F151092201530
:105220001092211580910402811102C0002321F007
:1052300080E090E00E94996380910402811102C095
:10524000112321F081E090E00E9499638091040293
:10525000811102C0332021F082E090E00E94996326
:105260000E942B3F8091F40680931A028091EC0FEC
:1052700080FF36C08091040281110AC08091E00E47
:10528000882371F18091E10E882351F1332069F078
:1052900080E090E0A0E8B0E4809326159093271575
:1052A000A0932815B093291510C08091E20E882391
:1052B000B9F0011102C0112399F080922615909245
:1052C0002715A0922815B09229150E942B3F809196
:1052D000EC0F82608093EC0F8EE195E10E943ABF63
:1052E0008091960490919704A0919804B0919904AC
:1052F0008093000290930102A0930202B0930302F4
:1053000080919404909195049093950280939402D7
:105310000E9472400E9469C70C94363983E50E944E
:1053200032B08823A1F00E94E7B190E08630910569
:1053300080F0E6E0F3E084918F010F5F1F4F882338
:1053400011F40C9436390E947D40F801F4CF80E0CE
:1053500090E08330910509F46BC144F481309105EC
:1053600009F492C0029709F498C007C084309105EF
:1053700009F4C3C1059709F4D0C18091EC0F80FFF7
:1053800076C081FD03C06DEA73E002C069EA73E094
:105390008FED92E00E948440E0EDF2E084918F0175
:1053A0000F5F1F4F882321F00E947D40F801F6CF48
:1053B000ECEBF2E084918F010F5F1F4F882321F007
:1053C0000E947D40F801F6CFE1EBF2E084918F017D
:1053D0000F5F1F4F882321F00E947D40F801F6CF18
:1053E0006091ED0F7091EE0F8091EF0F9091F00FA3
:1053F00045E00E944144EEE9F2E084918F010F5FA5
:105400001F4F811107C00CEEA02E0FE0B02E83E0DD
:10541000F82E1FC00E947D40F801EFCFF501EC0D82
:10542000FD1D658176818781908545E00E9441441C
:1054300034E0C30ED11C4CE0C416D10461F48AE000
:105440000E947D40FA945CE0A50EB11CFF2009F497
:105450008DC1C12CD12CEBE9F2E084918F010F5F5B
:105460001F4F8823D9F20E947D40F801F6CFE7EE66
:10547000F2E084918F010F5F1F4F882309F476C1FA
:105480000E947D40F801F5CF0E94F5EC10920602D3
:105490001092050280E992E0C4C0809105029091CB
:1054A000060297FF0EC0E7E6F2E084918F010F5FDE
:1054B0001F4F882311F40C9436390E947D40F80167
:1054C000F4CF009779F480E090E0A0E8B0E4809316
:1054D000261590932715A0932815B09329150E949F
:1054E0002B3F28C0815063E00E94F3FA292F80FFF0
:1054F00003C092E0921B292F082E000C990BFC018F
:10550000EE0FFF1FE80FF91FE20FF11D27FDFA95BF
:10551000EE0FFF1FEE0FFF1FE451F04F8091261595
:1055200090912715A0912815B09129158583968310
:10553000A783B0878091050290910602893091057A
:105540000CF046C063E00E94F3FA192F80FF03C0FD
:1055500092E0911B192F9AE58902B0011124665F30
:105560007F4F072E000C880B990B0F940C039B01A7
:10557000AC01AAE51A02C00111240A96BC01990FD8
:10558000880B990BA5962FAFA597A6963FAFA69728
:10559000A7964FAFA797A8965FAFA8970F940C0355
:1055A000A5962FADA597A6963FADA697A7964FAD0A
:1055B000A797A8965FADA8970E9422AF8091050299
:1055C0009091060201969093060280930502CEC048
:1055D00080E090E0A0E1B1E4809326159093271538
:1055E000A0932815B09329150E94CCAE0E94B483D5
:1055F000E3E5F2E084918F010F5F1F4F882321F0D4
:105600000E947D40F801F6CF8FEF9FEF9093060246
:10561000809305028091EC0F81608093EC0F8FE402
:1056200092E090931109809310090E94D03E9EC091
:1056300088E50E9432B08823A1F00E948BB20FEF60
:10564000080F0330A8F0E8E3F2E084918F010F5FC8
:105650001F4F882311F40C9436390E947D40F801C5
:10566000F4CF88E50E947D400E9465F80C9436399D
:1056700089E50E9432B08823A1F00E948BB21FEF0F
:10568000180F1330A8F0E1E2F2E084918F010F5F70
:105690001F4F882311F40C9436390E947D40F80185
:1056A000F4CF89E50E947D400E9465F80C9436395C
:1056B0008AE50E9432B08823C9F00E948B3E212FD8
:1056C000110F330BF901EE0FFF1FE20FF31FE00F75
:1056D000F11D07FDFA95EE0FFF1FEE0FFF1FE451BE
:1056E000F04F658376838783908740C08AE50E9468
:1056F0007D400E9465F80C9436398AE50E9432B0EC
:105700008823A1F30E948B3E6093ED0F7093EE0F00
:105710008093EF0F9093F00F29C08091EC0F81FFE1
:1057200023C020E030E040E850E4609126157091FD
:10573000271580912815909129150E9467FB609389
:10574000261570932715809328159093291546E206
:1057500055E162E275E18EE195E10E9422C00E946E
:10576000F5EC0E942B3F02C00E94F5EC0E9469C735
:105770000C943639109291040C94363981E0809360
:1057800091040C94373985E40E9432B0982E81112F
:1057900002C00E94B48325E2A22E23E0B22E3EE195
:1057A000C32E35E1D32E40E6E42E4FE0F42E00E088
:1057B00010E0812CF50181915F010E9432B08823B5
:1057C000E1F1D6012D913D914D915C91A5962FAFC0
:1057D000A597A6963FAFA697A7964FAFA797A8966F
:1057E0005FAFA8970E948B3EF6016083718382832E
:1057F0009383A5962FADA597A6963FADA697A7969E
:105800004FADA797A8965FADA89703301105A9F0F3
:105810000E9467FB9B01AC01D7016D917D918D9139
:105820009C910E9468FBF70160837183828393835C
:10583000C8010E94E5AF882483940F5F1F4FF4E0F6
:10584000CF0ED11C24E0E20EF11C0430110509F04A
:10585000B1CF882019F00E942B3F03C091100E9405
:10586000B7EC0E9469C70C9436392237310511F420
:105870000C94793408F0D8C02C34310509F47BC37A
:1058800008F069C02831310509F494C2B0F522311D
:10589000310509F4F4C7A0F42230310508F4C1C180
:1058A0002131310511F00C94363960E081E593E047
:1058B0000E94047615984698439840980C9436397F
:1058C0002531310509F46CC240F42431310511F061
:1058D0000C943639E9E6F3E020C22631310509F4AB
:1058E00063C22731310511F00C94363940E061E094
:1058F000C8010E94656A0C9436392E31310509F4CD
:10590000B2C2B0F42A31310509F463C208F45DC2B1
:105910002B31310509F46BC22C31310511F00C9497
:10592000363940E060E0C8010E94656A0C9436395F
:105930002032310509F49BC208F4A7C22A3231058E
:1059400009F4D1C22B34310511F00C9436390E9480
:1059500004ED0C9436392836310509F43EC3E0F5E0
:105960002235310509F484C720F52E34310509F4B8
:1059700020C308F41AC32135310511F00C943639CF
:105980000E94AFE00E94B4830E94E2D91092EB0E15
:105990001092EA0E68EE73E080E090E00E94588D6D
:1059A00060E08AEB94E00E9404760E942A760C94D0
:1059B00036392435310509F462C708F45CC725354A
:1059C000310509F485C72C35310511F00C943639B1
:1059D0000E9445B00C9436392D36310509F42AC49D
:1059E00098F42A36310509F40FC708F406C42B369B
:1059F000310509F42DC72C36310511F00C943639D8
:105A000010928C020C9436392F36310509F43CC3C0
:105A100008F427C32037310509F4A2C32137310523
:105A200009F4A6C30C9436392C3241E0340711F442
:105A30000C94A73708F07AC0283C310511F40C9477
:105A4000693578F52837310509F4CAC780F4253758
:105A5000310509F45CC72737310509F45DC72337E1
:105A6000310511F00C943639ECECF4E045C72C38D4
:105A7000310509F4A9C358F42937310511F00C9404
:105A8000363910921A021092F4060C9436392139E4
:105A9000310509F4ABC72E3B310509F45CC50C9404
:105AA00036392E3C310511F40C94BB3610F52B3CE5
:105AB000310511F40C94CB3580F4293C310511F0FB
:105AC0000C9436393EE0E32E3FE0F32E05E213E07E
:105AD00044E0D42ED00E0C94B2352C3C310511F498
