:100000000C94BC1F0C94ED1F0C94ED1F0C94ED1F71
:100010000C94ED1F0C94ED1F0C94ED1F0C94ED1F30
:100020000C94ED1F0C94ED1F0C94ED1F0C94ED1F20
:100030000C94ED1F0C94C2580C94ED1F0C94ED1F02
:100040000C94ED1F0C9441BD0C94ED1F0C94ED1F0E
:100050000C94ED1F0C94ED1F0C9481950C94A98FBA
:100060000C94ED1F0C94474E0C94ED1F0C94ED1F57
:100070000C94ED1F0C94ED1F0C94ED1F0C94ED1FD0
:100080000C94ED1F0C94ED1F0C94ED1F0C94ED1FC0
:100090000C94ED1F0C94ED1F0C94ED1F0C94ED1FB0
:1000A0000C94ED1F0C94ED1F0C94ED1F0C94ED1FA0
:1000B0000C94ED1F0C94ED1F0C94ED1F0C94ED1F90
:1000C0000C94ED1F0C94ED1F0C94ED1F0C94ED1F80
:1000D0000C94ED1F0C94ED1F0C94ED1F0C94ED1F70
:1000E0000C94ED1F5658595848584C58525890582F
:1000F0005D58615867586B586F58755879587D58D6
:100100009058835887588B588C7D957D9C7DA27D17
:10011000A87DAE7DB87DBE7DC58ECA8ECF8ED98EB0
:10012000E38E5C8FED8EF58EFD8E078F118F1B8F0A
:100130002A8F348F5C8F3E8F488F528FD695E695ED
:10014000059615963096359638963D964096459686
:1001500048964D965796084AD73B3BCE016E84BCD5
:10016000BFFDC12F3D6C74319ABD56833DDA3D0011
:10017000C77F11BED9E4BB4C3E916BAAAABE00005A
:1001800000803F05A84CCDB2D44EB93836A9020C38
:1001900050B9918688083CA6AAAA2ABE0000008011
:1001A0003F0047322F4733206261642070617261E3
:1001B0006D65746572730A00536C6565702E2E2E22
:1001C0000059206F7574206F662072616E6765201C
:1001D00028312D33292E0A0058206F7574206F6640
:1001E0002072616E67652028312D33292E0A004761
:1001F0003238004D6573682070726F62696E6720D7
:10020000646F6E652E0A005374617274206D65739D
:10021000682070726F62696E672077697468202247
:10022000473239205331222066697273742E0A00D6
:100230004732380A473239205332002020000A4D15
:100240006561737572656420706F696E74733A0AC4
:10025000005A206F66667365743A20005A207365F1
:1002600061726368206865696768743A20340A00BF
:100270000A4E756D20582C593A20332C330A0053FE
:10028000746174653A20004D65736820626564206E
:100290006C6576656C696E67206E6F74206163743F
:1002A0006976652E0A0053206F7574206F66207280
:1002B000616E67652028302D35292E0A0046696C4D
:1002C000652064656C657465643A0044656C6574AA
:1002D000696F6E206661696C65642C2046696C6587
:1002E0003A20006F70656E206661696C65642C2031
:1002F00046696C653A200048656174696E672E2E08
:100300002E004475706C696361746F7220362072C0
:10031000656164792E004B494C4C45442E200048C1
:10032000656174696E6720646F6E652E003F0A0018
:1003300020573A0048656174696E672E2E2E00447E
:1003400075706C696361746F7220362072656164C8
:10035000792E0042656420646F6E652E003F0A00AE
:1003600020573A004265642048656174696E672EC3
:10037000004D31343520533C696E6465783E206F02
:100380007574206F662072616E67652028302D318C
:10039000290A0020643A0020693A0020703A0020BF
:1003A000643A0020693A0020703A0043290A00614B
:1003B000626C656420286D696E2074656D70200024
:1003C000436F6C6420657874727564657320617224
:1003D0006520004B64200023646566696E652020FB
:1003E00044454641554C545F004B692000236465E9
:1003F00066696E65202044454641554C545F004B6C
:1004000070200023646566696E652020444546417E
:10041000554C545F00504944204175746F74756E9B
:10042000652066696E697368656421205075742063
:10043000746865206C617374204B702C204B6920AC
:10044000616E64204B6420636F6E7374616E7473AD
:100450002066726F6D2062656C6F7720696E746FB5
:1004600020436F6E66696775726174696F6E2E687E
:100470000A00504944204175746F74756E6520669A
:1004800061696C6564212074696D656F75740A001B
:10049000504944204175746F74756E6520666169BA
:1004A0006C6564212054656D706572617475726548
:1004B00020746F6F20686967680A00204B643A20D7
:1004C00000204B693A2000204B703A20000A20435C
:1004D0006C617373696320504944200A002054758D
:1004E0003A2000204B753A2000206D61783A2000B8
:1004F000206D696E3A200020643A20002062696114
:10050000733A20004D34323120726571756972651D
:10051000732058595A206F7220494A5A20706172CC
:10052000616D65746572730A004D65736820585972
:10053000206F7220494A2063616E6E6F742062657D
:10054000207265736F6C7665640A004D6573682070
:100550005859206F7220494A2063616E6E6F742073
:100560006265207265736F6C7665640A004F66661B
:1005700073657473206170706C6965640045727294
:100580003A20546F6F206661722100546F6F2066AD
:1005900061722066726F6D207265666572656E634A
:1005A0006520706F696E740A004D36303020486FD8
:1005B00074656E6420746F6F20636F6C6420746F59
:1005C000206368616E67652066696C616D656E7435
:1005D0000A006F6E0A006F66660A00436173652049
:1005E0006C6967687473200041637469766520459F
:1005F000787472756465723A2000556E6B6E6F7711
:100600006E20636F6D6D616E643A20220025697300
:100610000025696D20256973002569682025696DAD
:100620002025697300256964202569682025696D86
:10063000202569730025697920256964202569686A
:100640002025696D20256973004E6F204C696E6509
:10065000204E756D626572207769746820636865E5
:10066000636B73756D2C204C617374204C696E65DF
:100670003A20004B494C4C45442E200053544F50D7
:100680005045442E20005072696E74657220737458
:100690006F707065642064756520746F2065727278
:1006A0006F72732E204669782074686520657272B7
:1006B0006F7220616E6420757365204D3939392061
:1006C000746F20726573746172742E202854656D86
:1006D00070657261747572652069732072657365E7
:1006E000742E2053657420697420616674657220CD
:1006F00072657374617274696E67290A004E6F20A7
:10070000436865636B73756D2077697468206C69E5
:100710006E65206E756D6265722C204C617374205D
:100720004C696E653A2000636865636B73756D2074
:100730006D69736D617463682C204C617374204C17
:10074000696E653A20004C696E65204E756D626574
:1007500072206973206E6F74204C617374204C6931
:100760006E65204E756D6265722B312C204C617365
:1007700074204C696E653A20004D313130004D33A4
:1007800031004D383420582059205A204500534418
:100790002072656164206572726F720A00446F6E28
:1007A00065207072696E74696E672066696C650A8F
:1007B0000020496E76616C69642065787472756496
:1007C00065722000000048430000484300002A43AF
:1007D00000000000000000000000000020746F6FA7
:1007E000206C6F6E6720657874727573696F6E2008
:1007F00070726576656E7465640A0020636F6C6460
:1008000020657874727573696F6E20707265766595
:100810006E7465640A00436172642072656D6F7660
:100820006564004361726420696E73657274656407
:100830000000060900FE06018902FE20FFFE07FEF9
:1008400006FE000000060007010606060200808082
:1008500080800080030303060103A0A0A005070712
:100860000600FF5050F850F850500509090600FEE8
:100870002070A8A07028A870200608080600FF4075
:10088000A84810204854080507070600FF6090900C
:1008900060989068010303060203808080020707C6
:1008A0000602FF408080808080400207070602FF2A
:1008B000804040404040800505050600008850F813
:1008C00050880505050600002020F82020020404B9
:1008D0000602FEC0404080050101060002F8020247
:1008E00002060200C0C004060606010010102040E7
:1008F00080800406060601006090909090600306D8
:100900000606010040C0404040E004060606010023
:100910006090102040F0040606060100F0206010F0
:1009200010E005060606000010305090F81004068E
:1009300006060100F080E01010E004060606010043
:100940006080E0909060040606060100F010102020
:100950004040040606060100609060909060040626
:100960000606010060909070106002050506020006
:10097000C0C000C0C00207070602FEC0C000C040E1
:100980004080050505060000186080601805030317
:10099000060001F800F8050505060000C030083023
:1009A000C004070706010060901060400040050683
:1009B000060600007090A8B08070050606060000CC
:1009C000205088F88888050606060000F088F08820
:1009D00088F004060606010060908080906004069E
:1009E00006060100E090909090E0040606060100E3
:1009F000F080E08080F0040606060100F080E080D0
:100A00008080040606060100609080B090600406B5
:100A1000060601009090F0909090030606060100F3
:100A2000E040404040E00506060600003810101087
:100A3000906004060606010090A0C0A090900406F5
:100A4000060601008080808080F005060606000012
:100A500088D8A8A8888804060606010090D0B0901F
:100A60009090050606060000708888888870040645
:100A700006060100E09090E080800407070601FF71
:100A8000609090D0B06010040606060100E09090DF
:100A9000E0909004060606010060904020906005FA
:100AA0000606060000F82020202020040606060185
:100AB000009090909090600406060601009090903F
:100AC000F060600506060600008888A8A8D888059A
:100AD00006060600008850202050880506060600FD
:100AE00000888850202020040606060100F010200F
:100AF0004080F0030606060100E080808080E0046C
:100B0000060606010080804020101003060606013C
:100B100000E020202020E005030306000320508889
:100B20000501010600FEF8020202060204804004EC
:100B3000040406010070909070040606060100800F
:100B400080E09090E004040406010070808070044E
:100B5000060606010010107090907004040406014F
:100B60000060B0C070040606060100205040E0405E
:100B7000400406060601FE609090701060040606B0
:100B80000601008080E09090900306060601004078
:100B900000C04040E00308080601FE20006020205D
:100BA00020A0400406060601008080A0C0A090039B
:100BB0000606060100C040404040E005040406006F
:100BC00000D0A8A888040404060100E090909004D6
:100BD0000404060100609090600406060601FEE031
:100BE0009090E080800406060601FE7090907010E0
:100BF00010040404060100A0D0808004040406014F
:100C00000070C030E00406060601004040E040509D
:100C1000200404040601009090907004040406016E
:100C2000009090606005040406000088A8A85004A5
:100C30000404060100906060900406060601FE9020
:100C40009090709060040404060100F02040F003CE
:100C500007070601002040408040402001070706AA
:100C600002FF80808080808080030707060100806B
:100C700040402040408004020206010350A0FFFFD4
:100C8000FFFFFFFFFFFFFFFFFFFFFFFFFFFFFFFF74
:100C9000FFFFFFFFFFFFFFFFFFFFFFFFFFFFFF0063
:100CA0000000060007010606060200800080808022
:100CB000800406060601FF2070A0A070200507072B
:100CC0000600FF304840F04040F8050505060000EA
:100CD000A8508850A80506060600008850F820F89D
:100CE000200107070602FF808080008080800407C3
:100CF000070601FF708060906010E00301010601AB
:100D000005A0060707060000788494A4948478035D
:100D1000050506010160A06000E00505050600006C
:100D20002850A05028040303060100F0101004010D
:100D300001060102F00607070600007884B4A4A4A7
:100D40008478040101060105F00403030601026032
:100D500090600507070600FF2020F8202000F80318
:100D6000050506010140A02040E00305050601013C
:100D7000C0204020C0020202060204408004050593
:100D80000601FF9090B0D08005060606000078E8C6
:100D9000E868282801010106020280020202060218
:100DA000FE408003050506010140C04040E0030508
:100DB0000506010140A04000E0050505060000A071
:100DC000502850A00508080600FF40C04050703071
:100DD00078100508080600FF40C040506808103829
:100DE0000508080600FFC0204030F03078100407E6
:100DF00007060100200020608090600507070600BC
:100E00000040202050708888050707060000102049
:100E10002050708888050707060000205020507079
:100E2000888805070706000028502050708888052C
:100E30000707060000500020507088880507070645
:100E400000002050205070888805060606000078B3
:100E5000A0F0A0A0B80408080601FE609080809071
:100E60006020400407070601004020F080E080F089
:100E70000407070601002040F080E080F004070727
:100E80000601002050F080E080F004070706010012
:100E90005000F080E080F00307070601008040E08A
:100EA000404040E00307070601002040E04040408A
:100EB000E003070706010040A0E0404040E00307D0
:100EC00007060100A000E0404040E00506060600DD
:100ED000007048E848487004070706010050A090D9
:100EE000D0B09090040707060100402060909090D9
:100EF000600407070601002040609090906004079E
:100F000007060100205060909090600407070601DA
:100F10000050A06090909060040707060100500008
:100F2000609090906005050506000088502050886C
:100F30000408080601FF1070B0B0D0D0E0800407AC
:100F4000070601004020909090906004070706017A
:100F50000020409090909060040707060100205008
:100F600090909090600407070601005000909090C8
:100F700090600507070600001020885020202004FC
:100F8000060606010080E09090E080040606060157
:100F9000006090A0A090A004070706010040200078
:100FA0007090907004070706010020400070909038
:100FB000700407070601002050007090907004072D
:100FC0000706010050A0007090907004060606010C
:100FD0000050007090907004070706010020502018
:100FE0007090907005040406000070A8B0780406A4
:100FF000060601FE7080807020400407070601008D
:1010000040200060B0C070040707060100204000C7
:1010100060B0C07004070706010020500060B0C037
:1010200070040606060100500060B0C07003070798
:10103000060100804000C04040E0030707060100B1
:10104000204000C04040E003070706010040A00028
:10105000C04040E0030606060100A000C04040E09A
:1010600004070706010030601070909060040707C5
:1010700006010050A000E0909090040707060100D0
:1010800040200060909060040707060100204000A7
:101090006090906004070706010020500060909067
:1010A0006004070706010050A000609090600406ED
:1010B00006060100500060909060050505060000DE
:1010C0002000F8002004040406010070B0D0E00401
:1010D0000707060100402000909090700407070663
:1010E0000100204000909090700407070601002046
:1010F00050009090907004060606010050009090F9
:1011000090700409090601FE2040009090907090B4
:10111000600408080601FE8080E09090E080800472
:1011200008080601FE500090909070906000002129
:1011300000240027002A002D0030003300010100A8
:1011400000040107010A0100002200250028002BED
:10115000002E003100340002010000050108010BDF
:1011600001000020002300260029002C002F00325F
:10117000000001000003010601090105050505073E
:101180000508080808020202020A0A080804040402
:10119000040101010101010101030303030303032E
:1011A00003040707070C0C0C0C0C0C0C0C020202BD
:1011B0000206060606060606060B0B0B0B0B0B0BB0
:1011C0000B0102102020080810204010204080024F
:1011D000010201080402010102040810204080807D
:1011E0004020100804020180040201804020100801
:1011F00004020108040201010204081020408001D9
:101200000204081020408000000A0B02090C0D0E99
:1012100008070304010000000000000000000000B7
:1012200000000000000000000000000000000000BE
:10123000000000121110000000000000000000007B
:1012400000000000000000000000000000024B4908
:101250004C4C45442E2000202D20496E76616C694F
:1012600064206578747275646572206E756D626550
:101270007220210A002020506C616E6E65724275EA
:101280006666657242797465733A2000204672651D
:1012900065204D656D6F72793A2000436F6D7069FE
:1012A0006C65643A20466562202034203230313744
:1012B0000A00207C20417574686F723A2028646FA0
:1012C000745F626F622C2064656661756C74206364
:1012D0006F6E666967290A00323031362D31322D42
:1012E00030362031323A303000204C617374205552
:1012F0007064617465643A2000312E312E302D52B5
:1013000043380A004D61726C696E0020536F667439
:10131000776172652052657365740A0020576174A5
:101320006368646F672052657365740A00204272B7
:101330006F776E206F75742052657365740A002094
:1013400045787465726E616C2052657365740A002D
:10135000506F77657255700A0073746172740A0079
:101360006572726F722077726974696E6720746F2C
:101370002066696C650A00456E6473746F70732033
:10138000256320256320256320256300205A3A0029
:1013900020593A0020583A00656E6473746F707378
:1013A000206869743A2000446F6E65207361766925
:1013B0006E672066696C652E0A004D3239004572F1
:1013C000726F722077726974696E6720746F20453E
:1013D0004550524F4D210A00206279746573290AE5
:1013E0000053657474696E67732053746F7265641B
:1013F000202800454550524F4D20636865636B734C
:10140000756D206D69736D617463680A002062797F
:10141000746573290A002073746F726564207365A4
:101420007474696E67732072657472696576656439
:1014300020280053442063617264206F6B0A006FA0
:1014400070656E526F6F74206661696C65640A0026
:10145000766F6C756D652E696E6974206661696C56
:1014600065640A00534420696E6974206661696C82
:101470000A006175746F25692E67004D3234004D86
:1014800032332025730057726974696E6720746F58
:101490002066696C653A20006F70656E2066616930
:1014A0006C65642C2046696C653A20006F70656E2F
:1014B000206661696C65642C2046696C653A200081
:1014C00046696C652073656C65637465640A002009
:1014D00053697A653A200046696C65206F70656EC5
:1014E00065643A20006F70656E206661696C6564A2
:1014F0002C2046696C653A20002066696C653A20AC
:10150000004E6F7720002220706F730022207061E0
:1015100072656E743A2200535542524F5554494EEB
:10152000452043414C4C207461726765743A220037
:101530004B494C4C45442E2000747279696E6720EB
:10154000746F2063616C6C207375622D67636F64C8
:10155000652066696C6573207769746820746F6FA5
:10156000206D616E79206C6576656C732E204D411F
:1015700058206C6576656C2069733A004572726F0D
:10158000723A0043616E6E6F74206F70656E2073E7
:1015900075626469722000656E7175657565696E46
:1015A000672022006563686F3A00544845524D41F8
:1015B0004C2052554E4157415900546865726D6137
:1015C0006C2052756E617761790025753A2530324D
:1015D0007500253032753A25303275002575642046
:1015E000253032753A25303275005A0059005800BE
:1015F0000920000000000000000000000000007F43
:10160000FFE000000000000000000000000070008B
:10161000E000000000000000000000000061F86031
:1016200000000000000000000000000041F8200061
:10163000000000000000000000000040F02000005A
:1016400000000000000000000000406020000000DA
:101650000000000000000000005801A07F80000092
:1016600000000000004104005C63A0FFC000000017
:10167000000000002082005EF7A0FFC00000000014
:101680000000002082005EF7A0FFC0000000000004
:1016900000004104005C63A07F80000000000000A7
:1016A000008208005801A07F8000000000000001B7
:1016B000041000406020FFC0000000000000010492
:1016C000100040F020FFC000000000000000820871
:1016D0000041F820FFC000000000000000410400AD
:1016E00061F8603F00000000000000000000007092
:1016F00000E01E0000000000000001FFFF807FFFEF
:10170000E00C0000000000000001FFFF800000006E
:101710000000000000000000000000007FFFE0006B
:1017200000000000000000000000007000E0000069
:1017300000000000000000000000630C60000000DA
:10174000000000000000000000470E200000000024
:1017500000000000000000004F0F2000000000000B
:10176000000000000000005F0FA00000000000006B
:101770000000000000005E07A07F80000000000065
:101780000000410400406020FFC000000000000095
:101790000020820040F020FFC00000000000000098
:1017A00020820040F020FFC0000000000000004147
:1017B00004004060207F80000000000000008208DC
:1017C000005E07A07F800000000000000104100000
:1017D0005F0FA0FFC0000000000000010410004FD8
:1017E0000F20FFC000000000000000820800470E2C
:1017F00020FFC000000000000000410400630C60F6
:101800003F00000000000000000000007000E01E2B
:101810000000000000000001FFFF807FFFE00C00DF
:1018200000000000000001FFFF800000000006092A
:1018300000FE000000000001090008FE000005088D
:101840000806000040F0C888889878100508080647
:101850000000C0F88888888888F80505050600011A
:101860002030F830200508080600002070F82020FD
:101870002020E00509090600FF2070A8A8B8888884
:1018800070200509090600FFE080C0B0A8283028B4
:10189000280509090600FFF8A88888888888A8F81C
:1018A000050A0A0600FE205050505088A8A88870EB
:1018B00003030306000340A04000060900FE0701E1
:1018C00092032120FFFF08FF07FF00000006000031
:1018D00001070706020080808080800080030202EA
:1018E000060105A0A00507070600005050F850F8B3
:1018F00050500507070600002078A07028F020054A
:101900000707060000C0C810204098180507070602
:1019100000006090A040A89068020303060104C084
:10192000408003070706010020408080804020039C
:10193000070706010080402020204080050505069D
:10194000000120A870A8200505050600012020F848
:1019500020200203030602FFC040800501010600AB
:1019600003F8020202060200C0C0050505060001D8
:1019700008102040800507070600007088888888C6
:10198000887003070706010040C040404040E00562
:101990000707060000708808708080F805070706B2
:1019A0000000F81020100808F005070706000010D6
:1019B000305090F81010050707060000F880F00876
:1019C000088870050707060000708080F08888701E
:1019D000050707060000F80810202020200507074B
:1019E0000600007088887088887005070706000068
:1019F00070888878080870020505060200C0C000DB
:101A0000C0C00206060602FFC0C000C04080040736
:101A10000706000010204080402010050303060048
:101A200002F800F80407070601008040201020405B
:101A300080050707060000708808102000200507B1
:101A40000706000070880868A8A870050707060048
:101A500000708888F8888888050707060000F088E5
:101A600088F08888F005070706000070888080806D
:101A70008870050707060000F08888888888F005C8
:101A80000707060000F88080F08080F80507070649
:101A90000000F88080F08080800507070600007055
:101AA0008880B8888870050707060000888888F84D
:101AB00088888801070706020080808080808080F7
:101AC0000507070600003810101010906005070782
:101AD0000600008890A0C0A09088050707060000B7
:101AE000808080808080F805070706000088D8A8DD
:101AF000888888880507070600008888C8A898880D
:101B000088050707060000708888888888700507A0
:101B100007060000F08888F080808005070706002F
:101B20000070888888A89068050707060000F0887C
:101B300088F0A0908805070706000078808070086C
:101B400008F0050707060000F820202020202005C7
:101B500007070600008888888888887005070706B8
:101B600000008888888888502005070706000088BC
:101B700088888888A85005070706000088885020B4
:101B80005088880507070600008888885020202094
:101B9000050707060000F80810204080F803070733
:101BA000060100E08080808080E0050505060001D8
:101BB0008040201008030707060100E020202020B5
:101BC00020E00503030600042050880501010600FB
:101BD00000F8020202060205804005050506000025
:101BE00070087888780507070600008080B0C888EC
:101BF00088F00505050600007080808870050707DD
:101C00000600000808689888887805050506000021
:101C10007088F880700507070600003048E04040F3
:101C200040400506060600FF7088887808700507A2
:101C3000070600008080B0C8888888010707060270
:101C400000800080808080800308080601FF20005B
:101C500020202020A040040707060000808090A0DC
:101C6000C0A090030707060100C04040404040E08C
:101C7000050505060000D0A8A8A8A80505050600CA
:101C800000B0C88888880505050600007088888827
:101C9000700506060600FFF08888F08080050606BD
:101CA0000600FF788888780808050505060000B05A
:101CB000C880808005050506000070807008F0046B
:101CC00007070600004040E040404030050505069B
:101CD00000008888889868050505060000888888BF
:101CE00050200505050600008888A8A850050505B0
:101CF00006000088502050880506060600FF8888E8
:101D000088780870050505060000F8102040F803E3
:101D100007070601002040408040402001070706D9
:101D20000200808080808080800307070601008099
:101D300040402040408005020206000268900000FA
:101D40000006000000000006000000000006000081
:101D50000000000600000000000600000000000671
:101D60000000000000060000000000060000000067
:101D70000006000000000006000000000006000051
:101D80000000000600000000000600000000000641
:101D90000000000000060000000000060000000037
:101DA0000006000000000006000000000006000021
:101DB0000000000600000000000600000000000611
:101DC0000000000000060000000000060000000007
:101DD00000060000000000060000000000060000F1
:101DE00000000006000000000006000000000006E1
:101DF00000000000000600000000000600000000D7
:101E000000060000000000060000010707060200AF
:101E1000800080808080800507070600002070A871
:101E2000A0A87020050707060000304040E04050A1
:101E3000A80505050600008870507088050707068C
:101E40000000885020F820F82001070706020080D3
:101E500080800080808005080806000030482050FF
:101E600050209060030101060107A0050707060046
:101E700000F888B8B8B888F80507070600017008A8
:101E800078887800F80505050600012850A050283C
:101E9000050303060001F8080802020206020640D4
:101EA00080050707060000F888A88898A8F80501AB
:101EB00001060006F8040404060003609090600523
:101EC00007070600002020F8202000F8040505067A
:101ED000000360902040F0030505060003E020E0C9
:101EE00020E002020206020640800508080600FF04
:101EF0008888888898E88080050707060000789819
:101F00009878181818020202060202C0C0020202E3
:101F10000602FF408003050506000340C04040E084
:101F2000050707060001708888887000F805050518
:101F3000060001A0502850A0050707060000889061
:101F4000A858B808080507070600008890B8489800
:101F50002038050808060000C040C048D8380808E6
:101F6000050707060000200020408088700508084B
:101F70000600004020007088F888880508080600E0
:101F8000001020007088F8888805080806000020E6
:101F900050007088F88888050808060000689000DE
:101FA0007088F88888050808060000500070888846
:101FB000F888880508080600002050207088F888F6
:101FC000880507070600003860A0B8E0A0B805083B
:101FD000080600FF70888080887020600508080669
:101FE0000000402000F880F080F805080806000096
:101FF000081000F880F080F805080806000020505E
:1020000000F880F080F80507070600005000F8800F
:10201000F080F8030808060100804000E0404040DE
:10202000E0030808060100204000E0404040E003D3
:10203000080806010040A000E0404040E003070718
:10204000060100A000E0404040E005070706000050
:10205000704848E848487005080806000068900085
:1020600088C8A8988805080806000040207088885D
:102070008888700508080600001020708888888805
:1020800070050808060000205000708888887005D8
:1020900008080600006890007088888870050808A5
:1020A00006000050007088888888700505050600C5
:1020B0000188502050880508080600FF1070A8A865
:1020C000A8A8704005080806000040208888888875
:1020D00088700508080600001020888888888870A5
:1020E00005080806000020500088888888700508C8
:1020F000080600005000888888888870050808064F
:10210000000010208850202020200509090600FF2B
:10211000C040704848704040E00408080601FF6075
:102120009090A09090E080050808060000402000F4
:1021300070087888780508080600001020007008EC
:102140007888780508080600002050007008788814
:1021500078050808060000689000700878887805FF
:102160000707060000500070087888780508080600
:1021700000002050207008788878050606060000C8
:10218000D02878A0A8500506060600FF7080887049
:1021900020600508080600004020007088F8807064
:1021A0000508080600001020007088F880700508F7
:1021B000080600002050007088F8807005070706A8
:1021C000000050007088F880700308080601008045
:1021D000400040C04040E0030808060100204000E5
:1021E00040C04040E003080806010040A00040C095
:1021F0004040E0030707060100A00040C04040E067
:10220000050707060000A040A010788870050808A0
:10221000060000689000B0C8888888050808060095
:1022200000402000708888887005080806000010AB
:10223000200070888888700508080600002050007B
:10224000708888887005080806000068900070880B
:10225000888870050707060000500070888888701D
:102260000505050600012000F80020050707060007
:10227000FF1070A8A8A870400508080600004020BC
:1022800000888888986805080806000010200088E3
:10229000888898680508080600002050008888880B
:1022A0009868050707060000500088888898680528
:1022B00009090600FF102000888888F808700407C4
:1022C000070601FFC04060506040E00508080600B6
:1022D000FF50008888887808704578747275646546
:1022E00072733A203100687474703A2F2F6D6172E6
:1022F0006C696E66772E6F7267004475706C6963E7
:1023000061746F72203600323031362D31322D300B
:10231000362031323A303000312E312E302D5243BA
:1023200038004D61726C696E005072696E7465722E
:1023300020537461747300546865726D6973746FAF
:10234000727300426F61726420496E666F00507252
:10235000696E74657220496E666F004D61696E002A
:1023600045787472756465206D6F7265005265738F
:10237000756D65004348414E4745204F5054494FC5
:102380004E533A006368616E6765006F662074683B
:10239000652066696C616D656E74005761697420B3
:1023A000666F72207374617274004348414E4745F2
:1023B0002046494C414D454E540066696C616D653F
:1023C0006E7420756E6C6F6164005761697420666D
:1023D0006F72004348414E47452046494C414D45A8
:1023E0004E5400746F20636F6E74696E75652E2E87
:1023F0002E00616E64207072657373206275747450
:102400006F6E00496E736572742066696C616D65EC
:102410006E74004348414E47452046494C414D4566
:102420004E540066696C616D656E74206C6F6164FA
:10243000005761697420666F72004348414E4745FA
:102440002046494C414D454E540066696C616D65AE
:102450006E742065787472756465005761697420C4
:10246000666F72004348414E47452046494C414DF6
:10247000454E5400746F20726573756D6500576129
:10248000697420666F72207072696E7400434841EF
:102490004E47452046494C414D454E5400507265CB
:1024A0006865617420504C4120426564005072653B
:1024B0006865617420504C410050726570617265AE
:1024C0000050726568656174204142532042656422
:1024D0000050726568656174204142530050726516
:1024E00070617265004C6576656C696E6720446F3B
:1024F0006E6521004D6F7665205A00473238004ED8
:1025000065787420506F696E74002569202F20252E
:102510007500436C69636B20746F20426567696E58
:1025200000486F6D696E672058595A00473238006D
:102530004C6576656C206265640043616E63656C12
:10254000004D34323800436F6F6C646F776E004318
:1025500068616E67652066696C616D656E740050B8
:102560007265686561742041425300507265686508
:10257000617420504C41004D3834004469736162ED
:102580006C65207374657070657273004C65766558
:102590006C206265640053657420686F6D65206F00
:1025A00066667365747300473238205A00486F6D51
:1025B00065205A00473238205900486F6D65205910
:1025C00000473238205800486F6D65205800473268
:1025D00038004175746F20686F6D65004D6F7665CA
:1025E0002061786973004731205A313730004C6FD1
:1025F000776572204275696C6420506C6174650067
:102600004D61696E004578747275646572004D6F36
:102610007665205A004D6F76652059004D6F7665BE
:102620002058005072657061726500526573746F56
:102630007265206661696C73616665004C6F6164E8
:10264000206D656D6F72790053746F7265206D65D2
:102650006D6F727900436173652062726967687497
:102660006E6573730046696C616D656E74004D6FC5
:1026700074696F6E0054656D706572617475726512
:10268000004D61696E004D333033205531204525B2
:102690006920532569005072656865617420414264
:1026A0005320636F6E6600507265686561742050D8
:1026B0004C4120636F6E6600504944204175746F31
:1026C00074756E6500504944204175746F74756E61
:1026D00065005049442D44005049442D4400504960
:1026E000442D49005049442D49005049442D500083
:1026F0005049442D50002008204661637400200892
:102700002046616374002008204D61780020082075
:102710004D6178002008204D696E002008204D6929
:102720006E004F6666004F6E20004175746F7465D1
:102730006D700046616E2073706565640046616E61
:102740002073706565640042656400426564004EF4
:102750006F7A7A6C65004E6F7A7A6C6500436F6EA3
:1027600074726F6C0053746F7265206D656D6F725B
:10277000790042656400426564004E6F7A7A6C6548
:10278000004E6F7A7A6C650046616E2073706565E5
:10279000640046616E2073706565640054656D70F9
:1027A0006572617475726500FFE0FFD1AFFF32FFA3
:1027B000D0FFFEFFE0FFD1AEFFD0FFFEFFE0FFD174
:1027C0001000FFFEFFD0FFE0FFC1FFD1AED580A813
:1027D0003FD300408D142002A1C8DA1281CFD9F175
:1027E000DB402EA4A6AFFFD0FFFE6265640A002C7A
:1027F0002073797374656D2073746F7070656421D4
:10280000204865617465725F49443A2000486561FB
:1028100074696E67206661696C65640048656174FF
:10282000696E67206661696C6564004865617469FA
:102830006E67206661696C65640048656174696EE5
:1028400067206661696C65640070012C0190012746
:1028500001B0012201C0011D01F001180110021395
:102860000130020E016002090190020401C002FF62
:10287000000003FA004003F5008003F000D003EBF2
:10288000002004E6007004E100E004DC004005D70D
:1028900000C005D2004006CD00D006C8008007C3A6
:1028A000003008BE00F008B900C009B400B00AAF9B
:1028B00000B00BAA00D00CA500000EA000500F9B8A
:1028C00000C01096005012910000148C00C01587B3
:1028D00000B0178200B0197D00D01B7800001E7375
:1028E0000040206E0090226900F024640040275FC1
:1028F0000090295A00E02B5500102E500020304B3C
:102900000010324600E033410090353C001037376C
:102910000070383200A0392D00B03A2800A03B23C7
:1029200000603C1E00103D1900903D1400103E0F49
:1029300000703E0A00C03E0500003F000045727274
:102940003A204D415854454D50204245440045726F
:10295000723A204D415854454D50004D4158544510
:102960004D502074726967676572656400457272C4
:102970003A204D494E54454D502042454400457241
:10298000723A204D494E54454D50004D494E5445E4
:102990004D5020747269676765726564001FFFFFA0
:1029A000FFFFFFFF600000000001FF40000000008B
:1029B00000FF8000000000007F83CF00000C303F4C
:1029C00087FF80000C301F867980000C000F8C3050
:1029D000C7838C30E78C30CFC7CC31F38C30DCEC44
:1029E000EC33B98C30D86C6C33198C30D06C0C3320
:1029F000198C30D86C0C33198C30DC6C0E3B198C74
:102A000030CF7C079F198C30C77C038F19400000A2
:102A100000000002600000000000061FFFFFFFFF33
:102A2000FFF848617264636F6465642044656661A1
:102A3000756C742053657474696E6773204C6F6194
:102A40006465640A0020500020204D333535205342
:102A50000043617365204C696768743A0A00204539
:102A600000205A0020204D3930372058005374651B
:102A700070706572206D6F746F722063757272650D
:102A80006E74733A0A0020204D3230302044300AF0
:102A90000020204D323030204400204469736162B0
:102AA0006C65640A0046696C616D656E74207365BF
:102AB0007474696E67733A00204400204900202036
:102AC0004D33303420500020440020490020204D58
:102AD0003330312050005049442073657474696E5E
:102AE00067733A0A00204600204200204800202058
:102AF0004D3134352053004D6174657269616C202D
:102B000068656174757020706172616D657465725D
:102B1000733A0A00205A00205900202047323920F9
:102B2000533320580020590020580020204D3432C3
:102B3000302053004D65736820626564206C6576B3
:102B4000656C696E673A0A00205A002059002020FF
:102B50004D323036205800486F6D65206F666673C1
:102B6000657420286D6D290A00204500205A002038
:102B7000590020580020420020540020204D3230BF
:102B800035205300416476616E636564207661721E
:102B90006961626C65733A20533D4D696E206665CC
:102BA00065647261746520286D6D2F73292C205423
:102BB0003D4D696E2074726176656C206665656452
:102BC0007261746520286D6D2F73292C20423D6D34
:102BD000696E696D756D207365676D656E742074BF
:102BE000696D6520286D73292C20583D6D617869C9
:102BF0006D756D205859206A65726B20286D6D2F98
:102C000073292C20205A3D6D6178696D756D205AAD
:102C1000206A65726B20286D6D2F73292C2020454A
:102C20003D6D6178696D756D2045206A65726B2018
:102C3000286D6D2F73290A00205400205200202097
:102C40004D323034205000416363656C65726174AD
:102C5000696F6E733A20503D7072696E74696E6769
:102C60002C20523D7265747261637420616E642021
:102C7000543D74726176656C0A00204500205A004C
:102C800020590020204D3230312058004D617869A4
:102C90006D756D20416363656C65726174696F6EFB
:102CA00020286D6D2F7332293A0A00204500205AE2
:102CB0000020590020204D3230332058004D6178DB
:102CC000696D756D20666565647261746573202831
:102CD0006D6D2F73293A0A00204500205A002059B3
:102CE0000020204D393220580053746570732070D5
:102CF000657220756E69743A0A007A5F6D696E3A82
:102D00002000795F6D696E3A2000785F6D696E3AD8
:102D100020005265706F7274696E6720656E64730F
:102D2000746F70207374617475730A0053746570E6
:102D300020447269766520450053746570204472A2
:102D40006976652045005374657020447269766524
:102D5000205A0053746570204472697665205A00C9
:102D60005374657020447269766520585900537415
:102D70006570204472697665205859004573746502
:102D800070732F6D6D004573746570732F6D6D00DA
:102D90005A73746570732F6D6D005A737465707318
:102DA0002F6D6D005973746570732F6D6D005973BD
:102DB000746570732F6D6D005873746570732F6D2B
:102DC0006D005873746570732F6D6D00412D7472B2
:102DD0006176656C00412D74726176656C00412DE1
:102DE0007265747261637400412D726574726163FF
:102DF0007400416D6178204500416D617820450087
:102E0000416D6178205A00416D6178205A00416D12
:102E10006178205900416D6178205900416D6178D9
:102E2000205800416D617820580056547261762018
:102E30006D696E005654726176206D696E00566D34
:102E4000696E00566D696E00566D617820450056BA
:102E50006D6178204500566D6178205A00566D618D
:102E600078205A00566D6178205900566D6178209F
:102E70005900566D6178205800566D6178205800D1
:102E800056652D6A65726B0056652D6A65726B001A
:102E9000567A2D6A65726B00567A2D6A65726B00E0
:102EA00056792D6A65726B0056792D6A65726B00D2
:102EB00056782D6A65726B0056782D6A65726B00C4
:102EC000416363656C00416363656C004265642027
:102ED0005A00426564205A00436F6E74726F6C0032
:102EE00053746F70207072696E740043616E636515
:102EF0006C0041626F7574205072696E7465720067
:102F00004E6F2053442063617264005072696E7486
:102F10002066726F6D2053440053746F702070727E
:102F2000696E7400526573756D65207072696E7498
:102F3000005061757365207072696E7400436F6E26
:102F400074726F6C0043617365206C6967687420EC
:102F50006F6E0043617365206C69676874206F66EB
:102F600066005072657061726500517569636B200F
:102F70004D656E750054756E6500426162797374BB
:102F80006570205A00496E666F2073637265656EC6
:102F900000426162797374657070696E67205A00CF
:102FA0004D363030004368616E67652066696C613C
:102FB0006D656E74004261627973746570205A00A9
:102FC000466C6F7700466C6F770046616E207370B9
:102FD0006565640046616E207370656564004265D6
:102FE0006400426564004E6F7A7A6C65004E6F7AB9
:102FF0007A6C6500426564205A00426564205A007C
:103000005370656564005370656564004D61696E59
:103010000000000000000000000000000057617286
:103020006E696E673A20486F6D696E672042756DF4
:10303000702044697669736F72203C20310A000069
:1030400000A0400000A040000000400000484300F5
:1030500000484300002A43FFFFFF7C3C3E5E2B3DBF
:103060003F2F5B5D3B2C2A225C00434F4D4D554E5C
:1030700049434154494F4E0044525952554E004520
:1030800052524F525300494E464F004543484F005D
:103090006F6B008B3086307F3078306A306F6666B9
:1030A0000044454255473A004D31313320530044E6
:1030B00075706C696361746F722036204F66662E7E
:1030C00000205A3A0020593A0020436F756E742050
:1030D000583A200020453A00205A3A0020593A0038
:1030E000583A004649524D574152455F4E414D4571
:1030F0003A4D61726C696E20312E312E302D524363
:103100003820284769746875622920534F55524307
:10311000455F434F44455F55524C3A687474707331
:103120003A2F2F6769746875622E636F6D2F556C27
:1031300074696D616B65722F4D61726C696E2050A0
:10314000524F544F434F4C5F56455253494F4E3A9E
:10315000312E30204D414348494E455F545950452A
:103160003A4475706C696361746F722036204558FB
:103170005452554445525F434F554E543A312055B1
:103180005549443A63656465326132662D34316174
:10319000322D343734382D396231322D6335356371
:1031A00036326633363766660A0053657474696E64
:1031B000672054726176656C20416363656C65724B
:1031C0006174696F6E3A200053657474696E67208C
:1031D0005265747261637420416363656C657261EA
:1031E00074696F6E3A200053657474696E6720507D
:1031F00072696E7420416363656C65726174696F96
:103200006E3A200053657474696E67205072696E5F
:103210007420616E642054726176656C2041636332
:10322000656C65726174696F6E3A2000205A0020E7
:103230005900580020204D61783A2000205A002083
:103240005900580020204D696E3A20004F6E200032
:103250004F666600536F667420656E6473746F709A
:10326000733A200024F4D43050C38E20C2A24017F9
:10327000828B7011127A910D816CD90AA861E108D4
:10328000C7586607615143061E4B5D05C145A7043B
:103290001A411104093D9803713931034036DB02AC
:1032A00065339102D4305402802E1D02632CEE014E
:1032B000752AC501B028A001102781018F2564015E
:1032C0002B244B01E0223401AC211F018D200D0184
:1032D000801FFC00841EED00971DDF00B81CD2008B
:1032E000E61BC600201BBC00641AB200B219A8007D
:1032F0000A19A0006A189900D117910040178B0095
:10330000B516840031167E00B31579003A157300A6
:10331000C7146F0058146A00EE1366008813630028
:1033200025135E00C7125B006C1257001512540083
:10333000C111510070114F0021114B00D6104900EE
:103340008D1047004610440002104200C00F40009C
:10335000800F3E00420F3C00060F3B00CB0E3800B2
:10336000930E37005C0E3500270E3400F30D32004B
:10337000C10D3100900D3000600D2E00320D2D007A
:10338000050D2C00D90C2B00AE0C2900850C290052
:103390005C0C2700350C27000E0C2600E80B2400DF
:1033A000C40B2400A00B23007D0B23005A0B21002B
:1033B000390B2100180B2000F80A1F00D90A1E0043
:1033C000BB0A1E009D0A1D00800A1D00630A1C0026
:1033D000470A1B002C0A1B00110A1A00F7091A00E1
:1033E000DD091900C4091900AB0919009209170079
:1033F0007B091800630917004C09160036091600EE
:10340000200916000A091500F5081500E008140047
:10341000CC081400B8081400A40814009008130085
:103420007D0812006B0813005808120046081200AD
:1034300034081100230811001208110001081100BE
:10344000F0071000E0071000D0071000C0071000C0
:10345000B0070F00A107100091070E0083070F00AF
:1034600074070F0065070E0057070E0049070E008E
:103470003B070D002E070E0020070D0013070D005F
:1034800006070D00F9060C00ED060D00E0060C0025
:10349000D4060C00C8060C00BC060C00B0060C00DC
:1034A000A4060B0099060C008D060B0082060B008B
:1034B00077060B006C060B0061060A0057060B002E
:1034C0004C060A0042060A0038060A002E060A00C8
:1034D00024060A001A060A001006090007060A0058
:1034E000FD050900F4050900EB050900E2050900E6
:1034F000D9050900D0050900C7050900BE05090066
:10350000B5050800AD050800A50509009C050800E3
:10351000940508008C050800840508007C05080057
:10352000740508006C050700650508005D050700C7
:10353000560508004E05070047050700400508002E
:1035400038050700310507002A0507002305070095
:103550001C050600160507000F05070008050600F4
:1035600002050700FB040600F5040700EE04060050
:10357000E8040600E2040700DB040600D5040600A8
:10358000CF040600C9040600C3040600BD040600FB
:10359000B7040600B1040500AC040600A60406004A
:1035A000A00405009B040600950405009004060095
:1035B0008A04050085040500800406007A040500DD
:1035C00075040500700405006B0405006604050021
:1035D000610405005C040500570405005204050061
:1035E0004D04050048040500430405003E040400A2
:1035F0003A04050035040500300404002C040500DD
:1036000027040400230405001E0404001A04040017
:1036100016040500110404000D040400090405004B
:103620000404040000040400FC030400F803040084
:10363000F4030400F0030400EC030400E8030400B6
:10364000E4030400E0030400DC030400D8030400E6
:10365000D4030400D0030400CC030400C803030017
:10366000C503030024F404D9201BC40C5C0E980489
:10367000C4095F0265077101F405F900FB04B3009A
:1036800048048700C103690058035500030345003F
:10369000BE023A008402310053022A0029022500AA
:1036A00004022000E4011C00C8011900AF0117004A
:1036B00098011400840113007101100061011000D1
:1036C00051010E0043010D0036010B002B010B00D0
:1036D00020010B00150109000C010900030108007D
:1036E000FB000800F3000800EB000700E400060000
:1036F000DE000600D8000600D2000600CC0005005F
:10370000C7000500C2000500BD000400B9000400A8
:10371000B5000400B1000400AD000400A9000400DD
:10372000A5000300A20003009F0004009B0003000B
:10373000980003009500020093000300900003002E
:103740008D0002008B00030088000200860002004A
:1037500084000300810002007F0002007D0002005F
:103760007B00020079000200770001007600020071
:103770007400020072000100710002006F0002007C
:103780006D0001006C0002006A0001006900020087
:10379000670001006600010065000100640002008E
:1037A0006200010061000100600001005F00020092
:1037B0005D0001005C0001005B0001005A00010097
:1037C0005900010058000100570001005600010097
:1037D0005500010054000100530000005300010097
:1037E0005200010051000100500001004F00010093
:1037F0004E0000004E0001004D0001004C00010091
:103800004B0000004B0001004A000100490001008C
:103810004800000048000100470001004600000089
:103820004600010045000000450001004400010081
:10383000430000004300010042000000420001007C
:103840004100000041000100400001003F00000075
:103850003F0001003E0000003E0001003D0000006E
:103860003D0001003C0000003C0000003C00010065
:103870003B0000003B0001003A0000003A0001005C
:103880003900000039000100380000003800000055
:10389000380001003700000037000100360000004A
:1038A0003600000036000100350000003500000041
:1038B0003500010034000000340000003400010035
:1038C000330000003300000033000100320000002C
:1038D0003200000032000100310000003100000021
:1038E0003100010030000000300000003000010015
:1038F0002F0000002F0000002F0000002F0001000B
:103900002E0000002E0000002E0001002D000000FF
:103910002D0000002D0000002D0001002C000000F3
:103920002C0000002C0000002C0001002B000000E7
:103930002B0000002B0000002B0001002A000000DB
:103940002A0000002A0000002A00010029000000CF
:1039500029000000290000002900000029000100C2
:1039600028000000280000002800000028000000B7
:1039700028000100270000002700000027000000A9
:10398000270000002700010026000000260000009C
:10399000260000002600000026000100250000008F
:1039A0002500000025000000250000002500000083
:1039B0002500010024000000240000002400000075
:1039C0002400000024000100230000002300000068
:1039D000230000002300000023000000230000005B
:1039E000230001002200000022000000220000004D
:1039F000220000002200000022000100210000003F
:103A00002100000021000000210000002100000032
:103A10002100000021000100200000002000000023
:103A20002000000020000000200000002000000016
:103A300020000000200001001F0000001F00000007
:103A40001F0000001F0000001F0000001F000000FA
:103A50001F0001001E0000001E0000001E000000EC
:103A60001E0000004D383420582059205A204500AF
:103A700046696C2E204469612E0046696C2E2044F4
:103A800069612E004F6666004F6E20004520696E0A
:103A9000206D6D3300436F6E74726F6C0043617301
:103AA00065206272696768746E6573730043616E46
:103AB0006E6F7420656E74657220737562646972CE
:103AC0003A2000022E2E004D61696E000045787488
:103AD000727564656420746F74616C3A2000256CA3
:103AE000642E25696D00004C6F6E67657374206AE3
:103AF0006F622074696D653A200000546F74616CC8
:103B0000207072696E742074696D653A2000436F8D
:103B10006D706C657465643A20005072696E742033
:103B2000436F756E743A20004D61782054656D7056
:103B30003A20313230004D696E2054656D703A2064
:103B40003500544265643A4550434F53203130307C
:103B50004B004D61782054656D703A20323630004C
:103B60004D696E2054656D703A20350054303A200E
:103B7000505431303020556C74694D420050726F92
:103B8000746F636F6C3A20312E3000426175643A75
:103B90002032353030303000556C74696D616B65A2
:103BA0007220322E780020746F6F206C6F6E672049
:103BB000657874727573696F6E2070726576656E64
:103BC0007465640A0020636F6C6420657874727594
:103BD00073696F6E2070726576656E7465640A0035
:103BE000206E6F7420656E74657265642E0A0044E1
:103BF00075706C696361746F7220362072656164E0
:103C0000792E00526573756D696E67207072696EEA
:103C100074005761697420666F7220757365722E27
:103C20002E2E004E6F206D6F76652E00456E64203F
:103C300066696C65206C6973740A00426567696E19
:103C40002066696C65206C6973740A0053442070A7
:103C500072696E74696E67206279746520004E6FB8
:103C600074205344207072696E74696E670A005044
:103C700072696E742074696D653A200050726F74B9
:103C800065637465642050696E0A006D0046696C56
:103C9000616D656E7420757365643A2000537461BC
:103CA00074733A20002C204C6F6E67657374206A21
:103CB0006F623A2000546F74616C2074696D653ACC
:103CC000200053746174733A20002C204661696CA3
:103CD00065643A20002C2046696E69736865643A11
:103CE00020005072696E74733A20005374617473CB
:103CF0003A20002042403A0020403A00202F002085
:103D0000423A00202F0020543A0000000000300EFC
:103D10000100C00E0A00500F1400D00F1E006010EA
:103D20002800E010320070113C00F01146007012C3
:103D3000500000135A008013640000146E009014A9
:103D400078001015820090158C00101696009016C1
:103D5000A0001017AA009017B4001018BE00901809
:103D6000C8001019D2009019DC00101AE600801A61
:103D7000F000001BFA00801B0401F01B0E01701CF8
:103D80001801F01C2201601D2C01E01D3601501E9F
:103D90004001D01E4A01401F5401B01F5E01302077
:103DA0006801A020720110217C019021860100226F
:103DB00090016026F401902A5802802EBC025032F5
:103DC0002003E03584035039E803803C4C046F6BDA
:103DD00000627573793A2070617573656420666F4F
:103DE0007220696E7075740A00627573793A20707A
:103DF000617573656420666F7220757365720A0061
:103E0000627573793A2070726F63657373696E6758
:103E10000A004B494C4C45442E2000506C656173A0
:103E200065207265736574005052494E54455220A6
:103E300048414C544544005072696E746572206864
:103E4000616C7465642E206B696C6C282920636139
:103E50006C6C6564210A00436F6F6C646F776E0051
:103E60004368616E67652066696C616D656E74009C
:103E700050726568656174204142530050726568F4
:103E800065617420504C41004739310A4731205A4E
:103E900032350A473930004C6F77657220427569B8
:103EA0006C6420506C6174652032356D6D004C651A
:103EB00076656C2062656400473238004175746F26
:103EC00020686F6D65004D61696E004D6F766520ED
:103ED00058004D6F76652059004D6F7665205A0069
:103EE0004578747275646572004D6F766520302E6A
:103EF000316D6D004D6F766520316D6D004D6F76C3
:103F0000652031306D6D004D6F7665206178697385
:103F1000004578747275646572004D6F7665205A3D
:103F2000004D6F76652059004D6F76652058005220
:103F30006573656E643A20004E414E494E495459AE
:103F4000494E46CDCCCC3D0AD7233C17B7D1387764
:103F5000CC2B329595E6241FB14F0A00002041007A
:103F600000C84200401C4620BCBE4CCA1B0E5AAEC4
:103F7000C59D740033FA94FB11241FBECFEFD1E22C
:103F8000DEBFCDBF00E00CBF14E0A0E0B2E0ECE18A
:103F9000F2E102E00BBF02C007900D92AA38B10710
:103FA000D9F725E1AAE8B4E001C01D92A935B2070E
:103FB000E1F71FE1CBEBDFE100E006C0219701094B
:103FC000802FFE010E94F3FCCA3BD10780E0080766
:103FD000A9F70E9402F30D94FC080C9400002F92A4
:103FE0003F924F925F926F927F928F929F92AF9289
:103FF000BF92CF92DF92EF92FF920F931F93CF93D6
:10400000DF93CDB7DEB7CD58D1090FB6F894DEBF38
:104010000FBECDBF00910E0720E6029F8001112444
:1040200002571A4F109399040093980480919C0FA3
:1040300080FF18C0E4EAF5E184917F013FEFE31AC5
:10404000F30A882321F00E948248F701F5CFD801B6
:104050008D918D01882319F00E948248F8CF8AE063
:104060000E9482482091980430919904F90180813E
:104070002F5F3F4F8032D1F3F0939904E09398047F
:104080008E3469F010919804009199046AE270E00E
:10409000812F902F0F9443000097D1F420C081818D
:1040A00090ED980F9A3010F08D3261F73296DF0163
:1040B00031962C9120532A30D0F3CD01FC0101968A
:1040C00020812032D9F3F0939904E0939804DACF59
:1040D000FC0131968291803231F08A3221F0A12F99
:1040E000B02F4D9102C01082F5CFFD018081119655
:1040F0008032D9F380538A3020F0E4EAF5E10C9461
:10410000C93D20E030E05AE0529FC001539F900D1E
:1041100011249C01205331098191280F311D87FD05
:104120003A95808180538A3078F3CF013196DC0153
:104130005C915032D1F3909391048093900461E0AC
:1041400070E07093201460931F144D3411F40C949C
:10415000AA2B443511F40C94963D473411F00C947D
:10416000AF3D2430310509F4E3C538F42230310580
:1041700008F50E9489480C94C03D2A35310511F498
:104180000C941E2B58F42C31310509F410C62D3136
:10419000310511F40C9407290C94C03D2B353105E1
:1041A00011F40C94222B2C35310511F40C94272B8F
:1041B0000C94C03D80917A02882311F40C94C03D88
:1041C00011E02230310509F010E00E94294582E516
:1041D0000E946344882309F45CC10E9400456B017E
:1041E0007C014090A9145090AA146090AB14709078
:1041F000AC142091AD143091AE144091AF14509195
:10420000B01421962CAF3DAF4EAF5FAF2197809198
:10421000770A9091780AA091790AB0917A0A259646
:104220008CAF9DAFAEAFBFAF259720917B0A309189
:104230007C0A40917D0A50917E0A2D962CAF3DAFAD
:104240004EAF5FAF2D9720E030E0A901C701B60166
:104250000F94B504882309F451C5A3019201259652
:104260006CAD7DAD8EAD9FAD25970F94B5048111DA
:1042700011C021962CAD3DAD4EAD5FAD21972D9671
:104280006CAD7DAD8EAD9FAD2D970F94B504882399
:1042900009F434C520E030E0A901C701B6010F944C
:1042A000B504881F8827881F18130BC080E090E092
:1042B000A0E8BFE369968CAF9DAFAEAFBFAF699783
:1042C0000AC020E030E040E85FEB69962CAF3DAFDC
:1042D0004EAF5FAF6997A301920125966CAD7DAD9E
:1042E0008EAD9FAD25970E9416FD61966CAF7DAF98
:1042F0008EAF9FAF619721962CAD3DAD4EAD5FADBA
:1043000021972D966CAD7DAD8EAD9FAD2D970E9402
:1043100016FD65966CAF7DAF8EAF9FAF65976196CA
:104320002CAD3DAD4EAD5FAD6197CA01B9010F94A3
:104330001A054B015C0165962CAD3DAD4EAD5FADF0
:104340006597CA01B9010F941A059B01AC01C5011B
:10435000B4010E9417FD0E94A8FF29966CAF7DAFA3
:104360008EAF9FAF299720E030E040E05FE30F94ED
:104370001A054B015C01A7019601C701B6010F9414
:104380001A056B017C01A5019401C501B4010F94CC
:104390001A059B01AC01C701B6010E9416FD0E94DF
:1043A000A8FF9B01AC0169966CAD7DAD8EAD9FAD54
:1043B00069970F941A054B015C0125962CAD3DAD14
:1043C0004EAD5FAD2597C301B2010E9417FD20E0FD
:1043D00030E040E05FE30F941A056B017C016596C5
:1043E0006CAD7DAD8EAD9FAD6597905829962CAD87
:1043F0003DAD4EAD5FAD29970E9403FE9B01AC0120
:10440000C501B4010F941A059B01AC01C701B601A7
:104410000E9417FDA30192010E9416FD6B017C0111
:104420002D962CAD3DAD4EAD5FAD2D9721966CAD6B
:104430007DAD8EAD9FAD21970E9417FD20E030E04D
:1044400040E05FE30F941A052B013C0129962CAD47
:104450003DAD4EAD5FAD299761966CAD7DAD8EAD36
:104460009FAD61970E9403FE9B01AC01C501B401A1
:104470000F941A059B01AC01C301B2010E9417FD04
:1044800021962CAD3DAD4EAD5FAD21970E9416FD3E
:1044900014C089E40E946344882329F00E940045E7
:1044A0006B017C0103C0C12CD12C76018AE40E94EF
:1044B00063448823F9F00E94004521966CAF7DAFDC
:1044C0008EAF9FAF219720E030E0A901C701B60170
:1044D0000F94B50481111EC020E030E0A90121969F
:1044E0006CAD7DAD8EAD9FAD21970F94B50481115C
:1044F00011C004C420E030E0A901C701B6010F9447
:10450000B504882309F4FAC321961CAE1DAE1EAE75
:104510001FAE2197A7019601C701B6010F941A0596
:104520004B015C0121962CAD3DAD4EAD5FAD2197A9
:10453000CA01B9010F941A059B01AC01C501B40170
:104540000E9417FD0E94A8FFE1966CAF7DAF8EAF71
:104550009FAFE1978091A9149091AA14A091AB14F8
:10456000B091AC1429968CAF9DAFAEAFBFAF299779
:10457000A7019601BC01CD010E9417FD69966CAFA1
:104580007DAF8EAF9FAF69972091AD143091AE147F
:104590004091AF145091B01461962CAF3DAF4EAF27
:1045A0005FAF619721962CAD3DAD4EAD5FAD2197CC
:1045B00061966CAD7DAD8EAD9FAD61970E9417FD8C
:1045C0006D966CAF7DAF8EAF9FAF6D978091B1143C
:1045D0009091B214A091B314B091B414A1968CAF81
:1045E0009DAFAEAFBFAFA1979C01AD0160917F0AB7
:1045F0007091800A8091810A9091820A0E9416FD32
:1046000065966CAF7DAF8EAF9FAF65972091830AA3
:104610003091840A4091850A5091860AE5962CAF24
:104620003DAF4EAF5FAFE5978091B5149091B61452
:10463000A091B714B091B814A5968CAF9DAFAEAF52
:10464000BFAFA597A7019601505825962CAF3DAF57
:104650004EAF5FAF259721968CAD9DADAEADBFAD92
:104660002197B0582D968CAF9DAFAEAFBFAF2D97B1
:104670002091770A3091780A4091790A50917A0A0C
:10468000A9962CAF3DAF4EAF5FAFA99769962CAD01
:104690003DAD4EAD5FAD6997A9966CAD7DAD8EAD6C
:1046A0009FADA9970E9416FD6B017C0180917B0A4A
:1046B00090917C0AA0917D0AB0917E0AAD968CAF54
:1046C0009DAFAEAFBFAFAD976D962CAD3DAD4EADCE
:1046D0005FAD6D97BC01CD010E9416FD4B015C01E1
:1046E000A701960125966CAD7DAD8EAD9FAD25974A
:1046F0000F941A052B013C01A50194012D966CAD78
:104700007DAD8EAD9FAD2D970F941A059B01AC0129
:10471000C301B2010E9417FD2B013C01A5019401C8
:1047200025966CAD7DAD8EAD9FAD25970F941A0586
:104730004B015C01A70196012D966CAD7DAD8EAD50
:104740009FAD2D970F941A059B01AC01C501B401D3
:104750000E9416FDA30192010E9495FD6B017C0150
:1047600020E030E0A9010F94B50487FF0AC02BEDCB
:104770003FE049EC50E4C701B6010E9417FD6B0110
:104780007C01112351F02BED3FE049EC50E4C701CF
:10479000B6010E9416FD6B017C0120E030E0A9010A
:1047A000C701B6010F94B50481112AC0A9962CAD9A
:1047B0003DAD4EAD5FADA99729966CAD7DAD8EAD8B
:1047C0009FAD29970F94B50481111AC0AD962CADF9
:1047D0003DAD4EAD5FADAD9761966CAD7DAD8EAD2F
:1047E0009FAD61970F94B50481110AC02BED3FE096
:1047F00049EC50E4C701B6010E9417FD6B017C0132
:10480000E1962CAD3DAD4EAD5FADE197C701B60170
:104810000F941A059B01AC010F941A054B015C0122
:1048200065962CAD3DAD4EAD5FAD6597CA01B90142
:104830000F941A059B01AC01C501B4010E9417FD3C
:104840000E94A8FF4B015C012FE632E143E85AE3E6
:104850000F94B50487FD4EC2C501B4010E94A9FEA4
:104860000E947AFE2F967FAF6EAF2F97DB01AB2BA6
:1048700031F4E1E0F0E02F96FFAFEEAF2F972F96E7
:104880002EAD3FAD2F97B90180E090E00F94B904B1
:104890004B015C019B01AC01C701B6010E9403FE04
:1048A00029966CAF7DAF8EAF9FAF2997A50194017C
:1048B00065966CAD7DAD8EAD9FAD65970E9403FE94
:1048C000A9966CAF7DAF8EAF9FAFA997A5962CAD83
:1048D0003DAD4EAD5FADA597E5966CAD7DAD8EADB2
:1048E0009FADE5970E9416FDA50194010E9403FE6D
:1048F000AD966CAF7DAF8EAF9FAFAD9729962CADC7
:104900003DAD4EAD5FAD2997CA01B9010F941A05AF
:1049100020E030E040E05FE30F941A059B01AC011A
:1049200060E070E080E89FE30E9416FD65966CAF42
:104930007DAF8EAF9FAF6597A1968CAD9DADAEADAF
:10494000BFADA19789879A87AB87BC87A5962CAD09
:104950003DAD4EAD5FADA5972D873E874F87588BF8
:104960006091930270919402072E000C880B990BB2
:104970000F94BB0420910002309101024091020289
:10498000509103020F941A052AE037ED43E25CE3ED
:104990000F941A05A1966CAF7DAF8EAF9FAFA19714
:1049A0000E949D8F9B01AC0128533F4F4F4F5F4F9B
:1049B000A5962CAF3DAF4EAF5FAFA59722964FACFB
:1049C000229723965FAC239724966FAC2497259665
:1049D0007FAC259722242394312CD12C2F968EAD99
:1049E0009FAD2F972816390609F446C10E944E97AD
:1049F0000E949D8FDC01CB01A5962CAD3DAD4EAD47
:104A00005FADA597821B930BA40BB50BB7FD11C02F
:104A10000E949D8F9B01AC0128533F4F4F4F5F4F2A
:104A2000A5962CAF3DAF4EAF5FAFA59780E00E943B
:104A3000F9E0D39438E13D150CF44BC065962CADEC
:104A40003DAD4EAD5FAD65972D966CAD7DAD8EAD38
:104A50009FAD2D970F941A054B015C0129962CAD43
:104A60003DAD4EAD5FAD2997B201C3010F941A055C
:104A7000A50194010E9417FD7B018C0165962CAD68
:104A80003DAD4EAD5FAD6597B201C3010F941A0500
:104A90004B015C0129962CAD3DAD4EAD5FAD299724
:104AA0002D966CAD7DAD8EAD9FAD2D970F941A05F3
:104AB0009B01AC01C501B4010E9416FD2B013C0114
:104AC000C701D8012D968CAF9DAFAEAFBFAF2D976C
:104AD0005AC0B10180E090E00F94B90429962CAD42
:104AE0003DAD4EAD5FAD29970F941A054B015C01AA
:104AF0000E9400FE6B017C01C501B4010E949DFF74
:104B00004B015C01A701960125966CAD7DAD8EAD84
:104B10009FAD25970F941A052B013C01A501940127
:104B200021966CAD7DAD8EAD9FAD21970F941A058A
:104B30009B01AC01C301B2010E9417FD2B013C0196
:104B4000A501940125966CAD7DAD8EAD9FAD2597E9
:104B50000F941A054B015C01A701960121966CADDB
:104B60007DAD8EAD9FAD21970F941A059B01AC01D1
:104B7000C501B4010E9416FD2D966CAF7DAF8EAFBE
:104B80009FAF2D97D12C9201A30169966CAD7DAD9D
:104B90008EAD9FAD69970E9417FD69837A838B83E1
:104BA0009C832D962CAD3DAD4EAD5FAD2D976D9692
:104BB0006CAD7DAD8EAD9FAD6D970E9417FD6D8381
:104BC0007E838F839887A9962CAD3DAD4EAD5FADAA
:104BD000A99769857A858B859C850E9417FD6987D1
:104BE0007A878B879C87AD962CAD3DAD4EAD5FAD82
:104BF000AD976D857E858F8598890E9417FD6D879D
:104C00007E878F87988BCE0101960E94B8E6C09070
:104C1000861489819A81AB81BC8188A399A3AAA3B8
:104C2000BBA38D819E81AF81B8858CA39DA3AEA3CC
:104C3000BFA389859A85AB85BC8588A799A7AAA7B4
:104C4000BBA7CE0180960E946F48A196ECACFDAC4C
:104C50000EAD1FADA1979E01235F3F4FAE01485D92
:104C60005F4FBE016C5D7F4FCE0180960E9420CACF
:104C70004FEF241A340AB2CEC09086148091770A7E
:104C80009091780AA091790AB0917A0A88A399A3A1
:104C9000AAA3BBA380917B0A90917C0AA0917D0A74
:104CA000B0917E0A8CA39DA3AEA3BFA380917F0A7F
:104CB0009091800AA091810AB091820A88A799A751
:104CC000AAA7BBA7CE0180960E946F48A196ECAC24
:104CD000FDAC0EAD1FADA19723E83AE0AE01485DF3
:104CE0005F4FBE016C5D7F4FCE0180960E9420CA4F
:104CF0000E94A7430E9477480C94C03DECE7F5E181
:104D000084918F010F5F1F4F882321F00E948248FA
:104D1000F801F6CFE2EAF1E084918F010F5F1F4FB7
:104D2000882311F40C94C03D0E948248F801F4CF0E
:104D300080E50E946344882329F00E94F5446B01BA
:104D40007C0103C0C12CD12C760183E50E94634411
:104D5000882321F00E94C8456B017C010E94F3BCAE
:104D60000E9477488091211490912214A0912314DD
:104D7000B0912414C80ED91EEA1EFB1E80911D029C
:104D8000811105C060E088EB91E00E944E550E94C1
:104D90009D8FDC01CB018C199D09AE09BF09B7FDC0
:104DA00002C00C94C03D80E00E94F9E0F0CF0E9468
:104DB000F3BC8091161081FF2AC090918B09992332
:104DC000A1F090918C09992381F090918D099923FC
:104DD00061F080E00E9463F18090B1149090B21471
:104DE000A090B314B090B41418C08D7F80931610A7
:104DF00080E090E0A0E8B0E48093B1149093B21406
:104E0000A093B314B093B4144C015D0106C0812C7F
:104E1000912C80E8A82E80E4B82E80910002909119
:104E20000102A0910202B091030280939404909336
:104E30009504A0939604B093970480919302909167
:104E40009402909393048093920484E690E090936C
:104E50009402809393020E947748FF24F394F09287
:104E60001C0288E50E946344082F89E50E94634480
:104E7000182F8AE50E946344382E011104C01111D5
:104E800004C0F82605C0111102C0F12C01C0F82E93
:104E9000F092040280E1E9EAF4E1A7E7BAE00190C8
:104EA0000D928A95E1F7F11005C0011103C011239D
:104EB00009F431C120E030E0A901609169057091E9
:104EC0006A0580916B0590916C050E9417FD2091F9
:104ED000900F3091910F4091920F5091930F0E943B
:104EE00017FD60937F0A7093800A8093810A9093E4
:104EF000820AF11006C0002309F40DC1112309F440
:104F00000AC11092AD141092AE141092AF14109208
:104F1000B0141092A9141092AA141092AB1410920B
:104F2000AC140E944846E7E5F0E394912E969FAFBB
:104F30002E978BE490E30E942C472B013C018FE4D9
:104F400090E30E942C476B017C019B01AC01C301E3
:104F5000B2010E945FFF18162CF4A3019201C70151
:104F6000B60104C0A7019601C301B2010E9403FE6D
:104F70009B01AC010F941A0520E030E040E85FE3AC
:104F80000E9417FD0E94A8FF20E030E048E452E4B0
:104F90000F941A056DAF22967FAF22972A968FAF96
:104FA0002A97292EE8E5F0E3A4912696AFAF26973D
:104FB00020E030E040EC5FE3C701B6010F941A0532
:104FC00065966CAF7DAF8EAF9FAF65972696BFADF0
:104FD00026976B2FBB0F770B880B990B0F94BB0495
:104FE0009B01AC0165966CAD7DAD8EAD9FAD6597B7
:104FF0000F941A0529966CAF7DAF8EAF9FAF29979E
:1050000020E030E040EC5FE3C301B2010F941A05E9
:105010002B013C012E96EFAD2E976E2FEE0F770BE6
:10502000880B990B0F94BB049B01AC01C301B20127
:105030000F941A052B013C012091000230910102CE
:10504000409102025091030261962CAF3DAF4EAFEA
:105050005FAF619720E030E0A9016DAD22967FAD92
:1050600022972A968FAD2A97922D0F94B504882304
:1050700049F0EDAC2296FFAC22972A963FAD2A97D5
:10508000222D04C0E12CF12C36E123E4C701A32F2B
:10509000B22F8093000290930102A0930202B0937A
:1050A00003024092A9145092AA146092AB14709219
:1050B000AC1429968CAD9DADAEADBFAD2997809354
:1050C000AD149093AE14A093AF14B093B0140E949B
:1050D0000C440E94F3BC61962CAD3DAD4EAD5FAD6E
:1050E0006197209300023093010240930202509393
:1050F000030210928D051092AD141092AE1410920E
:10510000AF141092B0141092A9141092AA14109215
:10511000AB141092AC1480910402811102C00023E0
:1051200021F080E090E00E9456B680910402811147
:1051300002C0112321F081E090E00E9456B68091D8
:105140000402811102C0332021F082E090E00E942D
:1051500056B60E9448468091220A80931C02809194
:10516000161080FF36C08091040281110AC0809120
:105170008B09882371F180918C09882351F13320A8
:1051800069F080E090E0A0E8B0E48093B1149093DF
:10519000B214A093B314B093B41410C080918D09CD
:1051A0008823B9F0011102C0112399F08092B11443
:1051B0009092B214A092B314B092B4140E944846D4
:1051C0008091161082608093161089EA94E10E9403
:1051D000C2D68091940490919504A0919604B091C8
:1051E00097048093000290930102A0930202B0936F
:1051F000030280919204909193049093940280937F
:1052000093020E9477480E94BEB90C94C03D83E58A
:105210000E9463448823A1F00E94764490E0863087
:10522000910580F0E6EAF2E084918F010F5F1F4F55
:10523000882311F40C94C03D0E948248F801F4CFF9
:1052400080E090E08330910509F456C144F4813048
:10525000910509F492C0029709F498C007C0843000
:10526000910509F4AEC1059709F4BBC180911610F0
:1052700080FF76C081FD03C06FEA73E002C06BEA75
:1052800073E08FE792E00E94A749E0E7F2E08491A3
:105290008F010F5F1F4F882321F00E948248F80181
:1052A000F6CFECE5F2E084918F010F5F1F4F88236A
:1052B00021F00E948248F801F6CFE1E5F2E0849106
:1052C0008F010F5F1F4F882321F00E948248F80151
:1052D000F6CF60911710709118108091191090916D
:1052E0001A1045E00E94A04DEEE3F2E084918F0198
:1052F0000F5F1F4F811107C016E1A12E10E1B12EE3
:1053000003E0F02E1FC00E948248F801EFCFF501A4
:10531000EC0DFD1D658176818781908545E00E94B9
:10532000A04D34E0C30ED11C4CE0C416D10461F48E
:105330008AE00E948248FA945CE0A50EB11CFF202E
:1053400009F478C1C12CD12CEBE3F2E084918F01F8
:105350000F5F1F4F8823D9F20E948248F801F6CFD1
:10536000E7E8F2E084918F010F5F1F4F882309F473
:1053700061C10E948248F801F5CF0E9442EE10926E
:1053800006021092050280E392E0AFC08091050210
:105390009091060297FF0EC0E7E0F2E084918F0142
:1053A0000F5F1F4F882311F40C94C03D0E94824868
:1053B000F801F4CF009779F480E090E0A0E8B0E441
:1053C0008093B1149093B214A093B314B093B41417
:1053D0000E94484603C081500E94B5FB809105029F
:1053E00090910602893091050CF056C063E00E944E
:1053F000A2FC192F80FF03C092E0911B192F9AE5A0
:105400008902B0011124665F7F4F072E000C880BC4
:10541000990B0F94BB049B01AC01AAE51A02C001D1
:1054200011240A96BC01990F880B990BC657DF4FC0
:105430002883CA58D040C557DF4F3883CB58D04057
:10544000C457DF4F4883CC58D040C357DF4F5883F1
:10545000CD58D0400F94BB04C657DF4F2881CA589F
:10546000D040C557DF4F3881CB58D040C457DF4FAD
:105470004881CC58D040C357DF4F5881CD58D040D9
:105480000E949FDC80910502909106020196909304
:10549000060280930502CEC080E090E0A0E1B1E476
:1054A0008093B1149093B214A093B314B093B41436
:1054B0000E940C440E94F3BCE3EFF1E084918F0161
:1054C0000F5F1F4F882321F00E948248F801F6CF1A
:1054D0008FEF9FEF90930602809305028091161044
:1054E0008160809316108FEE91E090931E09809357
:1054F0001D090E94ED459EC088E50E9463448823F3
:10550000A1F00E94DD440FEF080F0330A8F0E8ED92
:10551000F1E084918F010F5F1F4F882311F40C94E9
:10552000C03D0E948248F801F4CF88E50E9482487D
:105530000E9423FA0C94C03D89E50E9463448823AD
:10554000A1F00E94DD441FEF180F1330A8F0E1EC2A
:10555000F1E084918F010F5F1F4F882311F40C94A9
:10556000C03D0E948248F801F4CF89E50E9482483C
:105570000E9423FA0C94C03D8AE50E94634488236C
:10558000C9F00E940045212F110F330BF901EE0FD6
:10559000FF1FE20FF31FE00FF11D07FDFA95EE0F5D
:1055A000FF1FEE0FFF1FEA5EFF4E65837683878342
:1055B000908740C08AE50E9482480E9423FA0C949A
:1055C000C03D8AE50E9463448823A1F30E94004500
:1055D00060931710709318108093191090931A10FD
:1055E00029C08091161081FF23C020E030E040E800
:1055F00050E46091B1147091B2148091B314909101
:10560000B4140E9416FD6093B1147093B214809389
:10561000B3149093B41441EB54E16DEA74E189EA58
:1056200094E10E94AAD70E9442EE0E94484602C01E
:105630000E9442EE0E94BEB90C94C03D10928F04AD
:105640000C94C03D81E080938F040C94C13D85E4AF
:105650000E946344982E811102C00E94F3BC75ED34
:10566000A72E72E0B72EE9EACE2EE4E1DE2EF8E8AE
:10567000EF2EFFE0FF2E00E010E0812CF50181917C
:105680005F010E946344882309F44CC0D6012D9128
:105690003D914D915C91C657DF4F2883CA58D04049
:1056A000C557DF4F3883CB58D040C457DF4F4883AE
:1056B000CC58D040C357DF4F5883CD58D0400E94BC
:1056C0000045F6016083718382839383C657DF4F61
:1056D0002881CA58D040C557DF4F3881CB58D040B9
:1056E000C457DF4F4881CC58D040C357DF4F588153
:1056F000CD58D04003301105A9F00E9416FD9B0142
:10570000AC01D7016D917D918D919C910E9417FD07
:10571000F7016083718382839383C8010E943247BB
:10572000882483940F5F1F4FF4E0CF0ED11C24E038
:10573000E20EF11C0430110509F0A0CF882019F009
:105740000E94484603C091100E9404EE0E94BEB918
:105750000C94C03D2237310509F4A3C608F0BEC041
:105760002C34310509F4F9C208F061C02831310543
:1057700009F4B4C178F52231310509F48AC668F418
:105780002230310508F49CC12131310511F00C940F
:10579000C03D0E9405DC0C94C03D2531310509F463
:1057A00093C148F42431310511F00C94C03D0E949E
:1057B000ACDB0C94C03D2631310509F489C1273199
:1057C000310511F00C94C03D40E061E00E947A691F
:1057D0000C94C03D2E31310509F4A1C1A8F42A3141
:1057E000310509F48AC108F484C12B31310509F46B
:1057F00092C12C31310511F00C94C03D40E060E0C5
:105800000E947A690C94C03D2032310509F495C29A
:1058100008F49BC22A32310509F49BC22B343105AE
:1058200011F00C94C03D0E9451EE0C94C03D2836FE
:10583000310509F49EC238F52235310509F420C638
:1058400078F42E34310509F490C208F48AC2213567
:10585000310511F00C94C03D0E94CBBB0C94C03DAF
:105860002435310509F415C608F40EC62535310571
:1058700009F413C62C35310511F00C94C03D0E947B
:10588000D5BA0C94C03D2D36310509F4D2C298F436
:105890002A36310509F4ECC508F4C3C22B363105AC
:1058A00009F4EAC52C36310511F00C94C03D109274
:1058B0008B020C94C03D2F36310509F4A2C208F4C6
:1058C0009CC22037310509F4A0C22137310511F0FF
:1058D0000C94C03D0E94F5BB0C94C03D2C3241E0BD
:1058E000340709F4C8C608F06DC0283C310509F436
:1058F00062C680F52837310509F4E0C588F42537FC
:10590000310509F4D2C52737310509F4D3C523374A
:10591000310511F00C94C03D0E94AEB90C94C03D0D
:105920002C38310509F479C258F42937310511F0C2
:105930000C94C03D10921C021092220A0C94C03D9F
:105940002139310509F4C1C52E3B310509F41AC4CA
:105950000C94C03D2E3C310509F439C6D8F42B3CDB
:10596000310509F42CC648F4293C310511F00C949A
:10597000C03D0E943CB90C94C03D2C3C310509F45B
:1059800022C62D3C310511F00C94C03D0E9447B851
:105990000C94C03D2C3D310509F41DC648F4233D4F
:1059A000310511F00C94C03D0E94B1B70C94C03D7C
:1059B0002D3D310509F413C6223E310509F42BC6ED
:1059C0000C94C03D253A61E0360711F40C94AD38D3
:1059D00048F5203391E0390709F418C748F42E320E
:1059E000B1E03B0709F490C708F46CC60C94F83496
:1059F0002039F1E03F0711F40C944E3838F4233687
:105A0000314011F40C943F3D0C94C03D2A3961E0C3
:105A1000360709F4FEC1243A314011F40C94513890
:105A20000C94C03D273F91E0390711F40C94A73A3C
:105A300068F5243FB1E03B0711F40C94A13AB8F4A7
:105A40002C3A314011F00C94C03D39EA232E34E158
:105A5000332E21E635E03EAF2DAF4BE859E02396DB
:105A60005FAF4EAF239700E010E00C94A639253FBE
:105A700041E0340711F40C94A43A263F314011F070
:105A80000C94C03D0E948CA20C94C03D2B3863E066
:105A9000360711F40C94E73C38F42835324011F401
:105AA0000C94B33A0C94C03D203AA3E03A0709F4B1
:105AB00048C1273E334011F40C94883D0C94C03DFE
:105AC0000E940FDC0C94C03D0E94A86C0C94C03D59
:105AD00010928810109289100C94C03D809189100A
