:100000000C94C11F0C94F21F0C94F21F0C94F21F5D
:100010000C94F21F0C94F21F0C94F21F0C94F21F1C
:100020000C94F21F0C94F21F0C94F21F0C94F21F0C
:100030000C94F21F0C94F94C0C94F21F0C94F21FC8
:100040000C94F21F0C94C1520C94F21F0C94F21FEA
:100050000C94F21F0C94F21F0C9440E60C948175E2
:100060000C94F21F0C94F14B0C94F21F0C94F21FA1
:100070000C94F21F0C94F21F0C94F21F0C94F21FBC
:100080000C94F21F0C94F21F0C94F21F0C94F21FAC
:100090000C94F21F0C94F21F0C94F21F0C94F21F9C
:1000A0000C94F21F0C94F21F0C94F21F0C94F21F8C
:1000B0000C94F21F0C94F21F0C94F21F0C94F21F7C
:1000C0000C94F21F0C94F21F0C94F21F0C94F21F6C
:1000D0000C94F21F0C94F21F0C94F21F0C94F21F5C
:1000E0000C94F21F654C684C574C5B4C614C9F4C18
:1000F0006C4C704C764C7A4C7E4C844C884C8C4CBE
:100100009F4C924C964C9A4C9D74A274A774B174F7
:10011000BB743475C574CD74D574DF74E974F3742D
:1001200002750C753475167520752A753A8B438BDC
:100130004A8B508B568B5C8B668B6C8B95E6A5E659
:10014000C4E6D4E6EFE6F4E6F7E6FCE6FFE604E70D
:1001500007E70CE716E7084AD73B3BCE016E84BCA5
:10016000BFFDC12F3D6C74319ABD56833DDA3D0011
:10017000C77F11BED9E4BB4C3E916BAAAABE00005A
:1001800000803F05A84CCDB2D44EB93836A9020C38
:1001900050B9918688083CA6AAAA2ABE0000008011
:1001A0003F0047322F4733206261642070617261E3
:1001B0006D65746572730A00536C6565702E2E2E22
:1001C0000059206F7574206F662072616E6765201C
:1001D00028312D33292E0A0058206F7574206F6640
:1001E0002072616E67652028312D33292E0A004761
:1001F0003238004D6573682070726F62696E6720D7
:10020000646F6E652E0A005374617274206D65739D
:10021000682070726F62696E672077697468202247
:10022000473239205331222066697273742E0A00D6
:100230004732380A473239205332002020000A4D15
:100240006561737572656420706F696E74733A0AC4
:10025000005A206F66667365743A20005A207365F1
:1002600061726368206865696768743A20340A00BF
:100270000A4E756D20582C593A20332C330A0053FE
:10028000746174653A20004D65736820626564206E
:100290006C6576656C696E67206E6F74206163743F
:1002A0006976652E0A0053206F7574206F66207280
:1002B000616E67652028302D35292E0A004475703F
:1002C0006C696361746F7220362072656164792E87
:1002D00000526573756D696E67207072696E740087
:1002E0005761697420666F7220757365722E2E2EA9
:1002F000005344207072696E74696E67206279746D
:100300006520004E6F74205344207072696E7469CA
:100310006E670A0046696C652064656C6574656487
:100320003A0044656C6574696F6E206661696C653E
:10033000642C2046696C653A20006F70656E2066FB
:1003400061696C65642C2046696C653A20005072C6
:10035000696E742074696D653A200050726F74651F
:10036000637465642050696E0A004B494C4C4544E7
:100370002E20004D3131332053006F6B00426564F5
:1003800020646F6E652E003F0A0020573A004265D8
:10039000642048656174696E672E004649524D5766
:1003A0004152455F4E414D453A4D61726C696E2038
:1003B000312E312E302D524338202847697468750C
:1003C000622920534F555243455F434F44455F5583
:1003D000524C3A68747470733A2F2F676974687559
:1003E000622E636F6D2F556C74696D616B65722F32
:1003F0004D61726C696E2050524F544F434F4C5FA9
:1004000056455253494F4E3A312E30204D414348C4
:10041000494E455F545950453A4475706C69636163
:10042000746F7220362045585452554445525F43EC
:100430004F554E543A3120555549443A63656465E9
:10044000326132662D343161322D343734382D39F2
:100450006231322D63353563363266333637666640
:100460000A0020643A0020693A0020703A002064B3
:100470003A0020693A0020703A0043290A0061627C
:100480006C656420286D696E2074656D7020004372
:100490006F6C642065787472756465732061726531
:1004A00020004B64200023646566696E652020444B
:1004B000454641554C545F004B69200023646566F6
:1004C000696E65202044454641554C545F004B7091
:1004D000200023646566696E6520204445464155C9
:1004E0004C545F00504944204175746F74756E65BB
:1004F0002066696E69736865642120507574207484
:100500006865206C617374204B702C204B692061EE
:100510006E64204B6420636F6E7374616E7473201D
:1005200066726F6D2062656C6F7720696E746F20E4
:10053000436F6E66696775726174696F6E2E680AC3
:1005400000504944204175746F74756E6520666172
:10055000696C6564212074696D656F75740A00505B
:100560004944204175746F74756E65206661696CCD
:100570006564212054656D706572617475726520C3
:10058000746F6F20686967680A00204B643A200026
:10059000204B693A2000204B703A20000A20436C1F
:1005A000617373696320504944200A002054753AEE
:1005B0002000204B753A2000206D61783A20002001
:1005C0006D696E3A200020643A20002062696173F0
:1005D0003A20004D3432312072657175697265734D
:1005E0002058595A206F7220494A5A20706172610E
:1005F0006D65746572730A004D65736820585920E3
:100600006F7220494A2063616E6E6F7420626520AC
:100610007265736F6C7665640A004D657368205867
:1006200059206F7220494A2063616E6E6F74206298
:1006300065207265736F6C7665640A004F66667339
:10064000657473206170706C696564004572723AFC
:1006500020546F6F206661722100546F6F206661B5
:10066000722066726F6D207265666572656E636575
:1006700020706F696E740A004D36303020486F74F8
:10068000656E6420746F6F20636F6C6420746F20DC
:100690006368616E67652066696C616D656E740A7A
:1006A000006F6E0A006F66660A0043617365206C16
:1006B00069676874732000416374697665204578C2
:1006C0007472756465723A2000556E6B6E6F776E4A
:1006D00020636F6D6D616E643A202200256973009E
:1006E00025696D20256973002569682025696D20BD
:1006F00025697300256964202569682025696D20B6
:100700002569730025697920256964202569682099
:1007100025696D20256973004E6F204C696E652038
:100720004E756D62657220776974682063686563D1
:100730006B73756D2C204C617374204C696E653A37
:1007400020004B494C4C45442E200053544F5050F0
:1007500045442E20005072696E7465722073746F68
:10076000707065642064756520746F206572726FA7
:1007700072732E2046697820746865206572726FE6
:100780007220616E6420757365204D39393920748B
:100790006F20726573746172742E202854656D70B9
:1007A0006572617475726520697320726573657412
:1007B0002E205365742069742061667465722072FE
:1007C000657374617274696E67290A004E6F204305
:1007D0006865636B73756D2077697468206C696EEA
:1007E00065206E756D6265722C204C617374204CAF
:1007F000696E653A2000636865636B73756D206D83
:1008000069736D617463682C204C617374204C694A
:100810006E653A20004C696E65204E756D6265729A
:10082000206973206E6F74204C617374204C696E64
:1008300065204E756D6265722B312C204C6173748E
:10084000204C696E653A20004D313130004D333116
:10085000004D383420582059205A20450053442058
:1008600072656164206572726F720A00446F6E6512
:10087000207072696E74696E672066696C650A0023
:1008800020496E76616C6964206578747275646560
:10089000722000000048430000484300002A430043
:1008A0000000000000000000000000000021002403
:1008B0000027002A002D0030003300010100000451
:1008C0000107010A0100002200250028002B002E4C
:1008D000003100340002010000050108010B010095
:1008E0000020002300260029002C002F00320000E9
:1008F00001000003010601090105050505070508BA
:10090000080808020202020A0A0808040404040192
:1009100001010101010101030303030303030304B4
:100920000707070C0C0C0C0C0C0C0C020202020644
:10093000060606060606060B0B0B0B0B0B0B0B0134
:1009400002102020080810204010204080020102E0
:1009500001080402010102040810204080804020A8
:1009600010080402018004020180402010080402E3
:100970000108040201010204081020408001020461
:10098000081020408000000A0B02090C0D0E080719
:10099000030401000000000000000000000000004F
:1009A0000000000000000000000000000000000047
:1009B0000012111000000000000000000000000004
:1009C0000000000000000000000000024B494C4CF9
:1009D00045442E2000202D20496E76616C696420EC
:1009E0006578747275646572206E756D62657220CB
:1009F000210A002020506C616E6E65724275666639
:100A0000657242797465733A2000204672656520EC
:100A10004D656D6F72793A2000436F6D70696C653A
:100A2000643A2046656220203220323031370A0095
:100A3000207C20417574686F723A2028646F745F5F
:100A4000626F622C2064656661756C7420636F6EE2
:100A5000666967290A00323031362D31322D303641
:100A60002031323A303000204C617374205570646C
:100A7000617465643A2000312E312E302D52433896
:100A80000A004D61726C696E0020536F6674776165
:100A900072652052657365740A002057617463683B
:100AA000646F672052657365740A002042726F7725
:100AB0006E206F75742052657365740A0020457846
:100AC0007465726E616C2052657365740A00506FB4
:100AD00077657255700A0073746172740A006572EA
:100AE000726F722077726974696E6720746F206606
:100AF000696C650A00456E6473746F7073202563BA
:100B000020256320256320256300205A3A002059C0
:100B10003A0020583A00656E6473746F70732068F1
:100B200069743A2000446F6E6520736176696E6760
:100B30002066696C652E0A004D32390024F4D430E9
:100B400050C38E20C2A24017828B7011127A910D71
:100B5000816CD90AA861E108C7586607615143064C
:100B60001E4B5D05C145A7041A411104093D9803B8
:100B7000713931034036DB0265339102D4305402BF
:100B8000802E1D02632CEE01752AC501B028A0013C
:100B9000102781018F2564012B244B01E0223401B1
:100BA000AC211F018D200D01801FFC00841EED0073
:100BB000971DDF00B81CD200E61BC600201BBC003E
:100BC000641AB200B219A8000A19A0006A189900A4
:100BD000D117910040178B00B516840031167E00A6
:100BE000B31579003A157300C7146F0058146A00E2
:100BF000EE1366008813630025135E00C7125B00C6
:100C00006C12570015125400C111510070114F00A1
:100C100021114B00D61049008D10470046104400AA
:100C200002104200C00F4000800F3E00420F3C0007
:100C3000060F3B00CB0E3800930E37005C0E3500DC
:100C4000270E3400F30D3200C10D3100900D30003D
:100C5000600D2E00320D2D00050D2C00D90C2B003F
:100C6000AE0C2900850C29005C0C2700350C2700F0
:100C70000E0C2600E80B2400C40B2400A00B23005C
:100C80007D0B23005A0B2100390B2100180B20008B
:100C9000F80A1F00D90A1E00BB0A1E009D0A1D008B
:100CA000800A1D00630A1C00470A1B002C0A1B0057
:100CB000110A1A00F7091A00DD091900C409190000
:100CC000AB091900920917007B0918006309170086
:100CD0004C09160036091600200916000A091500ED
:100CE000F5081500E0081400CC081400B80814003A
:100CF000A4081400900813007D0812006B0813006C
:100D00005808120046081200340811002308110088
:100D10001208110001081100F0071000E007100090
:100D2000D0071000C0071000B0070F00A107100087
:100D300091070E0083070F0074070F0065070E0070
:100D400057070E0049070E003B070D002E070E0047
:100D500020070D0013070D0006070D00F9060C0013
:100D6000ED060D00E0060C00D4060C00C8060C00D1
:100D7000BC060C00B0060C00A4060B0099060C0083
:100D80008D060B0082060B0077060B006C060B002D
:100D900061060A0057060B004C060A0042060A00CC
:100DA00038060A002E060A0024060A001A060A005F
:100DB0001006090007060A00FD050900F4050900F0
:100DC000EB050900E2050900D9050900D005090075
:100DD000C7050900BE050900B5050800AD050800F6
:100DE000A50509009C050800940508008C0508006D
:100DF000840508007C050800740508006C050700E0
:100E0000650508005D050700560508004E0507004A
:100E100047050700400508003805070031050700B1
:100E20002A050700230507001C0506001605070014
:100E30000F0507000805060002050700FB04060071
:100E4000F5040700EE040600E8040600E2040700CB
:100E5000DB040600D5040600CF040600C904060022
:100E6000C3040600BD040600B7040600B104050073
:100E7000AC040600A6040600A00405009B040600BE
:100E800095040500900406008A0405008504050009
:100E9000800406007A04050075040500700405004E
:100EA0006B04050066040500610405005C04050090
:100EB00057040500520405004D04050048040500D0
:100EC000430405003E0404003A040500350405000F
:100ED000300404002C04050027040400230405004A
:100EE0001E0404001A040400160405001104040082
:100EF0000D040400090405000404040000040400B7
:100F0000FC030400F8030400F4030400F0030400ED
:100F1000EC030400E8030400E4030400E00304001D
:100F2000DC030400D8030400D4030400D00304004D
:100F3000CC030400C8030300C503030024F404D950
:100F4000201BC40C5C0E9804C4095F026507710184
:100F5000F405F900FB04B30048048700C1036900ED
:100F60005803550003034500BE023A0084023100D5
:100F700053022A002902250004022000E4011C007B
:100F8000C8011900AF011700980114008401130073
:100F9000710110006101100051010E0043010D00AC
:100FA00036010B002B010B0020010B00150109007D
:100FB0000C01090003010800FB000800F300080011
:100FC000EB000700E4000600DE000600D800060083
:100FD000D2000600CC000500C7000500C2000500D5
:100FE000BD000400B9000400B5000400B100040015
:100FF000AD000400A9000400A5000300A200030046
:101000009F0004009B00030098000300950002006D
:1010100093000300900003008D0002008B0003008A
:1010200088000200860002008400030081000200A4
:101030007F0002007D0002007B00020079000200B8
:1010400077000100760002007400020072000100C7
:10105000710002006F0002006D0001006C000200D0
:101060006A000100690002006700010066000100DB
:1010700065000100640002006200010061000100DF
:10108000600001005F0002005D0001005C000100E3
:101090005B0001005A0001005900010058000100E6
:1010A00057000100560001005500010054000100E6
:1010B00053000000530001005200010051000100E4
:1010C000500001004F0001004E0000004E000100E2
:1010D0004D0001004C0001004B0000004B000100DE
:1010E0004A000100490001004800000048000100DA
:1010F00047000100460000004600010045000000D6
:1011000045000100440001004300000043000100CD
:1011100042000000420001004100000041000100C7
:10112000400001003F0000003F0001003E000000C1
:101130003E0001003D0000003D0001003C000000B9
:101140003C0000003C0001003B0000003B000100AF
:101150003A0000003A0001003900000039000100A7
:10116000380000003800000038000100370000009F
:101170003700010036000000360000003600010094
:10118000350000003500000035000100340000008B
:101190003400000034000100330000003300000080
:1011A0003300010032000000320000003200010074
:1011B000310000003100000031000100300000006B
:1011C00030000000300001002F0000002F00000060
:1011D0002F0000002F0001002E0000002E00000054
:1011E0002E0001002D0000002D0000002D00000049
:1011F0002D0001002C0000002C0000002C0000003D
:101200002C0001002B0000002B0000002B00000030
:101210002B0001002A0000002A0000002A00000024
:101220002A00010029000000290000002900000018
:10123000290000002900010028000000280000000B
:1012400028000000280000002800010027000000FE
:1012500027000000270000002700000027000100F1
:1012600026000000260000002600000026000000E6
:1012700026000100250000002500000025000000D8
:1012800025000000250000002500010024000000CA
:1012900024000000240000002400000024000100BD
:1012A00023000000230000002300000023000000B2
:1012B00023000000230000002300010022000000A2
:1012C0002200000022000000220000002200000096
:1012D0002200010021000000210000002100000088
:1012E0002100000021000000210000002100010079
:1012F000200000002000000020000000200000006E
:10130000200000002000000020000000200001005C
:101310001F0000001F0000001F0000001F00000051
:101320001F0000001F0000001F0001001E00000041
:101330001E0000001E0000001E0000004D3834207A
:10134000582059205A2045006265640A002C2073F9
:10135000797374656D2073746F70706564212048B3
:1013600065617465725F49443A200048656174693B
:101370006E67206661696C65640048656174696EBA
:1013800067206661696C65640048656174696E67B1
:10139000206661696C65640048656174696E6720E8
:1013A0006661696C6564004D6F76696E672E2E2EDE
:1013B0000025753A2530327500253032753A2530D2
:1013C00032750025756420253032753A2530327526
:1013D000005A0059005800092000000000000000D9
:1013E0000000000000007FFFE0000000000000009F
:1013F00000000000007000E000000000000000009D
:101400000000000061F86000000000000000000023
:1014100000000041F8200000000000000000000073
:10142000000040F02000000000000000000000006C
:1014300000406020000000000000000000000000EC
:101440005801A07F80000000000000004104005C03
:1014500063A0FFC0000000000000002082005EF7D3
:10146000A0FFC0000000000000002082005EF7A086
:10147000FFC0000000000000004104005C63A07F8A
:1014800080000000000000008208005801A07F805A
:1014900000000000000001041000406020FFC000B8
:1014A00000000000000104100040F020FFC0000018
:1014B000000000000082080041F820FFC00000008A
:1014C0000000000041040061F8603F0000000000DF
:1014D0000000000000007000E01E0000000000009E
:1014E0000001FFFF807FFFE00C0000000000000013
:1014F00001FFFF800000000000000000000000006D
:101500000000007FFFE0000000000000000000007D
:1015100000007000E000000000000000000000007B
:1015200000630C60000000000000000000000000EC
:10153000470E200000000000000000000000004FE7
:101540000F200000000000000000000000005F0FFE
:10155000A00000000000000000000000005E07A0E6
:101560007F8000000000000000410400406020FF78
:10157000C00000000000000020820040F020FFC0FA
:101580000000000000000020820040F020FFC000AA
:101590000000000000004104004060207F80000047
:1015A00000000000008208005E07A07F80000000AD
:1015B000000000010410005F0FA0FFC00000000049
:1015C0000000010410004F0F20FFC00000000000C9
:1015D0000000820800470E20FFC00000000000004D
:1015E00000410400630C603F0000000000000000A8
:1015F0000000007000E01E0000000000000001FF7D
:10160000FF807FFFE00C0000000000000001FFFFF2
:101610008000000000060900FE0000000000010933
:101620000008FE000005080806000040F0C8888891
:10163000987810050808060000C0F888888888880F
:10164000F80505050600012030F8302005080806D9
:1016500000002070F820202020E00509090600FF86
:101660002070A8A8B8888870200509090600FFE046
:1016700080C0B0A8283028280509090600FFF8A86E
:101680008888888888A8F8050A0A0600FE20505035
:10169000505088A8A8887003030306000340A040A8
:1016A00000060900FE070192032120FFFF08FF0743
:1016B000FF0000000600000107070602008080808E
:1016C00080800080030202060105A0A0050707062E
:1016D00000005050F850F850500507070600002051
:1016E00078A07028F020050707060000C0C8102069
:1016F0004098180507070600006090A040A8906871
:10170000020303060104C04080030707060100200E
:101710004080808040200307070601008040202091
:1017200020408005050506000120A870A8200505B9
:10173000050600012020F820200203030602FFC056
:101740004080050101060003F8020202060200C003
:10175000C0050505060001081020408005070706A2
:101760000000708888888888700307070601004099
:10177000C040404040E00507070600007088087040
:101780008080F8050707060000F81020100808F010
:1017900005070706000010305090F81010050707E5
:1017A000060000F880F008088870050707060000AA
:1017B000708080F0888870050707060000F8081020
:1017C0002020202005070706000070888870888880
:1017D0007005070706000070888878080870020501
:1017E00005060200C0C000C0C00206060602FFC017
:1017F000C000C04080040707060000102040804061
:101800002010050303060002F800F804070706018C
:1018100000804020102040800507070600007088E7
:10182000081020002005070706000070880868A837
:10183000A870050707060000708888F88888880562
:101840000707060000F08888F08888F0050707067B
:10185000000070888080808870050707060000F00F
:101860008888888888F0050707060000F88080F0DF
:101870008080F8050707060000F88080F0808080EF
:10188000050707060000708880B88888700507077C
:10189000060000888888F888888801070706020003
:1018A0008080808080808005070706000038101047
:1018B000101090600507070600008890A0C0A09057
:1018C00088050707060000808080808080F8050773
:1018D0000706000088D8A8888888880507070600BA
:1018E000008888C8A89888880507070600007088BF
:1018F0008888888870050707060000F08888F080CF
:10190000808005070706000070888888A890680511
:101910000707060000F08888F0A0908805070706F2
:101920000000788080700808F0050707060000F8BE
:1019300020202020202005070706000088888888AE
:1019400088887005070706000088888888885020E6
:101950000507070600008888888888A850050707BB
:101960000600008888502050888805070706000078
:1019700088888850202020050707060000F80810F6
:10198000204080F8030707060100E0808080808007
:10199000E005050506000180402010080307070642
:1019A0000100E02020202020E005030306000420A1
:1019B0005088050101060000F802020206020580B7
:1019C00040050505060000700878887805070706B9
:1019D00000008080B0C88888F0050505060000700A
:1019E00080808870050707060000080868988888C6
:1019F000780505050600007088F880700507070661
:101A000000003048E0404040400506060600FF70F8
:101A100088887808700507070600008080B0C888AD
:101A2000888801070706020080008080808080038C
:101A300008080601FF200020202020A040040707FE
:101A4000060000808090A0C0A09003070706010058
:101A5000C04040404040E0050505060000D0A8A871
:101A6000A8A8050505060000B0C8888888050505F2
:101A700006000070888888700506060600FFF0885A
:101A800088F080800506060600FF788888780808B8
:101A9000050505060000B0C8808080050505060024
:101AA0000070807008F00407070600004040E04026
:101AB00040403005050506000088888898680505BF
:101AC0000506000088888850200505050600008866
:101AD00088A8A850050505060000885020508805F4
:101AE00006060600FF888888780870050505060048
:101AF00000F8102040F8030707060100204040804E
:101B0000404020010707060200808080808080809E
:101B10000307070601008040402040408005020284
:101B200006000268900000000600000000000600A9
:101B30000000000006000000000006000000000099
:101B40000600000000000600000000000600000083
:101B50000000060000000000060000000000060073
:101B60000000000006000000000006000000000069
:101B70000600000000000600000000000600000053
:101B80000000060000000000060000000000060043
:101B90000000000006000000000006000000000039
:101BA0000600000000000600000000000600000023
:101BB0000000060000000000060000000000060013
:101BC0000000000006000000000006000000000009
:101BD00006000000000006000000000006000000F3
:101BE00000000600000000000600000000000600E3
:101BF00000010707060200800080808080800507C2
:101C0000070600002070A8A0A8702005070706009E
:101C100000304040E04050A80505050600008870EF
:101C2000507088050707060000885020F820F8202B
:101C30000107070602008080800080808005080878
:101C4000060000304820505020906003010106013A
:101C500007A0050707060000F888B8B8B888F80597
:101C60000707060001700878887800F80505050662
:101C700000012850A05028050303060001F80808B9
:101C80000202020602064080050707060000F888E7
:101C9000A88898A8F8050101060006F804040406BF
:101CA0000003609090600507070600002020F820E0
:101CB0002000F804050506000360902040F00305AD
:101CC00005060003E020E020E002020206020640D2
:101CD000800508080600FF8888888898E8808005C5
:101CE000070706000078989878181818020202066C
:101CF0000202C0C00202020602FF40800305050680
:101D0000000340C04040E0050707060001708888D6
:101D1000887000F8050505060001A0502850A005B0
:101D200007070600008890A858B8080805070706A6
:101D300000008890B848982038050808060000C0C0
:101D400040C048D8380808050707060000200020D2
:101D5000408088700508080600004020007088F860
:101D600088880508080600001020007088F8888818
:101D70000508080600002050007088F888880508CB
:101D8000080600006890007088F888880508080632
:101D900000005000708888F8888805080806000050
:101DA0002050207088F888880507070600003860F2
:101DB000A0B8E0A0B80508080600FF7088808088F9
:101DC000702060050808060000402000F880F080C0
:101DD000F8050808060000081000F880F080F805F3
:101DE0000808060000205000F880F080F80507077A
:101DF0000600005000F880F080F803080806010093
:101E0000804000E0404040E0030808060100204018
:101E100000E0404040E003080806010040A000E068
:101E2000404040E0030707060100A000E0404040BA
:101E3000E0050707060000704848E84848700508B4
:101E40000806000068900088C8A898880508080659
:101E50000000402070888888887005080806000007
:101E600010207088888888700508080600002050B7
:101E70000070888888700508080600006890007067
:101E800088888870050808060000500070888888D7
:101E9000887005050506000188502050880508084F
:101EA0000600FF1070A8A8A8A87040050808060042
:101EB000004020888888888870050808060000107F
:101EC000208888888888700508080600002050004F
:101ED000888888887005080806000050008888886F
:101EE00088887005080806000010208850202020EF
:101EF000200509090600FFC040704848704040E0D6
:101F00000408080601FF609090A09090E08005080A
:101F10000806000040200070087888780508080648
:101F20000000102000700878887805080806000076
:101F3000205000700878887805080806000068902E
:101F400000700878887805070706000050007008C0
:101F500078887805080806000020502070087888E6
:101F600078050606060000D02878A0A850050606C9
:101F70000600FF7080887020600508080600004099
:101F800020007088F8807005080806000010200006
:101F90007088F880700508080600002050007088DE
:101FA000F8807005070706000050007088F8807000
:101FB00003080806010080400040C04040E00308DC
:101FC0000806010020400040C04040E00308080629
:101FD000010040A00040C04040E0030707060100A8
:101FE000A00040C04040E0050707060000A040A058
:101FF00010788870050808060000689000B0C8884E
:1020000088880508080600004020007088888870CD
:1020100005080806000010200070888888700508F0
:10202000080600002050007088888870050808069F
:102030000000689000708888887005070706000017
:10204000500070888888700505050600012000F89A
:1020500000200507070600FF1070A8A8A87040051B
:10206000080806000040200088888898680508084D
:102070000600001020008888889868050808060077
:1020800000205000888888986805070706000050DF
:102090000088888898680509090600FF10200088D4
:1020A0008888F808700407070601FFC04060506088
:1020B00040E00508080600FF50008888887808700E
:1020C0007C3C3E5E2B3D3F2F5B5D3B2C2A225C001F
:1020D00053442063617264206F6B0A006F70656EF9
:1020E000526F6F74206661696C65640A00766F6C6C
:1020F000756D652E696E6974206661696C65640A28
:1021000000534420696E6974206661696C0A00613D
:1021100075746F25692E67004D3234004D323320BF
:1021200025730057726974696E6720746F20666941
:102130006C653A20006F70656E206661696C65643D
:102140002C2046696C653A20006F70656E206661D0
:10215000696C65642C2046696C653A200046696CA0
:10216000652073656C65637465640A002053697A41
:10217000653A200046696C65206F70656E65643A4B
:1021800020006F70656E206661696C65642C204666
:10219000696C653A20002066696C653A20004E6FD4
:1021A0007720002220706F73002220706172656EAC
:1021B000743A2200535542524F5554494E452043DC
:1021C000414C4C207461726765743A22004B494C53
:1021D0004C45442E2000747279696E6720746F201C
:1021E00063616C6C207375622D67636F6465206634
:1021F000696C6573207769746820746F6F206D61F6
:102200006E79206C6576656C732E204D4158206C7C
:102210006576656C2069733A004572726F723A0098
:1022200043616E6E6F74206F70656E2073756264AB
:1022300069722000656E7175657565696E6720222B
:10224000006563686F3A00FFE0FFD1AFFF32FFD057
:10225000FFFEFFE0FFD1AEFFD0FFFEFFE0FFD11099
:1022600000FFFEFFD0FFE0FFC1FFD1AED580A83F49
:10227000D300408D142002A1C8DA1281CFD9F1DB3E
:10228000402EA4A6AFFFD0FFFE43617264207265AA
:102290006D6F766564004361726420696E73657268
:1022A0007465640000060900FE06018902FE20FF35
:1022B000FE07FE06FE0000000600070106060602F5
:1022C00000808080800080030303060103A0A0A09B
:1022D0000507070600FF5050F850F850500509094F
:1022E0000600FE2070A8A07028A870200608080626
:1022F00000FF40A84810204854080507070600FFC3
:1023000060909060989068010303060203808080CB
:102310000207070602FF4080808080804002070796
:102320000602FF8040404040408005050506000051
:102330008850F850880505050600002020F8202068
:102340000204040602FEC0404080050101060002AE
:10235000F8020202060200C0C004060606010010D0
:102360001020408080040606060100609090909046
:102370006003060606010040C0404040E004060637
:102380000601006090102040F0040606060100F0EF
:1023900020601010E005060606000010305090F88E
:1023A00010040606060100F080E01010E0040606A6
:1023B0000601006080E0909060040606060100F0CF
:1023C00010102040400406060601006090609090C6
:1023D000600406060601006090907010600205051A
:1023E000060200C0C000C0C00207070602FEC0C04F
:1023F00000C0404080050505060000186080601898
:10240000050303060001F800F8050505060000C0F5
:10241000300830C0040707060100609010604000DB
:10242000400506060600007090A8B08070050606FC
:10243000060000205088F88888050606060000F08F
:1024400088F08888F004060606010060908080907D
:1024500060040606060100E090909090E0040606F5
:10246000060100F080E08080F0040606060100F01E
:1024700080E0808080040606060100609080B090B5
:10248000600406060601009090F090909003060606
:10249000060100E040404040E00506060600003826
:1024A000101010906004060606010090A0C0A090D5
:1024B000900406060601008080808080F0050606F4
:1024C00006000088D8A8A88888040606060100909F
:1024D000D0B0909090050606060000708888888825
:1024E00070040606060100E09090E0808004070773
:1024F0000601FF609090D0B060100406060601004F
:10250000E09090E090900406060601006090402064
:102510009060050606060000F82020202020040612
:102520000606010090909090906004060606010057
:10253000909090F060600506060600008888A8A8C4
:10254000D888050606060000885020205088050619
:102550000606000088885020202004060606010098
:10256000F010204080F0030606060100E080808025
:1025700080E004060606010080804020101003065B
:1025800006060100E020202020E0050303060003EA
:102590002050880501010600FEF80202020602042E
:1025A0008040040404060100709090700406060642
:1025B00001008080E09090E0040404060100708037
:1025C00080700406060601001010709090700404DC
:1025D0000406010060B0C070040606060100205029
:1025E00040E040400406060601FE609090701060D6
:1025F0000406060601008080E0909090030606061F
:1026000001004000C04040E00308080601FE200031
:1026100060202020A0400406060601008080A0C0A3
:10262000A090030606060100C040404040E00504BB
:1026300004060000D0A8A888040404060100E09065
:102640009090040404060100609090600406060661
:1026500001FEE09090E080800406060601FE709086
:1026600090701010040404060100A0D080800404BF
:102670000406010070C030E0040606060100404078
:10268000E04050200404040601009090907004047F
:10269000040601009090606005040406000088A80C
:1026A000A850040404060100906060900406060629
:1026B00001FE909090709060040404060100F020E8
:1026C00040F0030707060100204040804040200101
:1026D00007070602FF80808080808080030707064E
:1026E0000100804040204040800402020601035067
:1026F000A0FFFFFFFFFFFFFFFFFFFFFFFFFFFFFF49
:10270000FFFFFFFFFFFFFFFFFFFFFFFFFFFFFFFFD9
:10271000FFFF000000060007010606060200800019
:10272000808080800406060601FF2070A0A0702033
:102730000507070600FF304840F04040F805050552
:10274000060000A8508850A805060606000088501C
:10275000F820F8200107070602FF808080008080B3
:10276000800407070601FF708060906010E003019D
:1027700001060105A0060707060000788494A494CA
:10278000847803050506010160A06000E0050505E9
:102790000600002850A05028040303060100F01092
:1027A00010040101060102F0060707060000788404
:1027B000B4A4A48478040101060105F0040303060F
:1027C00001026090600507070600FF2020F8202026
:1027D00000F803050506010140A02040E0030505BF
:1027E000060101C0204020C002020206020440800F
:1027F0000405050601FF9090B0D08005060606008E
:102800000078E8E868282801010106020280020237
:10281000020602FE408003050506010140C040405B
:10282000E003050506010140A04000E0050505069E
:102830000000A0502850A00508080600FF40C04036
:1028400050703078100508080600FF40C0405068FE
:102850000810380508080600FFC0204030F0307826
:102860001004070706010020002060809060050723
:1028700007060000402020507088880507070600E2
:10288000001020205070888805070706000020509F
:1028900020507088880507070600002850205070D7
:1028A00088880507070600005000205070888805BA
:1028B000070706000020502050708888050606068D
:1028C000000078A0F0A0A0B80408080601FE6090FF
:1028D0008080906020400407070601004020F080BF
:1028E000E080F00407070601002040F080E080F05F
:1028F0000407070601002050F080E080F00407077D
:102900000601005000F080E080F003070706010098
:102910008040E0404040E00307070601002040E01F
:10292000404040E003070706010040A0E04040406F
:10293000E0030707060100A000E0404040E0050674
:10294000060600007048E8484870040707060100C2
:1029500050A090D0B090900407070601004020607E
:1029600090909060040707060100204060909090CE
:1029700060040707060100205060909090600407F3
:102980000706010050A060909090600407070601C0
:10299000005000609090906005050506000088508A
:1029A0002050880408080601FF1070B0B0D0D0E0B5
:1029B0008004070706010040209090909060040773
:1029C00007060100204090909090600407070601E0
:1029D000002050909090906004070706010050007E
:1029E0009090909060050707060000102088502006
:1029F000202004060606010080E09090E080040696
:102A0000060601006090A0A090A004070706010040
:102A100040200070909070040707060100204000DD
:102A2000709090700407070601002050007090908D
:102A30007004070706010050A00070909070040613
:102A40000606010050007090907004070706010010
:102A50002050207090907005040406000070A8B00B
:102A6000780406060601FE70808070204004070787
:102A700006010040200060B0C07004070706010096
:102A800020400060B0C0700407070601002050001D
:102A900060B0C070040606060100500060B0C0704F
:102AA000030707060100804000C04040E00307071D
:102AB000060100204000C04040E003070706010077
:102AC00040A000C04040E0030606060100A000C090
:102AD0004040E004070706010030601070909060ED
:102AE00004070706010050A000E09090900407073B
:102AF0000601004020006090906004070706010076
:102B000020400060909060040707060100205000FC
:102B10006090906004070706010050A0006090904C
:102B200060040606060100500060909060050505EF
:102B30000600002000F8002004040406010070B024
:102B4000D0E0040707060100402000909090700438
:102B500007070601002040009090907004070706C8
:102B6000010020500090909070040606060100506D
:102B700000909090700409090601FE20400090909A
:102B8000907090600408080601FE8080E09090E05C
:102B900080800408080601FE5000909090709060BC
:102BA0004578747275646572733A20310068747484
:102BB000703A2F2F6D61726C696E66772E6F726737
:102BC000004475706C696361746F72203600323036
:102BD00031362D31322D30362031323A303000311D
:102BE0002E312E302D524338004D61726C696E00CB
:102BF0005072696E74657220537461747300546806
:102C000065726D6973746F727300426F61726420D4
:102C1000496E666F005072696E74657220496E6607
:102C20006F004D61696E0045787472756465206D42
:102C30006F726500526573756D65004348414E477C
:102C400045204F5054494F4E533A006368616E67B8
:102C500065006F66207468652066696C616D656EDD
:102C600074005761697420666F72207374617274A6
:102C7000004348414E47452046494C414D454E543E
:102C80000066696C616D656E7420756E6C6F616451
:102C9000005761697420666F72004348414E474592
:102CA0002046494C414D454E5400746F20636F6E71
:102CB00074696E75652E2E2E00616E6420707265CB
:102CC000737320627574746F6E00496E73657274ED
:102CD0002066696C616D656E74004348414E4745DE
:102CE0002046494C414D454E540066696C616D6506
:102CF0006E74206C6F6164005761697420666F7236
:102D0000004348414E47452046494C414D454E54AD
:102D10000066696C616D656E7420657874727564A7
:102D200065005761697420666F72004348414E47E1
:102D3000452046494C414D454E5400746F20726504
:102D400073756D65005761697420666F72207072CB
:102D5000696E74004348414E47452046494C414DF9
:102D6000454E54005072656865617420504C412096
:102D7000426564005072656865617420504C410082
:102D8000507265706172650050726568656174208B
:102D90004142532042656400507265686561742049
:102DA0004142530050726570617265004C657665F2
:102DB0006C696E6720446F6E6521004D6F766520EB
:102DC0005A00473238004E65787420506F696E742F
:102DD000002569202F20257500436C69636B2074E2
:102DE0006F20426567696E00486F6D696E67205895
:102DF000595A00473238004C6576656C206265642C
:102E00000043616E63656C004D34323800436F6F70
:102E10006C646F776E004368616E67652066696CED
:102E2000616D656E74005072656865617420414221
:102E300053005072656865617420504C41004D38F4
:102E4000340044697361626C6520737465707065E9
:102E50007273004C6576656C20626564005365741E
:102E600020686F6D65206F66667365747300473206
:102E700038205A00486F6D65205A00473238205973
:102E800000486F6D65205900473238205800486F60
:102E90006D65205800473238004175746F20686FA7
:102EA0006D65004D6F76652061786973004731204C
:102EB0005A313730004C6F776572204275696C6407
:102EC00020506C617465004D61696E0045787472C4
:102ED00075646572004D6F7665205A004D6F76659A
:102EE0002059004D6F7665205800507265706172F0
:102EF0006500526573746F7265206661696C7361F9
:102F00006665004C6F6164206D656D6F727900536A
:102F1000746F7265206D656D6F72790043617365C2
:102F2000206272696768746E6573730046696C61CC
:102F30006D656E74004D6F74696F6E0054656D70D1
:102F400065726174757265004D61696E004D333054
:102F5000332055312045256920532569005072657D
:102F6000686561742041425320636F6E6600507241
:102F7000656865617420504C4120636F6E66005037
:102F80004944204175746F74756E65005049442042
:102F90004175746F74756E65005049442D4400503E
:102FA00049442D44005049442D49005049442D497D
:102FB000005049442D50005049442D500020082015
:102FC0004661637400200820466163740020082075
:102FD0004D6178002008204D6178002008204D695F
:102FE0006E002008204D696E004F6666004F6E200F
:102FF000004175746F74656D700046616E2073706A
:103000006565640046616E207370656564004265A5
:103010006400426564004E6F7A7A6C65004E6F7A88
:103020007A6C6500436F6E74726F6C0053746F72CC
:1030300065206D656D6F727900426564004265645C
:10304000004E6F7A7A6C65004E6F7A7A6C65004636
:10305000616E2073706565640046616E20737065F3
:1030600065640054656D70657261747572650020E9
:10307000746F6F206C6F6E672065787472757369FA
:103080006F6E2070726576656E7465640A002063E9
:103090006F6C6420657874727573696F6E207072DE
:1030A0006576656E7465640A0048617264636F6476
:1030B00065642044656661756C7420536574746939
:1030C0006E6773204C6F616465640A0020500020B5
:1030D000204D33353520530043617365204C6967BB
:1030E00068743A0A00204500205A0020204D3930EB
:1030F0003720580053746570706572206D6F746F5F
:10310000722063757272656E74733A0A0020204DE6
:103110003230302044300A0020204D3230302044FC
:10312000002044697361626C65640A0046696C61E1
:103130006D656E742073657474696E67733A0020F0
:10314000440020490020204D3330342050002044DA
:103150000020490020204D33303120500050494498
:103160002073657474696E67733A0A002046002004
:10317000420020480020204D3134352053004D615D
:1031800074657269616C2068656174757020706126
:1031900072616D65746572733A0A00205A00205995
:1031A0000020204732392053332058002059002076
:1031B000580020204D3432302053004D6573682074
:1031C000626564206C6576656C696E673A0A0020FA
:1031D0005A0020590020204D323036205800486FC8
:1031E0006D65206F666673657420286D6D290A0011
:1031F000204500205A00205900205800204200207D
:10320000540020204D323035205300416476616EE9
:10321000636564207661726961626C65733A2053FC
:103220003D4D696E20666565647261746520286D28
:103230006D2F73292C20543D4D696E207472617678
:10324000656C20666565647261746520286D6D2FFC
:1032500073292C20423D6D696E696D756D20736513
:10326000676D656E742074696D6520286D73292CF7
:1032700020583D6D6178696D756D205859206A65DB
:10328000726B20286D6D2F73292C20205A3D6D61A3
:1032900078696D756D205A206A65726B20286D6D96
:1032A0002F73292C2020453D6D6178696D756D2047
:1032B00045206A65726B20286D6D2F73290A0020E6
:1032C000540020520020204D323034205000416301
:1032D00063656C65726174696F6E733A20503D70FE
:1032E00072696E74696E672C20523D7265747261EA
:1032F000637420616E6420543D74726176656C0A5B
:1033000000204500205A0020590020204D32303145
:103310002058004D6178696D756D20416363656C5F
:1033200065726174696F6E20286D6D2F7332293A52
:103330000A00204500205A0020590020204D32303C
:10334000332058004D6178696D756D206665656440
:10335000726174657320286D6D2F73293A0A0020FD
:103360004500205A0020590020204D3932205800B5
:1033700053746570732070657220756E69743A0AB3
:10338000007A5F6D696E3A2000795F6D696E3A2050
:1033900000785F6D696E3A20005265706F727469D3
:1033A0006E6720656E6473746F70207374617475DA
:1033B000730A005374657020447269766520450075
:1033C00053746570204472697665204500537465B6
:1033D00070204472697665205A00537465702044E9
:1033E00072697665205A005374657020447269765C
:1033F00065205859005374657020447269766520C1
:103400005859004573746570732F6D6D0045737462
:103410006570732F6D6D005A73746570732F6D6DC9
:10342000005A73746570732F6D6D005973746570F5
:10343000732F6D6D005973746570732F6D6D005827
:1034400073746570732F6D6D005873746570732F8E
:103450006D6D00412D74726176656C00412D747242
:103460006176656C00412D72657472616374004110
:103470002D7265747261637400416D61782045003E
:10348000416D6178204500416D6178205A00416DA1
:103490006178205A00416D6178205900416D617852
:1034A000205900416D6178205800416D61782058A5
:1034B000005654726176206D696E005654726176C2
:1034C000206D696E00566D696E00566D696E00560E
:1034D0006D6178204500566D6178204500566D611C
:1034E00078205A00566D6178205A00566D61782018
:1034F0005900566D6178205900566D61782058004A
:10350000566D617820580056652D6A65726B0056BD
:10351000652D6A65726B00567A2D6A65726B00566E
:103520007A2D6A65726B0056792D6A65726B00564A
:10353000792D6A65726B0056782D6A65726B00563C
:10354000782D6A65726B00416363656C004163634B
:10355000656C00426564205A00426564205A00434D
:103560006F6E74726F6C0053746F70207072696E3E
:10357000740043616E63656C0041626F7574205026
:1035800072696E746572004E6F20534420636172DD
:1035900064005072696E742066726F6D205344002F
:1035A00053746F70207072696E7400526573756D1C
:1035B00065207072696E7400506175736520707259
:1035C000696E7400436F6E74726F6C004361736553
:1035D000206C69676874206F6E0043617365206CAE
:1035E00069676874206F6666005072657061726505
:1035F00000517569636B204D656E750054756E657D
:10360000004261627973746570205A00496E666F7A
:103610002073637265656E004261627973746570D0
:1036200070696E67205A004D363030004368616E15
:1036300067652066696C616D656E740042616279D0
:1036400073746570205A00466C6F7700466C6F7714
:103650000046616E2073706565640046616E20737C
:10366000706565640042656400426564004E6F7A6F
:103670007A6C65004E6F7A7A6C6500426564205AF8
:1036800000426564205A005370656564005370659C
:103690006564004D61696E0020746F6F206C6F6E01
:1036A0006720657874727573696F6E2070726576C5
:1036B000656E7465640A0020636F6C6420657874BD
:1036C000727573696F6E2070726576656E7465646D
:1036D0000A00206E6F7420656E74657265642E0A30
:1036E000004E6F206D6F76652E00456E6420666912
:1036F0006C65206C6973740A00426567696E2066A8
:10370000696C65206C6973740A006D0046696C61B0
:103710006D656E7420757365643A2000537461742E
:10372000733A20002C204C6F6E67657374206A6FAB
:10373000623A2000546F74616C2074696D653A20A0
:103740000053746174733A20002C204661696C65E3
:10375000643A20002C2046696E69736865643A20DB
:10376000005072696E74733A200053746174733A36
:10377000200048656174696E672E2E2E00447570B6
:103780006C696361746F7220362072656164792E92
:10379000002042403A0020403A00202F0020423AC8
:1037A00000202F0020543A0048656174696E67203C
:1037B000646F6E652E003F0A0020573A004865612D
:1037C00074696E672E2E2E004475706C6963617487
:1037D0006F7220362072656164792E0052657365C0
:1037E0006E643A20006F6B00627573793A207061E5
:1037F0007573656420666F7220696E7075740A0057
:10380000627573793A2070617573656420666F72B2
:1038100020757365720A00627573793A2070726F51
:1038200063657373696E670A004B494C4C45442EBF
:103830002000506C6561736520726573657400507B
:1038400052494E5445522048414C54454400507210
:10385000696E7465722068616C7465642E206B6992
:103860006C6C28292063616C6C6564210A0000007F
:10387000000000000000000000005761726E696ED9
:10388000673A20486F6D696E672042756D702044FD
:10389000697669736F72203C20310A000000A040F5
:1038A0000000A040000000400000484300004843E2
:1038B00000002A43FFFFFF434F4D4D554E49434102
:1038C00054494F4E0044525952554E004552524FA2
:1038D000525300494E464F004543484F00D838D315
:1038E00038CC38C538B7386F66660044454255470E
:1038F0003A004D31343520533C696E6465783E2082
:103900006F7574206F662072616E67652028302D98
:1039100031290A004475706C696361746F722036D6
:10392000204F66662E00205A3A0020593A00204364
:103930006F756E7420583A200020453A00205A3A9C
:103940000020593A00583A0053657474696E672034
:1039500054726176656C20416363656C6572617455
:10396000696F6E3A200053657474696E6720526502
:10397000747261637420416363656C65726174691C
:103980006F6E3A200053657474696E6720507269D7
:103990006E7420416363656C65726174696F6E3A21
:1039A000200053657474696E67205072696E7420CC
:1039B000616E642054726176656C20416363656C4E
:1039C00065726174696F6E3A2000205A00205900B8
:1039D000580020204D61783A2000205A00205900DC
:1039E000580020204D696E3A20004F6E20004F662F
:1039F0006600536F667420656E6473746F70733AFB
:103A0000200046696C2E204469612E0046696C2EA8
:103A1000204469612E004F6666004F6E20004520ED
:103A2000696E206D6D3300436F6E74726F6C00436E
:103A3000617365206272696768746E6573730043B1
:103A4000616E6E6F7420656E74657220737562644A
:103A500069723A2000022E2E004D61696E00004509
:103A60007874727564656420746F74616C3A2000B8
:103A7000256C642E25696D00004C6F6E676573744C
:103A8000206A6F622074696D653A200000546F747B
:103A9000616C207072696E742074696D653A2000E3
:103AA000436F6D706C657465643A20005072696E86
:103AB0007420436F756E743A20004D617820546510
:103AC0006D703A20313230004D696E2054656D7052
:103AD0003A203500544265643A4550434F532031F3
:103AE00030304B004D61782054656D703A2032368D
:103AF00030004D696E2054656D703A2035005430A9
:103B00003A20505431303020556C74694D42005089
:103B1000726F746F636F6C3A20312E3000426175A2
:103B2000643A2032353030303000556C74696D6144
:103B30006B657220322E78004572726F7220777238
:103B40006974696E6720746F20454550524F4D214E
:103B50000A00206279746573290A005365747469D8
:103B60006E67732053746F7265642028004545505A
:103B7000524F4D20636865636B73756D206D69737B
:103B80006D617463680A00206279746573290A00A4
:103B90002073746F7265642073657474696E6773E3
:103BA00020726574726965766564202800000000E3
:103BB00000300E0100C00E0A00500F1400D00F1E7E
:103BC0000060102800E010320070113C00F0114637
:103BD000007012500000135A008013640000146E2D
:103BE00000901478001015820090158C0010169625
:103BF000009016A0001017AA009017B4001018BE6D
:103C0000009018C8001019D2009019DC00101AE6B4
:103C100000801AF000001BFA00801B0401F01B0E4C
:103C200001701C1801F01C2201601D2C01E01D36E2
:103C300001501E4001D01E4A01401F5401B01F5EBA
:103C40000130206801A020720110217C01902186A2
:103C500001002290016026F401902A5802802EBCB7
:103C60000250322003E03584035039E803803C4C95
:103C70000470012C0190012701B0012201C0011D37
:103C800001F00118011002130130020E0160020957
:103C90000190020401C002FF000003FA004003F596
:103CA000008003F000D003EB002004E6007004E184
:103CB00000E004DC004005D700C005D2004006CD7E
:103CC00000D006C8008007C3003008BE00F008B965
:103CD00000C009B400B00AAF00B00BAA00D00CA518
:103CE00000000EA000500F9B00C0109600501291D3
:103CF0000000148C00C0158700B0178200B0197D39
:103D000000D01B7800001E730040206E00902269D6
:103D100000F024640040275F0090295A00E02B55F2
:103D200000102E500020304B0010324600E033418E
:103D30000090353C001037370070383200A0392D24
:103D400000B03A2800A03B2300603C1E00103D1943
:103D500000903D1400103E0F00703E0A00C03E056A
:103D600000003F0000544845524D414C2052554EF2
:103D70004157415900546865726D616C2052756EEF
:103D800061776179004572723A204D415854454D32
:103D90005020424544004572723A204D41585445E6
:103DA0004D50004D415854454D502074726967671D
:103DB00065726564004572723A204D494E54454D16
:103DC0005020424544004572723A204D494E5445B8
:103DD0004D50004D494E54454D50207472696767EF
:103DE00065726564001FFFFFFFFFFFFF60000000BA
:103DF0000001FF400000000000FF80000000000004
:103E00007F83CF00000C303F87FF80000C301F867F
:103E10007980000C000F8C30C7838C30E78C30CF5A
:103E2000C7CC31F38C30DCECEC33B98C30D86C6C13
:103E300033198C30D06C0C33198C30D86C0C33198E
:103E40008C30DC6C0E3B198C30CF7C079F198C308A
:103E5000C77C038F194000000000000260000000D2
:103E60000000061FFFFFFFFFFFF8436F6F6C646FDA
:103E7000776E004368616E67652066696C616D6589
:103E80006E74005072656865617420414253005041
:103E900072656865617420504C41004739310A47AA
:103EA00031205A32350A473930004C6F776572201D
:103EB0004275696C6420506C6174652032356D6D9B
:103EC000004C6576656C20626564004732380041BD
:103ED00075746F20686F6D65004D61696E004D6F80
:103EE00076652058004D6F76652059004D6F7665D8
:103EF000205A004578747275646572004D6F76655E
:103F000020302E316D6D004D6F766520316D6D0066
:103F10004D6F76652031306D6D004D6F7665206197
:103F2000786973004578747275646572004D6F76B8
:103F300065205A004D6F76652059004D6F766520DB
:103F400058004E414E494E495459494E46CDCCCC6D
:103F50003D0AD7233C17B7D13877CC2B329595E65D
:103F6000241FB14F0A000020410000C84200401C3D
:103F70004620BCBE4CCA1B0E5AAEC59D740077FAD3
:103F800056FA11241FBECFEFD1E2DEBFCDBF00E055
:103F90000CBF14E0A0E0B2E0E4E1F2E102E00BBF0C
:103FA00002C007900D92A838B107D9F725E1A8E81B
:103FB000B4E001C01D92A835B207E1F71FE1C0ECE3
:103FC000DFE100E006C021970109802FFE010E9479
:103FD000EFFCCF3BD10780E00807A9F70E94B0F2C1
:103FE0000D94F8080C9400002F923F924F925F922C
:103FF0006F927F928F929F92AF92BF92CF92DF92F9
:10400000EF92FF920F931F93CF93DF93CDB7DEB75D
:10401000CD58D1090FB6F894DEBF0FBECDBF0091C9
:10402000E30620E6029F800111240D591A4F1093D8
:104030009D0400939C048091040F80FF18C0E1E46C
:10404000F2E284917F013FEFE31AF30A882321F023
:104050000E944E47F701F5CFD8018D918D0188233D
:1040600019F00E944E47F8CF8AE00E944E472091F7
:104070009C0430919D04F90180812F5F3F4F803275
:10408000D1F3F0939D04E0939C048E3469F0109179
:104090009C0400919D046AE270E0812F902F0F94A0
:1040A0003F000097D1F420C0818190ED980F9A30A5
:1040B00010F08D3261F73296DF0131962C9120534A
:1040C0002A30D0F3CD01FC01019620812032D9F3B2
:1040D000F0939D04E0939C04DACFFC013196829129
:1040E000803231F08A3221F0A12FB02F9D9102C091
:1040F0001082F5CFFD01808111968032D9F3805373
:104100008A3020F0E1E4F2E20C946B3D20E030E0F4
:104110006AE0629FA001639F500D11249A01205311
:1041200031098191280F311D87FD3A958081805397
:104130008A3078F38F013196D8018C918032D1F397
:10414000109395040093940441E050E050930610BE
:10415000409305109D3411F40C94D42B943511F434
:104160000C94343D973411F00C944D3D24303105BE
:1041700009F4E3C538F42230310508F50E9420C661
:104180000C94623D2A35310511F40C94482B58F4F7
:104190002C31310509F410C62D31310511F40C9480
:1041A0000C290C94623D2B35310511F40C944C2BE9
:1041B0002C35310511F40C94512B0C94623D8091F7
:1041C0002002882311F40C94623D11E02230310565
:1041D00009F010E00E947CC582E50E94CE4388234E
:1041E00009F45CC10E946B446B017C014090321564
:1041F0005090331560903415709035152091361518
:1042000030913715409138155091391521962CAFC2
:104210003DAF4EAF5FAF219780910F10909110107E
:10422000A0911110B091121025968CAF9DAFAEAF3A
:10423000BFAF2597209113103091141040911510A5
:10424000509116102D962CAF3DAF4EAF5FAF2D970E
:1042500020E030E0A901C701B6010F94B104882322
:1042600009F451C5A301920125966CAD7DAD8EADCB
:104270009FAD25970F94B104811111C021962CADEB
:104280003DAD4EAD5FAD21972D966CAD7DAD8EAD44
:104290009FAD2D970F94B104882309F434C520E015
:1042A00030E0A901C701B6010F94B104881F882727
:1042B000881F18130BC080E090E0A0E8BFE3699668
:1042C0008CAF9DAFAEAFBFAF69970AC020E030E0C2
:1042D00040E85FEB69962CAF3DAF4EAF5FAF69979B
:1042E000A301920125966CAD7DAD8EAD9FAD259756
:1042F0000E9412FD61966CAF7DAF8EAF9FAF61974C
:1043000021962CAD3DAD4EAD5FAD21972D966CAD98
:104310007DAD8EAD9FAD2D970E9412FD65966CAF61
:104320007DAF8EAF9FAF659761962CAD3DAD4EAD25
:104330005FAD6197CA01B9010F9416054B015C018D
:1043400065962CAD3DAD4EAD5FAD6597CA01B90127
:104350000F9416059B01AC01C501B4010E9413FD29
:104360000E94A4FF29966CAF7DAF8EAF9FAF2997B7
:1043700020E030E040E05FE30F9416054B015C0164
:10438000A7019601C701B6010F9416056B017C01C8
:10439000A5019401C501B4010F9416059B01AC0160
:1043A000C701B6010E9412FD0E94A4FF9B01AC014F
:1043B00069966CAD7DAD8EAD9FAD69970F94160576
:1043C0004B015C0125962CAD3DAD4EAD5FAD259703
:1043D000C301B2010E9413FD20E030E040E05FE342
:1043E0000F9416056B017C0165966CAD7DAD8EADAD
:1043F0009FAD6597905829962CAD3DAD4EAD5FAD04
:1044000029970E94FFFD9B01AC01C501B4010F94E7
:1044100016059B01AC01C701B6010E9413FDA30163
:1044200092010E9412FD6B017C012D962CAD3DADD9
:104430004EAD5FAD2D9721966CAD7DAD8EAD9FAD30
:1044400021970E9413FD20E030E040E05FE30F94ED
:1044500016052B013C0129962CAD3DAD4EAD5FAD4F
:10446000299761966CAD7DAD8EAD9FAD61970E9431
:10447000FFFD9B01AC01C501B4010F9416059B0122
:10448000AC01C301B2010E9413FD21962CAD3DADDC
:104490004EAD5FAD21970E9412FD14C089E40E94C9
:1044A000CE43882329F00E946B446B017C0103C03A
:1044B000C12CD12C76018AE40E94CE438823F9F0E6
:1044C0000E946B4421966CAF7DAF8EAF9FAF21975A
:1044D00020E030E0A901C701B6010F94B1048111B9
:1044E0001EC020E030E0A90121966CAD7DAD8EADFF
:1044F0009FAD21970F94B104811111C004C420E035
:1045000030E0A901C701B6010F94B104882309F472
:10451000FAC321961CAE1DAE1EAE1FAE2197A70199
:104520009601C701B6010F9416054B015C01219657
:104530002CAD3DAD4EAD5FAD2197CA01B9010F94D1
:1045400016059B01AC01C501B4010E9413FD0E9438
:10455000A4FFE1966CAF7DAF8EAF9FAFE1978091E6
:10456000321590913315A0913415B09135152996D7
:104570008CAF9DAFAEAFBFAF2997A7019601BC012D
:10458000CD010E9413FD69966CAF7DAF8EAF9FAFDA
:104590006997209136153091371540913815509113
:1045A000391561962CAF3DAF4EAF5FAF6197219645
:1045B0002CAD3DAD4EAD5FAD219761966CAD7DAD3F
:1045C0008EAD9FAD61970E9413FD6D966CAF7DAF70
:1045D0008EAF9FAF6D9780913A1590913B15A0914A
:1045E0003C15B0913D15A1968CAF9DAFAEAFBFAF5E
:1045F000A1979C01AD0160911710709118108091E6
:10460000191090911A100E9412FD65966CAF7DAF43
:104610008EAF9FAF659720911B1030911C10409179
:104620001D1050911E10E5962CAF3DAF4EAF5FAF01
:10463000E59780913E1590913F15A0914015B0915E
:104640004115A5968CAF9DAFAEAFBFAFA597A701A3
:104650009601505825962CAF3DAF4EAF5FAF2597D2
:1046600021968CAD9DADAEADBFAD2197B0582D96C6
:104670008CAF9DAFAEAFBFAF2D9720910F10309193
:1046800010104091111050911210A9962CAF3DAF0F
:104690004EAF5FAFA99769962CAD3DAD4EAD5FAD06
:1046A0006997A9966CAD7DAD8EAD9FADA9970E941F
:1046B00012FD6B017C018091131090911410A09158
:1046C0001510B0911610AD968CAF9DAFAEAFBFAFC9
:1046D000AD976D962CAD3DAD4EAD5FAD6D97BC0108
:1046E000CD010E9412FD4B015C01A70196012596A8
:1046F0006CAD7DAD8EAD9FAD25970F9416052B014A
:104700003C01A50194012D966CAD7DAD8EAD9FADA4
:104710002D970F9416059B01AC01C301B2010E94B5
:1047200013FD2B013C01A501940125966CAD7DADD7
:104730008EAD9FAD25970F9416054B015C01A70127
:1047400096012D966CAD7DAD8EAD9FAD2D970F94DE
:1047500016059B01AC01C501B4010E9412FDA30125
:1047600092010E9491FD6B017C0120E030E0A901E3
:104770000F94B10487FF0AC02BED3FE049EC50E4F1
:10478000C701B6010E9413FD6B017C01112351F09A
:104790002BED3FE049EC50E4C701B6010E9412FD49
:1047A0006B017C0120E030E0A901C701B6010F9444
:1047B000B10481112AC0A9962CAD3DAD4EAD5FADBF
:1047C000A99729966CAD7DAD8EAD9FAD29970F94BD
:1047D000B10481111AC0AD962CAD3DAD4EAD5FADAB
:1047E000AD9761966CAD7DAD8EAD9FAD61970F9429
:1047F000B10481110AC02BED3FE049EC50E4C70140
:10480000B6010E9413FD6B017C01E1962CAD3DAD1C
:104810004EAD5FADE197C701B6010F9416059B0140
:10482000AC010F9416054B015C0165962CAD3DADB6
:104830004EAD5FAD6597CA01B9010F9416059B0196
:10484000AC01C501B4010E9413FD0E94A4FF4B01FD
:104850005C012FE632E143E85AE30F94B10487FD8F
:104860004EC2C501B4010E94A5FE0E9476FE2F969D
:104870007FAF6EAF2F97DB01AB2B31F4E1E0F0E0BF
:104880002F96FFAFEEAF2F972F962EAD3FAD2F9700
:10489000B90180E090E00F94B5044B015C019B01ED
:1048A000AC01C701B6010E94FFFD29966CAF7DAF38
:1048B0008EAF9FAF2997A501940165966CAD7DAD34
:1048C0008EAD9FAD65970E94FFFDA9966CAF7DAF41
:1048D0008EAF9FAFA997A5962CAD3DAD4EAD5FAD08
:1048E000A597E5966CAD7DAD8EAD9FADE5970E9429
:1048F00012FDA50194010E94FFFDAD966CAF7DAF46
:104900008EAF9FAFAD9729962CAD3DAD4EAD5FAD4F
:104910002997CA01B9010F94160520E030E040E064
:104920005FE30F9416059B01AC0160E070E080E846
:104930009FE30E9412FD65966CAF7DAF8EAF9FAF77
:104940006597A1968CAD9DADAEADBFADA1978987A2
:104950009A87AB87BC87A5962CAD3DAD4EAD5FADBC
:10496000A5972D873E874F87588B6091A002709145
:10497000A102072E000C880B990B0F94B70420910D
:1049800000023091010240910202509103020F9403
:1049900016052AE037ED43E25CE30F941605A19675
:1049A0006CAF7DAF8EAF9FAFA1970E9475759B01D5
:1049B000AC0128533F4F4F4F5F4FA5962CAF3DAFF3
:1049C0004EAF5FAFA59722964FAC229723965FAC70
:1049D000239724966FAC249725967FAC25972224A5
:1049E0002394312CD12C2F968EAD9FAD2F97281666
:1049F000390609F446C10E945E4E0E947575DC01BD
:104A0000CB01A5962CAD3DAD4EAD5FADA597821BFC
:104A1000930BA40BB50BB7FD11C00E9475759B01DC
:104A2000AC0128533F4F4F4F5F4FA5962CAF3DAF82
:104A30004EAF5FAFA59780E00E9490C9D39438E154
:104A40003D150CF44BC065962CAD3DAD4EAD5FAD44
:104A500065972D966CAD7DAD8EAD9FAD2D970F9466
:104A600016054B015C0129962CAD3DAD4EAD5FADF9
:104A70002997B201C3010F941605A50194010E9464
:104A800013FD7B018C0165962CAD3DAD4EAD5FAD48
:104A90006597B201C3010F9416054B015C0129967D
:104AA0002CAD3DAD4EAD5FAD29972D966CAD7DAD76
:104AB0008EAD9FAD2D970F9416059B01AC01C501DE
:104AC000B4010E9412FD2B013C01C701D8012D96B3
:104AD0008CAF9DAFAEAFBFAF2D975AC0B10180E094
:104AE00090E00F94B50429962CAD3DAD4EAD5FAD71
:104AF00029970F9416054B015C010E94FCFD6B0188
:104B00007C01C501B4010E9499FF4B015C01A70122
:104B1000960125966CAD7DAD8EAD9FAD25970F941A
:104B200016052B013C01A501940121966CAD7DADCC
:104B30008EAD9FAD21970F9416059B01AC01C3016B
:104B4000B2010E9413FD2B013C01A50194012596A1
:104B50006CAD7DAD8EAD9FAD25970F9416054B01C5
:104B60005C01A701960121966CAD7DAD8EAD9FAD28
:104B700021970F9416059B01AC01C501B4010E9459
:104B800012FD2D966CAF7DAF8EAF9FAF2D97D12CC0
:104B90009201A30169966CAD7DAD8EAD9FAD699715
:104BA0000E9413FD69837A838B839C832D962CADA1
:104BB0003DAD4EAD5FAD2D976D966CAD7DAD8EADBF
:104BC0009FAD6D970E9413FD6D837E838F839887C1
:104BD000A9962CAD3DAD4EAD5FADA99769857A859F
:104BE0008B859C850E9413FD69877A878B879C87BC
:104BF000AD962CAD3DAD4EAD5FADAD976D857E856F
:104C00008F8598890E9413FD6D877E878F87988B8B
:104C1000CE0101960E9450CFC0901F1589819A81C4
:104C2000AB81BC8188A399A3AAA3BBA38D819E81DC
:104C3000AF81B8858CA39DA3AEA3BFA389859A85B8
:104C4000AB85BC8588A799A7AAA7BBA7CE018096EC
:104C50000E943B47A196ECACFDAC0EAD1FADA197F9
:104C60009E01235F3F4FAE01485D5F4FBE016C5D0B
:104C70007F4FCE0180960E94C29C4FEF241A340AC7
:104C8000B2CEC0901F1580910F1090911010A0917E
:104C90001110B091121088A399A3AAA3BBA380916D
:104CA000131090911410A0911510B09116108CA3B0
:104CB0009DA3AEA3BFA38091171090911810A0914F
:104CC0001910B0911A1088A799A7AAA7BBA7CE015F
:104CD00080960E943B47A196ECACFDAC0EAD1FAD9B
:104CE000A1972BE130E1AE01485D5F4FBE016C5DE5
:104CF0007F4FCE0180960E94C29C0E9412430E9468
:104D000043470C94623DE9E1F2E284918F010F5F29
:104D10001F4F882321F00E944E47F801F6CFE2EAA8
:104D2000F1E084918F010F5F1F4F882311F40C94E1
:104D3000623D0E944E47F801F4CF80E50E94CE43C9
:104D4000882329F00E9460446B017C0103C0C12CC0
:104D5000D12C760183E50E94CE43882321F00E9466
:104D600094446B017C010E9473520E9443478091DE
:104D7000071090910810A0910910B0910A10C80E68
:104D8000D91EEA1EFB1E80912D02811105C060E034
:104D900088EB91E00E94307F0E947575DC01CB01A9
:104DA0008C199D09AE09BF09B7FD02C00C94623D84
:104DB00080E00E9490C9F0CF0E9473528091CF1082
:104DC00081FF2AC09091C60E9923A1F09091C70E41
:104DD000992381F09091C80E992361F080E00E94A0
:104DE00062F280903A1590903B15A0903C15B090DF
:104DF0003D1518C08D7F8093CF1080E090E0A0E833
:104E0000B0E480933A1590933B15A0933C15B09372
:104E10003D154C015D0106C0812C912CA0E8AA2E05
:104E2000A0E4BA2E8091000290910102A0910202AA
:104E3000B09103028093980490939904A0939A04EC
:104E4000B0939B048091A0029091A102909397044B
:104E50008093960484E690E09093A1028093A00250
:104E60000E944347FF24F394F0921A0288E50E94BF
:104E7000CE43082F89E50E94CE43182F8AE50E9471
:104E8000CE43382E011104C0111104C0F82605C00C
:104E9000111102C0F12C01C0F82EF092040280E141
:104EA000E2E3F5E1AFE0B0E101900D928A95E1F720
:104EB000F11005C0011103C0112309F431C120E034
:104EC00030E0A90160913E0570913F058091400559
:104ED000909141050E9413FD2091F80E3091F90E3A
:104EE0004091FA0E5091FB0E0E9413FD6093171033
:104EF000709318108093191090931A10F11006C037
:104F0000002309F40DC1112309F40AC110923615CA
:104F100010923715109238151092391510923215DB
:104F20001092331510923415109235150E941445C5
:104F3000E4EBF8E394912E969FAF2E9788EA98E3DE
:104F40000E94F8452B013C018CEA98E30E94F84549
:104F50006B017C019B01AC01C301B2010E945BFFAC
:104F600018162CF4A3019201C701B60104C0A701D1
:104F70009601C301B2010E94FFFD9B01AC010F9499
:104F8000160520E030E040E85FE30E9413FD0E9438
:104F9000A4FF20E030E048E452E40F9416056DAF22
:104FA00022967FAF22972A968FAF2A97292EE5EB7C
:104FB000F8E3A4912696AFAF269720E030E040ECCE
:104FC0005FE3C701B6010F94160565966CAF7DAF20
:104FD0008EAF9FAF65972696BFAD26976B2FBB0F01
:104FE000770B880B990B0F94B7049B01AC01659666
:104FF0006CAD7DAD8EAD9FAD65970F94160529966E
:105000006CAF7DAF8EAF9FAF299720E030E040ECD2
:105010005FE3C301B2010F9416052B013C012E96EC
:10502000EFAD2E976E2FEE0F770B880B990B0F9429
:10503000B7049B01AC01C301B2010F9416052B010B
:105040003C012091000230910102409102025091F6
:10505000030261962CAF3DAF4EAF5FAF619720E08A
:1050600030E0A9016DAD22967FAD22972A968FADD3
:105070002A97922D0F94B104882349F0EDAC229623
:10508000FFAC22972A963FAD2A97222D04C0E12C2F
:10509000F12C36E123E4C701A32FB22F8093000245
:1050A00090930102A0930202B09303024092321542
:1050B00050923315609234157092351529968CAD47
:1050C0009DADAEADBFAD2997809336159093371542
:1050D000A0933815B09339150E9477430E947352FC
:1050E00061962CAD3DAD4EAD5FAD61972093000252
:1050F0003093010240930202509303021092620522
:1051000010923615109237151092381510923915E5
:1051100010923215109233151092341510923515E5
:1051200080910402811102C0002321F080E090E010
:105130000E940BC880910402811102C0112321F04A
:1051400081E090E00E940BC880910402811102C0AE
:10515000332021F082E090E00E940BC80E941445A9
:1051600080911E0F80931A028091CF1080FF36C06D
:105170008091040281110AC08091C60E882371F1CA
:105180008091C70E882351F1332069F080E090E0D0
:10519000A0E8B0E480933A1590933B15A0933C159A
:1051A000B0933D1510C08091C80E8823B9F001114D
:1051B00002C0112399F080923A1590923B15A0926B
:1051C0003C15B0923D150E9414458091CF1082602D
:1051D0008093CF1082E395E10E9461A980919804A9
:1051E00090919904A0919A04B0919B04809300023D
:1051F00090930102A0930202B0930302809196045F
:10520000909197049093A1028093A0020E9443473B
:105210000E94DBD20C94623D83E50E94CE4388233A
:10522000A1F00E94E14390E08630910580F0E6EA2B
:10523000F2E084918F010F5F1F4F882311F40C94CB
:10524000623D0E944E47F801F4CF80E090E0833049
:10525000910509F47BC144F48130910509F492C0B1
:10526000029709F498C007C08430910509F4D3C1AE
:10527000059709F4E0C18091CF1080FF76C081FDD1
:1052800003C06DEA73E002C069EA73E08FE792E061
:105290000E945547E0E7F2E084918F010F5F1F4FB6
:1052A000882321F00E944E47F801F6CFECE5F2E0AA
:1052B00084918F010F5F1F4F882321F00E944E477A
:1052C000F801F6CFE1E5F2E084918F010F5F1F4F07
:1052D000882321F00E944E47F801F6CF6091D0104C
:1052E0007091D1108091D2109091D31045E00E941E
:1052F0004A4BEEE3F2E084918F010F5F1F4F811163
:1053000007C0EFECAE2EE0E1BE2EF3E0FF2E1FC093
:105310000E944E47F801EFCFF501EC0DFD1D6581B0
:1053200076818781908545E00E944A4B34E0C30E28
:10533000D11C4CE0C416D10461F48AE00E944E47AF
:10534000FA945CE0A50EB11CFF2009F49DC1C12CAC
:10535000D12CEBE3F2E084918F010F5F1F4F882384
:10536000D9F20E944E47F801F6CFE7E8F2E08491C7
:105370008F010F5F1F4F882309F486C10E944E479B
:10538000F801F5CF0E9404F1109206021092050276
:1053900080E392E0D4C0809105029091060297FFCD
:1053A0000EC0E7E0F2E084918F010F5F1F4F88236A
:1053B00011F40C94623D0E944E47F801F4CF00971F
:1053C00079F480E090E0A0E8B0E480933A159093FF
:1053D0003B15A0933C15B0933D150E94144528C081
:1053E000815063E00E949EFC292F80FF03C092E061
:1053F000921B292F082E000C990BFC01EE0FFF1FAA
:10540000E80FF91FE20FF11D27FDFA95EE0FFF1FC0
:10541000EE0FFF1FE153FF4E80913A1590913B151F
:10542000A0913C15B0913D1585839683A783B087E5
:105430008091050290910602893091050CF056C0CA
:1054400063E00E949EFC192F80FF03C092E0911B35
:10545000192F9AE58902B0011124665F7F4F072E4C
:10546000000C880B990B0F94B7049B01AC01AAE5C3
:105470001A02C00111240A96BC01990F880B990BDE
:10548000C657DF4F2883CA58D040C557DF4F3883EF
:10549000CB58D040C457DF4F4883CC58D040C35777
:1054A000DF4F5883CD58D0400F94B704C657DF4F15
:1054B0002881CA58D040C557DF4F3881CB58D040DB
:1054C000C457DF4F4881CC58D040C357DF4F588175
:1054D000CD58D0400E94B6C480910502909106023A
:1054E00001969093060280930502CEC080E090E082
:1054F000A0E1B1E480933A1590933B15A0933C153D
:10550000B0933D150E9477430E947352E3EFF1E0A0
:1055100084918F010F5F1F4F882321F00E944E4717
:10552000F801F6CF8FEF9FEF90930602809305026C
:105530008091CF1081608093CF108FEE91E0909397
:105540007F0E80937E0E0E94B9449EC088E50E9423
:10555000CE438823A1F00E9448440FEF080F033088
:10556000A8F0E8EDF1E084918F010F5F1F4F8823D1
:1055700011F40C94623D0E944E47F801F4CF88E587
:105580000E944E470E9446FA0C94623D89E50E94B3
:10559000CE438823A1F00E9448441FEF180F133018
:1055A000A8F0E1ECF1E084918F010F5F1F4F882399
:1055B00011F40C94623D0E944E47F801F4CF89E546
:1055C0000E944E470E9446FA0C94623D8AE50E9472
:1055D000CE438823C9F00E946B44212F110F330B57
:1055E000F901EE0FFF1FE20FF31FE00FF11D07FDA2
:1055F000FA95EE0FFF1FEE0FFF1FE153FF4E65837D
:1056000076838783908740C08AE50E944E470E9438
:1056100046FA0C94623D8AE50E94CE438823A1F3AA
:105620000E946B446093D0107093D1108093D2107D
:105630009093D31029C08091CF1081FF23C020E028
:1056400030E040E850E460913A1570913B1580914C
:105650003C1590913D150E9412FD60933A15709390
:105660003B1580933C1590933D154AE355E166E365
:1056700075E182E395E10E9449AA0E9404F10E942B
:10568000144502C00E9404F10E94DBD20C94623DDA
:10569000109293040C94623D81E0809393040C94E7
:1056A000633D85E40E94CE43982E811102C00E9482
:1056B000735285E2A82E83E0B82E92E3C92E95E1BD
:1056C000D92E20EFE22E2EE0F22E00E010E0812C09
:1056D000F50181915F010E94CE43882309F44CC0FB
:1056E000D6012D913D914D915C91C657DF4F288396
:1056F000CA58D040C557DF4F3883CB58D040C45725
:10570000DF4F4883CC58D040C357DF4F5883CD5824
:10571000D0400E946B44F60160837183828393833F
:10572000C657DF4F2881CA58D040C557DF4F388150
:10573000CB58D040C457DF4F4881CC58D040C357D6
:10574000DF4F5881CD58D04003301105A9F00E9499
:1057500012FD9B01AC01D7016D917D918D919C91C2
:105760000E9413FDF7016083718382839383C801D4
:105770000E94FE45882483940F5F1F4FF4E0CF0EF4
:10578000D11C24E0E20EF11C0430110509F0A0CF79
:10579000882019F00E94144503C091100E94C6F0A1
:1057A0000E94DBD20C94623D2237310509F4BCC65D
:1057B00008F0BAC02C34310509F459C408F060C0AF
:1057C0002831310509F431C268F52231310509F477
:1057D00094C668F42230310508F4A1C121313105A5
:1057E00011F00C94623D0E94ACC40C94623D2531D2
:1057F000310509F410C248F42431310511F00C943C
:10580000623D0E9453C40C94623D2631310509F477
:1058100006C22731310511F00C94623D0E944BC441
:105820000C94623D2E31310509F44EC2B0F42A3198
:10583000310509F409C208F403C22B31310509F41A
:1058400007C22C31310511F00C94623D40E060E05C
:10585000C8010E94136E0C94623D2032310509F498
:1058600040C308F48EC32A32310509F4B8C32B347F
:10587000310511F00C94623D0E9413F10C94623DCD
:105880002836310509F415C438F52235310509F4F7
:105890002BC678F42E34310509F407C408F401C48A
:1058A0002135310511F00C94623D0E94DAD40C943C
:1058B000623D2435310509F420C608F419C62535A2
:1058C000310509F41EC62C35310511F00C94623DEA
:1058D0000E94F2D30C94623D2D36310509F46EC45A
:1058E00098F42A36310509F4F7C508F44AC42B3672
:1058F000310509F4F5C52C36310511F00C94623DE3
:10590000109298020C94623D2F36310509F4E8C3D9
:1059100008F4D3C32037310509F4E6C32137310534
:1059200009F4EAC30C94623D2C3241E0340709F4D7
:1059300051C608F075C0283C310509F41AC678F53F
:105940002837310509F40AC680F42537310509F4F2
:10595000FBC52737310509F4FDC52337310511F0A3
:105960000C94623DEBE9F3E0E3C52C38310509F412
:10597000EFC358F42937310511F00C94623D1092B1
:105980001A0210921E0F0C94623D2139310509F460
:10599000ECC52E3B310509F415C40C94623D2E3C38
:1059A000310509F40BC608F52B3C310509F4FEC599
:1059B00078F4293C310511F00C94623DA7E2EA2EFF
:1059C000AFE0FA2E05E213E0B4E0DB2ED00ED5C531
:1059D0002C3C310509F4EEC52D3C310511F00C9439
:1059E000623D0E9499D10C94623D2C3D310509F431
:1059F000E9C548F4233D310511F00C94623D0E9445
:105A000003D10C94623D2D3D310509F4DFC5223EE2
:105A1000310511F00C94623D0E9483D00C94623DDC
:105A2000253A61E0360711F40C945C3840F52033D8
:105A300091E0390709F499C640F42E32B1E03B07F2
:105A400009F411C708F4EDC582C72039F1E03F071A
:105A500011F40C94FD3738F42336314011F40C94D2
:105A6000EC3C0C94623D2A3961E0360709F440C3EE
:105A7000243A314011F40C9400380C94623D273FD5
:105A800091E0390711F40C94563A68F5243FB1E0DF
:105A90003B0711F40C94503AB8F42C3A314011F011
:105AA0000C94623D32E3232E35E1332E26E335E0BC
:105AB0003EAF2DAF46EC5EE023965FAF4EAF23972F
:105AC00000E010E00C945539253F41E0340711F413
:105AD0000C94533A263F314011F00C94623D0E94E1
