:100000000C9445200C9476200C9476200C94762049
:100010000C9476200C9476200C9476200C94762008
:100020000C9476200C9476200C9476200C947620F8
:100030000C9476200C94438E0C9476200C947620AD
:100040000C9476200C94B29D0C9476200C9476201F
:100050000C9476200C9476200C9439AF0C94CEDF5F
:100060000C9476200C94B6470C9476200C94762051
:100070000C9476200C9476200C9476200C947620A8
:100080000C9476200C9476200C9476200C94762098
:100090000C9476200C9476200C9476200C94762088
:1000A0000C9476200C9476200C9476200C94762078
:1000B0000C9476200C9476200C9476200C94762068
:1000C0000C9476200C9476200C9476200C94762058
:1000D0000C9476200C9476200C9476200C94762048
:1000E0000C9476208EAF9EAFBDAFCDAFE8AFEDAF35
:1000F000F0AFF5AFF8AFFDAF00B005B00FB0CCCBAF
:10010000D5CBDCCBE2CBE8CBEECBF8CBFECB1DDE08
:1001100020DE0FDE13DE19DE57DE24DE28DE2EDEC3
:1001200032DE36DE3CDE40DE44DE57DE4ADE4EDEC8
:1001300052DEEADEEFDEF4DEFEDE08DF81DF12DF14
:100140001ADF22DF2CDF36DF40DF4FDF59DF81DFB0
:1001500063DF6DDF77DF084AD73B3BCE016E84BC9F
:10016000BFFDC12F3D6C74319ABD56833DDA3D0011
:10017000C77F11BED9E4BB4C3E916BAAAABE00005A
:1001800000803F05A84CCDB2D44EB93836A9020C38
:1001900050B9918688083CA6AAAA2ABE0000008011
:1001A0003F000D947C06434F4D4D554E49434154FD
:1001B000494F4E0044525952554E004552524F52EB
:1001C0005300494E464F004543484F0020746F6F1F
:1001D000206C6F6E6720657874727573696F6E201E
:1001E00070726576656E7465640A0020636F6C6476
:1001F00020657874727573696F6E207072657665AC
:100200006E7465640A00536C6565702E2E2E005A5C
:100210002070726F6265206F75742E206265640AAB
:10022000005A2070726F6265206F75742E206265AF
:100230006400473238205A20466F726269646465F0
:100240006E0A00473238205A20466F726269646431
:10025000656E00203D3D3D3D00202020200042698C
:100260006C696E656172204C6576656C696E67209D
:10027000477269643A0A200028422961636B0028AA
:100280004629726F6E7400285229696768740028C5
:100290004C296566740052756E6E696E6720696ED2
:1002A000204452592D52554E206D6F64650A004707
:1002B0003239204175746F20426564204C65766543
:1002C0006C696E670A003F2856296572626F736514
:1002D000204C6576656C20697320696D706C617562
:1002E0007369626C652028302D34292E0A00205A4B
:1002F0003A200020593A200042656420583A2000F4
:100300004475706C696361746F7220362072656128
:1003100064792E00526573756D696E67207072691D
:100320006E74005761697420666F72207573657210
:100330002E2E2E00456E642066696C65206C6973F4
:10034000740A00426567696E2066696C65206C6995
:1003500073740A005344207072696E74696E67206A
:100360006279746520004E6F742053442070726966
:100370006E74696E670A005072696E742074696DDC
:10038000653A200050726F7465637465642050692B
:100390006E0A006D0046696C616D656E7420757340
:1003A00065643A200053746174733A20002C204C29
:1003B0006F6E67657374206A6F623A2000546F74C1
:1003C000616C2074696D653A200053746174733AEE
:1003D00020002C204661696C65643A20002C204680
:1003E000696E69736865643A20005072696E74734F
:1003F0003A200053746174733A200048656174694F
:100400006E672E2E2E004475706C696361746F7276
:1004100020362072656164792E00C701C201BB01DC
:10042000B401A6016F66660044454255473A004B49
:10043000494C4C45442E20004D3131332053006F40
:100440006B0048656174696E6720646F6E652E008D
:100450003F0A0020573A0048656174696E672E2E86
:100460002E004475706C696361746F72203620725F
:10047000656164792E0042656420646F6E652E00AC
:100480003F0A0020573A004265642048656174695C
:100490006E672E004D31343520533C696E646578AB
:1004A0003E206F7574206F662072616E676520282C
:1004B000302D31290A0043290A0061626C656420ED
:1004C000286D696E2074656D702000436F6C642028
:1004D00065787472756465732061726520004B6481
:1004E000200023646566696E6520204445464155B9
:1004F0004C545F004B69200023646566696E65207B
:100500002044454641554C545F004B702000236405
:100510006566696E65202044454641554C545F0030
:10052000504944204175746F74756E652066696E1C
:100530006973686564212050757420746865206C47
:10054000617374204B702C204B6920616E64204BCA
:100550006420636F6E7374616E74732066726F6D66
:100560002062656C6F7720696E746F20436F6E66D2
:10057000696775726174696F6E2E680A005049442C
:10058000204175746F74756E65206661696C656471
:10059000212074696D656F75740A005049442041CB
:1005A00075746F74756E65206661696C6564212071
:1005B00054656D706572617475726520746F6F201B
:1005C000686967680A00204B643A2000204B693A4A
:1005D0002000204B703A20000A20436C617373693D
:1005E0006320504944200A002054753A2000204BD3
:1005F000753A2000206D61783A2000206D696E3ACE
:10060000200020643A200020626961733A20004D86
:1006100036303020486F74656E6420746F6F2063CD
:100620006F6C6420746F206368616E676520666913
:100630006C616D656E740A006F6E0A006F66660A03
:100640000043617365206C696768747320004163BF
:10065000746976652045787472756465723A200015
:10066000556E6B6E6F776E20636F6D6D616E643A61
:100670002022002569730025696D202569730025F6
:1006800069682025696D2025697300256964202526
:1006900069682025696D2025697300256979202501
:1006A0006964202569682025696D20256973004EDD
:1006B0006F204C696E65204E756D6265722077699A
:1006C000746820636865636B73756D2C204C61736F
:1006D00074204C696E653A20004B494C4C45442EC1
:1006E000200053544F505045442E20005072696EE4
:1006F0007465722073746F70706564206475652012
:10070000746F206572726F72732E20466978207440
:100710006865206572726F7220616E642075736502
:10072000204D39393920746F207265737461727489
:100730002E202854656D706572617475726520692C
:10074000732072657365742E20536574206974205C
:1007500061667465722072657374617274696E6724
:10076000290A004E6F20436865636B73756D2077AF
:10077000697468206C696E65206E756D6265722C97
:10078000204C617374204C696E653A200063686583
:10079000636B73756D206D69736D617463682C2074
:1007A0004C617374204C696E653A20004C696E652B
:1007B000204E756D626572206973206E6F74204CD7
:1007C000617374204C696E65204E756D6265722B85
:1007D000312C204C617374204C696E653A20004DB9
:1007E000313130004D3331004D38342058205920FC
:1007F0005A20450053442072656164206572726F0F
:10080000720A00446F6E65207072696E74696E675B
:100810002066696C650A004572726F722077726992
:1008200074696E6720746F20454550524F4D210A00
:1008300000206279746573290A0053657474696EC7
:1008400067732053746F72656420280053442063DB
:10085000617264206F6B0A006F70656E526F6F7407
:10086000206661696C65640A00766F6C756D652E33
:10087000696E6974206661696C65640A005344207E
:10088000696E6974206661696C0A006175746F2510
:10089000692E67004D3234004D32332025730057E6
:1008A000726974696E6720746F2066696C653A209E
:1008B000006F70656E206661696C65642C20466906
:1008C0006C653A20006F70656E206661696C6564C6
:1008D0002C2046696C653A200046696C652073657A
:1008E0006C65637465640A002053697A653A200078
:1008F00046696C65206F70656E65643A20006F70A4
:10090000656E206661696C65642C2046696C653A89
:1009100020002066696C653A20004E6F7720002227
:1009200020706F73002220706172656E743A22002D
:10093000535542524F5554494E452043414C4C204B
:100940007461726765743A22004B494C4C45442EE1
:100950002000747279696E6720746F2063616C6C1B
:10096000207375622D67636F64652066696C6573BB
:10097000207769746820746F6F206D616E79206CC8
:100980006576656C732E204D4158206C6576656CDC
:100990002069733A004572726F723A00507265684E
:1009A000656174204142532042656400507265685D
:1009B0006561742041425300507265706172650038
:1009C0004D34323800436F6F6C646F776E0043684C
:1009D000616E67652066696C616D656E740050724A
:1009E00065686561742041425300507265686561B5
:1009F0007420504C41004D38340044697361626C7E
:100A000065207374657070657273004732380A47E9
:100A1000323900473239004C6576656C2062656476
:100A20000053657420686F6D65206F66667365742A
:100A30007300473238205A00486F6D65205A0047CE
:100A40003238205900486F6D6520590047323820F0
:100A50005800486F6D652058004732380041757462
:100A60006F20686F6D65004D6F76652061786973E2
:100A7000004731205A313730004C6F776572204281
:100A800075696C6420506C617465004D61696E001D
:100A9000436F6F6C646F776E004368616E676520AB
:100AA00066696C616D656E7400507265686561742D
:100AB00020414253005072656865617420504C417A
:100AC000004739310A4731205A32350A4739300058
:100AD0004C6F776572204275696C6420506C61744C
:100AE000652032356D6D004732380A47323900478C
:100AF0003239004C6576656C206265640047323897
:100B0000004175746F20686F6D65004D61696E00FE
:100B10004D6F76652058004D6F76652059004D6FFA
:100B20007665205A004578747275646572004D6F61
:100B3000766520302E316D6D004D6F766520316DFC
:100B40006D004D6F76652031306D6D004D6F7665AF
:100B50002061786973004578747275646572004D20
:100B60006F7665205A004D6F76652059004D6F767F
:100B70006520580000000000300E0100C00E0A0081
:100B8000500F1400D00F1E0060102800E01032003B
:100B900070113C00F01146007012500000135A0012
:100BA0008013640000146E00901478001015820009
:100BB00090158C00101696009016A0001017AA0031
:100BC0009017B4001018BE009018C8001019D20079
:100BD0009019DC00101AE600801AF000001BFA00E1
:100BE000801B0401F01B0E01701C1801F01C220177
:100BF000601D2C01E01D3601501E4001D01E4A012F
:100C0000401F5401B01F5E0130206801A020720116
:100C100010217C0190218601002290016026F401C0
:100C2000902A5802802EBC0250322003E035840303
:100C30005039E803803C4C0443616E6E6F74206F42
:100C400070656E207375626469722000656E7175DF
:100C5000657565696E67202200206669727374008D
:100C60005A0059005800486F6D652000206669726F
:100C700073740A005A0059005800486F6D652000CF
:100C80006563686F3A00436172642072656D6F76C8
:100C90006564004361726420696E73657274656493
:100CA0000000060900FE06018902FE20FFFE07FE85
:100CB00006FE00000006000701060606020080800E
:100CC00080800080030303060103A0A0A00507079E
:100CD0000600FF5050F850F850500509090600FE74
:100CE0002070A8A07028A870200608080600FF4001
:100CF000A84810204854080507070600FF60909098
:100D00006098906801030306020380808002070751
:100D10000602FF408080808080400207070602FFB5
:100D2000804040404040800505050600008850F89E
:100D300050880505050600002020F8202002040444
:100D40000602FEC0404080050101060002F80202D2
:100D500002060200C0C00406060601001010204072
:100D60008080040606060100609090909060030663
:100D70000606010040C0404040E0040606060100AF
:100D80006090102040F0040606060100F02060107C
:100D900010E005060606000010305090F81004061A
:100DA00006060100F080E01010E0040606060100CF
:100DB0006080E0909060040606060100F0101020AC
:100DC00040400406060601006090609090600406B2
:100DD0000606010060909070106002050506020092
:100DE000C0C000C0C00207070602FEC0C000C0406D
:100DF00040800505050600001860806018050303A3
:100E0000060001F800F8050505060000C0300830AE
:100E1000C00407070601006090106040004005060E
:100E2000060600007090A8B0807005060606000057
:100E3000205088F88888050606060000F088F088AB
:100E400088F0040606060100609080809060040629
:100E500006060100E090909090E00406060601006E
:100E6000F080E08080F0040606060100F080E0805B
:100E70008080040606060100609080B09060040641
:100E8000060601009090F09090900306060601007F
:100E9000E040404040E00506060600003810101013
:100EA000906004060606010090A0C0A09090040681
:100EB000060601008080808080F00506060600009E
:100EC00088D8A8A8888804060606010090D0B090AB
:100ED00090900506060600007088888888700406D1
:100EE00006060100E09090E080800407070601FFFD
:100EF000609090D0B06010040606060100E090906B
:100F0000E090900406060601006090402090600585
:100F10000606060000F82020202020040606060110
:100F200000909090909060040606060100909090CA
:100F3000F060600506060600008888A8A8D8880525
:100F40000606060000885020205088050606060088
:100F500000888850202020040606060100F010209A
:100F60004080F0030606060100E080808080E004F7
:100F700006060601008080402010100306060601C8
:100F800000E020202020E005030306000320508815
:100F90000501010600FEF802020206020480400478
:100FA000040406010070909070040606060100809B
:100FB00080E09090E00404040601007080807004DA
:100FC00006060601001010709090700404040601DB
:100FD0000060B0C070040606060100205040E040EA
:100FE000400406060601FE6090907010600406063C
:100FF0000601008080E09090900306060601004004
:1010000000C04040E00308080601FE2000602020E8
:1010100020A0400406060601008080A0C0A0900326
:101020000606060100C040404040E00504040600FA
:1010300000D0A8A888040404060100E09090900461
:101040000404060100609090600406060601FEE0BC
:101050009090E080800406060601FE70909070106B
:1010600010040404060100A0D080800404040601DA
:101070000070C030E00406060601004040E0405029
:1010800020040404060100909090700404040601FA
:10109000009090606005040406000088A8A8500431
:1010A0000404060100906060900406060601FE90AC
:1010B0009090709060040404060100F02040F0035A
:1010C0000707060100204040804040200107070636
:1010D00002FF8080808080808003070706010080F7
:1010E00040402040408004020206010350A0FFFF60
:1010F000FFFFFFFFFFFFFFFFFFFFFFFFFFFFFFFF00
:10110000FFFFFFFFFFFFFFFFFFFFFFFFFFFFFF00EE
:1011100000000600070106060602008000808080AD
:10112000800406060601FF2070A0A07020050707B6
:101130000600FF304840F04040F805050506000075
:10114000A8508850A80506060600008850F820F828
:10115000200107070602FF8080800080808004074E
:10116000070601FF708060906010E0030101060136
:1011700005A0060707060000788494A494847803E9
:10118000050506010160A06000E0050505060000F8
:101190002850A05028040303060100F01010040199
:1011A00001060102F00607070600007884B4A4A433
:1011B0008478040101060105F004030306010260BE
:1011C00090600507070600FF2020F8202000F803A4
:1011D000050506010140A02040E0030505060101C8
:1011E000C0204020C002020206020440800405051F
:1011F0000601FF9090B0D08005060606000078E852
:10120000E8682828010101060202800202020602A3
:10121000FE408003050506010140C04040E0030593
:101220000506010140A04000E0050505060000A0FC
:10123000502850A00508080600FF40C040507030FC
:1012400078100508080600FF40C0405068081038B4
:101250000508080600FFC0204030F0307810040771
:101260000706010020002060809060050707060047
:1012700000402020507088880507070600001020D5
:101280002050708888050707060000205020507005
:1012900088880507070600002850205070888805B8
:1012A00007070600005000205070888805070706D1
:1012B000000020502050708888050606060000783F
:1012C000A0F0A0A0B80408080601FE6090808090FD
:1012D0006020400407070601004020F080E080F015
:1012E0000407070601002040F080E080F0040707B3
:1012F0000601002050F080E080F00407070601009E
:101300005000F080E080F00307070601008040E015
:10131000404040E00307070601002040E040404015
:10132000E003070706010040A0E0404040E003075B
:1013300007060100A000E0404040E0050606060068
:10134000007048E848487004070706010050A09064
:10135000D0B0909004070706010040206090909064
:101360006004070706010020406090909060040729
:101370000706010020506090909060040707060166
:101380000050A06090909060040707060100500094
:1013900060909090600505050600008850205088F8
:1013A0000408080601FF1070B0B0D0D0E080040738
:1013B0000706010040209090909060040707060106
:1013C0000020409090909060040707060100205094
:1013D0009090909060040707060100500090909054
:1013E0009060050707060000102088502020200488
:1013F000060606010080E09090E0800406060601E3
:10140000006090A0A090A004070706010040200003
:1014100070909070040707060100204000709090C3
:1014200070040707060100205000709090700407B8
:101430000706010050A00070909070040606060197
:1014400000500070909070040707060100205020A3
:101450007090907005040406000070A8B07804062F
:10146000060601FE70808070204004070706010018
:1014700040200060B0C07004070706010020400053
:1014800060B0C07004070706010020500060B0C0C3
:1014900070040606060100500060B0C07003070724
:1014A000060100804000C04040E00307070601003D
:1014B000204000C04040E003070706010040A000B4
:1014C000C04040E0030606060100A000C04040E026
:1014D0000407070601003060107090906004070751
:1014E00006010050A000E09090900407070601005C
:1014F0004020006090906004070706010020400033
:1015000060909060040707060100205000609090F2
:101510006004070706010050A00060909060040678
:101520000606010050006090906005050506000069
:101530002000F8002004040406010070B0D0E0048C
:1015400007070601004020009090907004070706EE
:1015500001002040009090907004070706010020D1
:101560005000909090700406060601005000909084
:1015700090700409090601FE204000909090709040
:10158000600408080601FE8080E09090E0808004FE
:1015900008080601FE500090909070906046696CBB
:1015A000652064656C657465643A0044656C6574B7
:1015B000696F6E206661696C65642C2046696C6594
:1015C0003A20006F70656E206661696C65642C203E
:1015D00046696C653A20005374616E6461726420E0
:1015E000446576696174696F6E3A20002052616EBD
:1015F00067653A2000204D61783A2000204D696EE1
:101600003A20004D65616E3A200046696E69736844
:10161000656421002072616E67653A2000206D616B
:10162000783A2000206D696E3A2000207369676D5A
:10163000613A2000206D65616E3A20003A207A3AC6
:101640002000206F662000205A00205900205800FA
:10165000476F696E6720746F3A00436C6F636B77F6
:101660006973650A00436F756E7465722D002044BE
:101670006972656374696F6E3A2000202020616E84
:10168000676C653A20005374617274696E672072EA
:1016900061646975733A2000506F736974696F6E85
:1016A000696E67207468652070726F62652E2E2ED9
:1016B0000A003F4E756D626572206F66206C65672B
:1016C0007320696E206D6F76656D656E74206E6F28
:1016D0007420706C61757369626C652028302D31DF
:1016E00035292E0A00590058003F53616D706C6512
:1016F0002073697A65206E6F7420706C61757369F0
:10170000626C652028342D3530292E0A004D34387E
:10171000205A2D50726F6265205265706561746148
:1017200062696C69747920546573740A003F566568
:1017300072626F7365204C6576656C206E6F7420E5
:10174000706C61757369626C652028302D34292EA8
:101750000A002042403A0020403A00202F00204258
:101760003A00202F0020543A004475706C69636180
:10177000746F722036204F66662E007A5F6D696E38
:101780003A2000795F6D696E3A2000785F6D696E6E
:101790003A20005265706F7274696E6720656E64DE
:1017A00073746F70207374617475730A0020746FA2
:1017B0006F206C6F6E6720657874727573696F6ED9
:1017C0002070726576656E7465640A0020636F6CC4
:1017D0006420657874727573696F6E2070726576B7
:1017E000656E7465640A000000200023002600294D
:1017F000002C002F00320000010000030106010947
:101800000105050505070508080808020202020A85
:101810000A08080404040401010101010101010393
:1018200003030303030303040707070C0C0C0C0C4E
:101830000C0C0C0202020206060606060606060B41
:101840000B0B0B0B0B0B0B010210202008081020B8
:10185000401020408002010201080402010102043C
:1018600008102040808040201008040201800402FB
:101870000180402010080402010804020101020452
:101880000810204080010204081020408000000A57
:101890000B02090C0D0E08070304010000000000F4
:1018A0000000000000000000000000000000000038
:1018B00000000000000000000012111000000000F5
:1018C0000000000000000000000000000000000018
:1018D000000000024B494C4C45442E2000202D2096
:1018E000496E76616C69642065787472756465729E
:1018F000206E756D62657220210A002020506C6197
:101900006E6E657242756666657242797465733A89
:1019100020002046726565204D656D6F72793A2012
:1019200000436F6D70696C65643A204665622020E3
:101930003320323031370A00207C20417574686FC3
:10194000723A2028646F745F626F622C206465664F
:1019500061756C7420636F6E666967290A003230A6
:1019600031362D31322D30362031323A30300020B0
:101970004C61737420557064617465643A20003161
:101980002E312E302D5243380A004D61726C696E33
:101990000020536F667477617265205265736574B9
:1019A0000A00205761746368646F6720526573652D
:1019B000740A002042726F776E206F757420526532
:1019C0007365740A002045787465726E616C2052EC
:1019D000657365740A00506F77657255700A0073FD
:1019E000746172740A006572726F72207772697422
:1019F000696E6720746F2066696C650A00456E64C5
:101A000073746F7073202563202563202563202560
:101A10006300205A3A0020593A0020583A00656E77
:101A20006473746F7073206869743A2000446F6E39
:101A30006520736176696E672066696C652E0A00A1
:101A40004D3239004578747275646572004D6F7659
:101A500065205A004D6F76652059004D6F766520E0
:101A600058005072657061726500526573746F72D0
:101A700065206661696C73616665004C6F61642006
:101A80006D656D6F72790053746F7265206D656D51
:101A90006F72790043617365206272696768746E62
:101AA0006573730046696C616D656E74004D6F748B
:101AB000696F6E0054656D70657261747572650052
:101AC0004D61696E004D3330332055312045256915
:101AD0002053256900507265686561742041425346
:101AE00020636F6E66005072656865617420504CAB
:101AF0004120636F6E6600504944204175746F74D5
:101B0000756E6500504944204175746F74756E653B
:101B1000005049442D44005049442D44005049444C
:101B20002D49005049442D49005049442D50005042
:101B300049442D500020082046616374002008208D
:101B400046616374002008204D6178002008204D14
:101B50006178002008204D696E002008204D696ED4
:101B6000004F6666004F6E20004175746F74656D9E
:101B7000700046616E2073706565640046616E207A
:101B800073706565640042656400426564004E6F71
:101B90007A7A6C65004E6F7A7A6C6500436F6E746A
:101BA000726F6C0053746F7265206D656D6F727922
:101BB0000042656400426564004E6F7A7A6C65008D
:101BC0004E6F7A7A6C650046616E2073706565644D
:101BD0000046616E2073706565640054656D7065C4
:101BE0007261747572650053746F70207072696EE3
:101BF000740043616E63656C0041626F75742050C0
:101C000072696E746572004E6F2053442063617276
:101C100064005072696E742066726F6D20534400C8
:101C200053746F70207072696E7400526573756DB5
:101C300065207072696E74005061757365207072F2
:101C4000696E7400436F6E74726F6C0043617365EC
:101C5000206C69676874206F6E0043617365206C47
:101C600069676874206F666600507265706172659E
:101C700000517569636B204D656E750054756E6516
:101C8000004261627973746570205A00496E666F14
:101C90002073637265656E0042616279737465706A
:101CA00070696E67205A004D363030004368616EAF
:101CB00067652066696C616D656E7400426162796A
:101CC00073746570205A00466C6F7700466C6F77AE
:101CD0000046616E2073706565640046616E207316
:101CE000706565640042656400426564004E6F7A09
:101CF0007A6C65004E6F7A7A6C6500537065656426
:101D0000005370656564004D61696E0050726568CE
:101D100065617420504C41204265640050726568D2
:101D200065617420504C41005072657061726500AD
:101D300024F4D43050C38E20C2A24017828B70117D
:101D4000127A910D816CD90AA861E108C75866071B
:101D5000615143061E4B5D05C145A7041A4111049C
:101D6000093D9803713931034036DB026533910236
:101D7000D4305402802E1D02632CEE01752AC50159
:101D8000B028A001102781018F2564012B244B016D
:101D9000E0223401AC211F018D200D01801FFC00C9
:101DA000841EED00971DDF00B81CD200E61BC600A4
:101DB000201BBC00641AB200B219A8000A19A000C6
:101DC0006A189900D117910040178B00B51684004E
:101DD00031167E00B31579003A157300C7146F00F1
:101DE00058146A00EE1366008813630025135E0022
:101DF000C7125B006C12570015125400C11151003C
:101E000070114F0021114B00D61049008D10470072
:101E10004610440002104200C00F4000800F3E00F8
:101E2000420F3C00060F3B00CB0E3800930E3700EC
:101E30005C0E3500270E3400F30D3200C10D310069
:101E4000900D3000600D2E00320D2D00050D2C0080
:101E5000D90C2B00AE0C2900850C29005C0C270046
:101E6000350C27000E0C2600E80B2400C40B2400C0
:101E7000A00B23007D0B23005A0B2100390B2100FE
:101E8000180B2000F80A1F00D90A1E00BB0A1E000A
:101E90009D0A1D00800A1D00630A1C00470A1B00E2
:101EA0002C0A1B00110A1A00F7091A00DD09190093
:101EB000C4091900AB091900920917007B09180021
:101EC000630917004C091600360916002009160090
:101ED0000A091500F5081500E0081400CC081400E4
:101EE000B8081400A4081400900813007D0812001C
:101EF0006B0813005808120046081200340811003D
:101F0000230811001208110001081100F007100049
:101F1000E0071000D0071000C0071000B0070F0046
:101F2000A107100091070E0083070F0074070F0030
:101F300065070E0057070E0049070E003B070D000E
:101F40002E070E0020070D0013070D0006070D00D9
:101F5000F9060C00ED060D00E0060C00D4060C009E
:101F6000C8060C00BC060C00B0060C00A4060B0052
:101F700099060C008D060B0082060B0077060B00FD
:101F80006C060B0061060A0057060B004C060A009F
:101F900042060A0038060A002E060A0024060A0035
:101FA0001A060A001006090007060A00FD050900C6
:101FB000F4050900EB050900E2050900D90509004F
:101FC000D0050900C7050900BE050900B5050800D0
:101FD000AD050800A50509009C050800940508004A
:101FE0008C050800840508007C05080074050800BD
:101FF0006C050700650508005D050700560508002B
:102000004E05070047050700400508003805070092
:10201000310507002A050700230507001C050600F7
:10202000160507000F050700080506000205070052
:10203000FB040600F5040700EE040600E8040600B1
:10204000E2040700DB040600D5040600CF04060006
:10205000C9040600C3040600BD040600B704060058
:10206000B1040500AC040600A6040600A0040500A7
:102070009B04060095040500900406008A040500F0
:1020800085040500800406007A0405007504050037
:10209000700405006B04050066040500610405007A
:1020A0005C04050057040500520405004D040500BA
:1020B00048040500430405003E0404003A040500FA
:1020C00035040500300404002C0405002704040036
:1020D000230405001E0404001A040400160405006D
:1020E000110404000D0404000904050004040400A4
:1020F00000040400FC030400F8030400F4030400DB
:10210000F0030400EC030400E8030400E40304000B
:10211000E0030400DC030400D8030400D40304003B
:10212000D0030400CC030400C8030300C50303006C
:1021300024F404D9201BC40C5C0E9804C4095F026B
:1021400065077101F405F900FB04B300480487003A
:10215000C10369005803550003034500BE023A005D
:102160008402310053022A002902250004022000C3
:10217000E4011C00C8011900AF0117009801140008
:1021800084011300710110006101100051010E0063
:1021900043010D0036010B002B010B0020010B0049
:1021A000150109000C01090003010800FB000800EB
:1021B000F3000800EB000700E4000600DE00060064
:1021C000D8000600D2000600CC000500C7000500BC
:1021D000C2000500BD000400B9000400B500040001
:1021E000B1000400AD000400A9000400A500030034
:1021F000A20003009F0004009B000300980003005E
:102200009500020093000300900003008D0002007F
:102210008B00030088000200860002008400030097
:10222000810002007F0002007D0002007B000200AE
:1022300079000200770001007600020074000200BD
:1022400072000100710002006F0002006D000100C9
:102250006C0002006A0001006900020067000100D2
:1022600066000100650001006400020062000100D8
:1022700061000100600001005F0002005D000100DC
:102280005C0001005B0001005A00010059000100E0
:1022900058000100570001005600010055000100E0
:1022A00054000100530000005300010052000100DF
:1022B00051000100500001004F0001004E000000DD
:1022C0004E0001004D0001004C0001004B000000D9
:1022D0004B0001004A0001004900010048000000D5
:1022E00048000100470001004600000046000100D0
:1022F00045000000450001004400010043000000CB
:1023000043000100420000004200010041000000C3
:1023100041000100400001003F0000003F000100BB
:102320003E0000003E0001003D0000003D000100B5
:102330003C0000003C0000003C0001003B000000AD
:102340003B0001003A0000003A00010039000000A3
:10235000390001003800000038000000380001009A
:102360003700000037000100360000003600000092
:102370003600010035000000350000003500010086
:10238000340000003400000034000100330000007D
:102390003300000033000100320000003200000072
:1023A0003200010031000000310000003100010066
:1023B0003000000030000000300001002F0000005D
:1023C0002F0000002F0000002F0001002E00000051
:1023D0002E0000002E0001002D0000002D00000046
:1023E0002D0000002D0001002C0000002C0000003A
:1023F0002C0000002C0001002B0000002B0000002E
:102400002B0000002B0001002A0000002A00000021
:102410002A0000002A000100290000002900000015
:102420002900000029000000290001002800000008
:1024300028000000280000002800000028000100FB
:1024400027000000270000002700000027000000F0
:1024500027000100260000002600000026000000E2
:1024600026000000260001002500000025000000D5
:1024700025000000250000002500000025000100C7
:1024800024000000240000002400000024000000BC
:1024900024000100230000002300000023000000AE
:1024A000230000002300000023000000230001009F
:1024B0002200000022000000220000002200000094
:1024C0002200000022000100210000002100000085
:1024D0002100000021000000210000002100000078
:1024E000210001002000000020000000200000006A
:1024F000200000002000000020000000200000005C
:10250000200001001F0000001F0000001F0000004D
:102510001F0000001F0000001F0000001F0001003E
:102520001E0000001E0000001E0000001E00000033
:102530004D383420582059205A204500205A3A005E
:1025400020593A0020436F756E7420583A200020BD
:10255000453A00205A3A0020593A00583A00464974
:10256000524D574152455F4E414D453A4D61726C57
:10257000696E20312E312E302D5243382028476984
:10258000746875622920534F555243455F434F4449
:10259000455F55524C3A68747470733A2F2F6769CF
:1025A000746875622E636F6D2F556C74696D616B05
:1025B00065722F4D61726C696E2050524F544F43BB
:1025C0004F4C5F56455253494F4E3A312E30204DB5
:1025D000414348494E455F545950453A4475706CE3
:1025E000696361746F7220362045585452554445D2
:1025F000525F434F554E543A3120555549443A6342
:10260000656465326132662D343161322D34373480
:10261000382D396231322D633535633632663336C3
:102620003766660A0053657474696E672054726178
:1026300076656C20416363656C65726174696F6E69
:102640003A200053657474696E6720526574726134
:10265000637420416363656C65726174696F6E3A7F
:10266000200053657474696E67205072696E74201F
:10267000416363656C65726174696F6E3A200053E3
:10268000657474696E67205072696E7420616E643F
:102690002054726176656C20416363656C6572617C
:1026A00074696F6E3A2000205A00205900580020AB
:1026B000204D61783A2000205A002059005800200F
:1026C000204D696E3A20004F6E20004F6666005321
:1026D0006F667420656E6473746F70733A200020A7
:1026E000643A0020693A0020703A0020643A0020E1
:1026F000693A0020703A004F666673657473206112
:1027000070706C696564004572723A20546F6F2076
:102710006661722100546F6F206661722066726F6D
:102720006D207265666572656E636520706F696E97
:10273000740A003A20007A5F6D61783A20007A5F6F
:102740006D696E3A20005A204F66667365740062A8
:1027500065640A002C2073797374656D2073746F3F
:102760007070656421204865617465725F49443A00
:10277000200048656174696E67206661696C6564F4
:102780000048656174696E67206661696C65640004
:1027900048656174696E67206661696C65640048AC
:1027A000656174696E67206661696C6564007001BB
:1027B0002C0190012701B0012201C0011D01F0018F
:1027C00018011002130130020E016002090190028B
:1027D0000401C002FF000003FA004003F50080037B
:1027E000F000D003EB002004E6007004E100E004F8
:1027F000DC004005D700C005D2004006CD00D00661
:10280000C8008007C3003008BE00F008B900C00946
:10281000B400B00AAF00B00BAA00D00CA500000EA7
:10282000A000500F9B00C0109600501291000014A1
:102830008C00C0158700B0178200B0197D00D01B36
:102840007800001E730040206E0090226900F02482
:10285000640040275F0090295A00E02B5500102E9D
:10286000500020304B0010324600E03341009035DC
:102870003C001037370070383200A0392D00B03AD4
:102880002800A03B2300603C1E00103D1900903D35
:102890001400103E0F00703E0A00C03E0500003FCD
:1028A0000000544845524D414C2052554E4157412D
:1028B0005900546865726D616C2052756E61776164
:1028C00079004572723A204D415854454D5020428E
:1028D0004544004572723A204D415854454D5000D0
:1028E0004D415854454D5020747269676765726553
:1028F00064004572723A204D494E54454D50204275
:102900004544004572723A204D494E54454D5000A1
:102910004D494E54454D5020747269676765726524
:1029200064001FFFFFFFFFFFFF600000000001FFCA
:10293000400000000000FF8000000000007F83CF07
:1029400000000C303F87FF80000C301F867980002C
:102950000C000F8C30C7838C30E78C30CFC7CC3164
:10296000F38C30DCECEC33B98C30D86C6C33198CD4
:1029700030D06C0C33198C30D86C0C33198C30DCA3
:102980006C0E3B198C30CF7C079F198C30C77C03B1
:102990008F194000000000000260000000000006E7
:1029A0001FFFFFFFFFFFF825753A25303275002520
:1029B0003032753A25303275002575642025303265
:1029C000753A25303275005A005900580009200028
:1029D0000000000000000000000000007FFFE00099
:1029E00000000000000000000000007000E0000097
:1029F0000000000000000000000061F8600000001E
:102A000000000000000000000041F820000000006D
:102A1000000000000000000040F020000000000066
:102A200000000000000000406020000000000000E6
:102A30000000000000005801A07F8000000000009E
:102A400000004104005C63A0FFC000000000000023
:102A5000002082005EF7A0FFC00000000000000020
:102A60002082005EF7A0FFC00000000000000041CF
:102A700004005C63A07F800000000000000082086A
:102A8000005801A07F800000000000000104100039
:102A9000406020FFC0000000000000010410004062
:102AA000F020FFC00000000000000082080041F894
:102AB00020FFC00000000000000041040061F86039
:102AC0003F00000000000000000000007000E01E59
:102AD0000000000000000001FFFF807FFFE00C000D
:102AE00000000000000001FFFF8000000000000067
:102AF0000000000000000000007FFFE00000000078
:102B000000000000000000007000E0000000000075
:102B100000000000000000630C60000000000000E6
:102B2000000000000000470E200000000000000030
:102B300000000000004F0F20000000000000000017
:102B4000000000005F0FA000000000000000000077
:102B50000000005E07A07F80000000000000004130
:102B60000400406020FFC000000000000000208240
:102B70000040F020FFC000000000000000208200A4
:102B800040F020FFC00000000000000041040040B1
:102B900060207F80000000000000008208005E07C7
:102BA000A07F80000000000000010410005F0FA063
:102BB000FFC0000000000000010410004F0F20FFC4
:102BC000C000000000000000820800470E20FFC087
:102BD00000000000000000410400630C603F0000A2
:102BE0000000000000000000007000E01E00000077
:102BF0000000000001FFFF807FFFE00C00000000EC
:102C000000000001FFFF8000000000060900FE0038
:102C10000000000001090008FE0000050808060089
:102C20000040F0C88888987810050808060000C0A1
:102C3000F88888888888F80505050600012030F89E
:102C400030200508080600002070F820202020E031
:102C50000509090600FF2070A8A8B888887020051B
:102C600009090600FFE080C0B0A82830282805091F
:102C7000090600FFF8A88888888888A8F8050A0A45
:102C80000600FE205050505088A8A8887003030307
:102C900006000340A04000060900FE070192032140
:102CA00020FFFF08FF07FF000000060000010707E4
:102CB00006020080808080800080030202060105F9
:102CC000A0A00507070600005050F850F850500526
:102CD00007070600002078A07028F02005070706E7
:102CE0000000C0C8102040981805070706000060C3
:102CF00090A040A89068020303060104C04080032E
:102D00000707060100204080808040200307070657
:102D1000010080402020204080050505060001209C
:102D2000A870A8200505050600012020F820200233
:102D300003030602FFC04080050101060003F802FC
:102D40000202060200C0C0050505060001081020A9
:102D5000408005070706000070888888888870030F
:102D6000070706010040C040404040E00507070655
:102D70000000708808708080F8050707060000F8DA
:102D80001020100808F005070706000010305090CA
:102D9000F81010050707060000F880F00808887092
:102DA000050707060000708080F088887005070717
:102DB000060000F808102020202005070706000064
:102DC00070888870888870050707060000708888FA
:102DD00078080870020505060200C0C000C0C002E5
:102DE00006060602FFC0C000C040800407070600B8
:102DF0000010204080402010050303060002F80068
:102E0000F8040707060100804020102040800507D5
:102E1000070600007088081020002005070706003C
:102E20000070880868A8A870050707060000708869
:102E300088F8888888050707060000F08888F088E9
:102E400088F005070706000070888080808870057C
:102E50000707060000F08888888888F005070706BD
:102E60000000F88080F08080F8050707060000F871
:102E70008080F0808080050707060000708880B899
:102E8000888870050707060000888888F888888881
:102E90000107070602008080808080808005070788
:102EA000060000381010101090600507070600009B
:102EB0008890A0C0A0908805070706000080808049
:102EC000808080F805070706000088D8A8888888D1
:102ED000880507070600008888C8A898888805071D
:102EE0000706000070888888888870050707060034
:102EF00000F08888F0808080050707060000708851
:102F00008888A89068050707060000F08888F0A068
:102F10009088050707060000788080700808F00593
:102F20000707060000F820202020202005070706BC
:102F30000000888888888888700507070600008850
:102F400088888888502005070706000088888888B8
:102F500088A85005070706000088885020508888F8
:102F600005070706000088888850202020050707ED
:102F7000060000F80810204080F80307070601004B
:102F8000E08080808080E00505050600018040200B
:102F90001008030707060100E02020202020E0059C
:102FA0000303060004205088050101060000F80212
:102FB000020206020580400505050600007008783B
:102FC00088780507070600008080B0C88888F0056B
:102FD0000505060000708080887005070706000060
:102FE000080868988888780505050600007088F844
:102FF00080700507070600003048E040404040056B
:1030000006060600FF708888780870050707060026
:10301000008080B0C8888888010707060200800009
:1030200080808080800308080601FF200020202087
:1030300020A040040707060000808090A0C0A09058
:10304000030707060100C04040404040E005050579
:10305000060000D0A8A8A8A8050505060000B0C86D
:103060008888880505050600007088888870050630
:10307000060600FFF08888F080800506060600FF3F
:10308000788888780808050505060000B0C88080A3
:103090008005050506000070807008F0040707062B
:1030A00000004040E0404040300505050600008833
:1030B00088889868050505060000888888502005DE
:1030C00005050600008888A8A8500505050600002B
:1030D00088502050880506060600FF8888887808F2
:1030E00070050505060000F8102040F803070706E4
:1030F0000100204040804040200107070602008078
:103100008080808080800307070601008040402087
:1031100040408005020206000268900000000600A0
:103120000000000006000000000006000000000093
:10313000060000000000060000000000060000007D
:10314000000006000000000006000000000006006D
:103150000000000006000000000006000000000063
:10316000060000000000060000000000060000004D
:10317000000006000000000006000000000006003D
:103180000000000006000000000006000000000033
:10319000060000000000060000000000060000001D
:1031A000000006000000000006000000000006000D
:1031B0000000000006000000000006000000000003
:1031C00006000000000006000000000006000000ED
:1031D00000000600000000000600000000000600DD
:1031E00000000000060000010707060200800080C2
:1031F000808080800507070600002070A8A0A870C6
:1032000020050707060000304040E04050A80505B3
:1032100005060000887050708805070706000088C2
:103220005020F820F8200107070602008080800067
:10323000808080050808060000304820505020900B
:1032400060030101060107A0050707060000F888D2
:10325000B8B8B888F80507070600017008788878BC
:1032600000F80505050600012850A05028050303B5
:10327000060001F80808020202060206408005075F
:1032800007060000F888A88898A8F805010106003C
:1032900006F8040404060003609090600507070622
:1032A00000002020F8202000F80405050600036037
:1032B000902040F0030505060003E020E020E00236
:1032C000020206020640800508080600FF8888887A
:1032D0008898E88080050707060000789898781895
:1032E0001818020202060202C0C00202020602FF11
:1032F000408003050506000340C04040E005070785
:10330000060001708888887000F805050506000130
:10331000A0502850A00507070600008890A858B8BC
:1033200008080507070600008890B8489820380567
:103330000808060000C040C048D83808080507073C
:103340000600002000204080887005080806000064
:103350004020007088F888880508080600001020C2
:10336000007088F888880508080600002050007062
:1033700088F888880508080600006890007088F8BA
:1033800088880508080600005000708888F888883A
:103390000508080600002050207088F88888050776
:1033A000070600003860A0B8E0A0B80508080600CD
:1033B000FF70888080887020600508080600004043
:1033C0002000F880F080F8050808060000081000CA
:1033D000F880F080F8050808060000205000F8800A
:1033E000F080F80507070600005000F880F080F82C
:1033F000030808060100804000E0404040E0030868
:1034000008060100204000E0404040E003080806B4
:10341000010040A000E0404040E003070706010033
:10342000A000E0404040E005070706000070484863
:10343000E848487005080806000068900088C8A899
:1034400098880508080600004020708888888870E1
:103450000508080600001020708888888870050814
:10346000080600002050007088888870050808064B
:1034700000006890007088888870050808060000C1
:1034800050007088888888700505050600018850FE
:103490002050880508080600FF1070A8A8A8A8708A
:1034A0004005080806000040208888888888700544
:1034B0000808060000102088888888887005080899
:1034C00006000020500088888888700508080600DB
:1034D0000050008888888888700508080600001059
:1034E000208850202020200509090600FFC04070D8
:1034F0004848704040E00408080601FF609090A032
:103500009090E080050808060000402000700878D0
:103510008878050808060000102000700878887870
:103520000508080600002050007008788878050813
:10353000080600006890007008788878050707067C
:103540000000500070087888780508080600002000
:1035500050207008788878050606060000D0287884
:10356000A0A8500506060600FF7080887020600540
:1035700008080600004020007088F88070050808E0
:103580000600001020007088F8807005080806000A
:10359000002050007088F880700507070600005072
:1035A000007088F880700308080601008040004021
:1035B000C04040E003080806010020400040C04031
:1035C00040E003080806010040A00040C04040E081
:1035D000030707060100A00040C04040E0050707C0
:1035E000060000A040A010788870050808060000BA
:1035F000689000B0C8888888050808060000402048
:103600000070888888700508080600001020007087
:103610008888887005080806000020500070888897
:103620008870050808060000689000708888887017
:10363000050707060000500070888888700505059A
:103640000600012000F800200507070600FF1070A3
:10365000A8A8A87040050808060000402000888837
:103660008898680508080600001020008888889857
:1036700068050808060000205000888888986805BA
:103680000707060000500088888898680509090621
:1036900000FF102000888888F808700407070601DA
:1036A000FFC04060506040E00508080600FF500081
:1036B000888888780870454550524F4D206368656A
:1036C000636B73756D206D69736D617463680A0057
:1036D000206279746573290A002073746F726564BF
:1036E0002073657474696E6773207265747269659E
:1036F00076656420280048617264636F64656420A5
:1037000044656661756C742053657474696E677383
:10371000204C6F616465640A0020204D38353120EB
:103720005A005A2D50726F6265204F666673657439
:1037300020286D6D293A0A0020500020204D333595
:103740003520530043617365204C696768743A0AF9
:1037500000204500205A0020204D393037205800E5
:1037600053746570706572206D6F746F722063752D
:103770007272656E74733A0A0020204D3230302028
:1037800044300A0020204D3230302044002044696B
:103790007361626C65640A0046696C616D656E7484
:1037A0002073657474696E67733A00204400204981
:1037B0000020204D333034205000204400204900A8
:1037C00020204D333031205000504944207365741F
:1037D00074696E67733A0A00204600204200204850
:1037E0000020204D3134352053004D6174657269DD
:1037F000616C2068656174757020706172616D65BF
:10380000746572733A0A00205A0020590020204D36
:10381000323036205800486F6D65206F66667365DC
:103820007420286D6D290A00204500205A00205977
:103830000020580020420020540020204D32303516
:10384000205300416476616E63656420766172691D
:1038500061626C65733A20533D4D696E2066656503
:10386000647261746520286D6D2F73292C20543D7E
:103870004D696E2074726176656C20666565647250
:1038800061746520286D6D2F73292C20423D6D6970
:103890006E696D756D207365676D656E74207469F2
:1038A0006D6520286D73292C20583D6D6178696DF8
:1038B000756D205859206A65726B20286D6D2F73C5
:1038C000292C20205A3D6D6178696D756D205A2034
:1038D0006A65726B20286D6D2F73292C2020453D61
:1038E0006D6178696D756D2045206A65726B202861
:1038F0006D6D2F73290A0020540020520020204DA6
:10390000323034205000416363656C6572617469C4
:103910006F6E733A20503D7072696E74696E672CD9
:1039200020523D7265747261637420616E6420542C
:103930003D74726176656C0A00204500205A0020B3
:10394000590020204D3230312058004D6178696D8A
:10395000756D20416363656C65726174696F6E207B
:10396000286D6D2F7332293A0A00204500205A0035
:1039700020590020204D3230332058004D617869A5
:103980006D756D2066656564726174657320286D60
:103990006D2F73293A0A00204500205A0020590053
:1039A00020204D39322058005374657073207065A3
:1039B0007220756E69743A0A004D61782054656D05
:1039C000703A20313230004D696E2054656D703A86
:1039D000203500544265643A4550434F53203130FE
:1039E000304B004D61782054656D703A203236308E
:1039F000004D696E2054656D703A20350054303AA0
:103A000020505431303020556C74694D4200507252
:103A10006F746F636F6C3A20312E300042617564B1
:103A20003A2032353030303000556C74696D616B3E
:103A3000657220322E7800457874727564657273F1
:103A40003A203100687474703A2F2F6D61726C697E
:103A50006E66772E6F7267004475706C696361746F
:103A60006F72203600323031362D31322D30362013
:103A700031323A303000312E312E302D5243380061
:103A80004D61726C696E005072696E74657220537C
:103A90007461747300546865726D6973746F7273C6
:103AA00000426F61726420496E666F005072696EE9
:103AB00074657220496E666F004D61696E004578CD
:103AC0007472756465206D6F726500526573756DF3
:103AD00065004348414E4745204F5054494F4E538F
:103AE0003A006368616E6765006F662074686520E0
:103AF00066696C616D656E74005761697420666FEC
:103B000072207374617274004348414E47452046E9
:103B1000494C414D454E540066696C616D656E744B
:103B200020756E6C6F6164005761697420666F72F6
:103B3000004348414E47452046494C414D454E546F
:103B400000746F20636F6E74696E75652E2E2E0083
:103B5000616E6420707265737320627574746F6E29
:103B600000496E736572742066696C616D656E7470
:103B7000004348414E47452046494C414D454E542F
:103B80000066696C616D656E74206C6F61640057CE
:103B900061697420666F72004348414E4745204674
:103BA000494C414D454E540066696C616D656E74BB
:103BB0002065787472756465005761697420666F5A
:103BC00072004348414E47452046494C414D454EC1
:103BD0005400746F20726573756D65005761697468
:103BE00020666F72207072696E74004348414E47C0
:103BF000452046494C414D454E5400537465702054
:103C0000447269766520450053746570204472697A
:103C1000766520450053746570204472697665208E
:103C20005A0053746570204472697665205A0053B7
:103C30007465702044726976652058590053746524
:103C40007020447269766520585900457374657018
:103C5000732F6D6D004573746570732F6D6D005A11
:103C600073746570732F6D6D005A73746570732F64
:103C70006D6D005973746570732F6D6D0059737499
:103C80006570732F6D6D005873746570732F6D6D53
:103C9000005873746570732F6D6D00412D747261DF
:103CA00076656C00412D74726176656C00412D72F1
:103CB00065747261637400412D726574726163741E
:103CC00000416D6178204500416D617820450041DB
:103CD0006D6178205A00416D6178205A00416D6114
:103CE00078205900416D6178205900416D6178203C
:103CF0005800416D61782058005654726176206DED
:103D0000696E005654726176206D696E00566D6959
:103D10006E00566D696E00566D6178204500566DD7
:103D20006178204500566D6178205A00566D6178A3
:103D3000205A00566D6178205900566D61782059DF
:103D400000566D6178205800566D617820580056F5
:103D5000652D6A65726B0056652D6A65726B00563B
:103D60007A2D6A65726B00567A2D6A65726B005601
:103D7000792D6A65726B0056792D6A65726B0056F3
:103D8000782D6A65726B0056782D6A65726B0041FA
:103D90006363656C00416363656C005A204F66661F
:103DA000736574005A204F666673657400436F6EC6
:103DB00074726F6C0020496E76616C69642065785E
:103DC0007472756465722000000048430000484327
:103DD00000002F4300000000000000000000000071
:103DE000205A3A200020593A200042656420583A6F
:103DF000200047322F473320626164207061726176
:103E00006D65746572730A0020706F736974696FF1
:103E10006E206F7574206F662072616E67652E0A62
:103E2000003F50726F626520004E6F206D6F7665A7
:103E30002E0000002100240027002A002D00300061
:103E4000330001010000040107010A010000220003
:103E5000250028002B002E00310034000201000054
:103E6000050108010B016F6B00627573793A2070D0
:103E7000617573656420666F7220696E7075740A6F
:103E800000627573793A2070617573656420666F9E
:103E90007220757365720A00627573793A207072C8
:103EA0006F63657373696E670A004B494C4C4544F8
:103EB0002E2000506C656173652072657365740017
:103EC0005052494E5445522048414C5445440050AC
:103ED00072696E7465722068616C7465642E206B03
:103EE000696C6C28292063616C6C6564210A00FF91
:103EF000E0FFD1AFFF32FFD0FFFEFFE0FFD1AEFF0A
:103F0000D0FFFEFFE0FFD11000FFFEFFD0FFE0FF7B
:103F1000C1FFD1AED580A83FD300408D142002A1AF
:103F2000C8DA1281CFD9F1DB402EA4A6AFFFD0FFB3
:103F3000FE00000000000000000000000057617259
:103F40006E696E673A20486F6D696E672042756DC5
:103F5000702044697669736F72203C20310A00003A
:103F600000A0400000A040000000400000484300C6
:103F700000484300002F43FFFFFF7C3C3E5E2B3D8B
:103F80003F2F5B5D3B2C2A225C0046696C2E20444F
:103F900069612E0046696C2E204469612E004F66CF
:103FA00066004F6E20004520696E206D6D33004322
:103FB0006F6E74726F6C0043617365206272696723
:103FC00068746E6573730043616E6E6F7420656E06
:103FD000746572207375626469723A2000022E2E35
:103FE000004D61696E0000457874727564656420E7
:103FF000746F74616C3A2000256C642E25696D0025
:10400000004C6F6E67657374206A6F622074696D0F
:10401000653A200000546F74616C207072696E7490
:104020002074696D653A2000436F6D706C6574652E
:10403000643A20005072696E7420436F756E743A52
:104040002000526573656E643A20004E414E494E21
:10405000495459494E46CDCCCC3D0AD7233C17B7DD
:10406000D13877CC2B329595E6241FB14F0A00004A
:1040700020410000C84200401C4620BCBE4CCA1B68
:104080000E5AAEC59D7455FBD10011241FBECFEF53
:10409000D1E2DEBFCDBF00E00CBF14E0A0E0B2E093
:1040A000E2EAF6E202E00BBF02C007900D92A638EA
:1040B000B107D9F725E1A6E8B4E001C01D92AB3500
:1040C000B207E1F710E2C4E4D0E200E006C02197B5
:1040D0000109802FFE010F94C406C334D10780E08C
:1040E0000807A9F70E94DAFE0D943F130C94000014
:1040F0002F923F924F925F926F927F928F929F92F8
:10410000AF92BF92CF92DF92EF92FF920F931F93E5
:10411000CF93DF93CDB7DEB7C856D1090FB6F89469
:10412000DEBF0FBECDBF0091DD0D20E6029F8001F6
:104130001124035A134F1093940400939304809115
:10414000250C80FF18C0E0E8FCE084917F013FEF80
:10415000E31AF30A882321F00E944C43F701F5CFBC
:10416000D8018D918D01882319F00E944C43F8CF1E
:104170008AE00E944C432091930430919404F90109
:1041800080812F5F3F4F8032D1F3F0939404E0930E
:1041900093048E3469F010919304009194046AE2C0
:1041A00070E0812F902F0F94000A0097D1F420C067
:1041B000818190ED980F9A3010F08D3261F7329630
:1041C000DF0131962C9120532A30D0F3CD01FC0130
:1041D000019620812032D9F3F0939404E093930464
:1041E000DACFFC0131968291803231F08A3221F0AF
:1041F000A12FB02F9D9102C01082F5CFFD018081CB
:1042000011968032D9F380538A3020F0E0E8FCE048
:104210000C94283A00E010E02AE0209FB001219F92
:10422000700D11248B01005311098191080F111D8C
:1042300087FD1A95808180538A3078F37F0131960B
:10424000D7018C918032D1F3F0929204E0929104E4
:1042500021E030E030936E1420936D149D3411F4FE
:104260000C94C82A943511F40C94F139973411F058
:104270000C940A3A0C31110509F48BC168F404302E
:10428000110520F40230110520F13BC10430110565
:1042900009F440C10C941F3A0A35110511F40C942D
:1042A0004B2A58F40D31110509F467C30E3111057D
:1042B00011F40C9474290C941F3A0B35110511F468
:1042C0000C944F2A0C35110511F40C94542A0C94BB
:1042D0001F3A8091B502882311F40C941F3A0E9472
:1042E00064D78BEB94E10E947EEB0E944143809166
:1042F000250C83FD93C0C090C714D090C814E090E3
:10430000C914F090CA142091660530916705409158
:10431000680550916905C701B6010F94D60E882330
:1043200009F47CC08091040E811134C02091A80250
:104330003091A9024091AA025091AB026091B1075D
:104340007091B2078091B3079091B4070F94D60E85
:1043500087FF20C0C0926605D0926705E09268058D
:10436000F0926905E0E8FCE084918F010F5F1F4F38
:10437000882321F00E944C43F801F6CFEBEEF1E0E8
:1043800084918F010F5F1F4F882321F00E944C43BF
:10439000F801F6CFC090C714D090C814E090C914AB
:1043A000F090CA1420916605309167054091680528
:1043B00050916905C701B6010F94D3060F943108D7
:1043C00097FF07C090958095709561957F4F8F4FAF
:1043D0009F4F6D3271408105910504F1C0926605D1
:1043E000D0926705E0926805F0926905E0E8FCE08C
:1043F00084918F010F5F1F4F882321F00E944C434F
:10440000F801F6CFECECF1E084918F010F5F1F4FC4
:10441000882321F00E944C43F801F6CF2091BB1471
:104420003091BC144091BD145091BE1460915A0556
:1044300070915B0580915C0590915D050F94D60E9F
:1044400081111DC02091BF143091C0144091C1143E
:104450005091C21460915E0570915F058091600576
:10446000909161050F94D60E811109C060910002F0
:104470007091010280910202909103023CC08091F0
:10448000200C6091AE027091AF028823F1F0072EEC
:10449000000C880B990B0F94DC0E209100023091D8
:1044A000010240910202509103020F943B0F2AE057
:1044B00037ED43E25CE30F943B0F2FEF3FEF4FEFFD
:1044C0005FEF0E9449E60C941F3A072E000C880B00
:1044D000990B0F94DC0E2091000230910102409163
:1044E0000202509103020F943B0F2AE037ED43E2A2
:1044F0005CE30F943B0F0E94A9D60E949FD60C94B8
:104500001F3A81E00230110509F080E00E9406D8D0
:104510000C941F3A80E50E9451D7882329F00E940D
:104520004E416B017C0103C0C12CD12C760183E587
:104530000E9451D7882321F00E9482416B017C01A7
:104540000E94649D0E94414380916F149091701469
:10455000A0917114B0917214C80ED91EEA1EFB1EF0
:1045600080912102811105C060E086E092E00E9406
:10457000F6710E94C2DFDC01CB018C199D09AE09E6
:10458000BF09B7FD02C00C941F3A80E00E944EE3C1
:10459000F0CF0E94649D0E9493D30E94DAD311E071
:1045A00010938B0288E50E9451D7A82E89E50E94BE
:1045B00051D7082F8AE50E9451D7982EA11004C028
:1045C000011104C0182705C0011102C010E001C08C
:1045D000182F1093040280E1EAE5F5E0ABEBB4E1BB
:1045E00001900D928A95E1F7111105C0A11003C049
:1045F000002309F4C8C020E030E0A90160918205E1
:104600007091830580918405909185050F94D4065F
:104610002091760530917705409178055091790584
:104620000F94D4066093C3147093C4148093C5147C
:104630009093C614111106C0AA2009F4A4C0002347
:1046400009F4A1C010925E0510925F0510926005FA
:104650001092610510925A0510925B0510925C054C
:1046600010925D050E940242E7E7FFE314918BE69A
:104670009FE30E9449422B013C018FE69FE30E9489
:1046800049426B017C019B01AC01C301B2010F9453
:104690001C0918162CF4A3019201C701B60104C02D
:1046A000A7019601C301B2010F94C0079B01AC01A1
:1046B0000F943B0F20E030E040E85FE30F94D40616
:1046C0000F94650920E030E048E452E40F943B0F7A
:1046D0006CA37DA38EA39FA3E8E7FFE3B49020E043
:1046E00030E040EC5FE3C701B6010F943B0F6B0174
:1046F0007C016B2DBB0C770B880B990B0F94DC0E98
:104700009B01AC01C701B6010F943B0F69837A830B
:104710008B839C8320E030E040EC5FE3C301B20177
:104720000F943B0F6B017C01612F110F770B880BEE
:10473000990B0F94DC0E9B01AC01C701B6010F94DD
:104740003B0F68A379A38AA39BA39E012C5D3F4FD7
:1047500042E655E0BE016F5F7F4FCE0180960E941A
:10476000FAD310925C0C10925E0510925F051092C5
:1047700060051092610510925A0510925B05109227
:104780005C0510925D0580910402811102C0AA208F
:1047900021F080E090E00E94D4F380910402811126
:1047A00002C0002321F081E090E00E94D4F38091C8
:1047B0000402811103C0992009F4D3C08091380C00
:1047C000882321F08091390C81111EC060E083E4C0
:1047D00092E00E94F671E0E8FCE084918F010F5FA7
:1047E0001F4F882321F00E944C43F801F6CFE2E3EB
:1047F000F2E084918F010F5F1F4F882309F4B1C04D
:104800000E944C43F801F5CF0E94024220E030E0C4
:104810004CE052E460917A0570917B0580917C05B3
:1048200090917D050F94D40620916E0530916F050F
:1048300040917005509171050F94D4064B015C01B5
:104840006093BB147093BC148093BD149093BE14FA
:1048500020E030E04CE552E460917E0570917F05E8
:1048600080918005909181050F94D4062091720566
:104870003091730540917405509175050F94D406DD
:104880006B017C016093BF147093C0148093C114BA
:104890009093C2148091620590916305A091640584
:1048A000B09165058093C3149093C414A093C5146C
:1048B000B093C6148BEB94E10E9476598823A1F142
:1048C00020E030E04CE052E4C501B4010F94D3067F
:1048D0006093BB147093BC148093BD149093BE146A
:1048E00020E030E040E751E4C701B6010F94D40660
:1048F0006093BF147093C0148093C1149093C2143A
:1049000019821A821B821C829E012F5F3F4F42E652
:1049100055E06FEB74E18BEB94E10E94FAD382E0F7
:1049200090E00E94D4F31DC060E081E292E00E941A
:10493000F671E0E8FCE084918F010F5F1F4F882340
:1049400021F00E944C43F801F6CFEFE0F2E08491B1
:104950008F010F5F1F4F882321F00E944C43F80105
:10496000F6CF0E9402428091DD1380938B020E9459
:10497000C0D30E9444AA0C941F3A0E947D64811106
:104980000C941F3A86E50E9451D7882329F00E9493
:1049900036419DAB8CAB04C0E1E0F0E0FDABECAB8D
:1049A0002CA93DA92530310570F0E6ECF2E08491A8
:1049B0008F010F5F1F4F882311F40C941F3A0E9440
:1049C0004C43F801F4CF84E40E9451D78CA785E4CE
:1049D0000E9451D72B968FAF2B974CA95DA9452BE1
:1049E000D9F0EFEAF2E084918F010F5F1F4F882327
:1049F00021F00E944C43F801F6CF5CA5552361F0ED
:104A0000E6E9F2E084918F010F5F1F4F882321F0C8
:104A10000E944C43F801F6CF83E50E9451D78823CA
:104A200049F00E94594120E030E040E752E40F9401
:104A3000C00704C060E070E086E193E46093050283
:104A40007093060280930702909308028CE40E9400
:104A500051D7882319F00E94594118C020E030E056
:104A600044E352E460917A0570917B0580917C0566
:104A700090917D050F94D40620916E0530916F05BD
:104A800040917005509171050F94D4060F94310830
:104A900079A768A782E50E9451D7882319F00E9460
:104AA000594118C020E030E04EE353E460917A05AC
:104AB00070917B0580917C0590917D050F94D406C3
:104AC00020916E0530916F054091700550917105F0
:104AD0000F94D4060F9431088B0186E40E9451D7BD
:104AE000882319F00E94594118C020E030E040E2CC
:104AF00051E460917E0570917F05809180059091D1
:104B000081050F94D4062091720530917305409170
:104B10007405509175050F94D4060F9431081B014C
:104B200082E40E9451D7882319F00E94594118C08D
:104B300020E030E04FE253E460917E0570917F0504
:104B400080918005909181050F94D4062091720583
:104B50003091730540917405509175050F94D406FA
:104B60000F94310879AB68ABA8A5B9A5BD01BB0FFF
:104B7000880B990B0F94DC0E68AF79AF8AAF9BAFAF
:104B800080907A0590907B05A0907C05B0907D0583
:104B9000C0906E05D0906F05E0907005F0907105A3
:104BA00020E030E04CE052E4C501B4010F94D4069B
:104BB000A70196010F94D4069B01AC0168AD79ADB5
:104BC0008AAD9BAD0F94D60E87FD0FC0B1E0219644
:104BD000BFAF2197C8010997E8A5F9A5E817F9071C
:104BE00044F421961FAE219704C0F1E02196FFAF57
:104BF0002197B801012E000C880B990B0F94DC0E45
:104C00002B013C0120E030E048E453E4C501B4014D
:104C10000F94D406A70196010F94D4069B01AC0112
:104C2000C301B2010F941C09181654F021E02AA701
:104C300088A599A509968017910724F41AA602C0A1
:104C400031E03AA7B101032C000C880B990B0F94AB
:104C5000DC0E6CAF7DAF8EAF9FAF80907E059090E5
:104C60007F05A0908005B0908105C0907205D0901E
:104C70007305E0907405F090750520E030E0A9011F
:104C8000C501B4010F94D406A70196010F94D40670
:104C90009B01AC016CAD7DAD8EAD9FAD0F94D60E7A
:104CA00087FD0AC041E04BA788A999A90997281652
:104CB000390624F41BA602C051E05BA7A8A9B9A934
:104CC000BD01BB0F880B990B0F94DC0E2B013C012F
:104CD00020E030E049E353E4C501B4010F94D40669
:104CE000A70196010F94D4069B01AC01C301B20148
:104CF0000F941C09FF24F394181644F0C10109967F
:104D0000E8A9F9A98E179F070CF4F12C2196FFADA5
:104D10002197F1110EC02AA5222329F087E892E0FD
:104D20000E94BCD20DC03BA531110AC0F1100FC0CA
:104D300018C08FE892E00E94BCD24AA54111EECF84
:104D40005BA5552321F08FE792E00E94BCD2FF20A3
:104D500011F40C941F3A88E792E00E94BCD20C94A4
:104D60001F3A0E94649D8091200C8AA71092200C0B
:104D70009CA5911106C084E690E00E9454E90E942F
:104D800002420E94DAD381E00E94DCD4882329F019
:104D9000AAA5A093200C0C941F3A18A219A21AA23B
:104DA0001BA219821A821B821C82E8A5F9A50E1B80
:104DB0001F0B17FF02C00F5F1F4F15950795B80116
:104DC000012E000C880B990B0F94DC0E26966CAF0D
:104DD0007DAF8EAF9FAF2697A8A8B9A8A218B30839
:104DE000B7FE03C0FFEFAF1ABF0AB594A794B50191
:104DF0000B2C000C880B990B0F94DC0E2A966CAFD1
:104E00007DAF8EAF9FAF2A97C0906A05D0906B059B
:104E1000E0906C05F0906D058AE50E9451D78823DB
:104E200051F00E9459419B01AC01C701B6010F949A
:104E3000D4066B017C016091651470916614072E95
:104E4000000C880B990B0F94DC0E9B01AC0126968D
:104E50006CAD7DAD8EAD9FAD26970F94D60E8111B2
:104E600027C06091671470916814072E000C880B9E
:104E7000990B0F94DC0E9B01AC012A966CAD7DADB5
:104E80008EAD9FAD2A970F94D60E811111C08091DF
:104E9000691490916A1428A539A52817390741F497
:104EA00080916B1490916C142816390609F447C050
:104EB0000E9493D31093661400936514B092681403
:104EC000A092671420917A0530917B0540917C0572
:104ED00050917D0568AD79AD8AAD9BAD0F94D30639
:104EE00020916E0530916F054091700550917105CC
:104EF0000F94D3060F94310870936A146093691469
:104F000020917E0530917F0540918005509181056B
:104F10006CAD7DAD8EAD9FAD0F94D3062091720523
:104F20003091730540917405509175050F94D30627
:104F30000F94310870936C1460936B141AA619A621
:104F400018A631E038AB41E04BA753E021965FAFA4
:104F50002197312CF8A921E0F227F8AB88A599A573
:104F6000092E000CAA0BBB0B2F968CAF9DAFAEAFDA
:104F7000BFAF2F9721962FAD2197321609F49CC011
:104F8000632D032C000C770B880B990B0F94DC0E10
:104F90009B01AC0126966CAD7DAD8EAD9FAD269785
:104FA0000F943B0F9B01AC0168AD79AD8AAD9BAD11
:104FB0000F94D4062B013C012F966CAD7DAD8EADC8
:104FC0009FAD2F970F94DC0E9B01AC012A966CAD20
:104FD0007DAD8EAD9FAD2A970F943B0F9B01AC0129
:104FE0006CAD7DAD8EAD9FAD0F94D4064B015C01D1
:104FF00020E030E0A901C301B2010F94D60E87FD75
:1050000005C020E030E040E05FE303C020E030E096
:10501000A901C301B2010F94D4060F94660868A3D6
:1050200079A38AA39BA320E030E0A901C501B401C4
:105030000F94D60E87FD05C020E030E040E05FE32E
:1050400003C020E030E0A901C501B4010F94D406EB
:105050000F94660869837A838B839C832CA93DA96E
:105060002B964FAD2B97BE016F5F7F4FCE01809681
:105070000E9422D5232D032C000C330B8901000F35
:10508000111F020F131FA8A5B9A50A0F1B1F000FA0
:10509000111F000F111F0F5B1B4EA70196010F94EC
:1050A000D406F801608371838283938380E00E9439
:1050B0004EE3FBA53F0E5ECF48A559A54F5F5F4F5E
:1050C00059A748A74330510599F088A9811109C013
:1050D0009FEF9BA7AFEF2196AFAF219762E0362EEF
:1050E00039CFB1E0BBA7E3E02196EFAF219731CFF5
:1050F00080E00E94DCD4882329F05AA55093200C2C
:105100000C941F3A0E94C0D38CA5882319F0EEE5B9
:10511000F2E02BC011E002E0D02ECC24C39490E04A
:10512000FD2CF11A01E0090FEC2CE91A21E041E015
:105130006E2D812F0F94030521E04FEF6E2D8F2DE3
:105140000F9403052FEF41E0602F812F0F9403058B
:105150002FEF4FEF602F8F2D0F94030591E002305A
:1051600009F71123A1F210E0DACF84918F010F5FCC
:105170001F4F882321F00E944C43F801F6CFC12C29
:10518000D12C7601E9E5F2E084918F010F5F1F4F8A
:10519000882321F00E944C43F801F6CF80E20E9460
:1051A0004C43C701B6010E94FA439FEFC91AD90ABE
:1051B000E90AF90AA3E0CA16D104E104F10411F7DF
:1051C0008AE00E944C4311E4C12E14E1D12E812CBF
:1051D000912C540180E20E944C43C501B4010E940D
:1051E000FA43E12CF12C80E20E944C43F601EE0DD3
:1051F000FF1D408051806280738020E030EC49E7E1
:1052000054E4C301B2010F94D60E87FF12C020E010
:1052100030E0A901C301B2010F941C0918161CF457
:105220008BE20E944C4342E0C301B2010E940F474F
:105230000CC0E3E5F2E084918F010F5F1F4F8823DC
:1052400021F00E944C43F801F6CFBCE0EB0EF11CBC
:10525000E4E2EE16F10439F68AE00E944C43FFEFD7
:105260008F1A9F0AAF0ABF0A24E0C20ED11C33E096
:1052700083169104A104B10409F0ACCF8AE00E9426
:105280004C434CA5411118C08AE595E00E94A0E965
:105290009B01AC016091620570916305809164058A
:1052A000909165050F94D306609362057093630532
:1052B00080936405909365050E9444AA81E090E084
:1052C00090936E1480936D145CA5552311F08AA5FC
:1052D00001C081E08093200C882311F40C941F3AC4
:1052E0000E9402420C941F3A88E50E9451D78823FD
:1052F00019F00E9459410EC020E030E04CE052E429
:1053000060915A0570915B0580915C0590915D05F7
:105310000F94D4066CA37DA38EA39FA389E50E945E
:1053200051D7882319F00E9459410EC020E030E087
:1053300040E751E460915E0570915F0580916005E2
:10534000909161050F94D30668A379A38AA39BA3C8
:105350000CA11DA12EA13FA109831A832B833C839D
:105360006D837E838F83988720E030E0A901609170
:1053700082057091830580918405909185050F9435
:10538000D4062091760530917705409178055091AB
:1053900079050F94D40669877A878B879C87CE011D
:1053A00001960E947659882311F40C941F3A83E5E4
:1053B0000E9451D7882321F00E94FE40182F01C07F
:1053C00011E08091200C882331F01092200C82E0B3
:1053D00090E00E9454E90E94DAD321E030E0412FAE
:1053E000BE01605E7F4FCE0184960E9422D56B0184
:1053F0007C01E8EFF2E084918F010F5F1F4F88235B
:1054000021F00E944C43F801F6CF27E137EB41ED44
:1054100058E36CA17DA18EA19FA10F94D40642E018
:105420000E940F47E3EFF2E084918F010F5F1F4F5F
:10543000882321F00E944C43F801F6CF27E137EB97
:1054400041ED58E368A179A18AA19BA10F94D406EC
:1054500042E00E940F47EEEEF2E084918F010F5F71
:105460001F4F882321F00E944C43F801F6CF27E11B
:1054700037EB41ED58E3C701B6010F94D40642E083
:105480000E940F478AE00E944C430E94C0D30E94B2
:1054900044AA0C941F3A109290040C941F3A81E095
:1054A000809390040C94203A85E40E9451D7B82E42
:1054B000811102C00E94649DFBE28F2EF3E09F2EBB
:1054C000AAE5CA2EA5E0DA2EBEE6EB2EB5E0FB2E4D
:1054D00000E010E0A12CD4018D914D010E9451D724
:1054E0008823F1F1F6012081318142815381A69612
:1054F0002FAFA697A7963FAFA797A8964FAFA897AD
:10550000A9965FAFA9970E945941D6016D937D93EB
:105510008D939C931397A6962FADA697A7963FAD14
:10552000A797A8964FADA897A9965FADA997033006
:105530001105B1F00F94D3069B01AC01F701608116
:105540007181828193810F94D406D7016D937D93ED
:105550008D939C931397C8010E9404D7AA24A39407
:105560000F5F1F4FB4E0CB0ED11CE4E0EE0EF11C38
:105570000430110509F0AFCFAA2019F00E940242B1
:1055800003C0B1100E94655A0E9444AA0C941F3AAD
:105590000237110509F4E0C708F0C0C00B3411054B
:1055A00009F469C308F062C00831110509F482C228
:1055B00078F50231110509F4C9C768F40230110504
:1055C00008F4B0C10131110511F00C941F3A0E948A
:1055D000B2D20C941F3A0531110509F461C240F4AE
:1055E0000431110511F00C941F3AE3E4F3E015C205
:1055F0000631110509F458C20731110511F00C9458
:105600001F3A40E061E0C7010E944E540C941F3ADB
:105610000E31110509F4A7C2B0F40A31110509F4DD
:1056200058C208F452C20B31110509F460C20C31A2
:10563000110511F00C941F3A40E060E0C7010E9490
:105640004E540C941F3A0032110509F490C208F42C
:105650009CC20A32110509F4C6C20033110511F0CB
:105660000C941F3A0E945B750C941F3A0836110582
:1056700009F437C358F50235110509F460C798F4E9
:105680000D34110509F415C308F4F9C20E341105DF
:1056900009F413C30135110511F00C941F3A0E944F
:1056A000BE740C941F3A0435110509F44FC708F471
:1056B00049C70535110509F44CC70C35110511F022
:1056C0000C941F3A0E942AAC0C941F3A0D36110517
:1056D00009F434C498F40A36110509F4FCC608F438
:1056E00010C40B36110509F41AC70C36110511F058
:1056F0000C941F3A1092A6020C941F3A0F36110513
:1057000009F446C308F431C30037110509F4ACC3EA
:105710000137110509F4B0C30C941F3A0D32F1E0C2
:105720001F0709F4F4C708F083C0093C110509F408
:1057300096C7D8F50937110509F419C7F0F40537EC
:10574000110509F40CC748F40337110511F00C9446
:105750001F3A0E9434AA0C941F3A0737110509F426
:1057600003C70837110511F00C941F3A81E08093AC
:105770008B028093DD130C94203A0139110509F452
:10578000FBC630F40C38110509F4A2C30C941F3A7F
:105790000E3B110509F452C5083C110511F00C949B
:1057A0001F3A0E94E7A90C941F3A033D110509F422
:1057B00098C730F50C3C110509F454C748F40B3C6C
:1057C000110511F00C941F3A0E94A1A90C941F3AE4
:1057D0000D3C110509F449C70E3C110511F00C945C
:1057E0001F3AABE2AA2EA3E0BA2EBAE5CB2EB5E063
:1057F000DB2E1AE7E12E15E0F12E00E010E038C7AD
:105800000D3D110509F47DC730F40C3D110509F477
:105810006BC70C941F3A023E110509F475C70C3290
:10582000114011F00C941F3A0E9491A70C941F3A5A
:105830000C3A41E0140711F40C94F93688F500395C
:1058400081E0180711F40C94EE3698F40F32A1E0C1
:105850001A0709F4D3C708F460C70033E1E01E0754
:1058600009F458C70336114011F40C9497390C947D
:105870001F3A023921E0120711F40C94F53610F4A6
:105880000C94F1360A3941E0140709F4F1C2043AE4
:10589000114011F00C941F3A0E94E4A50C941F3A99
:1058A000083582E0180711F40C940237F8F4053F2C
:1058B000A1E01A0711F40C94FC3648F4043F11409F
:1058C00011F00C941F3A0E9436480C941F3A063F80
:1058D000F1E01F0711F40C94FF36073F114011F05F
:1058E0000C941F3A0E94D9A50C941F3A0B3833E050
:1058F000130711F40C943C3948F40335134011F0AC
:105900000C941F3A0E946CA50C941F3A003A83E055
:10591000180709F430C1073E134011F40C94E23922
:105920000C941F3A80E50E9451D7882359F00E94B9
:105930004E414B015C0111E0672B682B692B31F460
:1059400010E004C010E0812C912C540183E50E94EA
:1059500051D7882399F00E9482414B015C011111BB
:105960000FC0672B682B692B59F4D7018C918823C2
:1059700039F061E0C7010E940B7207C01123A9F33F
:1059800060E083E293E00E94F67181E08093020C74
:1059900083E090E090936E1480936D140E94649D58
:1059A0000E94414381149104A104B104F1F080915B
:1059B0006F1490917014A0917114B0917214880EAC
:1059C000991EAA1EBB1E0E94C2DFDC01CB018819F2
:1059D0009909AA09BB09B7FF1CC08091020C882352
:1059E000C1F080E00E944EE3EECF8091020C88234C
:1059F00021F080E00E944EE3F8CF8091670860E0DC
:105A0000882319F084E193E002C080E093E00E94D3
:105A1000F6711092020C0C941F3A84918F010F5F63
:105A20001F4F882321F00E944C43F801F6CF1092BB
:105A3000ED0A1092EC0A40E050E0BA0188E998E0E3
:105A40000E94814C8BE1E8E9F8E0DE0115960190B7
:105A50000D928A95E1F780919608909197089C8322
:105A60008B8389E493E09A83898340E050E0BE0110
:105A70006F5F7F4F86E594E00E94B068CE0101968B
:105A80000E9439F5E4E3F3E084918F010F5F1F4F2B
:105A9000882311F40C941F3A0E944C43F801F4CF70
:105AA0000E947B570C941F3A109267081092680866
:105AB0000C941F3A80916808882319F081E0809344
:105AC00067080E94A35A0C941F3A109267080C941E
:105AD0001F3A80916808882311F40C941F3A83E5DB
