:100000000C9448200C9479200C9479200C9479203D
:100010000C9479200C9479200C9479200C947920FC
:100020000C9479200C9479200C9479200C947920EC
:100030000C9479200C948FB30C9479200C94792033
:100040000C9479200C94254C0C9479200C947920F4
:100050000C9479200C9479200C94BACB0C944444E1
:100060000C9479200C945EDA0C9479200C9479200D
:100070000C9479200C9479200C9479200C9479209C
:100080000C9479200C9479200C9479200C9479208C
:100090000C9479200C9479200C9479200C9479207C
:1000A0000C9479200C9479200C9479200C9479206C
:1000B0000C9479200C9479200C9479200C9479205C
:1000C0000C9479200C9479200C9479200C9479204C
:1000D0000C9479200C9479200C9479200C9479203C
:1000E0000C94792093429642854289428F42CD42B8
:1000F0009A429E42A442A842AC42B242B642BA429E
:10010000CD42C042C442C842604365436A4374431F
:100110007E43F743884390439843A243AC43B6439E
:10012000C543CF43F743D943E343ED4338C341C30A
:1001300047C34DC353C359C363C369C30FCC1FCC5B
:100140003ECC4ECC69CC6ECC71CC76CC79CC7ECC0E
:1001500081CC86CC90CC084AD73B3BCE016E84BC88
:10016000BFFDC12F3D6C74319ABD56833DDA3D0011
:10017000C77F11BED9E4BB4C3E916BAAAABE00005A
:1001800000803F05A84CCDB2D44EB93836A9020C38
:1001900050B9918688083CA6AAAA2ABE0000008011
:1001A0003F000D94A405434F4D4D554E49434154D6
:1001B000494F4E0044525952554E004552524F52EB
:1001C0005300494E464F004543484F0020746F6F1F
:1001D000206C6F6E6720657874727573696F6E201E
:1001E00070726576656E7465640A0020636F6C6476
:1001F00020657874727573696F6E207072657665AC
:100200006E7465640A0047322F47332062616420B0
:10021000706172616D65746572730A00536C656517
:10022000702E2E2E005A2070726F6265206F7574CA
:100230002E206265640A005A2070726F6265206F1A
:1002400075742E2062656400473238205A20466F4C
:100250007262696464656E0A00473238205A20462B
:100260006F7262696464656E00205A3A20002059FA
:100270003A200042656420583A2000456E642066AA
:10028000696C65206C6973740A00426567696E2049
:1002900066696C65206C6973740A0053442070723F
:1002A000696E74696E67206279746520004E6F74A0
:1002B000205344207072696E74696E670A00466943
:1002C0006C652064656C657465643A0044656C65B2
:1002D00074696F6E206661696C65642C2046696C78
:1002E000653A20006F70656E206661696C65642CEC
:1002F0002046696C653A20005072696E74207469FA
:100300006D653A200050726F7465637465642050A7
:10031000696E0A006D0046696C616D656E742075CA
:100320007365643A200053746174733A20002C2082
:100330004C6F6E67657374206A6F623A2000546F69
:1003400074616C2074696D653A2000537461747334
:100350003A20002C204661696C65643A20002C200C
:1003600046696E69736865643A20005072696E74FC
:10037000733A200053746174733A200048656174C5
:10038000696E672E2E2E004475706C696361746F00
:100390007220362072656164792E00C701C201BBEC
:1003A00001B401A6016F66660044454255473A0014
:1003B0004B494C4C45442E20004D313133205300E5
:1003C0006F6B0048656174696E6720646F6E652E9F
:1003D000003F0A0020573A0048656174696E672E35
:1003E0002E2E004475706C696361746F7220362024
:1003F00072656164792E0042656420646F6E652EBB
:10040000003F0A0020573A00426564204865617445
:10041000696E672E004649524D574152455F4E4125
:100420004D453A4D61726C696E20312E312E302D62
:1004300052433820284769746875622920534F5504
:100440005243455F434F44455F55524C3A6874747C
:1004500070733A2F2F6769746875622E636F6D2F02
:10046000556C74696D616B65722F4D61726C696E4C
:100470002050524F544F434F4C5F56455253494FB3
:100480004E3A312E30204D414348494E455F545934
:1004900050453A4475706C696361746F7220362000
:1004A00045585452554445525F434F554E543A3186
:1004B00020555549443A63656465326132662D348E
:1004C0003161322D343734382D396231322D633574
:1004D000356336326633363766660A004D31343559
:1004E00020533C696E6465783E206F7574206F669A
:1004F0002072616E67652028302D31290A0043295A
:100500000A0061626C656420286D696E2074656DF7
:10051000702000436F6C6420657874727564657335
:100520002061726520004B64200023646566696E5B
:1005300065202044454641554C545F004B692000DE
:1005400023646566696E65202044454641554C54D8
:100550005F004B70200023646566696E652020444F
:10056000454641554C545F00504944204175746FD5
:1005700074756E652066696E6973686564212050C4
:10058000757420746865206C617374204B702C2026
:100590004B6920616E64204B6420636F6E737461DD
:1005A0006E74732066726F6D2062656C6F77206960
:1005B0006E746F20436F6E66696775726174696FE0
:1005C0006E2E680A00504944204175746F74756E30
:1005D00065206661696C6564212074696D656F755D
:1005E000740A00504944204175746F74756E65201B
:1005F0006661696C6564212054656D706572617413
:1006000075726520746F6F20686967680A00204BF7
:10061000643A2000204B693A2000204B703A2000B9
:100620000A20436C617373696320504944200A00B7
:100630002054753A2000204B753A2000206D6178D7
:100640003A2000206D696E3A200020643A20002094
:10065000626961733A20004D36303020486F74650E
:100660006E6420746F6F20636F6C6420746F2063FE
:1006700068616E67652066696C616D656E740A00FD
:100680006F6E0A006F66660A0043617365206C69CD
:1006900067687473200041637469766520457874D7
:1006A00072756465723A2000556E6B6E6F776E20BE
:1006B000636F6D6D616E643A202200FFE0FFD1AF81
:1006C000FF32FFD0FFFEFFE0FFD1AEFFD0FFFEFF05
:1006D000E0FFD11000FFFEFFD0FFE0FFC1FFD1AE71
:1006E000D580A83FD300408D142002A1C8DA128122
:1006F000CFD9F1DB402EA4A6AFFFD0FFFE00002132
:1007000000240027002A002D0030003300010100E2
:1007100000040107010A0100002200250028002B27
:10072000002E003100340002010000050108010B19
:100730000124F4D43050C38E20C2A24017828B70A3
:1007400011127A910D816CD90AA861E108C7586627
:1007500007615143061E4B5D05C145A7041A4111AF
:1007600004093D9803713931034036DB026533914A
:1007700002D4305402802E1D02632CEE01752AC56E
:1007800001B028A001102781018F2564012B244B83
:1007900001E0223401AC211F018D200D01801FFCDE
:1007A00000841EED00971DDF00B81CD200E61BC6BA
:1007B00000201BBC00641AB200B219A8000A19A0DC
:1007C000006A189900D117910040178B00B5168464
:1007D0000031167E00B31579003A157300C7146F07
:1007E0000058146A00EE1366008813630025135E38
:1007F00000C7125B006C12570015125400C1115152
:100800000070114F0021114B00D61049008D104788
:10081000004610440002104200C00F4000800F3E0E
:1008200000420F3C00060F3B00CB0E3800930E3702
:10083000005C0E3500270E3400F30D3200C10D317F
:1008400000900D3000600D2E00320D2D00050D2C96
:1008500000D90C2B00AE0C2900850C29005C0C275C
:1008600000350C27000E0C2600E80B2400C40B24D6
:1008700000A00B23007D0B23005A0B2100390B2114
:1008800000180B2000F80A1F00D90A1E00BB0A1E20
:10089000009D0A1D00800A1D00630A1C00470A1BF8
:1008A000002C0A1B00110A1A00F7091A00DD0919A9
:1008B00000C4091900AB091900920917007B091837
:1008C00000630917004C09160036091600200916A6
:1008D000000A091500F5081500E0081400CC0814FA
:1008E00000B8081400A4081400900813007D081232
:1008F000006B081300580812004608120034081153
:1009000000230811001208110001081100F007105F
:1009100000E0071000D0071000C0071000B0070F5C
:1009200000A107100091070E0083070F0074070F46
:100930000065070E0057070E0049070E003B070D24
:10094000002E070E0020070D0013070D0006070DEF
:1009500000F9060C00ED060D00E0060C00D4060CB4
:1009600000C8060C00BC060C00B0060C00A4060B68
:100970000099060C008D060B0082060B0077060B13
:10098000006C060B0061060A0057060B004C060AB5
:100990000042060A0038060A002E060A0024060A4B
:1009A000001A060A001006090007060A00FD0509DC
:1009B00000F4050900EB050900E2050900D9050965
:1009C00000D0050900C7050900BE050900B50508E6
:1009D00000AD050800A50509009C05080094050860
:1009E000008C050800840508007C050800740508D3
:1009F000006C050700650508005D05070056050841
:100A0000004E0507004705070040050800380507A8
:100A100000310507002A050700230507001C05060D
:100A200000160507000F0507000805060002050768
:100A300000FB040600F5040700EE040600E80406C7
:100A400000E2040700DB040600D5040600CF04061C
:100A500000C9040600C3040600BD040600B704066E
:100A600000B1040500AC040600A6040600A00405BD
:100A7000009B04060095040500900406008A040506
:100A80000085040500800406007A0405007504054D
:100A900000700405006B0405006604050061040590
:100AA000005C04050057040500520405004D0405D0
:100AB0000048040500430405003E0404003A040510
:100AC0000035040500300404002C0405002704044C
:100AD00000230405001E0404001A04040016040583
:100AE00000110404000D04040009040500040404BA
:100AF0000000040400FC030400F8030400F40304F1
:100B000000F0030400EC030400E8030400E4030421
:100B100000E0030400DC030400D8030400D4030451
:100B200000D0030400CC030400C8030300C5030382
:100B30000024F404D9201BC40C5C0E9804C4095F83
:100B40000265077101F405F900FB04B3004804874E
:100B500000C10369005803550003034500BE023A73
:100B6000008402310053022A0029022500040220D9
:100B700000E4011C00C8011900AF0117009801141E
:100B80000084011300710110006101100051010E79
:100B90000043010D0036010B002B010B0020010B5F
:100BA00000150109000C01090003010800FB000801
:100BB00000F3000800EB000700E4000600DE00067A
:100BC00000D8000600D2000600CC000500C70005D2
:100BD00000C2000500BD000400B9000400B5000417
:100BE00000B1000400AD000400A9000400A500034A
:100BF00000A20003009F0004009B00030098000374
:100C0000009500020093000300900003008D000295
:100C1000008B0003008800020086000200840003AD
:100C200000810002007F0002007D0002007B0002C4
:100C300000790002007700010076000200740002D3
:100C40000072000100710002006F0002006D0001DF
:100C5000006C0002006A00010069000200670001E8
:100C600000660001006500010064000200620001EE
:100C70000061000100600001005F0002005D0001F2
:100C8000005C0001005B0001005A000100590001F6
:100C900000580001005700010056000100550001F6
:100CA00000540001005300000053000100520001F5
:100CB0000051000100500001004F0001004E0000F3
:100CC000004E0001004D0001004C0001004B0000EF
:100CD000004B0001004A00010049000100480000EB
:100CE00000480001004700010046000000460001E6
:100CF00000450000004500010044000100430000E1
:100D000000430001004200000042000100410000D9
:100D10000041000100400001003F0000003F0001D1
:100D2000003E0000003E0001003D0000003D0001CB
:100D3000003C0000003C0000003C0001003B0000C3
:100D4000003B0001003A0000003A000100390000B9
:100D500000390001003800000038000000380001B0
:100D600000370000003700010036000000360000A8
:100D7000003600010035000000350000003500019C
:100D80000034000000340000003400010033000093
:100D90000033000000330001003200000032000088
:100DA000003200010031000000310000003100017C
:100DB000003000000030000000300001002F000073
:100DC000002F0000002F0000002F0001002E000067
:100DD000002E0000002E0001002D0000002D00005C
:100DE000002D0000002D0001002C0000002C000050
:100DF000002C0000002C0001002B0000002B000044
:100E0000002B0000002B0001002A0000002A000037
:100E1000002A0000002A000100290000002900002B
:100E2000002900000029000000290001002800001E
:100E30000028000000280000002800000028000111
:100E40000027000000270000002700000027000006
:100E500000270001002600000026000000260000F8
:100E600000260000002600010025000000250000EB
:100E700000250000002500000025000000250001DD
:100E800000240000002400000024000000240000D2
:100E900000240001002300000023000000230000C4
:100EA00000230000002300000023000000230001B5
:100EB00000220000002200000022000000220000AA
:100EC000002200000022000100210000002100009B
:100ED000002100000021000000210000002100008E
:100EE0000021000100200000002000000020000080
:100EF0000020000000200000002000000020000072
:100F000000200001001F0000001F0000001F000063
:100F1000001F0000001F0000001F0000001F000154
:100F2000001E0000001E0000001E0000001E000049
:100F3000004D383420582059205A204500626564FD
:100F40000A002C2073797374656D2073746F707050
:100F5000656421204865617465725F49443A2000E8
:100F600048656174696E67206661696C65640048F4
:100F7000656174696E67206661696C6564004865C7
:100F80006174696E67206661696C656400486561BB
:100F900074696E67206661696C656400203D3D3D43
:100FA0003D00202020200042696C696E656172203E
:100FB0004C6576656C696E6720477269643A0A20F1
:100FC0000028422961636B00284629726F6E740005
:100FD0002852296967687400284C29656674005294
:100FE000756E6E696E6720696E204452592D525598
:100FF0004E206D6F64650A00473239204175746F69
:1010000020426564204C6576656C696E670A003F16
:101010002856296572626F7365204C6576656C2071
:10102000697320696D706C61757369626C652028E5
:10103000302D34292E0A004475706C696361746F19
:101040007220362072656164792E00526573756D69
:10105000696E67207072696E7400576169742066EA
:101060006F7220757365722E2E2E004E6F206D6F7D
:1010700076652E005374616E6461726420446576F7
:10108000696174696F6E3A20002052616E67653A3B
:101090002000204D61783A2000204D696E3A2000F2
:1010A0004D65616E3A200046696E6973686564211A
:1010B000002072616E67653A2000206D61783A20E9
:1010C00000206D696E3A2000207369676D613A20D7
:1010D00000206D65616E3A20003A207A3A200020A7
:1010E0006F662000205A00205900205800476F6981
:1010F0006E6720746F3A00436C6F636B776973653A
:101100000A00436F756E7465722D00204469726524
:101110006374696F6E3A2000202020616E676C65F1
:101120003A20005374617274696E67207261646959
:1011300075733A2000506F736974696F6E696E67DA
:10114000207468652070726F62652E2E2E0A003F33
:101150004E756D626572206F66206C6567732069DD
:101160006E206D6F76656D656E74206E6F74207085
:101170006C61757369626C652028302D3135292EBC
:101180000A00590058003F53616D706C6520736907
:101190007A65206E6F7420706C61757369626C651E
:1011A0002028342D3530292E0A004D3438205A2D70
:1011B00050726F6265205265706561746162696C1E
:1011C00069747920546573740A003F566572626FC2
:1011D0007365204C6576656C206E6F7420706C6151
:1011E000757369626C652028302D34292E0A004EF3
:1011F0006F204C696E65204E756D6265722077694F
:10120000746820636865636B73756D2C204C617323
:1012100074204C696E653A20004B494C4C45442E75
:10122000200053544F505045442E20005072696E98
:101230007465722073746F707065642064756520C6
:10124000746F206572726F72732E204669782074F5
:101250006865206572726F7220616E6420757365B7
:10126000204D39393920746F20726573746172743E
:101270002E202854656D70657261747572652069E1
:10128000732072657365742E205365742069742011
:1012900061667465722072657374617274696E67D9
:1012A000290A004E6F20436865636B73756D207764
:1012B000697468206C696E65206E756D6265722C4C
:1012C000204C617374204C696E653A200063686538
:1012D000636B73756D206D69736D617463682C2029
:1012E0004C617374204C696E653A20004C696E65E0
:1012F000204E756D626572206973206E6F74204C8C
:10130000617374204C696E65204E756D6265722B39
:10131000312C204C617374204C696E653A20004D6D
:10132000313130004D3331004D38342058205920B0
:101330005A20450053442072656164206572726FC3
:10134000720A00446F6E65207072696E74696E6710
:101350002066696C650A0020496E76616C696420BC
:10136000657874727564657220000000484300005F
:10137000484300002F430000000000000000000070
:101380000000205A3A200020593A2000426564208B
:10139000583A200020706F736974696F6E206F7502
:1013A00074206F662072616E67652E0A003F50726E
:1013B0006F6265200000000000300E0100C00E0AC0
:1013C00000500F1400D00F1E0060102800E01032F3
:1013D0000070113C00F01146007012500000135ACA
:1013E000008013640000146E0090147800101582C1
:1013F0000090158C00101696009016A0001017AAE9
:10140000009017B4001018BE009018C8001019D230
:10141000009019DC00101AE600801AF000001BFA98
:1014200000801B0401F01B0E01701C1801F01C222F
:1014300001601D2C01E01D3601501E4001D01E4AE6
:1014400001401F5401B01F5E0130206801A02072CE
:101450000110217C0190218601002290016026F478
:1014600001902A5802802EBC0250322003E03584BD
:10147000035039E803803C4C0443616E6E6F742066
:101480006F70656E207375626469722000656E719D
:1014900075657565696E67202200544845524D4157
:1014A0004C2052554E4157415900546865726D6148
:1014B0006C2052756E617761790020666972737471
:1014C000005A0059005800486F6D65200020666979
:1014D0007273740A005A0059005800486F6D6520F5
:1014E000006563686F3A004572726F7220777269A7
:1014F00074696E6720746F20454550524F4D210A24
:1015000000206279746573290A0053657474696EEA
:1015100067732053746F7265642028005072656889
:1015200065617420414253204265640050726568D1
:1015300065617420414253005072657061726500AC
:101540004D34323800436F6F6C646F776E004368C0
:10155000616E67652066696C616D656E74005072BE
:101560006568656174204142530050726568656129
:101570007420504C41004D38340044697361626CF2
:1015800065207374657070657273004732380A475E
:10159000323900473239004C6576656C20626564EB
:1015A0000053657420686F6D65206F66667365749F
:1015B0007300473238205A00486F6D65205A004743
:1015C0003238205900486F6D652059004732382065
:1015D0005800486F6D6520580047323800417574D7
:1015E0006F20686F6D65004D6F7665206178697357
:1015F000004731205A313730004C6F7765722042F6
:1016000075696C6420506C617465004D61696E0091
:10161000436F6F6C646F776E004368616E6765201F
:1016200066696C616D656E740050726568656174A1
:1016300020414253005072656865617420504C41EE
:10164000004739310A4731205A32350A47393000CC
:101650004C6F776572204275696C6420506C6174C0
:10166000652032356D6D004732380A473239004700
:101670003239004C6576656C20626564004732380B
:10168000004175746F20686F6D65004D61696E0073
:101690004D6F76652058004D6F76652059004D6F6F
:1016A0007665205A004578747275646572004D6FD6
:1016B000766520302E316D6D004D6F766520316D71
:1016C0006D004D6F76652031306D6D004D6F766524
:1016D0002061786973004578747275646572004D95
:1016E0006F7665205A004D6F76652059004D6F76F4
:1016F0006520580020746F6F206C6F6E67206578CE
:1017000074727573696F6E2070726576656E74653C
:10171000640A0020636F6C64206578747275736965
:101720006F6E2070726576656E7465640A00457828
:10173000747275646572004D6F7665205A004D6F46
:1017400076652059004D6F7665205800507265709F
:1017500061726500526573746F7265206661696CB1
:1017600073616665004C6F6164206D656D6F7279A1
:101770000053746F7265206D656D6F7279004361FF
:101780007365206272696768746E65737300466979
:101790006C616D656E74004D6F74696F6E00546599
:1017A0006D7065726174757265004D61696E004D92
:1017B00033303320553120452569205325690050A9
:1017C0007265686561742041425320636F6E6600E4
:1017D0005072656865617420504C4120636F6E667D
:1017E00000504944204175746F74756E650050490E
:1017F00044204175746F74756E65005049442D44E2
:10180000005049442D44005049442D49005049445A
:101810002D49005049442D50005049442D5000207E
:10182000082046616374002008204661637400202C
:1018300008204D6178002008204D617800200820A4
:101840004D696E002008204D696E004F6666004F9E
:101850006E20004175746F74656D700046616E2076
:1018600073706565640046616E2073706565640021
:1018700042656400426564004E6F7A7A6C65004E82
:101880006F7A7A6C6500436F6E74726F6C0053747C
:101890006F7265206D656D6F7279004265640042FC
:1018A0006564004E6F7A7A6C65004E6F7A7A6C656B
:1018B0000046616E2073706565640046616E20733A
:1018C000706565640054656D7065726174757265EC
:1018D0000053746F70207072696E740043616E63A0
:1018E000656C0041626F7574205072696E74657228
:1018F000004E6F2053442063617264005072696E21
:10190000742066726F6D2053440053746F702070A2
:1019100072696E7400526573756D65207072696EC0
:1019200074005061757365207072696E7400436F46
:101930006E74726F6C0043617365206C69676874C4
:10194000206F6E0043617365206C69676874206F57
:101950006666005072657061726500517569636BEF
:10196000204D656E750054756E6500426162797335
:10197000746570205A00496E666F207363726565E6
:101980006E00426162797374657070696E67205A87
:10199000004D363030004368616E67652066696CC3
:1019A000616D656E74004261627973746570205A6E
:1019B00000466C6F7700466C6F770046616E20734F
:1019C000706565640046616E2073706565640042F1
:1019D000656400426564004E6F7A7A6C65004E6FF4
:1019E0007A7A6C6500537065656400537065656450
:1019F000004D61696E005072656865617420504CDD
:101A00004120426564005072656865617420504CE5
:101A100041005072657061726500534420636172C9
:101A200064206F6B0A006F70656E526F6F74206672
:101A300061696C65640A00766F6C756D652E696E00
:101A40006974206661696C65640A00534420696E9C
:101A50006974206661696C0A006175746F25692E6E
:101A600067004D3234004D323320257300577269C0
:101A700074696E6720746F2066696C653A20006F28
:101A800070656E206661696C65642C2046696C65C2
:101A90003A20006F70656E206661696C65642C2069
:101AA00046696C653A200046696C652073656C6513
:101AB000637465640A002053697A653A20004669B8
:101AC0006C65206F70656E65643A20006F70656E9E
:101AD000206661696C65642C2046696C653A20005B
:101AE0002066696C653A20004E6F772000222070D6
:101AF0006F73002220706172656E743A2200535534
:101B000042524F5554494E452043414C4C2074613C
:101B1000726765743A22004B494C4C45442E2000B4
:101B2000747279696E6720746F2063616C6C2073C6
:101B300075622D67636F64652066696C65732077D5
:101B400069746820746F6F206D616E79206C6576A2
:101B5000656C732E204D4158206C6576656C20694C
:101B6000733A004572726F723A00454550524F4DBC
:101B700020636865636B73756D206D69736D617447
:101B800063680A00206279746573290A00207374FF
:101B90006F7265642073657474696E677320726513
:101BA0007472696576656420280048617264636FA9
:101BB0006465642044656661756C74205365747453
:101BC000696E6773204C6F616465640A0020204D64
:101BD000383531205A005A2D50726F6265204F6699
:101BE0006673657420286D6D293A0A002050002024
:101BF000204D33353520530043617365204C6967B0
:101C000068743A0A00204500205A0020204D3930DF
:101C10003720580053746570706572206D6F746F53
:101C2000722063757272656E74733A0A0020204DDB
:101C30003230302044300A0020204D3230302044F1
:101C4000002044697361626C65640A0046696C61D6
:101C50006D656E742073657474696E67733A0020E5
:101C6000440020490020204D3330342050002044CF
:101C70000020490020204D3330312050005049448D
:101C80002073657474696E67733A0A0020460020F9
:101C9000420020480020204D3134352053004D6152
:101CA00074657269616C206865617475702070611B
:101CB00072616D65746572733A0A00205A0020598A
:101CC0000020204D323036205800486F6D65206F5F
:101CD000666673657420286D6D290A002045002012
:101CE0005A00205900205800204200205400202093
:101CF0004D323035205300416476616E6365642057
:101D00007661726961626C65733A20533D4D696E0C
:101D100020666565647261746520286D6D2F732976
:101D20002C20543D4D696E2074726176656C20667E
:101D30006565647261746520286D6D2F73292C2090
:101D4000423D6D696E696D756D207365676D656E79
:101D5000742074696D6520286D73292C20583D6DA1
:101D60006178696D756D205859206A65726B2028FD
:101D70006D6D2F73292C20205A3D6D6178696D752A
:101D80006D205A206A65726B20286D6D2F73292C87
:101D90002020453D6D6178696D756D2045206A652F
:101DA000726B20286D6D2F73290A00205400205279
:101DB0000020204D323034205000416363656C6553
:101DC000726174696F6E733A20503D7072696E74FF
:101DD000696E672C20523D72657472616374206174
:101DE0006E6420543D74726176656C0A0020450073
:101DF000205A0020590020204D3230312058004D0B
:101E00006178696D756D20416363656C657261749D
:101E1000696F6E20286D6D2F7332293A0A002045B4
:101E200000205A0020590020204D32303320580025
:101E30004D6178696D756D20666565647261746564
:101E40007320286D6D2F73293A0A00204500205A0F
:101E50000020590020204D393220580053746570FD
:101E6000732070657220756E69743A0A007A5F6D2E
:101E7000696E3A2000795F6D696E3A2000785F6D77
:101E8000696E3A20005265706F7274696E672065E2
:101E90006E6473746F70207374617475730A0000DC
:101EA0000020002300260029002C002F0032000013
:101EB00001000003010601090105050505070508E4
:101EC000080808020202020A0A08080404040401BD
:101ED00001010101010101030303030303030304DF
:101EE0000707070C0C0C0C0C0C0C0C02020202066F
:101EF000060606060606060B0B0B0B0B0B0B0B015F
:101F0000021020200808102040102040800201020A
:101F100001080402010102040810204080804020D2
:101F2000100804020180040201804020100804020D
:101F3000010804020101020408102040800102048B
:101F4000081020408000000A0B02090C0D0E080743
:101F50000304010000000000000000000000000079
:101F60000000000000000000000000000000000071
:101F7000001211100000000000000000000000002E
:101F80000000000000000000000000024B494C4C23
:101F900045442E2000202D20496E76616C69642016
:101FA0006578747275646572206E756D62657220F5
:101FB000210A002020506C616E6E65724275666663
:101FC000657242797465733A200020467265652017
:101FD0004D656D6F72793A2000436F6D70696C6565
:101FE000643A2046656220313220323031370A00AF
:101FF000207C20417574686F723A2028646F745F8A
:10200000626F622C2064656661756C7420636F6E0C
:10201000666967290A00323031362D31322D30366B
:102020002031323A303000204C6173742055706496
:10203000617465643A2000312E312E302D524338C0
:102040000A004D61726C696E0020536F667477618F
:1020500072652052657365740A0020576174636865
:10206000646F672052657365740A002042726F774F
:102070006E206F75742052657365740A0020457870
:102080007465726E616C2052657365740A00506FDE
:1020900077657255700A0073746172740A00657214
:1020A000726F722077726974696E6720746F206630
:1020B000696C650A00456E6473746F7073202563E4
:1020C00020256320256320256300205A3A002059EB
:1020D0003A0020583A00656E6473746F707320681C
:1020E00069743A2000446F6E6520736176696E678B
:1020F0002066696C652E0A004D3239004475706C9B
:10210000696361746F722036204F66662E00205A14
:102110003A0020593A0020436F756E7420583A20D7
:102120000020453A00205A3A0020593A00583A0017
:1021300053657474696E672054726176656C2041D2
:102140006363656C65726174696F6E3A20005365F4
:102150007474696E672052657472616374204163A0
:1021600063656C65726174696F6E3A2000536574C3
:1021700074696E67205072696E7420416363656C88
:1021800065726174696F6E3A200053657474696E8C
:1021900067205072696E7420616E6420547261769B
:1021A000656C20416363656C65726174696F6E3A3A
:1021B0002000205A00205900580020204D61783A14
:1021C0002000205A00205900580020204D696E3A06
:1021D00020004F6E20004F666600536F66742065C6
:1021E0006E6473746F70733A200020643A00206943
:1021F0003A0020703A0020643A0020693A002070CA
:102200003A004F666673657473206170706C69651F
:1022100064004572723A20546F6F2066617221002B
:10222000546F6F206661722066726F6D20726566F2
:102230006572656E636520706F696E740A003A207E
:10224000007A5F6D61783A20007A5F6D696E3A209E
:10225000005A204F6666736574004D61782054659E
:102260006D703A20313230004D696E2054656D70CA
:102270003A203500544265643A4550434F5320316B
:1022800030304B004D61782054656D703A20323605
:1022900030004D696E2054656D703A203500543021
:1022A0003A20505431303020556C74694D42005002
:1022B000726F746F636F6C3A20312E30004261751B
:1022C000643A2032353030303000556C74696D61BD
:1022D0006B657220322E7800457874727564657271
:1022E000733A203100687474703A2F2F6D61726CEC
:1022F000696E66772E6F7267004475706C696361F2
:10230000746F72203600323031362D31322D303636
:102310002031323A303000312E312E302D524338B8
:10232000004D61726C696E005072696E7465722046
:10233000537461747300546865726D6973746F725D
:102340007300426F61726420496E666F005072695B
:102350006E74657220496E666F004D61696E00454E
:10236000787472756465206D6F726500526573755F
:102370006D65004348414E4745204F5054494F4EEC
:10238000533A006368616E6765006F662074686524
:102390002066696C616D656E7400576169742066B2
:1023A0006F72207374617274004348414E47452038
:1023B00046494C414D454E540066696C616D656EF1
:1023C0007420756E6C6F6164005761697420666F6C
:1023D00072004348414E47452046494C414D454EC9
:1023E0005400746F20636F6E74696E75652E2E2EA7
:1023F00000616E6420707265737320627574746F0F
:102400006E00496E736572742066696C616D656EED
:1024100074004348414E47452046494C414D454E86
:10242000540066696C616D656E74206C6F61640048
:102430005761697420666F72004348414E474520DA
:1024400046494C414D454E540066696C616D656E60
:1024500074206578747275646500576169742066CC
:102460006F72004348414E47452046494C414D4517
:102470004E5400746F20726573756D650057616905
:102480007420666F72207072696E74004348414E0A
:1024900047452046494C414D454E540053746570A4
:1024A000204472697665204500537465702044723B
:1024B00069766520450053746570204472697665BD
:1024C000205A0053746570204472697665205A0062
:1024D00053746570204472697665205859005374AE
:1024E000657020447269766520585900457374659B
:1024F00070732F6D6D004573746570732F6D6D0073
:102500005A73746570732F6D6D005A7374657073B0
:102510002F6D6D005973746570732F6D6D00597355
:10252000746570732F6D6D005873746570732F6DC3
:102530006D005873746570732F6D6D00412D74724A
:102540006176656C00412D74726176656C00412D79
:102550007265747261637400412D72657472616397
:102560007400416D6178204500416D61782045001F
:10257000416D6178205A00416D6178205A00416DAB
:102580006178205900416D6178205900416D617872
:10259000205800416D6178205800565472617620B1
:1025A0006D696E005654726176206D696E00566DCD
:1025B000696E00566D696E00566D61782045005653
:1025C0006D6178204500566D6178205A00566D6126
:1025D00078205A00566D6178205900566D61782038
:1025E0005900566D6178205800566D61782058006A
:1025F00056652D6A65726B0056652D6A65726B00B3
:10260000567A2D6A65726B00567A2D6A65726B0078
:1026100056792D6A65726B0056792D6A65726B006A
:1026200056782D6A65726B0056782D6A65726B005C
:10263000416363656C00416363656C005A204F66BB
:1026400066736574005A204F666673657400436F45
:102650006E74726F6C0070012C0190012701B00143
:102660002201C0011D01F001180110021301300206
:102670000E016002090190020401C002FF00000384
:10268000FA004003F5008003F000D003EB002004C3
:10269000E6007004E100E004DC004005D700C0055E
:1026A000D2004006CD00D006C8008007C300300825
:1026B000BE00F008B900C009B400B00AAF00B00B0A
:1026C000AA00D00CA500000EA000500F9B00C01067
:1026D00096005012910000148C00C0158700B017AE
:1026E0008200B0197D00D01B7800001E73004020CE
:1026F0006E0090226900F024640040275F0090295A
:102700005A00E02B5500102E500020304B001032A4
:102710004600E033410090353C00103737007038F8
:102720003200A0392D00B03A2800A03B2300603CC5
:102730001E00103D1900903D1400103E0F00703E29
:102740000A00C03E0500003F00004572723A204D6D
:10275000415854454D5020424544004572723A203C
:102760004D415854454D50004D415854454D502011
:10277000747269676765726564004572723A204DCC
:10278000494E54454D5020424544004572723A200E
:102790004D494E54454D50004D494E54454D5020E5
:1027A000747269676765726564001FFFFFFFFFFF52
:1027B000FF600000000001FF400000000000FF80FB
:1027C00000000000007F83CF00000C303F87FF80B7
:1027D000000C301F867980000C000F8C30C7838C72
:1027E00030E78C30CFC7CC31F38C30DCECEC33B934
:1027F0008C30D86C6C33198C30D06C0C33198C3015
:10280000D86C0C33198C30DC6C0E3B198C30CF7CBF
:10281000079F198C30C77C038F194000000000000F
:1028200002600000000000061FFFFFFFFFFFF82509
:10283000753A2530327500253032753A25303275BB
:102840000025756420253032753A25303275005ADE
:10285000005900580009200000000000000000009E
:10286000000000007FFFE00000000000000000000A
:102870000000007000E00000000000000000000008
:10288000000061F86000000000000000000000008F
:102890000041F820000000000000000000000000DF
:1028A00040F0200000000000000000000000004098
:1028B000602000000000000000000000000058013F
:1028C000A07F80000000000000004104005C63A0C5
:1028D000FFC0000000000000002082005EF7A0FFA3
:1028E000C0000000000000002082005EF7A0FFC0D2
:1028F000000000000000004104005C63A07F800035
:102900000000000000008208005801A07F80000045
:102910000000000001041000406020FFC000000023
:102920000000000104100040F020FFC00000000083
:1029300000000082080041F820FFC00000000000F5
:10294000000041040061F8603F000000000000004A
:10295000000000007000E01E000000000000000108
:10296000FFFF807FFFE00C0000000000000001FF7F
:10297000FF800000000000000000000000000000D8
:10298000007FFFE0000000000000000000000000E9
:102990007000E00000000000000000000000006384
:1029A0000C60000000000000000000000000470E66
:1029B000200000000000000000000000004F0F2079
:1029C0000000000000000000000000005F0FA000F9
:1029D00000000000000000000000005E07A07F80F3
:1029E00000000000000000410400406020FFC00023
:1029F00000000000000020820040F020FFC0000026
:102A0000000000000020820040F020FFC000000015
:102A1000000000004104004060207F8000000000B2
:102A20000000008208005E07A07F80000000000018
:102A300000010410005F0FA0FFC0000000000000B4
:102A4000010410004F0F20FFC00000000000000034
:102A5000820800470E20FFC0000000000000004177
:102A60000400630C603F0000000000000000000054
:102A7000007000E01E0000000000000001FFFF8069
:102A80007FFFE00C0000000000000001FFFF80005D
:102A9000000000060900FE00000000000109000817
:102AA000FE000005080806000040F0C888889878F5
:102AB00010050808060000C0F88888888888F8058E
:102AC00005050600012030F8302005080806000042
:102AD0002070F820202020E00509090600FF207062
:102AE000A8A8B8888870200509090600FFE080C002
:102AF000B0A8283028280509090600FFF8A888880A
:102B0000888888A8F8050A0A0600FE205050505010
:102B100088A8A8887003030306000340A0400006AD
:102B20000900FE070192032120FFFF08FF07FF00B5
:102B300000000600000107070602008080808080F8
:102B40000080030202060105A0A005070706000099
:102B50005050F850F850500507070600002078A0A4
:102B60007028F020050707060000C0C81020409814
:102B7000180507070600006090A040A890680203AF
:102B800003060104C04080030707060100204080BF
:102B9000808040200307070601008040202020405D
:102BA0008005050506000120A870A820050505067A
:102BB00000012020F820200203030602FFC040800D
:102BC000050101060003F8020202060200C0C0056A
:102BD00005050600010810204080050707060000D3
:102BE0007088888888887003070706010040C04005
:102BF000404040E0050707060000708808708080AC
:102C0000F8050707060000F81020100808F005076F
:102C10000706000010305090F81010050707060056
:102C200000F880F00808887005070706000070802B
:102C300080F0888870050707060000F8081020203B
:102C400020200507070600007088887088887005B6
:102C500007070600007088887808087002050506D6
:102C60000200C0C000C0C00206060602FFC0C000CD
:102C7000C04080040707060000102040804020105C
:102C8000050303060002F800F804070706010080A8
:102C900040201020408005070706000070880810BB
:102CA00020002005070706000070880868A8A870A3
:102CB000050707060000708888F8888888050707D8
:102CC000060000F08888F08888F0050707060000F5
:102CD00070888080808870050707060000F088886B
:102CE000888888F0050707060000F88080F080805B
:102CF000F8050707060000F88080F080808005074F
:102D000007060000708880B88888700507070600ED
:102D100000888888F8888888010707060200808074
:102D20008080808080050707060000381010101092
:102D300090600507070600008890A0C0A090880555
:102D40000707060000808080808080F8050707065E
:102D5000000088D8A88888888805070706000088AA
:102D600088C8A898888805070706000070888888A2
:102D7000888870050707060000F08888F08080804A
:102D800005070706000070888888A890680507076F
:102D9000060000F08888F0A090880507070600006C
:102DA000788080700808F0050707060000F82020EA
:102DB000202020200507070600008888888888884A
:102DC0007005070706000088888888885020050756
:102DD000070600008888888888A85005070706002D
:102DE00000888850205088880507070600008888DA
:102DF0008850202020050707060000F80810204012
:102E000080F8030707060100E08080808080E005ED
:102E10000505060001804020100803070706010091
:102E2000E02020202020E005030306000420508835
:102E3000050101060000F8020202060205804005B5
:102E40000505060000700878887805070706000069
:102E50008080B0C88888F005050506000070808075
:102E600088700507070600000808689888887805B4
:102E700005050600007088F8807005070706000049
:102E80003048E0404040400506060600FF70888854
:102E90007808700507070600008080B0C888888819
:102EA00001070706020080008080808080030808F8
:102EB0000601FF200020202020A040040707060074
:102EC00000808090A0C0A090030707060100C040CA
:102ED00040404040E0050505060000D0A8A8A8A88D
:102EE000050505060000B0C88888880505050600A8
:102EF0000070888888700506060600FFF08888F054
:102F000080800506060600FF788888780808050591
:102F100005060000B0C88080800505050600007029
:102F2000807008F00407070600004040E040404081
:102F3000300505050600008888889868050505069F
:102F4000000088888850200505050600008888A8AC
:102F5000A850050505060000885020508805060683
:102F60000600FF888888780870050505060000F8C7
:102F7000102040F803070706010020404080404031
:102F80002001070706020080808080808080030780
:102F900007060100804040204040800502020600F4
:102FA000026890000000060000000000060000001B
:102FB00000000600000000000600000000000600FF
:102FC00000000000060000000000060000000000F5
:102FD00006000000000006000000000006000000DF
:102FE00000000600000000000600000000000600CF
:102FF00000000000060000000000060000000000C5
:1030000006000000000006000000000006000000AE
:10301000000006000000000006000000000006009E
:103020000000000006000000000006000000000094
:10303000060000000000060000000000060000007E
:10304000000006000000000006000000000006006E
:103050000000000006000000000006000000000064
:10306000060000000000060000000000060000014D
:103070000707060200800080808080800507070621
:1030800000002070A8A0A8702005070706000030E7
:103090004040E04050A805050506000088705070CB
:1030A00088050707060000885020F820F82001074F
:1030B00007060200808080008080800508080600E6
:1030C000003048205050209060030101060107A005
:1030D000050707060000F888B8B8B888F80507079C
:1030E000060001700878887800F8050505060001DB
:1030F0002850A05028050303060001F80808020222
:10310000020602064080050707060000F888A88826
:1031100098A8F8050101060006F804040406000357
:10312000609090600507070600002020F82020002E
:10313000F804050506000360902040F0030505062D
:103140000003E020E020E0020202060206408005C3
:1031500008080600FF8888888898E88080050707A7
:1031600006000078989878181818020202060202E1
:10317000C0C00202020602FF4080030505060003EC
:1031800040C04040E005070706000170888888704D
:1031900000F8050505060001A0502850A005070706
:1031A0000600008890A858B8080805070706000020
:1031B0008890B848982038050808060000C040C02C
:1031C00048D838080805070706000020002040807E
:1031D00088700508080600004020007088F888887C
:1031E0000508080600001020007088F88888050887
:1031F000080600002050007088F888880508080636
:1032000000006890007088F88888050808060000AB
:103210005000708888F8888805080806000020504B
:10322000207088F888880507070600003860A0B875
:10323000E0A0B80508080600FF708880808870202C
:1032400060050808060000402000F880F080F805BE
:103250000808060000081000F880F080F80508084B
:10326000060000205000F880F080F80507070600EF
:10327000005000F880F080F8030808060100804044
:1032800000E0404040E0030808060100204000E064
:10329000404040E003080806010040A000E0404034
:1032A00040E0030707060100A000E0404040E005C1
:1032B0000707060000704848E848487005080806F7
:1032C000000068900088C8A89888050808060000D3
:1032D0004020708888888870050808060000102043
:1032E00070888888887005080806000020500070E3
:1032F0008888887005080806000068900070888833
:10330000887005080806000050007088888888705A
:1033100005050506000188502050880508080600AC
:10332000FF1070A8A8A8A870400508080600004073
:103330002088888888887005080806000010208882
:103340008888888870050808060000205000888852
:1033500088887005080806000050008888888888DA
:103360007005080806000010208850202020200545
:1033700009090600FFC040704848704040E004085A
:10338000080601FF609090A09090E0800508080674
:1033900000004020007008788878050808060000C2
:1033A0001020007008788878050808060000205072
:1033B000007008788878050808060000689000709A
:1033C000087888780507070600005000700878889C
:1033D00078050808060000205020700878887805D5
:1033E0000606060000D02878A0A8500506060600AC
:1033F000FF708088702060050808060000402000EB
:103400007088F88070050808060000102000708899
:10341000F880700508080600002050007088F880C9
:103420007005070706000050007088F880700308D8
:103430000806010080400040C04040E00308080644
:10344000010020400040C04040E0030808060100A1
:1034500040A00040C04040E0030707060100A00074
:1034600040C04040E0050707060000A040A01078DB
:103470008870050808060000689000B0C888888831
:10348000050808060000402000708888887005083C
:10349000080600001020007088888870050808065B
:1034A0000000205000708888887005080806000019
:1034B0006890007088888870050707060000500033
:1034C00070888888700505050600012000F8002036
:1034D0000507070600FF1070A8A8A8704005080897
:1034E00006000040200088888898680508080600C3
:1034F00000102000888888986805080806000020C9
:1035000050008888889868050707060000500088E2
:10351000888898680509090600FF102000888888B7
:10352000F808700407070601FFC04060506040E0E3
:103530000508080600FF500088888878087025690B
:10354000730025696D202569730025696820256948
:103550006D20256973002569642025696820256927
:103560006D20256973002569792025696420256906
:10357000682025696D2025697300506C656173654D
:10358000207265736574005052494E54455220486C
:10359000414C544544005072696E746572206861F4
:1035A0006C7465642E206B696C6C28292063616CD7
:1035B0006C6564210A0000000000000000000000AB
:1035C00000005761726E696E673A20486F6D696ED0
:1035D000672042756D702044697669736F72203C74
:1035E00020310A000000A0400000A0400000004080
:1035F000000048430000484300002F43FFFFFF7CCA
:103600003C3E5E2B3D3F2F5B5D3B2C2A225C004302
:103610006172642072656D6F7665640043617264E7
:1036200020696E7365727465640000060900FE0609
:10363000018902FE20FFFE07FE06FE0000000600D4
:1036400007010606060200808080800080030303D5
:10365000060103A0A0A00507070600FF5050F85080
:10366000F850500509090600FE2070A8A07028A88F
:1036700070200608080600FF40A84810204854089B
:103680000507070600FF60909060989068010303AB
:103690000602038080800207070602FF40808080C8
:1036A0008080400207070602FF8040404040408083
:1036B0000505050600008850F85088050505060038
:1036C000002020F820200204040602FEC0404080B2
:1036D000050101060002F8020202060200C0C00451
:1036E0000606060100101020408080040606060130
:1036F0000060909090906003060606010040C04074
:103700004040E00406060601006090102040F004EE
:103710000606060100F020601010E005060606000F
:103720000010305090F810040606060100F080E00A
:103730001010E00406060601006080E0909060042E
:103740000606060100F0101020404004060606019F
:103750000060906090906004060606010060909002
:10376000701060020505060200C0C000C0C002075C
:10377000070602FEC0C000C04040800505050600E7
:10378000001860806018050303060001F800F805C2
:103790000505060000C0300830C004070706010018
:1037A000609010604000400506060600007090A87A
:1037B000B08070050606060000205088F88888054D
:1037C0000606060000F088F08888F0040606060168
:1037D00000609080809060040606060100E09090F2
:1037E0009090E0040606060100F080E08080F0047E
:1037F0000606060100F080E08080800406060601CF
:1038000000609080B090600406060601009090F081
:10381000909090030606060100E040404040E0051D
:103820000606060000381010109060040606060117
:103830000090A0C0A0909004060606010080808041
:103840008080F005060606000088D8A8A8888804AD
:10385000060606010090D0B090909005060606007E
:1038600000708888888870040606060100E0909041
:10387000E080800407070601FF609090D0B06010E0
:10388000040606060100E09090E09090040606060B
:103890000100609040209060050606060000F820B8
:1038A0002020202004060606010090909090906051
:1038B000040606060100909090F06060050606067A
:1038C00000008888A8A8D888050606060000885049
:1038D00020205088050606060000888850202020F9
:1038E000040606060100F010204080F003060606DC
:1038F0000100E080808080E00406060601008080F0
:1039000040201010030606060100E020202020E0E1
:103910000503030600032050880501010600FEF898
:1039200002020206020480400404040601007090B2
:1039300090700406060601008080E09090E0040488
:103940000406010070808070040606060100101055
:103950007090907004040406010060B0C07004060A
:1039600006060100205040E040400406060601FE25
:103970006090907010600406060601008080E09060
:1039800090900306060601004000C04040E0030896
:10399000080601FE200060202020A0400406060644
:1039A00001008080A0C0A090030606060100C04070
:1039B000404040E0050404060000D0A8A8880404A4
:1039C00004060100E0909090040404060100609059
:1039D00090600406060601FEE09090E080800406F8
:1039E000060601FE70909070101004040406010099
:1039F000A0D0808004040406010070C030E00406FA
:103A0000060601004040E040502004040406010086
:103A1000909090700404040601009090606005048A
:103A20000406000088A8A850040404060100906061
:103A300060900406060601FE909090709060040469
:103A400004060100F02040F00307070601002040B3
:103A500040804040200107070602FF808080808070
:103A6000808003070706010080404020404080041A
:103A7000020206010350A0FFFFFFFFFFFFFFFFFF51
:103A8000FFFFFFFFFFFFFFFFFFFFFFFFFFFFFFFF46
:103A9000FFFFFFFFFFFFFFFF00000006000701061A
:103AA000060602008000808080800406060601FF72
:103AB0002070A0A070200507070600FF304840F0E6
:103AC0004040F8050505060000A8508850A80506E6
:103AD000060600008850F820F8200107070602FFBC
:103AE000808080008080800407070601FF7080606E
:103AF000906010E0030101060105A006070706001B
:103B000000788494A494847803050506010160A0DC
:103B10006000E00505050600002850A050280403B9
:103B200003060100F01010040101060102F006076F
:103B3000070600007884B4A4A48478040101060177
:103B400005F0040303060102609060050707060004
:103B5000FF2020F8202000F803050506010140A001
:103B60002040E0030505060101C0204020C00202FC
:103B70000206020440800405050601FF9090B0D0C3
:103B80008005060606000078E8E86828280101019B
:103B9000060202800202020602FE408003050506BC
:103BA000010140C04040E003050506010140A0407E
:103BB00000E0050505060000A0502850A0050808F3
:103BC0000600FF40C040507030781005080806001D
:103BD000FF40C04050680810380508080600FFC0C4
:103BE000204030F030781004070706010020002044
:103BF0006080906005070706000040202050708814
:103C000088050707060000102020507088880507E7
:103C1000070600002050205070888805070706001E
:103C200000285020507088880507070600005000C3
:103C3000205070888805070706000020502050702B
:103C4000888805060606000078A0F0A0A0B8040841
:103C5000080601FE609080809060204004070706FF
:103C600001004020F080E080F004070706010020FA
:103C700040F080E080F00407070601002050F0804B
:103C8000E080F00407070601005000F080E080F0BB
:103C90000307070601008040E0404040E0030707BB
:103CA0000601002040E0404040E003070706010015
:103CB00040A0E0404040E0030707060100A000E00C
:103CC000404040E00506060600007048E84848709D
:103CD00004070706010050A090D0B0909004070799
:103CE00006010040206090909060040707060100E4
:103CF000204060909090600407070601002050600B
:103D00009090906004070706010050A0609090908A
:103D10006004070706010050006090909060050560
:103D20000506000088502050880408080601FF108E
:103D300070B0B0D0D0E080040707060100402090AA
:103D400090909060040707060100204090909090AA
:103D500060040707060100205090909090600407CF
:103D6000070601005000909090906005070706003C
:103D7000001020885020202004060606010080E064
:103D80009090E0800406060601006090A0A090A03C
:103D90000407070601004020007090907004070798
:103DA0000601002040007090907004070706010093
:103DB0002050007090907004070706010050A0008A
:103DC000709090700406060601005000709090708C
:103DD000040707060100205020709090700504042D
:103DE00006000070A8B0780406060601FE70808008
:103DF00070204004070706010040200060B0C0703A
:103E000004070706010020400060B0C070040707E7
:103E100006010020500060B0C070040606060100D4
:103E2000500060B0C070030707060100804000C06A
:103E30004040E0030707060100204000C04040E08A
:103E400003070706010040A000C04040E00306064B
:103E5000060100A000C04040E00407070601003052
:103E600060107090906004070706010050A000E009
:103E70009090900407070601004020006090906039
:103E800004070706010020400060909060040707C7
:103E900006010020500060909060040707060100B2
:103EA00050A000609090600406060601005000607B
:103EB0009090600505050600002000F8002004042D
:103EC0000406010070B0D0E004070706010040209E
:103ED0000090909070040707060100204000909029
:103EE0009070040707060100205000909090700425
:103EF0000606060100500090909070040909060122
:103F0000FE2040009090907090600408080601FE2A
:103F10008080E09090E080800408080601FE500058
:103F2000909090709060526573656E643A20006F57
:103F30006B00627573793A207061757365642066F1
:103F40006F7220696E7075740A00627573793A2019
:103F500070617573656420666F7220757365720A8F
:103F600000627573793A2070726F63657373696E5E
:103F7000670A004D363030004B494C4C45442E20EA
:103F80000046696C2E204469612E0046696C2E2023
:103F90004469612E004F6666004F6E20004520691F
:103FA0006E206D6D3300436F6E74726F6C004361F1
:103FB0007365206272696768746E6573730043612C
:103FC0006E6E6F7420656E746572207375626469BD
:103FD000723A2000022E2E004D61696E0000457875
:103FE00074727564656420746F74616C3A20002586
:103FF0006C642E25696D00004C6F6E6765737420CC
:104000006A6F622074696D653A200000546F7461B4
:104010006C207072696E742074696D653A2000437B
:104020006F6D706C657465643A20005072696E74CF
:1040300020436F756E743A20002042403A002040C1
:104040003A00202F0020423A00202F0020543A004E
:104050004E414E494E495459494E46CDCCCC3D0A6D
:10406000D7233C17B7D13877CC2B329595E6241F50
:10407000B14F0A000020410000C84200401C462009
:10408000BCBE4CCA1B0E5AAEC59D740087FDD10044
:1040900011241FBECFEFD1E2DEBFCDBF00E00CBFC9
:1040A00014E0A0E0B2E0E6EEF9E202E00BBF02C0ED
:1040B00007900D92A638B107D9F725E1A6E8B4E03C
:1040C00001C01D92AC35B207E1F710E2C7E4D0E2BF
:1040D00000E006C021970109802FFE010F946608B9
:1040E000C634D10780E00807A9F70E9416FF0D9497
:1040F000E1140C9400002F923F924F925F926F92C6
:104100007F928F929F92AF92BF92CF92DF92EF9267
:10411000FF920F931F93CF93DF93CDB7DEB7CF58A6
:10412000D1090FB6F894DEBF0FBECDBF00911613B4
:1041300020E6029F800111240A561E4E1093960419
:10414000009395048091B60E80FF18C0E1EEF4E173
:1041500084917F013FEFE31AF30A882321F00E9444
:10416000C0D8F701F5CFD8018D918D01882319F0C2
:104170000E94C0D8F8CF8AE00E94C0D82091950450
:1041800030919604F90180812F5F3F4F8032D1F347
:10419000F0939604E09395048E3469F010919504A1
:1041A000009196046AE270E0812F902F0F94A20B89
:1041B0000097D1F420C0818190ED980F9A3010F0D3
:1041C0008D3261F73296DF0131962C9120532A30DF
:1041D000D0F3CD01FC01019620812032D9F3F09378
:1041E0009604E0939504DACFFC01319682918032F7
:1041F00031F08A3221F0A12FB02F2D9102C0108210
:10420000F5CFFD01808111968032D9F380538A3039
:1042100020F0E1EEF4E10C947B3DE12CF12C9AE0EE
:104220009E9DB0019F9D700D11247B01B0E3EB1AA0
:10423000F1088191E80EF11C87FDFA94808180538A
:104240008A3070F3CF013196DC013C913032D1F3EA
:10425000909394048093930441E050E05093F314BE
:104260004093F2142D3411F40C94FD2B243511F4E9
:104270000C94483D273411F00C94603DBCE1EB16E2
:10428000F10409F45FC790F4F4E0EF16F10438F498
:1042900080910A0222E0E216F10458F140C134E0B4
:1042A000E316F10409F40FC70C94723D4AE5E416D5
:1042B000F10411F40C94712B70F48DE1E816F10403
:1042C00011F40C94962A9EE1E916F10411F40C9471
:1042D0009A2A0C94723DABE5EA16F10411F40C94A1
:1042E000752BBCE5EB16F10411F40C947A2B0C94AD
:1042F000723D882311F40C94723D0E94CA618AE0D9
:1043000094E10E9423F50E94B5D88091B60E83FDFA
:1043100093C0C0901614D0901714E0901814F09029
:1043200019142091340F3091350F4091360F509170
:10433000370FC701B6010F947810882309F47CC0A9
:104340008091F40E811134C02091A1023091A2021B
:104350004091A3025091A40260914A0A70914B0AC5
:1043600080914C0A90914D0A0F94781087FF20C0DD
:10437000C092340FD092350FE092360FF092370F83
:10438000E1EEF4E184918F010F5F1F4F882321F04C
:104390000E94C0D8F801F6CFEBEEF1E084918F01D6
:1043A0000F5F1F4F882321F00E94C0D8F801F6CF7D
:1043B000C0901614D0901714E0901814F0901914AF
:1043C0002091340F3091350F4091360F5091370FB7
:1043D000C701B6010F9475080F94D30997FF07C062
:1043E00090958095709561957F4F8F4F9F4F6D325F
:1043F00071408105910504F1C092340FD092350FC0
:10440000E092360FF092370FE1EEF4E184918F01E4
:104410000F5F1F4F882321F00E94C0D8F801F6CF0C
:10442000ECECF1E084918F010F5F1F4F882321F0A6
:104430000E94C0D8F801F6CF20910A1430910B14D5
:1044400040910C1450910D146091280F7091290F18
:1044500080912A0F90912B0F0F94781081111DC01D
:1044600020910E1430910F1440911014509111149A
:1044700060912C0F70912D0F80912E0F90912F0F26
:104480000F947810811109C06091000270910102AF
:1044900080910202909103023CC08091B10E609124
:1044A000A7027091A8028823F1F0072E000C880B58
:1044B000990B0F947E1020910002309101024091DF
:1044C0000202509103020F94DD102AE037ED43E21F
:1044D0005CE30F94DD102FEF3FEF4FEF5FEF0E9493
:1044E000EEEF0C94723D072E000C880B990B0F9485
:1044F0007E10209100023091010240910202509101
:1045000003020F94DD102AE037ED43E25CE30F94E1
:10451000DD100E942A600E9420600C94723D882366
:1045200011F40C94723D11E0F2E0EF16F10409F081
:1045300010E00E94CA6182E50E94D260882309F4DB
:104540005CC10E94A1616B017C014090280F5090DA
:10455000290F60902A0F70902B0F20912C0F309113
:104560002D0F40912E0F50912F0F23962CAF3DAF62
:104570004EAF5FAF239780910A1490910B14A091D6
:104580000C14B0910D1427968CAF9DAFAEAFBFAF9A
:10459000279720910E1430910F14409110145091D0
:1045A000111463962CAF3DAF4EAF5FAF639720E021
:1045B00030E0A901C701B6010F947810882309F4EF
:1045C00068C5A301920127966CAD7DAD8EAD9FAD00
:1045D00027970F947810811111C023962CAD3DAD13
:1045E0004EAD5FAD239763966CAD7DAD8EAD9FAD47
:1045F00063970F947810882309F44BC520E030E0CE
:10460000A901C701B6010F947810881F8827881F59
:1046100018130BC080E090E0A0E8BFE36B968CAF6E
:104620009DAFAEAFBFAF6B970AC020E030E040E86F
:104630005FEB6B962CAF3DAF4EAF5FAF6B97A301B7
:10464000920127966CAD7DAD8EAD9FAD27970F94EF
:1046500075082F966CAF7DAF8EAF9FAF2F972396C7
:104660002CAD3DAD4EAD5FAD239763966CAD7DAD8A
:104670008EAD9FAD63970F94750867966CAF7DAF55
:104680008EAF9FAF67972F962CAD3DAD4EAD5FAD12
:104690002F97CA01B9010F94DD104B015C01679699
:1046A0002CAD3DAD4EAD5FAD6797CA01B9010F941A
:1046B000DD109B01AC01C501B4010F9476080F9485
:1046C000070B2B966CAF7DAF8EAF9FAF2B9720E083
:1046D00030E040E05FE30F94DD104B015C01A70187
:1046E0009601C701B6010F94DD106B017C01A50195
:1046F0009401C501B4010F94DD109B01AC01C70109
:10470000B6010F9475080F94070B9B01AC016B96D3
:104710006CAD7DAD8EAD9FAD6B970F94DD104B01F1
:104720005C0127962CAD3DAD4EAD5FAD2797C30123
:10473000B2010F94760820E030E040E05FE30F9490
:10474000DD106B017C0167966CAD7DAD8EAD9FADCC
:10475000679790582B962CAD3DAD4EAD5FAD2B9726
:104760000F9462099B01AC01C501B4010F94DD10E7
:104770009B01AC01C701B6010F947608A301920119
:104780000F9475086B017C0163962CAD3DAD4EAD69
:104790005FAD639723966CAD7DAD8EAD9FAD2397D6
:1047A0000F94760820E030E040E05FE30F94DD10E6
:1047B0002B013C012B962CAD3DAD4EAD5FAD2B9743
:1047C0002F966CAD7DAD8EAD9FAD2F970F94620986
:1047D0009B01AC01C501B4010F94DD109B01AC013C
:1047E000C301B2010F94760823962CAD3DAD4EADBA
:1047F0005FAD23970F94750814C089E40E94D260BE
:10480000882329F00E94A1616B017C0103C0C12CA7
:10481000D12C76018AE40E94D2608823F9F00E94AC
:10482000A16123966CAF7DAF8EAF9FAF239720E041
:1048300030E0A901C701B6010F94781081111EC0A4
:1048400020E030E0A90123966CAD7DAD8EAD9FAD2B
:1048500023970F947810811111C01BC420E030E021
:10486000A901C701B6010F947810882309F411C477
:1048700023961CAE1DAE1EAE1FAE2397A701960158
:10488000C701B6010F94DD104B015C0123962CADDE
:104890003DAD4EAD5FAD2397CA01B9010F94DD1058
:1048A0009B01AC01C501B4010F9476080F94070B6E
:1048B000E3966CAF7DAF8EAF9FAFE3978091280FEB
:1048C0009091290FA0912A0FB0912B0F2B968CAFAE
:1048D0009DAFAEAFBFAF2B97A7019601BC01CD0135
:1048E0000F9476086B966CAF7DAF8EAF9FAF6B97D2
:1048F00020912C0F30912D0F40912E0F50912F0FA2
:1049000067962CAF3DAF4EAF5FAF679723962CAD48
:104910003DAD4EAD5FAD239767966CAD7DAD8EAD71
:104920009FAD67970F9476086F966CAF7DAF8EAF93
:104930009FAF6F978091300F9091310FA091320F00
:10494000B091330FA3968CAF9DAFAEAFBFAFA3971F
:104950009C01AD0160911214709113148091141494
:10496000909115140F9475082F966CAF7DAF8EAF94
:104970009FAF2F972091161430911714409118145F
:1049800050911914E7962CAF3DAF4EAF5FAFE7974C
:104990008091340F9091350FA091360FB091370F61
:1049A000A7968CAF9DAFAEAFBFAFA797A7019601FB
:1049B000505827962CAF3DAF4EAF5FAF2797239649
:1049C0008CAD9DADAEADBFAD2397B05863968CAFA7
:1049D0009DAFAEAFBFAF639720910A1430910B1417
:1049E00040910C1450910D14AB962CAF3DAF4EAFCF
:1049F0005FAFAB976B962CAD3DAD4EAD5FAD6B979A
:104A0000AB966CAD7DAD8EAD9FADAB970F94750839
:104A10006B017C0180910E1490910F14A0911014E1
:104A2000B0911114AF968CAF9DAFAEAFBFAFAF9743
:104A30006F962CAD3DAD4EAD5FAD6F97BC01CD0116
:104A40000F9475084B015C01A701960127966CAD88
:104A50007DAD8EAD9FAD27970F94DD102B013C01EE
:104A6000A501940163966CAD7DAD8EAD9FAD63974E
:104A70000F94DD109B01AC01C301B2010F947608C5
:104A80002B013C01A501940127966CAD7DAD8EAD47
:104A90009FAD27970F94DD104B015C01A701960194
:104AA00063966CAD7DAD8EAD9FAD63970F94DD10B9
:104AB0009B01AC01C501B4010F947508A3019201DB
:104AC0000F94F4086B017C0120E030E0A9010F9401
:104AD000781087FF0AC02BED3FE049EC50E4C70196
:104AE000B6010F9476086B017C01112351F02BED78
:104AF0003FE049EC50E4C701B6010F9475086B0123
:104B00007C0120E030E0A901C701B6010F947810C4
:104B100081112AC0AB962CAD3DAD4EAD5FADAB97CC
:104B20002B966CAD7DAD8EAD9FAD2B970F9478100D
:104B300081111AC0AF962CAD3DAD4EAD5FADAF97B4
:104B400067966CAD7DAD8EAD9FAD67970F94781075
:104B500081110AC02BED3FE049EC50E4C701B601DA
:104B60000F9476086B017C01E3962CAD3DAD4EAD04
:104B70005FADE397C701B6010F94DD109B01AC0157
:104B80000F94DD104B015C012F962CAD3DAD4EAD69
:104B90005FAD2F97CA01B9010F94DD109B01AC01E5
:104BA000C501B4010F9476080F94070B4B015C010B
:104BB0002FE632E143E85AE30F94781087FD65C28F
:104BC000C501B4010F94080A0F94D9091B01672B82
:104BD00019F422242394312CB10180E090E00F9449
:104BE0007C104B015C019B01AC01C701B6010F9425
:104BF00062092B966CAF7DAF8EAF9FAF2B97A5014F
:104C000094012F966CAD7DAD8EAD9FAD2F970F9417
:104C10006209AF966CAF7DAF8EAF9FAFAF97A7968F
:104C20002CAD3DAD4EAD5FADA797E7966CAD7DADBC
:104C30008EAD9FADE7970F947508A50194010F9471
:104C40006209E3966CAF7DAF8EAF9FAFE3972B9673
:104C50002CAD3DAD4EAD5FAD2B97CA01B9010F94A0
:104C6000DD1020E030E040E05FE30F94DD109B01B9
:104C7000AC0160E070E080E89FE30F947508AB96AC
:104C80006CAF7DAF8EAF9FAFAB97A3962CAD3DAD14
:104C90004EAD5FADA39729873A874B875C87A79670
:104CA0008CAD9DADAEADBFADA7978D879E87AF870D
:104CB000B88B6091A7027091A802072E000C880B98
:104CC000990B0F947E1020910002309101024091C7
:104CD0000202509103020F94DD102AE037ED43E207
:104CE0005CE30F94DD10A3966CAF7DAF8EAF9FAFEA
:104CF000A3970E9438449B01AC0128533F4F4F4F6C
:104D00005F4FA7962CAF3DAF4EAF5FAFA7972496EE
:104D10004FAC249725965FAC259726966FAC2697C7
:104D200027967FAC279741E050E065965FAF4EAF86
:104D300065972C961FAE2C976596AEADBFAD659767
:104D4000A215B30509F45DC10E94CA470E94384408
:104D5000DC01CB01A7962CAD3DAD4EAD5FADA79765
:104D6000821B930BA40BB50BB7FD11C00E943844F6
:104D70009B01AC0128533F4F4F4F5F4FA7962CAF7D
:104D80003DAF4EAF5FAFA79780E00E94C7EC2C9677
:104D90003FAD2C973F5F2C963FAF2C9739310CF0ED
:104DA0004BC0AB962CAD3DAD4EAD5FADAB976396B2
:104DB0006CAD7DAD8EAD9FAD63970F94DD106B0133
:104DC0007C012B962CAD3DAD4EAD5FAD2B97B20166
:104DD000C3010F94DD10A70196010F9476086B01B3
:104DE0007C01AB962CAD3DAD4EAD5FADAB97B20146
:104DF000C3010F94DD104B015C012B962CAD3DAD32
:104E00004EAD5FAD2B9763966CAD7DAD8EAD9FAD16
:104E100063970F94DD109B01AC01C501B4010F94A1
:104E200075082B013C01C601D70163968CAF9DAF7D
:104E3000AEAFBFAF639760C065964EAD5FAD65978F
:104E4000BA0180E090E00F947C102B962CAD3DAD24
:104E50004EAD5FAD2B970F94DD104B015C010F94AD
:104E60005F096B017C01C501B4010F94FC0A4B0181
:104E70005C01A701960127966CAD7DAD8EAD9FAD0F
:104E800027970F94DD102B013C01A5019401239677
:104E90006CAD7DAD8EAD9FAD23970F94DD109B0162
:104EA000AC01C301B2010F9476082B013C01A501AE
:104EB000940127966CAD7DAD8EAD9FAD27970F9475
:104EC000DD104B015C01A701960123966CAD7DAD11
:104ED0008EAD9FAD23970F94DD109B01AC01C501F2
:104EE000B4010F94750863966CAF7DAF8EAF9FAF22
:104EF00063972C961FAE2C979201A3016B966CAD15
:104F00007DAD8EAD9FAD6B970F94760869837A83E4
:104F10008B839C8363962CAD3DAD4EAD5FAD6397A7
:104F20006F966CAD7DAD8EAD9FAD6F970F9476088B
:104F30006D837E838F839887AF962CAD3DAD4EAD4C
:104F40005FADAF9769857A858B859C850F947608D0
:104F500069877A878B879C87E3962CAD3DAD4EADF4
:104F60005FADE3976D857E858F8598890F94760870
:104F70006D877E878F87988BCE0101960E9423F5DF
:104F8000C0908D0489819A81AB81BC8188A399A34B
:104F9000AAA3BBA38D819E81AF81B8858CA39DA35D
:104FA000AEA3BFA389859A85AB85BC8588A799A741
:104FB000AAA7BBA7AE01485D5F4FBE016C5D7F4FE6
:104FC000CE0180960E949192A396ECACFDAC0EAD02
:104FD0001FADA3979E01235F3F4FAE01485D5F4F1A
:104FE000BE016C5D7F4FCE0180960E946485659600
:104FF0008EAD9FAD6597019665969FAF8EAF659715
:105000009BCEC0908D0480910A1490910B14A091B6
:105010000C14B0910D1488A399A3AAA3BBA38091EB
:105020000E1490910F14A0911014B09111148CA330
:105030009DA3AEA3BFA38091121490911314A091CD
:105040001414B091151488A799A7AAA7BBA7AE01FD
:10505000485D5F4FBE016C5D7F4FCE0180960E9420
:105060009192A396ECACFDAC0EAD1FADA39726E1DB
:1050700034E1AE01485D5F4FBE016C5D7F4FCE01F4
:1050800080960E9464850E9420600E94B5D80C948E
:10509000723DE3E6FBE184918F010F5F1F4F882390
:1050A00021F00E94C0D8F801F6CFE6E0F2E084914A
:1050B0008F010F5F1F4F882311F40C94723D0E94E3
:1050C000C0D8F801F4CF80E50E94D260882329F08F
:1050D0000E9496616B017C0103C0C12CD12C76012A
:1050E00083E50E94D260882321F00E9469626B01EF
:1050F0007C010E94D74B0E94B5D88091F514909105
:10510000F614A091F714B091F814C80ED91EEA1E37
:10511000FB1E80912302811105C060E08CE192E0CA
:105120000E9456EC0E943844DC01CB018C199D0989
:10513000AE09BF09B7FD02C00C94723D80E00E9429
:10514000C7ECF0CF0E94D74B0E94915E0E94D85EC0
:1051500011E01093BC0288E50E94D260A82E89E578
:105160000E94D260082F8AE50E94D260982EA1107A
:1051700004C0011104C0182705C0011102C010E0CD
:1051800001C0182F1093040280E1E8E2FFE0AAE0DA
:10519000B4E101900D928A95E1F7111105C0A110BB
:1051A00003C0002309F4C8C020E030E0A9016091E9
:1051B000500F7091510F8091520F9091530F0F9497
:1051C00076082091440F3091450F4091460F509141
:1051D000470F0F9476086093121470931314809302
:1051E000141490931514111106C0AA2009F4A4C038
:1051F000002309F4A1C010922C0F10922D0F1092D1
:105200002E0F10922F0F1092280F1092290F10922C
:105210002A0F10922B0F0E949165ECEFF5E3149189
:1052200080EF95E30E94BED72B013C0184EF95E30C
:105230000E94BED76B017C019B01AC01C301B2018E
:105240000F94BE0A18162CF4A3019201C701B601EF
:1052500004C0A7019601C301B2010F9462099B012A
:10526000AC010F94DD1020E030E040E85FE30F94E4
:1052700076080F94070B20E030E048E452E40F94E6
:10528000DD106BAF7CAF8DAF9EAFEDEFF5E3B4906B
:1052900020E030E040EC5FE3C701B6010F94DD1081
:1052A0006B017C016B2DBB0C770B880B990B0F945A
:1052B0007E109B01AC01C701B6010F94DD1069831C
:1052C0007A838B839C8320E030E040EC5FE3C30172
:1052D000B2010F94DD106B017C01612F110F770B70
:1052E000880B990B0F947E109B01AC01C701B6018E
:1052F0000F94DD1068A379A38AA39BA39E01255C6C
:105300003F4F40E35FE0BE016F5F7F4FCE0180966D
:105310000E94F85E1092951110922C0F10922D0F92
:1053200010922E0F10922F0F1092280F1092290F0B
:1053300010922A0F10922B0F80910402811102C04B
:10534000AA2021F080E090E00E9432DE80910402E9
:10535000811102C0002321F081E090E00E9432DE42
:1053600080910402811103C0992009F4D3C0809177
:105370007111882321F08091721181111EC060E0AB
:1053800089E592E00E9456ECE1EEF4E184918F0110
:105390000F5F1F4F882321F00E94C0D8F801F6CF7D
:1053A000E8E4F2E084918F010F5F1F4F882309F436
:1053B000B1C00E94C0D8F801F5CF0E94916520E0ED
:1053C00030E04CE052E46091480F7091490F8091B9
:1053D0004A0F90914B0F0F94760820913C0F30911B
:1053E0003D0F40913E0F50913F0F0F9476084B01B7
:1053F0005C0160930A1470930B1480930C149093C7
:105400000D1420E030E04CE552E460914C0F7091B7
:105410004D0F80914E0F90914F0F0F947608209171
:10542000400F3091410F4091420F5091430F0F9424
:1054300076086B017C0160930E1470930F148093B7
:105440001014909311148091300F9091310FA0910E
:10545000320FB091330F8093121490931314A093D2
:105460001414B09315148AE094E10E945EA8882376
:10547000A1F120E030E04CE052E4C501B4010F940A
:10548000750860930A1470930B1480930C14909316
:105490000D1420E030E040E751E4C701B6010F945D
:1054A000760860930E1470930F14809310149093E9
:1054B000111419821A821B821C829E012F5F3F4F9A
:1054C00040E35FE06EE074E18AE094E10E94F85E00
:1054D00082E090E00E9432DE1DC060E087E392E04F
:1054E0000E9456ECE1EEF4E184918F010F5F1F4FB3
:1054F000882321F00E94C0D8F801F6CFE5E2F2E05F
:1055000084918F010F5F1F4F882321F00E94C0D824
:10551000F801F6CF0E949165809163118093BC02DF
:105520000E94BE5E0E94CBB80C94723D0E940A5944
:105530000C94723D88E50E94D260882319F00E9485
:10554000A1610EC020E030E04CE052E46091280FF1
:105550007091290F80912A0F90912B0F0F9476084C
:105560006BAF7CAF8DAF9EAF89E50E94D260882380
:1055700019F00E94A1610EC020E030E040E751E444
:1055800060912C0F70912D0F80912E0F90912F0F05
:105590000F94750868A379A38AA39BA30BAD1CADD8
:1055A0002DAD3EAD09831A832B833C836D837E83AF
:1055B0008F83988720E030E0A9016091500F7091AF
:1055C000510F8091520F9091530F0F9476082091B4
:1055D000440F3091450F4091460F5091470F0F9463
:1055E000760869877A878B879C87CE0101960E940F
:1055F0005EA8882311F40C94723D83E50E94D2606A
:10560000882321F00E945161182F01C011E0809180
:10561000B10E882331F01092B10E82E090E00E942A
:10562000F9F20E94D85E21E030E0412FBE01605EB9
:105630007F4FCE01CB960E9475666B017C01E3E73C
:10564000F2E084918F010F5F1F4F882321F00E94A9
:10565000C0D8F801F6CF27E137EB41ED58E36BAD49
:105660007CAD8DAD9EAD0F94760842E00E949FD92F
:10567000EEE6F2E084918F010F5F1F4F882321F047
:105680000E94C0D8F801F6CF27E137EB41ED58E38F
:1056900068A179A18AA19BA10F94760842E00E949B
:1056A0009FD9E9E6F2E084918F010F5F1F4F8823B5
:1056B00021F00E94C0D8F801F6CF27E137EB41ED89
:1056C00058E3C701B6010F94760842E00E949FD9C3
:1056D0008AE00E94C0D80E94BE5E0E94CBB80C94A3
:1056E000723D109292040C94723D81E0809392047A
:1056F0000C94733D85E40E94D260B82E811102C0E3
:105700000E94D74BFBE28F2EF3E09F2EA8E2CA2E19
:10571000AFE0DA2EBCE3EB2EBFE0FB2E00E010E0A2
:10572000A12CF40181914F010E94D260882309F4D9
:105730004CC0D6012D913D914D915C91C457DF4FE6
:105740002883CC58D040C357DF4F3883CD58D04042
:10575000C257DF4F4883CE58D040C157DF4F5883E0
:10576000CF58D0400E94A161F6016083718382838B
:105770009383C457DF4F2881CC58D040C357DF4FA5
:105780003881CD58D040C257DF4F4881CE58D040E5
:10579000C157DF4F5881CF58D04003301105A9F0D1
:1057A0000F9475089B01AC01D7016D917D918D918E
:1057B0009C910F947608F7016083718382839383B1
:1057C000C8010E948560AA24A3940F5F1F4FF4E0D4
:1057D000CF0ED11C24E0E20EF11C0430110509F0BB
:1057E000A0CFAA2019F00E94916503C0B1100E94B9
:1057F0004DA90E94CBB80C94723D32E7E316F10438
:1058000011F40C94623508F0E4C05BE4E516F10491
:1058100009F490C408F070C0B8E1EB16F10409F483
:105820005EC2B0F5F2E1EF16F10411F40C944B35C1
:1058300078F432E0E316F10408F400C241E1E41622
:10584000F10411F00C94723D0E946E580C94723D5C
:1058500055E1E516F10409F438C248F4B4E1EB1659
:10586000F10411F00C94723DEAE8F2E0EBC1E6E1DC
:10587000EE16F10409F42DC2F7E1EF16F10411F070
:105880000C94723D40E061E00E9435A30C94723D9F
:105890002EE1E216F10409F47BC2C0F44AE1E416F9
:1058A000F10409F42BC208F425C2ABE1EA16F104B5
:1058B00009F432C2BCE1EB16F10411F00C94723D14
:1058C00040E060E00E9435A30C94723DE0E2EE16E9
:1058D000F10409F46AC308F4B7C32AE2E216F1043A
:1058E00009F4E0C330E3E316F10411F00C94723DC7
:1058F0000E94F3520C94723D48E6E416F10409F458
:105900004FC4B0F582E5E816F10411F40C94423569
:10591000B0F4ADE4EA16F10409F42AC408F40EC4A4
:10592000EEE4EE16F10409F427C4F1E5EF16F104F4
:1059300011F00C94723D0E94F1BB0C94723D24E571
:10594000E216F10411F40C944B3510F40C94463526
:1059500045E5E416F10411F40C944F355CE5E516C9
:10596000F10411F00C94723D0E9409BB0C94723D3D
:105970008DE6E816F10409F440C5C0F4AAE6EA167B
:10598000F10411F40C94183508F41AC5EBE6EE1680
:10599000F10411F40C943E35FCE6EF16F10411F01D
:1059A0000C94723D10929F020C94723D2FE6E21609
:1059B000F10409F44CC408F437C440E7E416F104D8
:1059C00009F4B1C451E7E516F10409F4B4C40C9428
:1059D000723DADE2EA16A1E0FA0611F40C946A36C3
:1059E00008F098C0E9ECEE16F10411F40C943A3684
:1059F00008F046C029E7E216F10411F40C94793559
:105A000020F545E7E416F10411F40C94723550F4D6
:105A100083E7E816F10411F00C94723DE5E1F4E03F
:105A20000C94663597E7E916F10411F40C94763579
:105A3000A8E7EA16F10411F00C94723D81E080931E
:105A4000BC02809363110C94733DB1E9EB16F10431
:105A500011F40C947E3538F4FCE8EF16F10409F4E7
:105A600096C40C94723D2EEBE216F10409F46AC65A
:105A700038ECE316F10411F40C94F1350C94723DFA
:105A800043EDE416F10411F40C94613608F58CEC46
:105A9000E816F10411F40C945B3650F4ABECEA1602
:105AA000F10411F00C94723D0E94A9B80C94723D5F
:105AB000BDECEB16F10411F40C945E36EEECEE1630
:105AC000F10411F00C94723D0E94B1BA0C94723D35
:105AD000FDEDEF16F10411F40C94643650F43CED36
